:100000000C945E000C9401040C942E040C94860055
:100010000C9486000C9486000C9486000C94790352
:100020000C9486000C9486000C9486000C94860038
:100030000C9486000C9486000C9486000C94860028
:100040000C945B040C9486000C941A030C944D03DE
:100050000C9486000C9486000C9486000C94860008
:100060000C9486000C9486000000000024002700F9
:100070002A0000000008000201000003040700003D
:10008000000000000000010204081020408001026E
:1000900004081020010204081020000000002500C0
:1000A00028002B00040404040404040402020202D5
:1000B00002020303030303030200A90411241FBE69
:1000C000CFEFD8E0DEBFCDBF11E0A0E0B1E0ECEDB6
:1000D000FEE002C005900D92A632B107D9F721E0EB
:1000E000A6E2B1E001C01D92A33EB207E1F710E025
:1000F000CEE5D0E004C02197FE010E945E07CD3519
:10010000D107C9F70E94D4040C946C070C9400002A
:10011000CF93DF93CDB7DEB78091E1019091E201FB
:1001200001969093E2018093E101DF91CF910895D0
:10013000CF93DF93CDB7DEB7FC01A48DA80FB92F05
:10014000B11DA35ABF4F2C91848D01968F73848F5C
:10015000A689B7892C93A089B1898C91837080641A
:100160008C93938D848D981306C00288F389E02DBB
:1001700080818F7D8083DF91CF910895CF93DF932E
:10018000CDB7DEB7FC01918D228D892F90E0805C88
:100190009F4F821B90408F7390E0DF91CF91089525
:1001A000CF93DF93CDB7DEB784E491E00E94BE0029
:1001B0009C0181E0232B09F480E0DF91CF91089529
:1001C000CF93DF93CDB7DEB780E090E0892B41F08D
:1001D0000E94D000803021F0DF91CF910C9400007C
:1001E000DF91CF910895CF93DF93CDB7DEB7FC01B8
:1001F000918D828D981741F0828DE80FF11D858DCC
:1002000090E0DF91CF9108958FEF9FEFFACFCF93DA
:10021000DF93CDB7DEB7FC01918D828D981771F019
:10022000A28DAE0FBF2FB11D5D968C91928D9F5FF9
:100230009F73928F90E0DF91CF9108958FEF9FEFA2
:10024000FACFCF93DF93CDB7DEB7FC01238D348D8A
:10025000832F90E0821B9040231720F0CF96DF91F0
:10026000CF9108950197FBCF0F931F93CF93DF9307
:10027000CDB7DEB78C01DC0158968C91811116C088
:10028000DF91CF911F910F9108950FB607FC12C017
:10029000808185FF0FC0D80150968D919D91DC0122
:1002A0008C9185FF07C0C8010E949800D801529622
:1002B000ED91FD91808185FDE8CFD80150968D911B
:1002C0009D91DC018C9186FFE0CFDACFCF92DF9257
:1002D000EF92FF920F931F93CF93DF93CDB7DEB7CB
:1002E0008C01D62E81E0D80158968C9313969D915F
:1002F0008C915C97981320C05096ED91FD91529788
:10030000808185FF19C09FB7F8945696ED91FD91B5
:1003100060831897ED91FD91808183708064808364
:100320009FBF81E090E0DF91CF911F910F91FF90EF
:10033000EF90DF90CF900895F801E38CFFEFEF1A74
:10034000FF0A8FE3E822CE2CF801848D8C1591F002
:10035000E38DE00FF12FF11DE35AFF4FD0829FB7DD
:10036000F894D8015B96EC921997ED91FD918081FC
:100370008062D5CF0FB607FCE7CFD8015096ED913C
:10038000FD91808185FFE0CFC8010E949800DCCFFD
:10039000EF92FF920F931F93CF93DF9300D000D083
:1003A000CDB7DEB789839A834B835C838B01E12CC5
:1003B000F12C8B819C81E816F90661F4C7010F903E
:1003C0000F900F900F90DF91CF911F910F91FF90A1
:1003D000EF900895A981BA81ED91FD910190F0818E
:1003E000E02DD8016C9189819A810995892B31F38F
:1003F0000F5F1F4FBFEFEB1AFB0ADBCFCF93DF93EB
:10040000CDB7DEB7DF91CF910895CF93DF93CDB70E
:10041000DEB73FB7F8948091260190912701A09113
:100420002801B091290126B5A89B04C02F3F11F0E7
:100430000196A11D3FBF782F892F9A2F622F42E08E
:10044000660F771F881F991F4A95D1F7DF91CF91CB
:100450000895CF93DF93CDB7DEB790E0FC01EA5764
:10046000FF4F24918C559F4FFC0184918030D9F02F
:1004700090E0880F991FFC01E859FF4FA591B591B5
:10048000FC01E656FF4F459155919FB7623071F4DC
:10049000F8943C91822F809583238C93FA0180817C
:1004A000822B80839FBFDF91CF910895F8948C9128
:1004B000822B8C93F7CFCF93DF93CDB7DEB790E04D
:1004C000FC01EE58FF4F2491FC01EA57FF4F349195
:1004D000FC01EC55FF4FE491E03019F1203089F038
:1004E000243011F150F4223039F1233009F5809194
:1004F00080008F778093800004C0273001F128307E
:1005000021F1F0E0EE0FFF1FE656FF4FA591B591E8
:100510009FB7F8948C9161111CC0309538233C939F
:100520009FBFDF91CF910895809180008F7DE2CFB2
:1005300084B58F7784BDE5CF84B58F7DFBCF809167
:10054000B0008F778093B000DCCF8091B0008F7DBA
:10055000F9CF832B8C93E4CFCF93DF93CDB7DEB766
:10056000009779F0FC0101900020E9F73197AF0185
:10057000481B590BBC0184E491E0DF91CF910C94AE
:10058000C801DF91CF9108958F929F92AF92BF9251
:10059000CF92DF92EF92FF920F931F93CF93DF934F
:1005A000CDB7DEB7A1970FB6F894DEBF0FBECDBFB3
:1005B000B62EA72E982E892E19A2423008F44AE0B2
:1005C0008E010F5D1F4FC42ED12CE12CF12C6B2D11
:1005D0007A2D892D982D9601A7010E943C078B2D1D
:1005E0009A2DA92DB82DB22EA32E942E852E6A30C9
:1005F000FCF4605DF80162938F018C159D05AE05DA
:10060000BF0528F7CF010E94AC02A1960FB6F8945F
:10061000DEBF0FBECDBFDF91CF911F910F91FF9035
:10062000EF90DF90CF90BF90AF909F908F90089504
:10063000695CE0CF2F932FB72F938F939F93EF9306
:10064000FF93CF93DF93CDB7DEB7E0915401F091E4
:1006500055018081E0915A01F0915B0182FD1BC040
:10066000908180915D018F5F8F7320915E01821771
:1006700041F0E0915D01F0E0EC5BFE4F958F8093DF
:100680005D01DF91CF91FF91EF919F918F912F911C
:100690002FBF2F9118958081F4CF1F920F920FB624
:1006A0000F9211242F933F934F935F936F937F93F8
:1006B0008F939F93AF93BF93EF93FF93CF93DF936A
:1006C000CDB7DEB784E491E00E949800DF91CF912E
:1006D000FF91EF91BF91AF919F918F917F916F911A
:1006E0005F914F913F912F910F900FBE0F901F90F0
:1006F00018951F920F920FB60F9211242F933F93CC
:100700004F935F936F937F938F939F93AF93BF9319
:10071000EF93FF93CF93DF93CDB7DEB78091400186
:1007200090914101A0914201B0914301892B8A2B04
:100730008B2BE1F190913F01E0913D01F0913E0161
:100740008081892780838091400190914101A0910F
:100750004201B0914301181619061A061B069CF4B3
:100760008091400190914101A0914201B0914301DB
:100770000197A040B0408093400190934101A09325
:100780004201B0934301DF91CF91FF91EF91BF916F
:10079000AF919F918F917F916F915F914F913F9119
:1007A0002F910F900FBE0F901F901895809104010C
:1007B000E8EBF0E0E4919FEF90930401E13051F019
:1007C000E23071F0E11102C010926E0060E00E9410
:1007D0005B02D9CF90916F009D7F90936F00F6CF11
:1007E000909170009D7F9093700091E09093B00085
:1007F0009091B100987F94609093B1001092B300F3
:10080000E5CF1F920F920FB60F9211242F933F93B3
:100810004F935F936F937F938F939F93AF93BF9308
:10082000EF93FF93CF93DF93CDB7DEB7E091000155
:10083000F09101010995DF91CF91FF91EF91BF9167
:10084000AF919F918F917F916F915F914F913F9168
:100850002F910F900FBE0F901F9018951F920F921F
:100860000FB60F9211242F933F934F935F936F9383
:100870007F938F939F93AF93BF93EF93FF93CF9308
:10088000DF93CDB7DEB7E0910201F0910301099546
:10089000DF91CF91FF91EF91BF91AF919F918F9198
:1008A0007F916F915F914F913F912F910F900FBE6C
:1008B0000F901F9018951F921FB61F9211242F930F
:1008C0003F938F939F93AF93BF93CF93DF93CDB716
:1008D000DEB78091350190913601A0913701B0913A
:1008E000380130912A0123E0230F2D3760F501965E
:1008F000A11DB11D20932A018093350190933601EB
:10090000A0933701B093380180912601909127017F
:10091000A0912801B09129010196A11DB11D8093DC
:10092000260190932701A0932801B0932901DF911C
:10093000CF91BF91AF919F918F913F912F911F9038
:100940001FBE1F90189526E8230F0296A11DB11D0A
:10095000D1CFCF93DF93CDB7DEB7E4E4F1E01282DD
:10096000138288EE93E0848395831682178289E050
:1009700091E08083918385EC8487158684EC86875B
:10098000178680EC808B118A81EC828B138A82EC33
:10099000848B158A86EC868B178A118E128E138EA5
:1009A000148EDF91CF91089500D000D0CDB7DEB77F
:1009B000789484B5826084BD84B5816084BD85B53A
:1009C000826085BD85B5816085BD80916E00816046
:1009D00080936E00109281008091810082608093EC
:1009E00081008091810081608093810080918000EE
:1009F0008160809380008091B10084608093B10019
:100A00008091B00081608093B00080917A00846012
:100A100080937A0080917A00826080937A0080913E
:100A20007A00816080937A0080917A008068809358
:100A30007A001092C100E0915401F091550182E0DA
:100A40008083E0915001F09151011082E0915201B8
:100A5000F091530180E1808310925C01E091580194
:100A6000F091590186E08083E0915601F0915701A1
:100A7000808180618083E0915601F09157018081EF
:100A800088608083E0915601F091570180818068F1
:100A90008083E0915601F091570180818F7D8083A2
:100AA00061E089E00E94290261E089E00E94290258
:100AB000EBE7F0E0E491E43009F467C068F4E23079
:100AC00009F451C0E33009F454C0E13099F060E01A
:100AD00089E00E945B0213C0E73009F462C0E8308D
:100AE000B1F78091B00080628093B00080E4809381
:100AF000B40005C084B5806884BD80E487BD809162
:100B00000401883009F056C0E8EBF0E0149117FFBB
:100B10007CC062E082E00E94290288E890E0909325
:100B2000010180930001809169008C7F8260809335
:100B30006900E89A0E94050269837A838B839C830B
:100B40000E940502B62FA72FF82FE92F40E05AE0A8
:100B500020E030E08B2E9A2EAF2EBE2EC52ED42E46
:100B6000E32EF22EF2C084B5806284BD80E488BD9D
:100B7000C6CF8091800080688093800080E490E000
:100B80009093890080938800BACF80918000806222
:100B90008093800080E490E090938B0080938A00A3
:100BA000AECF8091B00080688093B00080E48093E5
:100BB000B300A5CF8F3F09F0ACCF88E0809304014C
:100BC000E8EBF0E014911F3F09F4A3CF113009F4D2
:100BD00040C0123009F45BC0111199CF14BC15BC90
:100BE00084B5826084BD85B5816085BDECEAF0E0A6
:100BF000E491F0E0EE0FFF1FE656FF4F85919591CF
:100C0000EEE8F0E0E491E0932C0161E088E00E94DE
:100C10002902103009F45DC0123009F071C08091D2
:100C2000B100887F83608093B10089EF8093B30027
:100C3000AFEFBFEFCD018093400190934101A093AE
:100C40004201B093430180917000826080937000F4
:100C500060CF1092800010928100809181008860A6
:100C60008093810080918100816080938100ECEA13
:100C7000F0E0E491F0E0EE0FFF1FE656FF4F8591A4
:100C80009591EEE8F0E0E491E0932B01BECF109255
:100C9000B0001092B1008091B00082608093B000EB
:100CA0008091B10081608093B100ECEAF0E0E491C2
:100CB000F0E0EE0FFF1FE656FF4F85919591809370
:100CC0003D0190933E01EEE8F0E0E491E0933F01B6
:100CD0009CCF85B5887F836085BD8CE787BDAFEFEE
:100CE000BFEFCD018093310190933201A093330186
:100CF000B093340180916E00826080936E0009CFC2
:100D0000113009F006CF80918100887F8160809347
:100D100081008FE39FE19093890080938800AFEF7B
:100D2000BFEFCD0180932D0190932E01A0932F0151
:100D3000B093300180916F00826080936F00E9CEA4
:100D4000C114DC04EC04FC04F9F00E9405026819EB
:100D500079098A099B095C2D4D2D3E2D2F2D11E01F
:100D6000C11AD108E108F108B82DA92DFA2DEB2DF3
:100D700018EE810E13E0911EA11CB11C683E734059
:100D800080409040E8F6E6CE87E191E00E94AC0218
:100D90000E94050229813A814B815C81621B730BA1
:100DA000840B950B4AE00E94C4028BE191E00E9403
:100DB000AC0280E0E82E80E0F82E84E491E00E940E
:100DC000BE00892B09F04CC02FB7F89480913501F3
:100DD00090913601A0913701B09138012FBF409119
:100DE000390150913A0160913B0170913C01841BA3
:100DF000950BA60BB70B84369040A040B04020F175
:100E00002FB7F8948091350190913601A091370168
:100E1000B09138012FBF8093390190933A01A0938C
:100E20003B01B0933C018EE191E00E94AC026091E5
:100E3000E1017091E20180E090E04AE00E94C4028A
:100E40008BE191E00E94AC02E114FE0409F4B5CFFD
:100E50000E94D000803009F4B0CF0E940000ADCFD6
:100E600084E491E00E9407010E946407682F84E4F3
:100E700091E00E946601A1CFA1E21A2EAA1BBB1B22
:100E8000FD010DC0AA1FBB1FEE1FFF1FA217B30756
:100E9000E407F50720F0A21BB30BE40BF50B661F6C
:100EA000771F881F991F1A9469F760957095809530
:100EB00090959B01AC01BD01CF010895EE0FFF1F7E
:100EC0000590F491E02D09949111089581568A516D
:0C0ED00008F4805285580895F894FFCF74
:100EDC00FE01FE01FF000000006601C80121013483
:100EEC0001BE000701F30075733D000D0A00666139
:060EFC006C6C733D000068
:00000001FF
