:100000000C9458000C9480000C9480000C94800098
:100010000C9480000C9480000C9480000C94800060
:100020000C9480000C9480000C9480000C94800050
:100030000C9480000C9480000C9480000C94800040
:100040000C946F050C9480000C9480000C9480003C
:100050000C9480000C9480000C9480000C94800020
:100060000C944B040C948000000000002500280034
:100070002B00040404040404040402020202020229
:10008000030303030303010204081020408001025C
:1000900004081020010204081020000000080002DB
:1000A0000100000304070000000000000000D20669
:1000B00011241FBECFEFD8E0DEBFCDBF11E0A0E01E
:1000C000B1E0E4E1FEE002C005900D92A033B1077B
:1000D000D9F722E0A0E3B1E001C01D92AB30B20736
:1000E000E1F710E0C8E5D0E004C02197FE010E94CE
:1000F0000207C735D107C9F70E94BD050C94080750
:100100000C940000CF93DF93CDB7DEB780E090E092
:10011000DF91CF910895CF93DF93CDB7DEB7809174
:10012000E7019091E601891B990BDF91CF9108952A
:10013000CF93DF93CDB7DEB79091E6018091E701D1
:100140002FEF3FEF981748F4E92FF0E0EA53FE4F06
:10015000208130E09F5F9093E601C901DF91CF914C
:100160000895CF93DF93CDB7DEB7E091E60180919C
:10017000E701E81740F4F0E0EA53FE4F808190E099
:10018000DF91CF9108958FEF9FEFFACFCF93DF9359
:10019000CDB7DEB7DF91CF910895CF93DF93CDB781
:1001A000DEB7DF91CF910895CF93DF93CDB7DEB760
:1001B000DF91CF910895CF93DF93CDB7DEB7209134
:1001C000C201260F3327331F21323040FCF4209127
:1001D000C501FC0180E090E0243069F082E013C0AA
:1001E000A091C2012191AC014E555E4FA40FB52FD5
:1001F000B11D2C930196861798F38091C201680F68
:100200006093C20180E0DF91CF91089581E0FBCF40
:10021000CF93DF930F92CDB7DEB7698320910A02A7
:100220002030F1F020910902203250F021E0FC0151
:100230002283138280E090E00F90DF91CF910895A8
:1002400080910802E82FF0E0E851FE4F99819083F9
:100250008F5F809308028093090281E090E0ECCFE9
:1002600061E0CE0101960E94DB00F7CFCF92DF92D2
:10027000EF92FF920F931F93CF93DF9300D0CDB7F0
:10028000DEB789839A83CB017A0120910A0220305C
:1002900009F18B016B01C40ED51E0C151D0561F40F
:1002A000C7010F900F90DF91CF911F910F91FF9099
:1002B000EF90DF90CF900895D8016D918D01A981C5
:1002C000BA81ED91FD9112970190F081E02DCD0161
:1002D0000995E3CF642F0E94DB00E2CFCF93DF9339
:1002E000CDB7DEB7DF91CF910895EF92FF920F93D4
:1002F0001F93CF93DF9300D000D0CDB7DEB78983B3
:100300009A834B835C838B01E12CF12C8B819C8144
:10031000E816F90661F4C7010F900F900F900F9047
:10032000DF91CF911F910F91FF90EF900895A981D8
:10033000BA81ED91FD910190F081E02DD8016C9191
:1003400089819A810995892B31F30F5F1F4FBFEF88
:10035000EB1AFB0ADBCFCF93DF93CDB7DEB73FB706
:10036000F8948091300190913101A0913201B091C7
:10037000330126B5A89B04C02F3F11F00196A11DA3
:100380003FBF782F892F9A2F622F42E0660F771F89
:10039000881F991F4A95D1F7DF91CF9108956F92E9
:1003A0007F928F929F92AF92BF92CF92DF92EF9205
:1003B000FF920F931F93CF93DF93CDB7DEB73B012F
:1003C0008C010E94AB01562F472F382F292F852EE5
:1003D000942EA32EB22E6301780105C0C114DC0453
:1003E000EC04FC04E9F00E94AB01681979098A0960
:1003F0009B093601870121E0C21AD108E108F10802
:10040000582D492D3A2D2B2DE8EE8E0EE3E09E1E41
:10041000A11CB11C683E734080409040F8F6D7CFD5
:10042000DF91CF911F910F91FF90EF90DF90CF90D0
:10043000BF90AF909F908F907F906F900895CF93D3
:10044000DF93CDB7DEB790E0FC01E656FF4F249175
:10045000FC01EA57FF4F3491FC01EE58FF4FE49145
:10046000E03019F1203089F0243011F150F42230BD
:1004700039F1233009F5809180008F7780938000D7
:1004800004C0273001F1283021F1F0E0EE0FFF1F0A
:10049000E859FF4FA591B5919FB7F8948C916111E0
:1004A0001CC0309538233C939FBFDF91CF910895B6
:1004B000809180008F7DE2CF84B58F7784BDE5CFBA
:1004C00084B58F7DFBCF8091B0008F778093B00093
:1004D000DCCF8091B0008F7DF9CF832B8C93E4CF5C
:1004E000CF93DF93CDB7DEB71092C50181E0809343
:1004F000C4011092C30161E082E10E941F0261E029
:1005000083E10E941F02E9EBF0E080818E7F80830F
:1005100080818D7F808388E48093B80085E4809318
:10052000BC00DF91CF9108950F931F93CF93DF937A
:10053000CDB7DEB791E090939C018030B9F0109177
:10054000B8000091BA008091BC008A7B8093BC0007
:1005500060E082E10E941F0260E083E10E941F02CE
:100560000E9470020093BA001093B800DF91CF91FF
:100570001F910F910895CF92DF92EF92FF920F9308
:100580001F93CF93DF9300D000D0CDB7DEB7FC012F
:10059000148121E020930A02109345011092080271
:1005A000109209028385682B86E491E00E9408017D
:1005B00000910902013208F0A4C00E94AB016983D6
:1005C0007A838B839C838091C501811171C082E005
:1005D0008093C50181E08093C4018FEF80937801FF
:1005E00010929A010093990128EE31E0A9E7B1E059
:1005F000F9018E2F821B801708F496C010929B0180
:1006000080919B01110F182B10939B018091C301C6
:10061000813009F08CC01092C3010E94AB01698344
:100620007A838B839C8380919B018093BB00809114
:100630009E0190919F01A091A001B091A101892BF1
:100640008A2B8B2BC1F00E94AB0100919E0110916F
:100650009F012091A0013091A101C980DA80EB8037
:10066000FC806C197D098E099F090617170728075A
:10067000390708F442C08091BC0083FDD4CF85ECDB
:100680008093BC000E94AB0169837A838B839C8337
:100690008091C501823009F44CC0809178018F3F70
:1006A00081F180917801803261F18091780129C0D7
:1006B00080919E0190919F01A091A001B091A10114
:1006C000892B8A2B8B2B09F47ECF0E94AB012091C2
:1006D0009E0130919F014091A0015091A101C980DC
:1006E000DA80EB80FC806C197D098E099F09261742
:1006F00037074807590708F066CF80919D010E948F
:100700009402109208021092090210920A020F90AD
:100710000F900F900F90DF91CF911F910F91FF904D
:10072000EF90DF90CF90089581918D9362CF85EE09
:10073000A7CF80919E0190919F01A091A001B091BF
:10074000A101892B8A2B8B2B09F4A2CF0E94AB012C
:1007500000919E0110919F012091A0013091A10173
:10076000C980DA80EB80FC806C197D098E099F09B5
:10077000061717072807390708F08ACFBECF0F934F
:100780001F93CF93DF930F92CDB7DEB78C016983B0
:100790000E94BB0269816460C8010E94BB0269813A
:1007A0006B7FC8010E94BB0283EC90E00197F1F7D8
:1007B0000F90DF91CF911F910F9108950F931F9389
:1007C000CF93DF9300D0CDB7DEB789839A83162FFE
:1007D000042F862F807F682F642B89819A810E9445
:1007E000BF03612F6295607F602B89819A810F9092
:1007F0000F90DF91CF911F910F910C94BF03CF9376
:10080000DF93CDB7DEB741E00E94DE0381E090E0E8
:10081000DF91CF910895CF93DF93CDB7DEB785ED0C
:100820008093BC0080919E0190919F01A091A001B6
:10083000B091A1010796A11DB11D23E0B695A79522
:10084000979587952A95D1F72091BC0024FD05C086
:100850001092C501DF91CF91089540919E01509172
:100860009F016091A0017091A101452B462B472B60
:1008700059F310979040804041F02AE22A95F1F711
:1008800000C00197A040B040DFCF80919D01DF9173
:10089000CF910C9494021F920F920FB60F921124D5
:1008A0002F933F934F935F936F937F938F939F9378
:1008B000AF93BF93EF93FF93CF93DF93CDB7DEB7A3
:1008C0009091B900892F887F803509F4C3C008F062
:1008D00044C0803309F4B9C0A8F5883111F1E0F4BF
:1008E000883009F4AAC0803109F4A7C0803009F427
:1008F000F3C0DF91CF91FF91EF91BF91AF919F91A5
:100900008F917F916F915F914F913F912F910F90B8
:100910000FBE0F901F901895803209F496C0883250
:1009200041F790919A0180919901981780F5E09193
:100930009A0181E08E0F80939A01F0E0E758FE4F14
:1009400080817DC0803409F491C0883409F47FC06F
:10095000883379F6809378016EC0803A09F4A0C09C
:10096000C0F5803809F48AC058F5803619F1E0F4F2
:10097000883509F0BECFE0919A0181E08E0F809317
:100980009A018091BB00F0E0E758FE4F8083809190
:10099000C40181115CC081E08093C30184EA80932B
:1009A000BC001092C501A5CF803721F0987E983603
:1009B00009F09FCF83E08093C5011092770141C079
:1009C000803909F45BC0987E983809F092CF85E8A9
:1009D00039C0883BD9F058F5883A19F0803B09F0C6
:1009E00088CF84E08093C501109254011092C20117
:1009F000E0915201F091530109958091C20181115A
:100A000005C081E08093C2011092A201E0915401DF
:100A100081E08E0F80935401F0E0EE55FE4F80810F
:100A20008093BB00909154018091C20123C0907FBC
:100A3000903C09F05ECF85ECB2CF80919B01809312
:100A4000BB0085EC8093BC0054CF809378010E945A
:100A50000B044FCFE0919A0181E08E0F80939A01B1
:100A60008091BB00F0E0E758FE4F808390919A019F
:100A700080919901981708F0AACFE3CF8091770170
:100A8000803208F0A4CFE091770181E08E0F80934F
:100A900077018091BB00F0E0E95AFE4F8083D1CF0F
:100AA00085EC8093BC001092C50180917701803263
:100AB00030F4E0917701F0E0E95AFE4F1082609146
:100AC000770170E0E0915501F091560187E591E0E2
:100AD0000995109277010DCF10927801B8CF1F922F
:100AE0001FB61F9211242F933F938F939F93AF9321
:100AF000BF93CF93DF93CDB7DEB78091350190914F
:100B00003601A0913701B09138013091340123E0D2
:100B1000230F2D3760F50196A11DB11D20933401DF
:100B20008093350190933601A0933701B09338013B
:100B30008091300190913101A0913201B091330147
:100B40000196A11DB11D8093300190933101A093B6
:100B50003201B0933301DF91CF91BF91AF919F915B
:100B60008F913F912F911F901FBE1F90189526E8DF
:100B7000230F0296A11DB11DD1CFCDB7DEB7A1972E
:100B80000FB6F894DEBF0FBECDBF789484B58260F7
:100B900084BD84B5816084BD85B5826085BD85B521
:100BA000816085BD80916E00816080936E0010929F
:100BB000810080918100826080938100809181001A
:100BC00081608093810080918000816080938000AB
:100BD0008091B10084608093B1008091B000816009
:100BE0008093B00080917A00846080937A00809135
:100BF0007A00826080937A0080917A00816080938D
:100C00007A0080917A00806880937A001092C10007
:100C10001092E6011092E701109208021092090268
:100C20000E94700284ED90E08093520190935301F2
:100C30008DEC90E0809355019093560110923E0107
:100C400080914301823018F098E090933E018093A8
:100C5000410162E370E080E090E00E94CF0160918A
:100C6000440189E391E00E94BB0268EE73E080E0FA
:100C700090E00E94CF0160E389E391E00E94BF030E
:100C80000BE416E4C8010197F1F760E389E391E012
:100C90000E94BF03C8010197F1F760E389E391E087
:100CA0000E94BF0383E592E00197F1F760E289E3D8
:100CB00091E00E94BF0360913E01606240E089E3E1
:100CC00091E00E94DE0384E080933F0140E06CE00D
:100CD00089E391E00E94DE0340E061E089E391E076
:100CE0000E94DE030BE31FE1C8010197F1F782E0E8
:100CF0008093400140E066E089E391E00E94DE03DA
:100D000040E062E089E391E00E94DE03C8010197C0
:100D1000F1F718E01093440160E089E391E00E944C
:100D2000BB0249E050E066E271E089E391E00E9495
:100D30007501E0E0F1E0DE01119601900D921A9547
:100D4000E1F780914101803041F181E0FE0131966F
:100D5000E80FF11DE80FF11D6081606840E089E354
:100D600091E00E94DE0319A282E388A384E38F8FBF
:100D7000BE01615E7F4FFB0101900020E9F73197D2
:100D8000AF01461B570B89E391E00E94750100E01B
:100D900010E00030100719F4FFCF8FEFD7CF0E947B
:100DA0000000F7CFCF93DF93CDB7DEB710924801A5
:100DB0001092490188EE93E080934A0190934B0191
:100DC00010924C0110924D018CE091E0809346010D
:100DD0009093470110923B0110923C018EE191E00B
:100DE0008093390190933A0187E280933D0180E13D
:100DF0008093420182E08093430110924401DF918D
:100E0000CF910895EE0FFF1F0590F491E02D099406
:040E1000F894FFCF84
:100E140000004000140054000000000008013601E6
:100E24008200C6008B009800B10000000000FF03A0
:100E3400750182006E0149324320776F726B730033
:00000001FF
