:100000000C9440050C9468050C9468050C946805E4
:100010000C9468050C9468050C9468050C946805AC
:100020000C9468050C9468050C9468050C9468059C
:100030000C9468050C9468050C9468050C9468058C
:100040000C94B5140C9468050C9468050C94680520
:100050000C9468050C9468050C9468050C9468056C
:100060000C9491130C946805000000080002010034
:100070000003040700000000000000000000000072
:10008000240027002A00DB40A4A62EAF2000A1C830
:10009000D300408DAED580A8010204081020408016
:1000A00001020408102001020408102000000000D2
:1000B000250028002B0004040404040404040202A4
:1000C00002020202030303030303000060000000B6
:1000D0000000000000000000000000E00000000040
:1000E00000000000000000000001E000000000002F
:1000F000000000000000000001F00000000000000F
:100100000000000000000003F000000000000000FC
:1001100000000000000007F00000000000000000E8
:10012000000000000007F8000000000000000000D0
:10013000000000000FF800000003C0007E00000176
:10014000E0007F0FF800000003C000FE000001E0A7
:1001500000FFEFF800000003C000FE000001E00017
:10016000FFFFF800000003C000F00000000F007F58
:10017000FE7FC0000003C000F00000000F003FFE43
:100180007FF83FF1FBCFFCFEF3BC3DEFE01FFE7FAD
:10019000FF7FFBFFDFFEFEFFBC3DEFE01FC6FFFF62
:1001A0007FFBFFDFFEFEFFBC3DEFE00FE3C7FE7805
:1001B0007BC3DE1EF0FFBC3DEF0007FF87FC787BB2
:1001C000C3DE1EF0F83C3DEF0001FFFFF0007BC3F3
:1001D000C01EF0F03C3DEF0001F37FE03FFBC3CFDA
:1001E000FEF0F03C3DEF0003E33F807FFBC3DFFE0A
:1001F000F0F03C3DEF0007E73C00787BC3DE1EF0EB
:10020000F03C3DEF0007FFBE00787BC3DE1EF0F040
:100210003C3DEF0007FFFE00787BC3DE1EF0F03CA4
:100220003DEF000FFFFE007FFBFFDFFEF0F03FFD24
:10023000EFE00FFFFF007FFBFFDFFEF0F03FFDEF81
:10024000E00FF9FF003E79F9CF9EF0F01F3DE7E0A7
:100250001FF1FF0000000000000000000000001F70
:1002600080FF007FFFFFFFFFFFFFFFFFFFE01C009D
:100270007F007FFFFFFFFEB46D888D18E000001F38
:10028000007FFFFFFFFE95AD7DB577E000000F001A
:100290007FFFFFFFFEA5AD9D8D19E0000006007FEA
:1002A000FFFFFFFEB5ADEDB57EE0000000000001F0
:1002B000800000000000000000000380000000003B
:1002C000000000000007C000000000000000000067
:1002D00007C00000000000000000000FC000000088
:1002E0000000000000001FE000000000000000000F
:1002F000001FE00000000000000000003FE00000E0
:10030000000000000000003FF000000000000000BE
:1003100000007FF0000000000000001FF87FF000E8
:100320000000000000003FFE7FF000000000000021
:10033000003FFF7FF0000000000000001FFFFBE017
:10034000000000000000000FFFF9FFC000000000E7
:1003500000000FFFF9FFF800000000000007FFF1A8
:10036000FFFF00000000000003FC73FFFF8000009F
:1003700000000001FE3FFFFF80000000000000FFC2
:100380001E0FFF000000000000007FFE1FFC0000A9
:1003900000000000003FFFFFF80000000000000028
:1003A0000FDFFFE0000000000000001F19FFC00089
:1003B0000000000000003F3CFF00000000000000C3
:1003C000007E7CF800000000000000007FFE7C0042
:1003D00000000000000000FFFFFC00000000000023
:1003E0000000FFFFFE0000000000000000FFFFFE15
:1003F0000000000000000001FFEFFE000000000010
:10040000000001FFCFFE0000000000000003FF0716
:10041000FE0000000000000003FC07FE00000000DA
:1004200000000003F003FE00000000000000018057
:1004300000FE000000000000000000007E00000040
:10044000000000000000003E00000000000000006E
:1004500000000C000000000000078000FC0000030A
:10046000C0000000078001FC000003C0000000077E
:100470008001FC000003C0000000078001E00000D4
:10048000001E000000078001E00000001E007FE366
:10049000F79FF9FDE7787BDFC0FFF7FFBFFDFDFFAA
:1004A000787BDFC0FFF7FFBFFDFDFF787BDFC0F08B
:1004B000F787BC3DE1FF787BDE00F0F787BC3DE1CC
:1004C000F0787BDE0000F787803DE1E0787BDE009E
:1004D0007FF7879FFDE1E0787BDE00FFF787BFFDB8
:1004E000E1E0787BDE00F0F787BC3DE1E0787BDE81
:1004F00000F0F787BC3DE1E0787BDE00F0F787BCD9
:100500003DE1E0787BDE00FFF7FFBFFDE1E07FFB30
:10051000DFC0FFF7FFBFFDE1E07FFBDFC07CF3F34F
:100520009F3DE1E03E7BCFC00000000000000000E6
:10053000000000FFFFFFFFFFFFFFFFFFFFC0FFFF07
:10054000FFFFFD68DB111A31C0FFFFFFFFFD2B5AD3
:10055000FB6AEFC0FFFFFFFFFD4B5B3B1A33C0FFA1
:10056000FFFFFFFD6B5BDB6AFDC02200FF21000186
:1005700003070F1F3F7F0080C0E0F0F8FCFE000083
:100580000000003E5B4F5B3E3E6B4F6B3E1C3E7C73
:100590003E1C183C7E3C181C577D571C1C5E7F5E21
:1005A0001C00183C1800FFE7C3E7FF0018241800E0
:1005B000FFE7DBE7FF30483A060E26297929264077
:1005C0007F050507407F05253F5A3CE73C5A7F3EA3
:1005D0001C1C08081C1C3E7F14227F22145F5F0035
:1005E0005F5F06097F017F006689956A60606060D1
:1005F0006094A2FFA29408047E040810207E2010BC
:1006000008082A1C08081C2A08081E101010100CC4
:100610001E0C1E0C30383E3830060E3E0E06000012
:1006200000000000005F00000007000700147F14B6
:100630007F14242A7F2A1223130864623649562025
:10064000500008070300001C2241000041221C004A
:100650002A1C7F1C2A08083E080800807030000809
:1006600008080808000060600020100804023E51DD
:1006700049453E00427F400072494949462141496F
:100680004D331814127F1027454545393C4A4949D6
:100690003141211109073649494936464949291E40
:1006A000000014000000403400000008142241142F
:1006B00014141414004122140802015909063E4181
:1006C0005D594E7C1211127C7F494949363E4141A9
:1006D00041227F4141413E7F494949417F09090902
:1006E000013E414151737F0808087F00417F41006E
:1006F0002040413F017F081422417F404040407F1D
:10070000021C027F7F0408107F3E4141413E7F0969
:100710000909063E4151215E7F09192946264949AA
:10072000493203017F01033F4040403F1F204020EA
:100730001F3F4038403F63140814630304780403E8
:100740006159494D43007F41414102040810200096
:100750004141417F04020102044040404040000307
:1007600007080020545478407F28444438384444D3
:100770004428384444287F385454541800087E09CB
:100780000218A4A49C787F0804047800447D4000EB
:100790002040403D007F1028440000417F40007C05
:1007A000047804787C080404783844444438FC18FD
:1007B00024241818242418FC7C08040408485454E1
:1007C000542404043F44243C4040207C1C2040200E
:1007D0001C3C4030403C44281028444C9090907C75
:1007E0004464544C44000836410000007700000087
:1007F0004136080002010204023C2623263C1EA1C9
:10080000A161123A4040207A385454555921555527
:1008100079412254547842215554784020545579D6
:10082000400C1E5272123955555559395454545969
:1008300039555454580000457C410002457D420022
:1008400001457C407D1211127DF0282528F07C5452
:100850005545002054547C547C0A097F493249494B
:1008600049323A4444443A324A4848303A414121B4
:100870007A3A42402078009DA0A07D3D4242423D10
:100880003D4040403D3C24FF2424487E4943662BA4
:100890002FFC2F2BFF0929F620C0887E0903205446
:1008A0005479410000447D413048484A3238404044
:1008B000227A007A0A0A727D0D19317D2629292FA4
:1008C00028262929292630484D40203808080808BC
:1008D00008080808382F10C8ACBA2F102834FA00BE
:1008E000007B000008142A142222142A1408550040
:1008F000550055AA55AA55AAFF55FF55FF000000FF
:10090000FF00101010FF00141414FF001010FF005F
:10091000FF1010F010F0141414FC001414F700FF72
:100920000000FF00FF1414F404FC141417101F102F
:10093000101F101F1414141F00101010F0000000DE
:10094000001F101010101F10101010F010000000E9
:10095000FF101010101010101010FF10000000FFFA
:10096000140000FF00FF00001F10170000FC04F43B
:1009700014141710171414F404F40000FF00F714F3
:10098000141414141414F700F7141414171410107A
:100990001F101F141414F4141010F010F000001F96
:1009A000101F0000001F14000000FC140000F010D5
:1009B000F01010FF10FF141414FF141010101F007B
:1009C000000000F010FFFFFFFFFFF0F0F0F0F0FF7D
:1009D000FFFF0000000000FFFF0F0F0F0F0F384454
:1009E000443844FC4A4A4A347E02020606027E0229
:1009F0007E0263554941633844443C04407E201ED6
:100A00002006027E020299A5E7A5991C2A492A1C04
:100A10004C7201724C304A4D4D303048784830BCF1
:100A2000625A463D3E494949007E0101017E2A2A1B
:100A30002A2A2A44445F444440514A444040444A9C
:100A400051400000FF0103E080FF000008086B6BCD
:100A5000083612362436060F090F06000018180053
:100A600000001010003040FF0101001F01011E00B6
:100A7000191D1712003C3C3C3C00000000000C1902
:100A800011241FBECFEFD8E0DEBFCDBF11E0A0E044
:100A9000B1E0E0E4F6E302C005900D92A434B107A2
:100AA000D9F722E0A4E4B1E001C01D92A835B20755
:100AB000E1F715E0C0E4D5E004C02197FE010E94F3
:100AC000B219CF33D107C9F70E9403150C941E1B2E
:100AD0000C940000CF93DF93CDB7DEB780E090E0B9
:100AE000DF91CF910895CF93DF93CDB7DEB780919B
:100AF000030290910202891B990BDF91CF91089517
:100B0000CF93DF93CDB7DEB79091020280910302BD
:100B10002FEF3FEF981748F4E92FF0E0EE51FE4F2A
:100B2000208130E09F5F90930202C901DF91CF9155
:100B30000895CF93DF93CDB7DEB7E09102028091A5
:100B40000302E81740F4F0E0EE51FE4F808190E0A0
:100B5000DF91CF9108958FEF9FEFFACFCF93DF937F
:100B6000CDB7DEB7DF91CF910895CF93DF93CDB7A7
:100B7000DEB7DF91CF910895CF93DF93CDB7DEB786
:100B8000DF91CF910895CF93DF93CDB7DEB720915A
:100B9000E101260F3327331F21323040FCF420912E
:100BA0002A02FC0180E090E0243069F082E013C06A
:100BB000A091E1012191AC014F535E4FA40FB52FDD
:100BC000B11D2C930196861798F38091E101680F6F
:100BD0006093E10180E0DF91CF91089581E0FBCF48
:100BE000CF93DF930F92CDB7DEB7698320913002A8
:100BF0002030F1F020915302203250F021E0FC012E
:100C00002283138280E090E00F90DF91CF910895CE
:100C100080913102E82FF0E0EE5CFD4F99819083E6
:100C20008F5F809331028093530281E090E0ECCF9C
:100C300061E0CE0101960E94C305F7CFCF92DF920B
:100C4000EF92FF920F931F93CF93DF9300D0CDB716
:100C5000DEB789839A83CB017A012091300220305C
:100C600009F18B016B01C40ED51E0C151D0561F435
:100C7000C7010F900F90DF91CF911F910F91FF90BF
:100C8000EF90DF90CF900895D8016D918D01A981EB
:100C9000BA81ED91FD9112970190F081E02DCD0187
:100CA0000995E3CF642F0E94C305E2CFCF93DF9372
:100CB000CDB7DEB7DF91CF9108952F923F924F923B
:100CC0005F926F927F928F929F92AF92BF92CF92DC
:100CD000DF92EF92FF920F931F93CF93DF9300D099
:100CE00000D000D0CDB7DEB789839A835A0169015D
:100CF000ED82FE8238016A187B081AF43A01601A04
:100D0000710A4601861A970A1AF44B018C189D083D
:100D10008614970454F0902F812F8601C92ED82E67
:100D20009A2D8B2D5B01692F782F0A151B0554F026
:100D30009C2D8D2D6B01692F782F902F812F850190
:100D4000A92EB82E2501401A510A1B012C183D0866
:100D50001AF41601261A370A720157FE03C08FEFE4
:100D6000E81AF80AF594E794AFEFBFEFC616D70676
:100D700014F4A1E0B0E0AB83BC8320C0A981BA81A8
:100D8000ED91FD9112970484F585E02D2D813E8132
:100D9000A801B601CD018614970424F0A601B8017C
:100DA00089819A810995E218F30832F48B819C813C
:100DB000C80ED91EE40CF51C0F5F1F4FA016B1061C
:100DC000ECF60F900F900F900F900F900F90DF9117
:100DD000CF911F910F91FF90EF90DF90CF90BF9038
:100DE000AF909F908F907F906F905F904F903F90CB
:100DF0002F900895CF93DF93CDB7DEB7DC01ED914F
:100E0000FD910084F185E02DDF91CF9109940F933E
:100E10001F93CF93DF93CDB7DEB7DC01ED91FD914A
:100E2000048CF58DE02D0995DF91CF911F910F91E5
:100E300008950F931F93CF93DF93CDB7DEB7DC01F7
:100E4000ED91FD91068CF78DE02D0995DF91CF9105
:100E50001F910F910895EF92FF920F931F93CF93DD
:100E6000DF93CDB7DEB7DC01ED91FD9100A0F1A1DC
:100E7000E02D0995DF91CF911F910F91FF90EF9099
:100E80000895AF92BF92CF92DF92EF92FF920F93AD
:100E90001F93CF93DF9300D0CDB7DEB76C0169838A
:100EA0007A835A017901DC01ED91FD910284F38589
:100EB000E02D0995EA0CFB1CC7010197D601ED91C5
:100EC000FD910488F589E02D78018C0129813A8112
:100ED000A501B901C6010995D601ED91FD910688DC
:100EE000F789E02DC6010F900F90DF91CF911F91F0
:100EF0000F91FF90EF90DF90CF90BF90AF9009944B
:100F0000AF92BF92CF92DF92EF92FF920F931F9317
:100F1000CF93DF9300D0CDB7DEB76C015B0149837F
:100F20005A837901DC01ED91FD910284F385E02D76
:100F30000995EA0CFB1C970121503040D601ED9138
:100F4000FD910488F589E02D780109811A81A801B5
:100F5000B501C6010995D601ED91FD910688F78985
:100F6000E02DC6010F900F90DF91CF911F910F914F
:100F7000FF90EF90DF90CF90BF90AF900994AF9229
:100F8000BF92CF92DF92EF92FF920F931F93CF9376
:100F9000DF93CDB7DEB728970FB6F894DEBF0FBE4C
:100FA000CDBF6C016F83788749835A8359010B83C6
:100FB0001C83ED82FE82DC01ED91FD910284F385BC
:100FC000E02D0995EF80F884AE0CBF1CD601ED91A1
:100FD000FD91EA14FB04ACF00688F789E02DC60108
:100FE00028960FB6F894DEBF0FBECDBFDF91CF912C
:100FF0001F910F91FF90EF90DF90CF90BF90AF9037
:1010000009940088F189E02D0D811E812B813C819E
:1010100049815A81B701C6010995BFEFEB1AFB0A56
:10102000D5CFEF92FF920F931F93CF93DF93CDB75E
:10103000DEB7DC011A960D911D9114972D913D910B
:101040001A97ED91FD9100A0F1A1E02D7B0140E008
:1010500050E0BA010995DF91CF911F910F91FF9058
:10106000EF9008954F925F926F927F928F929F922E
:10107000AF92BF92CF92DF92EF92FF920F931F93A6
:10108000CF93DF93CDB7DEB75C012B016A01490135
:1010900038018701DC01ED91FD916217730729F595
:1010A000641675062CF0962D872D3A01C92ED82E80
:1010B000C618D70896012F5F3F4F048CF58DE02DA1
:1010C000A301B201C5010995DF91CF911F910F9145
:1010D000FF90EF90DF90CF90BF90AF909F908F9058
:1010E0007F906F905F904F9008954615570591F44B
:1010F0002617370724F0892D4B01422E582E481809
:10110000590892012F5F3F4F068CF78DE02DA60105
:10111000B401D8CF0284F385E02D0995D501ED9176
:10112000FD910488F589E02D83019401A601B201A7
:10113000C5010995D501ED91FD910688F789E02D4E
:10114000C501DF91CF911F910F91FF90EF90DF903C
:10115000CF90BF90AF909F908F907F906F905F9057
:101160004F9009944F925F926F927F928F929F92CD
:10117000AF92BF92CF92DF92EF92FF920F931F93A5
:10118000CF93DF93CDB7DEB76C015B014A01390124
:101190002801DC01ED91FD910284F385E02D099594
:1011A000D601ED91FD910288F389E02D870193012D
:1011B000A401B501C6010995A401440D551D415076
:1011C0005040D601ED91FD910288F389E02D930105
:1011D000B501C6010995D601ED91FD910088F1890F
:1011E000E02D9201A401B501C6010995A60CB71C1A
:1011F000B50161507040D601ED91FD910088F189F3
:10120000E02D9201A401C6010995D601ED91FD9151
:101210000688F789E02DC601DF91CF911F910F91CC
:10122000FF90EF90DF90CF90BF90AF909F908F9006
:101230007F906F905F904F9009944F925F927F9252
:101240008F929F92AF92BF92CF92DF92EF92FF92D6
:101250000F931F93CF93DF9300D000D0CDB7DEB7AD
:1012600089839A837B014B835C835901290187E041
:10127000480E511C93E0559447949A95E1F7480124
:10128000860E971EC12CD12C712C00E010E0802F0F
:10129000877090E0770C892B69F4F80183E0F5956D
:1012A000E7958A95E1F7EC0DFD1D8B819C81E80F98
:1012B000F91F749077FE0BC021E030E0A70169812F
:1012C0007A81600F711F8AE591E00E94FA060F5F34
:1012D0001F4FA016B106D9F69FEFE91AF90AC40C00
:1012E000D51CE814F90489F60F900F900F900F9019
:1012F000DF91CF911F910F91FF90EF90DF90CF90F2
:10130000BF90AF909F908F907F905F904F90089587
:101310002F923F924F925F926F927F928F929F9205
:10132000AF92BF92CF92DF92EF92FF920F931F93F3
:10133000CF93DF93CDB7DEB769970FB6F894DEBFD2
:101340000FBECDBF4C011B013A01B22E0A871B878D
:10135000EA82FB82C982DC0159962D913D915B970F
:101360002030320709F00BC118968D919D911A9784
:10137000681779070CF0B4C11A968D919D914817A2
:1013800059070CF0ADC1CC821D829B0186E0C89E3E
:10139000200D311D11242E873F87121613060CF0E5
:1013A0009FC1A88A198A28E0A29EF0011124EA8B25
:1013B000FB8BCF01840F951F181619060CF090C1F6
:1013C000D40158968C91811104C0B0EBBB1608F083
:1013D000B394D401ED91FD910284F385E02DC40115
:1013E0000995B5E0BB9EC0011124FC01E258FA4FFB
:1013F000EC87FD87610191012B5F3F4F2C8B3D8B6B
:101400002E823F82C30108968E8B9F8BEC85FD85D3
:10141000B490230168867986B0FE83C0D401ED9133
:10142000FD91B981B13009F06CC021E0A21269C010
:101430000484F585E02D2A853B85A201B601C4010F
:101440000995B6943FEF431A530A888599858A0D0A
:10145000911D88879987AE89BF89A415B505E1F6E6
:10146000EC85FD853196EC87FD87FFEFCF1ADF0A0B
:101470002E813F818981280F311D2E833F83AC89C6
:10148000BD89AC15BD0509F0C1CFEA85FB852A8170
:101490003B81E217F307A9F0D401ED91FD91813072
:1014A00009F05CC0B1E0AB1259C0B1016B5F7F4F76
:1014B0000088F189E02D890128E030E0A301C40112
:1014C0000995D401ED91FD910688F789E02DC401BD
:1014D00069960FB6F894DEBF0FBECDBFDF91CF91F6
:1014E0001F910F91FF90EF90DF90CF90BF90AF9042
:1014F0009F908F907F906F905F904F903F902F9034
:1015000009940684F785E02DEA84FB84088919890B
:101510002C813D81488559856E817F81C401099563
:1015200090CF8A859B85AA81BB818A179B0709F486
:1015300088CFD401ED91FD91B981B13049F421E01A
:10154000A21206C00484F585E02D2A813B8175CF67
:101550000684F785E02DEA80FB80D8CF6E857F85F5
:101560002C813D81621B730B0684F785E02DEA8098
:10157000FB800A891B89A301C4010995A2CFF90147
:1015800034969491329745915591B91AB7E0BB9E24
:10159000400D511D1124F90125913591288B398B6E
:1015A000FA0145905590FA01329634913887319678
:1015B00084918A8B329614913196049189818A297B
:1015C0008230D0F1B12FBB0FBB0B1C83BD83F02F3A
:1015D000FF0FFF0B0E83FF83D401ED91FD91028479
:1015E000F385E02DC40109951A82C12CD12CAC8A57
:1015F0001D8A9301200F311D07FD3A952E8B3F8BDD
:10160000C101810F911D17FD9A95888F998F2A89A5
:10161000C21608F056CF2E813F812C0D311DA29E9F
:10162000C001A39E900D1124DC01A60DB71DAC874F
:10163000BD878A81B12C31C01E821F821C821D820F
:10164000CBCF91E0980F9E87877041F4E889F989A4
:10165000E40DF51DD490AFEF4A1A5A0AD7FE1AC00E
:10166000D401ED91FD916B2D70E0B981B130E9F4B9
:1016700021E0A2121AC0888D998D680F791F048409
:10168000F585E02D2A853B854E895F894C0D511DDE
:10169000C4010995DD0CB3948E85E885BE1688F2E9
:1016A000FA81FE0FFA83C394B2CFAC81BD816A0F79
:1016B0007B1FB981B69FC001B79F900D1124BC015B
:1016C000620D731D0684F785E02DEA84FB840C8986
:1016D0001D892B2F30E04C855D85C4010995DACF3B
:1016E00069960FB6F894DEBF0FBECDBFDF91CF91E4
:1016F0001F910F91FF90EF90DF90CF90BF90AF9030
:101700009F908F907F906F905F904F903F902F9021
:1017100008956F927F928F929F92AF92CF92EF92A5
:10172000FF920F931F93CF93DF93CDB7DEB74C019A
:10173000262FDC0159968D919D915B97009709F0BA
:1017400063C06A30F9F41C961D921D9217962C9175
:10175000B8E02B9F90011124F40186859785820FB4
:10176000931F8687978781E090E0DF91CF911F914B
:101770000F91FF90EF90CF90AF909F908F907F90C0
:101780006F9008956D3079F3D4015496CD90AC905C
:1017900012968C9157978030E1F01C968D919D9117
:1017A000B6E0CB9E800D911D1124F401408551853A
:1017B0004817590774F44685578514861586F8E04E
:1017C000AF9EC0011124840F951FD4011E968D93E6
:1017D0009D93F401E288F388008911894685578535
:1017E00064857585C4010E948809D40154962C91A2
:1017F00018978D919D91B6E02B9F800D911D11241E
:10180000F40184879587AFCF6A3099F4D4011C9690
:101810001D921D92FC013896E49117962C91179712
:101820008D919D912E9F800D911D11249E938E93DD
:101830009ACF6D3009F497CFFC0134963491631739
:1018400008F491CF3296E491E61708F48CCFFC01AE
:10185000329665907590E62FE31BB7E0EB9F600C26
:10186000711C1124F301329634913196E491303099
:1018700009F446C0E03009F443C0F401C488F30120
:101880003596E491D4015596AC9012964C915797A9
:10189000403031F1FE2FFF0FFF0BE30FF11DCE9E05
:1018A000A001CF9E500D11241C966D917D91460F85
:1018B000571F16976D917D911A976417750784F4D9
:1018C0001E964D915D9114971D921D92FC013896C4
:1018D000E491AE9E400D511D1124F40146875787B7
:1018E000D4015296ED90FD9014970D911D9114978F
:1018F0004D915D9114976D917D91C4010E9488096D
:10190000F3013496E491D40154962C9118978D915B
:101910009D912E9F800D911D11249E938E9323CF18
:10192000CF93DF93CDB7DEB7FC01862F8370868B14
:10193000948185813681278160FD03C0AC01C90196
:101940009A013087218792878387DF91CF9108950D
:10195000CF93DF93CDB7DEB7DF91CF910895CF93CB
:10196000DF93CDB7DEB78CBD9DBDDF91CF910895DC
:10197000CF93DF93CDB7DEB78EBD00000DB407FE69
:10198000FDCF8EB5DF91CF910895CF93DF93CDB783
:10199000DEB7DF91CF910895CF93DF93CDB7DEB758
:1019A000FC0177FD24C08085918568177907FCF4D8
:1019B00057FD1DC08285938548175907C4F4868951
:1019C0008230C1F0833029F1813041F484819581E6
:1019D000841B950BAB01BC01615070402130310577
:1019E000F1F02230310509F463C0232BE1F1DF91DE
:1019F000CF91089584819581861B970BBC0161501E
:101A0000704086819781841B950BAC0141505040FA
:101A1000E5CF86819781861B970BBA01F6CFCA0165
:101A200057FD0796A3E095958795AA95E1F7A481C0
:101A3000B5818A9F90018B9F300D9A9F300D1124A4
:101A4000260F371F078CF0A1E02DE20FF31F477020
:101A500081E090E09C0101C0220F4A95EAF7808165
:101A6000822B8083C4CFCA0157FD079633E095953A
:101A700087953A95E1F7A481B5818A9F90018B9F64
:101A8000300D9A9F300D1124260F371F078CF0A1BF
:101A9000E02DE20FF31F477081E090E09C0101C050
:101AA000220F4A95EAF7422F409580818423D9CFAF
:101AB000CA0157FD079623E0959587952A95E1F78A
:101AC000A481B5818A9F90018B9F300D9A9F300D24
:101AD0001124260F371F078CF0A1E02DE20FF31F12
:101AE000477021E001C0220F4A95EAF780818227E2
:101AF000B8CFEF92FF920F931F93CF93DF93CDB7A1
:101B0000DEB7DC0157FD41C016968D919D91189767
:101B100048175907D4F577FF04C0260F371F60E038
:101B200070E014968D919D911697FB01E20FF31FC3
:101B30008E179F071CF49C01261B370B12161306E9
:101B400024F57A01E3E0F594E794EA95E1F7E89E5D
:101B5000F001E99EF00DF89EF00D11246E0F7F1F2D
:101B60005F96ED91FD91E60FF71FCA01877041E086
:101B700001C0440F8A95EAF7942F01301105B9F09E
:101B80000230110549F0012BE9F0DF91CF911F914F
:101B90000F91FF90EF9008952E0F3F1FE217F3076C
:101BA000A1F3DF018D9189278083FD01F7CF2E0FEF
:101BB0003F1FE217F30749F3DF018D91892B8083E3
:101BC000FD01F7CF40952E0F3F1FE217F307E9F213
:101BD000DF018D9184238083FD01F7CFEF92FF9287
:101BE0000F931F93CF93DF93CDB7DEB77C01FC013A
:101BF000A481B5816A177B070CF071C057FF04C040
:101C0000240F351F40E050E0F70186819781FA01EB
:101C1000E20FF31F8E179F071CF49C01241B350B4A
:101C2000121613060CF05BC0922F842F86958695B2
:101C300086958A9FF0018B9FF00D11246E0F7F1FF8
:101C4000F701A78DB0A1A60FB71F477029F188E053
:101C5000841B482F682F70E0FB01EA58FA4FE4918B
:101C6000281750F4621B70402FEF30E002C035950A
:101C700027956A95E2F7E22301301105B9F10230A8
:101C80001105E1F100301007A9F1941740F1F701B7
:101C900024813581A20FB31F941B492F983080F007
:101CA0000230110571F5892F9C9190959C93F70155
:101CB00024813581A20FB31F88508830A8F7477060
:101CC000403069F0E42FF0E0E259FA4FE49101303E
:101CD000110541F10230110569F1012B39F1DF9154
:101CE000CF911F910F91FF90EF9008958C918E2BC3
:101CF0008C93CBCFE0958C918E23FACF8C918E274D
:101D0000F7CF81E00030100709F480E08195942F2F
:101D10008C93F70124813581A20FB31F985098301E
:101D2000B8F7CDCF8C918E2B8C93D9CFE0958C9139
:101D30008E23FACF8C918E27F7CF0F931F93CF93DB
:101D4000DF93CDB7DEB7FA01DC0156964C9156977A
:101D50004230A9F0433049F1413009F514964D91D4
:101D60005D914E1B5F0BFA01E21BF30BAB01BF0150
:101D70000E94790DDF91CF911F910F910895DC01A1
:101D800014964D915D91461B570BBA0161507040FE
:101D90004D915D914E1B5F0BFA01E21BF30B77FD3A
:101DA000E9CFAF010E94EE0DE5CFDC0116964D9113
:101DB0005D91461B570BBA0161507040D7CF0F930E
:101DC0001F93CF93DF93CDB7DEB7FA01DC015696B0
:101DD0004C9156974230B1F0433039F1413009F51A
:101DE00014964D915D914E1B5F0BFA013197F7FDF3
:101DF00004C0AB01BF010E94EE0DDF91CF911F9196
:101E00000F910895DC0114964D915D91461B570B7F
:101E10006D917D916E1B7F0BFB013197BA01621BA7
:101E2000730BAF010E94790DE8CFDC0116964D913E
:101E30005D91461B570BBA01621B730BD8CFEF9213
:101E4000FF920F931F93CF93DF9300D000D0CDB7B5
:101E5000DEB789839A834B835C838B01E12CF12C61
:101E60008B819C81E816F90661F4C7010F900F90F1
:101E70000F900F90DF91CF911F910F91FF90EF90F6
:101E80000895A981BA81ED91FD910190F081E02D35
:101E9000D8016C9189819A810995892B31F30F5F63
:101EA0001F4FBFEFEB1AFB0ADBCFCF93DF93CDB70A
:101EB000DEB73FB7F8948091500190915101A09105
:101EC0005201B091530126B5A89B04C02F3F11F0D9
:101ED0000196A11D3FBF782F892F9A2F622F42E0D4
:101EE000660F771F881F991F4A95D1F7DF91CF9111
:101EF00008956F927F928F929F92AF92BF92CF92EE
:101F0000DF92EF92FF920F931F93CF93DF93CDB7A2
:101F1000DEB73B018C010E94550F562F472F382FFB
:101F2000292F852E942EA32EB22E6301780105C091
:101F3000C114DC04EC04FC04E9F00E94550F68199C
:101F400079098A099B093601870121E0C21AD10863
:101F5000E108F108582D492D3A2D2B2DE8EE8E0E73
:101F6000E3E09E1EA11CB11C683E7340804090407F
:101F7000F8F6D7CFDF91CF911F910F91FF90EF909F
:101F8000DF90CF90BF90AF909F908F907F906F9099
:101F90000895CF93DF93CDB7DEB790E0FC01E8560C
:101FA000FF4F24918A549F4FFC0184918030A1F00F
:101FB00090E0880F991FFC01E458FF4FA591B5915F
:101FC000FC01E455FF4F859195918FB7F8949C9152
:101FD000E22FE92BEC938FBFDF91CF910895CF9340
:101FE000DF93CDB7DEB790E0FC01E859FF4F2491B5
:101FF000FC01E856FF4F3491FC01EA54FF4FE49195
:10200000E03019F1203089F0243011F150F4223001
:1020100039F1233009F5809180008F77809380001B
:1020200004C0273001F1283021F1F0E0EE0FFF1F4E
:10203000E455FF4FA591B5919FB7F8948C9161112C
:102040001CC0309538233C939FBFDF91CF910895FA
:10205000809180008F7DE2CF84B58F7784BDE5CFFE
:1020600084B58F7DFBCF8091B0008F778093B000D7
:10207000DCCF8091B0008F7DF9CF832B8C93E4CFA0
:10208000CF93DF93CDB7DEB710922A0281E0809321
:1020900029021092040261E082E10E94EF0F61E0E8
:1020A00083E10E94EF0FE9EBF0E080818E7F808377
:1020B00080818D7F808388E48093B80085E480935D
:1020C000BC00DF91CF9108950F931F93CF93DF93BF
:1020D000CDB7DEB791E09093C0018030B9F0109198
:1020E000B8000091BA008091BC008A7B8093BC004C
:1020F00060E082E10E94EF0F60E083E10E94EF0F59
:102100000E9440100093BA001093B800DF91CF9165
:102110001F910F910895CF92DF92EF92FF920F934C
:102120001F93CF93DF9300D000D0CDB7DEB70091DF
:102130005302013208F0A6C0109152020E94550FBE
:1021400069837A838B839C8380912A02811171C079
:1021500082E080932A0281E0809329028FEF8093AE
:102160002802109227020093260222E332E0A6E022
:10217000B2E0F9018E2F821B801708F496C01092EE
:10218000050280910502110F182B10930502809112
:102190000402813009F08CC0109204020E94550F95
:1021A00069837A838B839C83809105028093BB0033
:1021B00080912C0290912D02A0912E02B0912F02BD
:1021C000892B8A2B8B2BC1F00E94550F00912C027A
:1021D00010912D0220912E0230912F02C980DA80B9
:1021E000EB80FC806C197D098E099F090617170783
:1021F0002807390708F442C08091BC0083FDD4CF82
:1022000085EC8093BC000E94550F69837A838B8391
:102210009C8380912A02823009F44CC0809128026C
:102220008F3F81F180912802803261F180912802F4
:1022300029C080912C0290912D02A0912E02B09184
:102240002F02892B8A2B8B2B09F47ECF0E94550FEE
:1022500020912C0230912D0240912E0250912F029C
:10226000C980DA80EB80FC806C197D098E099F099A
:10227000261737074807590708F066CF80912B02C9
:102280000E94641010923102109253021092300298
:102290000F900F900F900F90DF91CF911F910F91A2
:1022A000FF90EF90DF90CF90089581918D9362CF52
:1022B00085EEA7CF80912C0290912D02A0912E0245
:1022C000B0912F02892B8A2B8B2B09F4A2CF0E946D
:1022D000550F00912C0210912D0220912E02309169
:1022E0002F02C980DA80EB80FC806C197D098E0991
:1022F0009F09061717072807390708F08ACFBECFAE
:102300000F931F93CF93DF930F92CDB7DEB78C015E
:102310006983DC015D968D919D915F97009729F10E
:1023200091962C9131E0309330022093520210921A
:10233000310210925302DC01ED91FD910190F08188
:10234000E02D60E00995F801858D968DDC01ED9119
:10235000FD910190F081E02D698109950F90DF9149
:10236000CF911F910F910C948B10D8019D96ED91F8
:10237000FD91908114968C91809589238083589744
:102380008D919D91892B41F089810F90DF91CF91A3
:102390001F910F910C94B80C28E030E090E8D80120
:1023A0009996ED91FD9116968C9149814923F9F00A
:1023B0004081842B8083D8019B96ED91FD91808193
:1023C00015964C91842B80831797ED91FD91408158
:1023D00015968C918095842380839695215030406A
:1023E000F1F60F90DF91CF911F910F9108954081E9
:1023F00080958423DFCF0F931F93CF93DF930F92AA
:10240000CDB7DEB78C016983DC015D968D919D911E
:102410005F97892BC9F1D5962D913D914D915D9195
:1024200060E074E284EF90E00E9490192051304007
:102430004040504056954795379527952093B800D2
:1024400069816A55C8010E948011F801858D968DB9
:10245000892B71F121AD32AD43AD54AD60E074E232
:1024600084EF90E00E94901920513040404050404D
:1024700056954795379527952093B8000F90DF9193
:10248000CF911F910F910895F801838D948D892B21
:1024900021F086AD97AD0E94AF0CD8019F96ED91CB
:1024A000FD91908113968C91809589238083C8CF6C
:1024B000D8019F96ED91FD91808113969C91892B77
:1024C0008083DCCFCF92DF92EF92FF920F931F9326
:1024D000CF93DF93CDB7DEB76C01162F80917701D4
:1024E00090917801009709F457C020917B0131E069
:1024F0003093300220935202109231021092530214
:10250000DC01ED91FD910190F081E02D60E00995F5
:10251000760191E0C92ED12C01E01150B0E2CB162A
:10252000D104D9F40E948B1080917B01009330027A
:1025300080935202109231021092530280917701DF
:1025400090917801DC01ED91FD910190F081E02DF9
:1025500060E0099581E0C82ED12C8091770190919F
:102560007801F7016491DC01ED91FD910190F0811A
:10257000E02D0995BFEFCB1ADB0AEFEFEE1AFE0A4A
:102580001111CBCFDF91CF911F910F91FF90EF9061
:10259000DF90CF900C948B10E0918701F09188012F
:1025A000908180918D0180958923808376011150DF
:1025B000F70184912091750130917601232B81F0F0
:1025C0000E94B80CFFEFEF1AFF0A1111F0CFDF9154
:1025D000CF911F910F91FF90EF90DF90CF900895D2
:1025E00028E030E040E8E0918301F091840190918F
:1025F0008B01542F5823D9F05081952B9083E09173
:102600008501F0918601908150918C01952B9083EA
:10261000E0918501F0918601508190918C01909517
:1026200095239083469521503040E9F6CBCF5081D9
:1026300090959523E3CFCF93DF93CDB7DEB785EDAC
:102640008093BC0080912C0290912D02A0912E02CB
:10265000B0912F020796A11DB11D23E0B695A79555
:10266000979587952A95D1F72091BC0024FD05C048
:1026700010922A02DF91CF91089540912C0250913F
:102680002D0260912E0270912F02452B462B472B75
:1026900059F310979040804041F02AE22A95F1F7D3
:1026A00000C00197A040B040DFCF80912B02DF91A6
:1026B000CF910C946410CF93DF93CDB7DEB7FC01BC
:1026C000878D90A1009721F0DF91CF910C94851A0E
:1026D000DF91CF910895CF93DF93CDB7DEB72091EF
:1026E000600130916101C90107960AF4079623E061
:1026F000959587952A95E1F720915E0130915F01CC
:10270000829FA001839F500D929F500D112460E085
:1027100070E08091790190917A01DF91CF910C94D2
:10272000171B1F920F920FB60F9211242F933F93F6
:102730004F935F936F937F938F939F93AF93BF93C9
:10274000EF93FF93CF93DF93CDB7DEB79091B900AE
:10275000892F887F803509F4C3C008F044C08033D6
:1027600009F4B9C0A8F5883111F1E0F4883009F412
:10277000AAC0803109F4A7C0803009F4F3C0DF910A
:10278000CF91FF91EF91BF91AF919F918F917F91E9
:102790006F915F914F913F912F910F900FBE0F90CE
:1027A0001F901895803209F496C0883241F79091B5
:1027B000270280912602981780F5E091270281E098
:1027C0008E0F80932702F0E0EA5FFD4F80817DC08D
:1027D000803409F491C0883409F47FC0883379F6D5
:1027E000809328026EC0803A09F4A0C0C0F58038FA
:1027F00009F48AC058F5803619F1E0F4883509F0FB
:10280000BECFE091270281E08E0F80932702809156
:10281000BB00F0E0EA5FFD4F8083809129028111C7
:102820005CC081E08093040284EA8093BC00109233
:102830002A02A5CF803721F0987E983609F09FCFE5
:1028400083E080932A021092BF0141C0803909F4CD
:102850005BC0987E983809F092CF85E839C0883BF4
:10286000D9F058F5883A19F0803B09F088CF84E018
:1028700080932A0210929C011092E101E0919A014A
:10288000F0919B0109958091E101811105C081E0E2
:102890008093E1011092C101E0919C0181E08E0FD3
:1028A00080939C01F0E0EF53FE4F80818093BB004A
:1028B00090919C018091E10123C0907F903C09F0B0
:1028C0005ECF85ECB2CF809105028093BB0085EC92
:1028D0008093BC0054CF809328020E941B134FCFDB
:1028E000E091270281E08E0F809327028091BB0048
:1028F000F0E0EA5FFD4F80839091270280912602ED
:10290000981708F0AACFE3CF8091BF01803208F07A
:10291000A4CFE091BF0181E08E0F8093BF01809131
:10292000BB00F0E0E156FE4F8083D1CF85EC809371
:10293000BC0010922A028091BF01803230F4E091F5
:10294000BF01F0E0E156FE4F10826091BF0170E0E0
:10295000E0919D01F0919E018FE991E0099510921F
:10296000BF010DCF10922802B8CF1F921FB61F9241
:1029700011242F933F938F939F93AF93BF93CF9344
:10298000DF93CDB7DEB78091550190915601A091AC
:102990005701B09158013091540123E0230F2D3796
:1029A00060F50196A11DB11D20935401809355013E
:1029B00090935601A0935701B09358018091500114
:1029C00090915101A0915201B09153010196A11D26
:1029D000B11D8093500190935101A0935201B09387
:1029E0005301DF91CF91BF91AF919F918F913F9113
:1029F0002F911F901FBE1F90189526E8230F029657
:102A0000A11DB11DD1CFCDB7DEB7789484B582605A
:102A100084BD84B5816084BD85B5826085BD85B582
:102A2000816085BD80916E00816080936E00109200
:102A3000810080918100826080938100809181007B
:102A4000816080938100809180008160809380000C
:102A50008091B10084608093B1008091B00081606A
:102A60008093B00080917A00846080937A00809196
:102A70007A00826080937A0080917A0081608093EE
:102A80007A0080917A00806880937A001092C10069
:102A90008091790190917A01892B11F10E946B1339
:102AA000809160019091610120915E0130915F0100
:102AB000813291050CF00DC1BC016052704012F4DE
:102AC0006F5F7F4F75956795C901835790400AF4F2
:102AD000019600E210E023E730E04AEC50E00CC140
:102AE0002091600130916101C90107960AF40796AF
:102AF000B3E095958795BA95E1F720915E01309105
:102B00005F01AC01429FC001439F900D529F900D09
:102B100011240E94EF198093790190937A01892BF7
:102B200009F0BCCF0E946B1321E030E040E050E0A0
:102B3000BA018AE591E00E94CC0C21E030E040E04F
:102B400050E06FE770E08AE591E00E94CC0C21E054
:102B500030E04FE350E060E070E08AE591E00E94F1
:102B6000CC0C21E030E04FE350E06FE770E08AE505
:102B700091E00E94CC0C71E0E72EF12C08E010E00F
:102B80002EE130E044E150E06AE070E08AE591E057
:102B90000E94BF078091770190917801892B09F4F9
:102BA00098C220918F0130919001409191015091F4
:102BB000920160E074E284EF90E00E94901920514D
:102BC0003040404050405695479537952795209383
:102BD000B80064E08AE695E00E94621280915E018E
:102BE00090915F018034904009F08AC260E28AE5EA
:102BF00091E00E94801160915E01615E8AE591E042
:102C00000E9480112091600130916101C9010796F5
:102C10000AF4079633E0959587953A95E1F7209168
:102C20005E0130915F01829F7001839FF00C929F43
:102C3000F00C11240091790110917A0180917701B3
:102C400090917801E00EF11E009709F494C2209152
:102C50007B0131E030933002209352021092310216
:102C600010925302DC01ED91FD910190F081E02D75
:102C700060E4099521E0C22ED12C0E151F0509F044
:102C800048C20E948B108091770190917801892B26
:102C900009F4B5C2209193013091940140919501BE
:102CA0005091960160E074E284EF90E00E949019E8
:102CB00020513040404050405695479537952795D4
:102CC0002093B80000E010E00030100709F0A1C226
:102CD000FFCFBC016054704012F46F5F7F4F759559
:102CE0006795C901825590400AF4019600E410E00E
:102CF00022E530E04AEA52E0959587950E941D0949
:102D000082E080937C018091770190917801892BFA
:102D100009F496C08CE380937B011092020210921A
:102D2000030210923102109253020E9440108CEB69
:102D300095E080939A0190939B0185EB95E08093B9
:102D40009D0190939E018091820187FD1DC00E948C
:102D5000C90F61E0809182010E94EF0F61E070E095
:102D600080E090E00E94790F60E0809182010E94F3
:102D7000EF0F6AE070E080E090E00E94790F61E080
:102D8000809182010E94EF0F8091770190917801EC
:102D9000892B09F40DC120918F0130919001409150
:102DA00091015091920160E074E284EF90E00E9402
:102DB00090192051304040405040569547953795E6
:102DC00027952093B80064E084E990E00E946212A5
:102DD0006091600161508AE591E00E94801164E099
:102DE00080E990E00E94621280917C0160E1813074
:102DF00009F064E18AE591E00E94801164E08CE8CA
:102E000090E00E9462128FE88093970180915E01AA
:102E100090915F018038910509F0E1C080916001D7
:102E2000909161018034904009F0EBC080917C0169
:102E3000813009F042C18FE98093970112E1E2C02D
:102E4000809180010E94C90F809181010E94C90F69
:102E500080918001982F990F990BFC01EA54FF4F44
:102E6000E491F0E0EE0FFF1FE455FF4F25913591FF
:102E70002093870130938801FC01E856FF4FE491CD
:102E8000E0938D0180918101982F990F990BFC019E
:102E9000EA54FF4FE491F0E0EE0FFF1FE455FF4FBF
:102EA000A591B591A0938901B0938A01FC01E856E0
:102EB000FF4FE491E0938E018C91E82BEC9380918D
:102EC000750190917601892B91F11FB7F89480914B
:102ED0005901811125C0E0ECF0E08491E2EAF0E0D4
:102EE0009491E82FF0E0EE0FFF1FE458FF4FA591FB
:102EF000B5918C91E92FE82321F461E08AE00E94EA
:102F0000EF0F8AE00E94C90F8CB580618CBD8CB533
:102F100080648CBD8DE00E94C90F8BE00E94C90FB8
:102F2000809159018F5F809359011FBF0CCF809111
:102F30007E010E94C90F80917F010E94C90F80917C
:102F40007E01982F990F990BFC01EA54FF4FE491F1
:102F5000F0E0EE0FFF1FE455FF4F259135912093D0
:102F6000830130938401FC01E856FF4FE491E09324
:102F70008B0180917F01982F990F990BFC01EA54E6
:102F8000FF4FE491F0E0EE0FFF1FE455FF4FA591D6
:102F9000B591A0938501B0938601FC01E856FF4FDF
:102FA000E491E0938C018C91E095E823EC93CBCEF7
:102FB0008091750190917601892B31F08091980173
:102FC000909199010E94AF0CE0918901F0918A01E2
:102FD000908180918E01809589238083F4CE803604
:102FE000910509F059C0809160019091610140976D
:102FF00041F480917C01813009F04CC080E18093E4
:10300000970112E06AED8AE591E00E948011612F3C
:103010008AE591E00E94801161E88AE591E00E94D2
:103020008011609197018AE591E00E94801169ED1D
:103030008AE591E00E94801180917C0162E28130FA
:1030400009F061EF8AE591E00E94801166E086E870
:1030500090E00E9462128091770190917801892B13
:1030600071F120919301309194014091950150911B
:10307000960160E074E284EF90E00E949019205184
:1030800030404040504056954795379527952093BE
:10309000B80048CD8FEAB3CF8034904009F0B1CF6B
:1030A0008091600190916101809709F0AACF809191
:1030B0007C01813011F480E1BFCE8FECBDCEE09178
:1030C0008901F0918A01808190918E01892B808302
:1030D00029CD8091750190917601892B31F08091F5
:1030E0009801909199010E94AF0CE0918901F091B3
:1030F0008A01908180918E0180958923808369CD9A
:1031000060E08AE591E00E94801160915E0161506B
:1031100075CDB0E2CB16D104E1F40E948B10809102
:103120007B01E1E0E0933002809352021092310281
:10313000109253028091770190917801DC01ED911A
:10314000FD910190F081E02D60E4099591E0C92E98
:10315000D12C8091770190917801DC01ED91FD9166
:103160000190F081E02DD8016D918D010995BFEF9F
:10317000CB1ADB0A82CDE0918701F0918801808132
:1031800090918D01892B80830E151F0509F47BCD4D
:10319000F80181918F012091750130917601232BE7
:1031A00019F00E94B80CF0CF28E030E040E8E09140
:1031B0008301F091840190918B01542F5823D9F011
:1031C0005081952B9083E0918501F091860190814B
:1031D00050918C01952B9083E0918501F0918601AF
:1031E000508190918C019095952390834695215024
:1031F0003040E9F6C9CF508190959523E3CFE09117
:103200008901F0918A01808190918E01892B8083C0
:1032100059CD0E94000058CDCF93DF93CDB7DEB7D4
:10322000E4E4F1E01282138288EE93E084839583D4
:10323000168217828AE091E08083918310925C016C
:1032400010925D0120E820935E0110925F0180E4FE
:1032500080936001109261012093620110926301DA
:1032600080936401109265011092700110926601C2
:1032700010926701109268011092690181E08093B9
:103280006F0180936E012FEF3FEF20936C0130931D
:103290006D0120936A0130936B018093710110924C
:1032A000720110927301109274018CE191E080938D
:1032B0005A0190935B011092750110927601E09390
:1032C0007701F09378011092790110927A018FEFD3
:1032D00080937E0180937F018093800180938101A0
:1032E0008093820180E89AE1A6E080938F01909319
:1032F0009001A09391011092920180EA96E8A1E0DA
:103300008093930190939401A0939501109296015C
:1033100080E58093980110929901DF91CF910895F3
:10332000A1E21A2EAA1BBB1BFD010DC0AA1FBB1FC9
:10333000EE1FFF1FA217B307E407F50720F0A21B3B
:10334000B30BE40BF50B661F771F881F991F1A94A8
:1033500069F760957095809590959B01AC01BD01D2
:10336000CF010895EE0FFF1F0590F491E02D099411
:103370002F923F924F925F926F927F928F929F9285
:10338000AF92BF92CF92DF92EF92FF920F931F9373
:10339000CF93DF93CDB7DEB7CA1BDB0B0FB6F89424
:1033A000DEBF0FBECDBF09942A88398848885F8464
:1033B0006E847D848C849B84AA84B984C884DF80D5
:1033C000EE80FD800C811B81AA81B981CE0FD11DB9
:1033D0000FB6F894DEBF0FBECDBFED010895A0E09B
:1033E000B0E0E5EFF9E10C94C4198230910510F4D6
:1033F00082E090E0E0915402F09155029D013097F7
:10340000A9F42030320709F447C0281B390B2430B7
:103410003105B8F5DB0112968D919D9100301007B2
:1034200059F1F80182839383FB010DC040815181E2
:10343000E280F38048175907B0F079F4109741F013
:103440001296ED92FC923296CF01E6E00C94E019D0
:10345000E0925402F0925502F6CF2030320751F03C
:103460004217530738F0A901D8019A018D01DF01F5
:10347000F701C5CFBF01F9CF809354029093550255
:10348000D3CFFB01E20FF31F819391932250304081
:10349000DB012D933D93D8CF4091560250915702B6
:1034A0004030540741F44091020150910301409390
:1034B00056025093570220910001309101012030B3
:1034C000320741F42DB73EB76091040170910501B8
:1034D000261B370B4217530708F0B6CF241B350BBA
:1034E0002817390708F4B0CFBC016E5F7F4F26174D
:1034F000370708F4A9CF640F751F609356027093C5
:103500005702FA01819391939FCFA0E0B0E0EBE8DE
:10351000FAE10C94C8190097F1F0FC01329712827D
:1035200013822091540230915502D90140E050E0BD
:1035300020303207A1F420813181820F931F209126
:103540005602309157022817390709F065C0E093F9
:103550005602F0935702E2E00C94E419DB01AE1737
:10356000BF0708F040C012966D917D911497AD0190
:103570006030760799F7DA011296ED93FD93149770
:103580006D917D91CD01860F971FE817F90761F4C2
:10359000808191810296860F971FDA018D939D930A
:1035A000828193818D939D93E0E0F0E0D9011296A2
:1035B0008D919D9114970097A1F58D919D918A0F02
:1035C0009B1F40915602509157024817590719F610
:1035D000309751F5109254021092550220935602E2
:1035E00030935702B8CFA283B38360817181860F75
:1035F000971FA817B90761F46E5F7F4F8D919D915A
:10360000860F971F808391838D919D9182839383F1
:103610004030540709F0AFCFE0935402F0935502C5
:103620009ACFF9019C01C2CF12821382D7CFDC015D
:1036300001C06D9341505040E0F70895F894FFCFDA
:1036400000005802200000000000F0051E066A0578
:10365000AE0573058005990500000000890B1F0F5A
:103660006A055606CC0CAE05FA062B0707071907A4
:103670005D06AE05900CFB119D0EDF0EBF07110815
:043680003208B20852
:00000001FF
