:100000000C9458000C9480000C9480000C94800098
:100010000C9480000C9480000C9480000C94800060
:100020000C9480000C9480000C9480000C94800050
:100030000C9480000C9480000C9480000C94800040
:100040000C943E070C9480000C94DF060C9412076D
:100050000C9480000C9480000C9480000C94800020
:100060000C94BB050C9480000000000025002800C3
:100070002B00040404040404040402020202020229
:10008000030303030303010204081020408001025C
:1000900004081020010204081020000000080002DB
:1000A00001000003040700000000000000003A0AFD
:1000B00011241FBECFEFD8E0DEBFCDBF11E0A0E01E
:1000C000B1E0E0E0F8E102C005900D92AE32B10778
:1000D000D9F722E0AEE2B1E001C01D92A03AB2072A
:1000E000E1F710E0C8E5D0E004C02197FE010E94CE
:1000F000990AC735D107C9F70E948C070C94FE0BEB
:100100000C940000CF93DF93CDB7DEB780E090E092
:10011000DF91CF910895CF93DF93CDB7DEB7809174
:100120004B0290914A02891B990BDF91CF91089560
:10013000CF93DF93CDB7DEB790914A0280914B0207
:100140002FEF3FEF981748F4E92FF0E0E65DFD4F01
:10015000208130E09F5F90934A02C901DF91CF91E7
:100160000895CF93DF93CDB7DEB7E0914A02809137
:100170004B02E81740F4F0E0E65DFD4F808190E02F
:10018000DF91CF9108958FEF9FEFFACFCF93DF9359
:10019000CDB7DEB7DF91CF910895CF93DF93CDB781
:1001A000DEB7DF91CF910895CF93DF93CDB7DEB760
:1001B000DF91CF910895CF93DF93CDB7DEB7209134
:1001C0002902260F3327331F21323040FCF42091BF
:1001D0007202FC0180E090E0243069F082E013C0FC
:1001E000A09129022191AC01475F5D4FA40FB52F6B
:1001F000B11D2C930196861798F380912902680F00
:100200006093290280E0DF91CF91089581E0FBCFD8
:10021000CF93DF930F92CDB7DEB769832091780239
:100220002030F1F020919B02203250F021E0FC01BF
:100230002283138280E090E00F90DF91CF910895A8
:1002400080917902E82FF0E0E658FD4F9981908384
:100250008F5F8093790280939B0281E090E0ECCFE6
:1002600061E0CE0101960E94DB00F7CFCF92DF92D2
:10027000EF92FF920F931F93CF93DF9300D0CDB7F0
:10028000DEB789839A83CB017A01209178022030EE
:1002900009F18B016B01C40ED51E0C151D0561F40F
:1002A000C7010F900F90DF91CF911F910F91FF9099
:1002B000EF90DF90CF900895D8016D918D01A981C5
:1002C000BA81ED91FD9112970190F081E02DCD0161
:1002D0000995E3CF642F0E94DB00E2CFCF93DF9339
:1002E000CDB7DEB7FC01A48DA80FB92FB11DA35A5D
:1002F000BF4F2C91848D01968F73848FA689B78907
:100300002C93A089B1898C91837080648C93938D98
:10031000848D981306C00288F389E02D80818F7D3B
:100320008083DF91CF910895CF93DF93CDB7DEB770
:10033000FC01918D228D892F90E0805C9F4F821B64
:1003400090408F7390E0DF91CF910895CF93DF932A
:10035000CDB7DEB785E491E00E9494019C0181E075
:10036000232B09F480E0DF91CF910895CF93DF93A1
:10037000CDB7DEB780E090E0892B41F00E94A60166
:10038000803021F0DF91CF910C940000DF91CF916C
:100390000895CF93DF93CDB7DEB7FC01918D828DA9
:1003A000981741F0828DE80FF11D858D90E0DF9167
:1003B000CF9108958FEF9FEFFACFCF93DF93CDB713
:1003C000DEB7FC01918D828D981771F0A28DAE0F72
:1003D000BF2FB11D5D968C91928D9F5F9F73928F01
:1003E00090E0DF91CF9108958FEF9FEFFACFCF93F9
:1003F000DF93CDB7DEB7FC01238D348D832F90E0E2
:10040000821B9040231720F0CF96DF91CF91089563
:100410000197FBCF0F931F93CF93DF93CDB7DEB739
:100420008C01DC0158968C91811116C0DF91CF911F
:100430001F910F9108950FB607FC12C0808185FFB0
:100440000FC0D80150968D919D91DC018C9185FF54
:1004500007C0C8010E946E01D8015296ED91FD912E
:10046000808185FDE8CFD80150968D919D91DC016A
:100470008C9186FFE0CFDACFCF92DF92EF92FF929E
:100480000F931F93CF93DF93CDB7DEB78C01D62E9A
:1004900081E0D80158968C9313969D918C915C972E
:1004A000981320C05096ED91FD915297808185FF61
:1004B00019C09FB7F8945696ED91FD9160831897F7
:1004C000ED91FD9180818370806480839FBF81E086
:1004D00090E0DF91CF911F910F91FF90EF90DF900F
:1004E000CF900895F801E38CFFEFEF1AFF0A8FE336
:1004F000E822CE2CF801848D8C1591F0E38DE00F6D
:10050000F12FF11DE35AFF4FD0829FB7F894D80125
:100510005B96EC921997ED91FD9180818062D5CF29
:100520000FB607FCE7CFD8015096ED91FD91808181
:1005300085FFE0CFC8010E946E01DCCFEF92FF92F1
:100540000F931F93CF93DF9300D000D0CDB7DEB7CA
:1005500089839A834B835C838B01E12CF12C8B8103
:100560009C81E816F90661F4C7010F900F900F9077
:100570000F90DF91CF911F910F91FF90EF90089511
:10058000A981BA81ED91FD910190F081E02DD80112
:100590006C9189819A810995892B31F30F5F1F4FE7
:1005A000BFEFEB1AFB0ADBCFCF93DF93CDB7DEB7FC
:1005B000682F85E491E0DF91CF910C943C02CF93BA
:1005C000DF93CDB7DEB73FB7F89480912E019091BD
:1005D0002F01A0913001B091310126B5A89B04C034
:1005E0002F3F11F00196A11D3FBF782F892F9A2F21
:1005F000622F42E0660F771F881F991F4A95D1F737
:10060000DF91CF910895CF93DF93CDB7DEB790E020
:10061000FC01E656FF4F2491FC01EA57FF4F34914D
:10062000FC01EE58FF4FE491E03019F1203089F0E1
:10063000243011F150F4223039F1233009F5809142
:1006400080008F778093800004C0273001F128302C
:1006500021F1F0E0EE0FFF1FE859FF4FA591B59192
:100660009FB7F8948C9161111CC0309538233C934E
:100670009FBFDF91CF910895809180008F7DE2CF61
:1006800084B58F7784BDE5CF84B58F7DFBCF809116
:10069000B0008F778093B000DCCF8091B0008F7D69
:1006A000F9CF832B8C93E4CFCF93DF93CDB7DEB715
:1006B0001092720281E08093710210924C0261E00C
:1006C00082E10E94030361E083E10E940303E9EBFE
:1006D000F0E080818E7F808380818D7F808388E4BD
:1006E0008093B80085E48093BC00DF91CF9108959A
:1006F0000F931F93CF93DF93CDB7DEB791E0909325
:1007000008028030B9F01091B8000091BA008091D1
:10071000BC008A7B8093BC0060E082E10E940303FE
:1007200060E083E10E9403030E9454030093BA0037
:100730001093B800DF91CF911F910F910895AF9260
:10074000BF92CF92DF92EF92FF920F931F93CF93BE
:10075000DF9300D000D00F92CDB7DEB78D83F0903D
:100760009B0281E2A82E11E0FA1408F0ACC00091BF
:100770009A020E94DF0269837A838B839C831091A3
:100780007202111176C082E080937202BD80B09235
:1007900071028FEF8093700210926F02F0926E02DE
:1007A0002AE732E0AEE4B2E0F9018E2F821B8F150A
:1007B00008F4A0C010924D0280914D02000F082B4A
:1007C00000934D0280914C02813009F096C0109246
:1007D0004C020E94DF0269837A838B839C83809121
:1007E0004D028093BB008091740290917502A0919C
:1007F0007602B0917702892B8A2B8B2BC1F00E9455
:10080000DF0220917402309175024091760250917E
:100810007702C980DA80EB80FC806C197D098E0933
:100820009F09261737074807590708F447C08091E2
:10083000BC0083FDD4CF85EC8093BC000E94DF0216
:1008400069837A838B839C8380917202823009F45E
:1008500056C0809170028F3FB1F18091700212E01A
:10086000803289F18091700213E0803361F114E0ED
:100870002AC08091740290917502A0917602B09185
:100880007702892B8A2B8B2B09F479CF0E94DF0208
:100890002091740230917502409176025091770256
:1008A000A980BA80CB80DC806A197B098C099D09FC
:1008B000261737074807590708F061CF8091730260
:1008C0000E94780315E01092790210929B02109218
:1008D0007802812F0F900F900F900F900F90DF9163
:1008E000CF911F910F91FF90EF90DF90CF90BF902D
:1008F000AF90089581918D9358CF85EE9DCF8091D3
:10090000740290917502A0917602B0917702892BC2
:100910008A2B8B2B09F498CF0E94DF02209174025E
:10092000309175024091760250917702A980BA8089
:10093000CB80DC806A197B098C099D092617370753
:100940004807590708F080CFB9CF0F931F93CF9373
:10095000DF93CDB7DEB78C01FC0183818030B9F025
:10096000F801808191E09093780280939A0210922E
:10097000790210929B0281E00E949F03982F81E0F0
:10098000911180E0DF91CF911F910F910895109206
:100990004A0210924B021092790210929B020E941E
:1009A000540384ED90E08093E2019093E3018DEC99
:1009B00090E08093E5019093E60181E0F801838364
:1009C000C8010E94A5048111CBCFDCCFCF93DF9368
:1009D000CDB7DEB785ED8093BC0080917402909115
:1009E0007502A0917602B09177020796A11DB11D04
:1009F00023E0B695A795979587952A95D1F72091ED
:100A0000BC0024FD05C010927202DF91CF910895C1
:100A10004091740250917502609176027091770254
:100A2000452B462B472B59F310979040804041F0BF
:100A30002AE22A95F1F700C00197A040B040DFCF2D
:100A400080917302DF91CF910C9478030F931F93E1
:100A5000CF93DF930F92CDB7DEB7FC018A012983D4
:100A6000848195818417950710F480E01DC08081F2
:100A700091E09093780280939A02109279021092FA
:100A80009B0281819281DC01ED91FD910280F381D5
:100A9000E02D09950817190741F789810E949F03E6
:100AA000982F81E09111E1CF0F90DF91CF911F91AD
:100AB0000F9108958F929F92AF92BF92CF92DF9243
:100AC000EF92FF920F931F93CF93DF93CDB7DEB7D3
:100AD000A1970FB6F894DEBF0FBECDBFB62EA72EDE
:100AE000982E892E19A2423008F44AE08E010F5D3B
:100AF0001F4FC42ED12CE12CF12C6B2D7A2D892D7A
:100B0000982D9601A7010E94770A8B2D9A2DA92D69
:100B1000B82DB22EA32E942E852E6A3054F5605D2A
:100B2000F80162938F018C159D05AE05BF0528F76E
:100B3000309761F001900020E9F73197AF01401B39
:100B4000510BB80185E491E00E949E02A1960FB678
:100B5000F894DEBF0FBECDBFDF91CF911F910F91F3
:100B6000FF90EF90DF90CF90BF90AF909F908F90CD
:100B70000895695CD5CF1F920F920FB60F92112482
:100B80002F933F934F935F936F937F938F939F9395
:100B9000AF93BF93EF93FF93CF93DF93CDB7DEB7C0
:100BA0009091B900892F887F803509F4C3C008F07F
:100BB00044C0803309F4B9C0A8F5883111F1E0F4DC
:100BC000883009F4AAC0803109F4A7C0803009F444
:100BD000F3C0DF91CF91FF91EF91BF91AF919F91C2
:100BE0008F917F916F915F914F913F912F910F90D6
:100BF0000FBE0F901F901895803209F496C088326E
:100C000041F790916F0280916E02981780F5E09104
:100C10006F0281E08E0F80936F02F0E0E25BFD4F88
:100C200080817DC0803409F491C0883409F47FC08C
:100C3000883379F6809370026EC0803A09F4A0C0C0
:100C4000C0F5803809F48AC058F5803619F1E0F40F
:100C5000883509F0BECFE0916F0281E08E0F80935E
:100C60006F028091BB00F0E0E25BFD4F80838091DA
:100C7000710281115CC081E080934C0284EA809310
:100C8000BC0010927202A5CF803721F0987E983672
:100C900009F09FCF83E0809372021092070241C057
:100CA000803909F45BC0987E983809F092CF85E8C6
:100CB00039C0883BD9F058F5883A19F0803B09F0E3
:100CC00088CF84E0809372021092E401109229028E
:100CD000E091E201F091E3010995809129028111EF
:100CE00005C081E08093290210920902E091E4019D
:100CF00081E08E0F8093E401F0E0E75FFD4F80819B
:100D00008093BB009091E4018091290223C0907FE1
:100D1000903C09F05ECF85ECB2CF80914D0280937C
:100D2000BB0085EC8093BC0054CF809370020E947E
:100D3000E6044FCFE0916F0281E08E0F80936F0247
:100D40008091BB00F0E0E25BFD4F808390916F02E9
:100D500080916E02981708F0AACFE3CF8091070226
:100D6000803208F0A4CFE091070281E08E0F8093DB
:100D700007028091BB00F0E0E951FE4F8083D1CFA4
:100D800085EC8093BC001092720280910702803241
:100D900030F4E0910702F0E0E951FE4F10826091DB
:100DA000070270E0E091E501F091E60187EE91E045
:100DB0000995109207020DCF10927002B8CF2F93B1
:100DC0002FB72F938F939F93EF93FF93CF93DF933F
:100DD000CDB7DEB7E0915501F09156018081E091E9
:100DE0005B01F0915C0182FD1BC0908180915E01EE
:100DF0008F5F8F7320915F01821741F0E0915E0158
:100E0000F0E0EB5BFE4F958F80935E01DF91CF9119
:100E1000FF91EF919F918F912F912FBF2F91189557
:100E20008081F4CF1F920F920FB60F9211242F934F
:100E30003F934F935F936F937F938F939F93AF9362
:100E4000BF93EF93FF93CF93DF93CDB7DEB785E4E6
:100E500091E00E946E01DF91CF91FF91EF91BF91E0
:100E6000AF919F918F917F916F915F914F913F9142
:100E70002F910F900FBE0F901F9018951F921FB6C5
:100E80001F9211242F933F938F939F93AF93BF9300
:100E9000CF93DF93CDB7DEB78091330190913401CA
:100EA000A0913501B09136013091320123E0230F3A
:100EB0002D3760F50196A11DB11D2093320180935D
:100EC000330190933401A0933501B09336018091A2
:100ED0002E0190912F01A0913001B0913101019626
:100EE000A11DB11D80932E0190932F01A09330017D
:100EF000B0933101DF91CF91BF91AF919F918F91CD
:100F00003F912F911F901FBE1F90189526E8230F29
:100F10000296A11DB11DD1CFCDB7DEB728970FB670
:100F2000F894DEBF0FBECDBF789484B5826084BDD7
:100F300084B5816084BD85B5826085BD85B58160DD
:100F400085BD80916E00816080936E00109281005B
:100F50008091810082608093810080918100816016
:100F600080938100809180008160809380008091D7
:100F7000B10084608093B1008091B0008160809363
:100F8000B00080917A00846080937A0080917A002A
:100F9000826080937A0080917A00816080937A00E9
:100FA00080917A00806880937A001092C100E0916D
:100FB0005501F091560182E08083E0915101F0915A
:100FC00052011082E0915301F091540180E180833D
:100FD00010925D01E0915901F0915A0186E0808301
:100FE000E0915701F0915801808180618083E09108
:100FF0005701F0915801808188608083E09157010A
:10100000F0915801808180688083E0915701F091D0
:10101000580180818F7D80838091430190914401AC
:10102000009711F00E94350B86E090E00E949F0A25
:101030008C0188E6D8018D9387E391E08D939D9391
:101040001D9280E28D931D92009343011093440101
:1010500010924A0210924B021092790210929B0257
:101060000E94540384ED90E08093E2019093E301A9
:101070008DEC90E08093E5019093E60181E0F8012A
:101080008383C8010E94A50485E03E01FFEF6F1A2B
:101090007F0AD301E82F1D92EA95E9F790E39A833E
:1010A00095E49B8393E19C8397E19E838F8384E205
:1010B000888721E048E050E0B3018091430190919E
:1010C00044010E9426050E94DF02B62FA72FF82FA9
:1010D000E92F47E050ED20E030E08B2E9A2EAF2E26
:1010E000BE2EC52ED42EE32EF22E05C0C114DC0474
:1010F000EC04FC04F9F00E94DF02681979098A09FE
:101100009B095C2D4D2D3E2D2F2DF1E0CF1AD108DE
:10111000E108F108B82DA92DFA2DEB2D18EE810E5E
:1011200013E0911EA11CB11C683E734080409040AA
:10113000E8F6D3CF1982209043013090440120E09B
:1011400041E050E0B301C1010E942605811189C030
:1011500089818F77182F12951F70912F990F990FF2
:10116000191B110F180F8A81082F02950F70902FED
:10117000990F990F091B000F080F8B81F82EF2941D
:101180009FE0F9229F2D990F990FF91AFF0CF80E85
:101190008D81E82EE2942FE0E2229E2D990F990F87
:1011A000E91AEE0CE80E8E81D82ED294D2229D2D13
:1011B000990F990FD91ADD0CD80E9F81892F82952E
:1011C0008F70282F220F220F821B880F890F90E02B
:1011D0008053984FBC0180E090E04AE00E945A059D
:1011E0008DE20E94D4026D2D70E080E090E04AE034
:1011F0000E945A058DE20E94D4026E2D70E080E0BC
:1012000090E04AE00E945A0580E20E94D4026F2DCD
:1012100070E080E090E04AE00E945A058AE30E9474
:10122000D402602F70E080E090E04AE00E945A050E
:101230008AE30E94D402612F70E080E090E04AE0EF
:101240000E945A0542E050E06AE271E085E491E0D4
:101250000E949E0200E010E00030100709F002C179
:10126000FFCFE12CF12C87E0482E512CD1011496B0
:101270008D919D9182010E191F098017910708F425
:101280008C01F101C0800E94DF024B015C01809162
:101290007202811171C021E0C201801B910BE8161E
:1012A000F90608F420E0D02EF1E0F09372022093CA
:1012B00071022FEF2093700210926F028FEF800F58
:1012C00080936E02F0934D0280914D02CC0CC82A9F
:1012D000C0924D0280914C02813009F08BC0109277
:1012E0004C020E94DF024B015C0180914D02809311
:1012F000BB008091740290917502A0917602B0912A
:101300007702892B8A2B8B2BA1F00E94DF02209180
:1013100074023091750240917602509177026819FB
:1013200079098A099B09261737074807590708F4DE
:1013300044C08091BC0083FDD8CF35EC3093BC0015
:101340000E94DF024B015C0180917202813009F43E
:1013500055C080916F028D1510F4D0906F02AAE2F3
:10136000B2E0EEE4F2E08E2F2EE432E0821B8D1527
:1013700048F581918D93F7CF809174029091750219
:10138000A0917602B0917702892B8A2B8B2B09F4DE
:101390007ECF0E94DF02209174023091750240914D
:1013A000760250917702681979098A099B092617F4
:1013B00037074807590708F06ACF809173020E94E7
:1013C0007803D12C10924A02D0924B02D01611060B
:1013D00009F0BECE43018E0C9F1CC12CD12C0C15E4
:1013E0001D0571F5E00EF11E17E0E116F10408F499
:1013F0003DCFAECE85EE8093BC00A2CF809174022B
:1014000090917502A0917602B0917702892B8A2B78
:101410008B2B09F499CF0E94DF0220917402309146
:1014200075024091760250917702681979098A090C
:101430009B09261737074807590708F085CFBDCF06
:10144000D10111968D919D91DC01ED91FD91028468
:10145000F385E02D0995F40181934F01FFEFCF1A39
:10146000DF0ABDCF0E94A601803009F4F5CE0E94AC
:101470000000F2CECF93DF93CDB7DEB7E5E4F1E025
:101480001282138288EE93E08483958316821782FA
:101490002AE031E02083318325EC2487158624EC73
:1014A0002687178620EC208B118A21EC228B138A49
:1014B00022EC248B158A26EC268B178A118E128E2D
:1014C000138E148E1092390110923A0180933B01D1
:1014D00090933C0110923D0110923E018CE191E00D
:1014E0008093370190933801DF91CF910895A1E265
:1014F0001A2EAA1BBB1BFD010DC0AA1FBB1FEE1F8E
:10150000FF1FA217B307E407F50720F0A21BB30BD8
:10151000E40BF50B661F771F881F991F1A9469F754
:1015200060957095809590959B01AC01BD01CF01B0
:101530000895EE0FFF1F0590F491E02D0994A0E0AF
:10154000B0E0E5EAFAE00C94D30B8230910510F498
:1015500082E090E0E0919C02F0919D029D01309725
:10156000A9F42030320709F447C0281B390B243076
:101570003105B8F5DB0112968D919D910030100771
:1015800059F1F80182839383FB010DC040815181A1
:10159000E280F38048175907B0F079F4109741F0D2
:1015A0001296ED92FC923296CF01E6E00C94EF0B8E
:1015B000E0929C02F0929D02F6CF2030320751F06B
:1015C0004217530738F0A901D8019A018D01DF01B4
:1015D000F701C5CFBF01F9CF80939C0290939D0284
:1015E000D3CFFB01E20FF31F819391932250304040
:1015F000DB012D933D93D8CF40919E0250919F02E5
:101600004030540741F4409102015091030140934E
:101610009E0250939F0220910001309101012030E1
:10162000320741F42DB73EB7609104017091050176
:10163000261B370B4217530708F0B6CF241B350B78
:101640002817390708F4B0CFBC016E5F7F4F26170B
:10165000370708F4A9CF640F751F60939E0270933B
:101660009F02FA01819391939FCFA0E0B0E0EBE35A
:10167000FBE00C94D70B0097F1F0FC01329712823B
:10168000138220919C0230919D02D90140E050E0EC
:1016900020303207A1F420813181820F931F2091E5
:1016A0009E0230919F022817390709F065C0E09328
:1016B0009E02F0939F02E2E00C94F30BDB01AE1765
:1016C000BF0708F040C012966D917D911497AD014F
:1016D0006030760799F7DA011296ED93FD9314972F
:1016E0006D917D91CD01860F971FE817F90761F481
:1016F000808191810296860F971FDA018D939D93C9
:10170000828193818D939D93E0E0F0E0D901129660
:101710008D919D9114970097A1F58D919D918A0FC0
:101720009B1F40919E0250919F024817590719F63E
:10173000309751F510929C0210929D0220939E02C8
:1017400030939F02B8CFA283B38360817181860FEB
:10175000971FA817B90761F46E5F7F4F8D919D9118
:10176000860F971F808391838D919D9182839383B0
:101770004030540709F0AFCFE0939C02F0939D02F4
:101780009ACFF9019C01C2CF12821382D7CF2F9238
:101790003F924F925F926F927F928F929F92AF9201
:1017A000BF92CF92DF92EF92FF920F931F93CF934E
:1017B000DF93CDB7DEB7CA1BDB0B0FB6F894DEBFE5
:1017C0000FBECDBF09942A88398848885F846E840B
:1017D0007D848C849B84AA84B984C884DF80EE8055
:1017E000FD800C811B81AA81B981CE0FD11D0FB65E
:1017F000F894DEBF0FBECDBFED010895F894FFCF82
:101800000000A0022000000000003C029E02F70140
:101810000A029401DD01C90100000000080136013F
:0E1820008200C6008B009800B1000D0A000087
:00000001FF
