:100000000C9462000C948A000C948A000C948A0070
:100010000C948A000C948A000C948A000C948A0038
:100020000C948A000C948A000C948A000C948A0028
:100030000C948A000C948A000C948A000C948A0018
:100040000C94C2020C948A000C9463020C949602E5
:100050000C948A000C948A000C948A000C948A00F8
:100060000C948A000C948A00000000080002010031
:100070000003040700000000000000000000000072
:10008000250028002B0000000000240027002A0083
:1000900000000000230026002900040404040404D6
:1000A0000404020202020202030303030303010227
:1000B00004081020408001020408102001020408F6
:1000C0001020550311241FBECFEFD8E0DEBFCDBFF7
:1000D00011E0A0E0B1E0EAEFF9E002C005900D9276
:1000E000A631B107D9F721E0A6E1B1E001C01D9228
:1000F000AC3BB207E1F710E0C2E6D0E004C02197C4
:10010000FE010E94F504C136D107C9F70E948003A1
:100110000C94FB040C940000CF93DF93CDB7DEB7B3
:10012000FC01A48DA80FB92FB11DA35ABF4F2C916C
:10013000848D01968F73848FA689B7892C93A089AB
:10014000B1898C91837080648C93938D848D981386
:1001500006C00288F389E02D80818F7D8083DF9146
:10016000CF910895CF93DF93CDB7DEB7FC01918D8A
:10017000228D892F90E0805C9F4F821B90408F736F
:1001800090E0DF91CF910895CF93DF93CDB7DEB7A5
:100190008FE191E00E94B2009C0181E0232B09F4E1
:1001A00080E0DF91CF910895CF93DF93CDB7DEB795
:1001B00080E090E0892B41F00E94C400803021F063
:1001C000DF91CF910C940000DF91CF910895CF93F0
:1001D000DF93CDB7DEB7FC01918D828D981741F08A
:1001E000828DE80FF11D858D90E0DF91CF9108950C
:1001F0008FEF9FEFFACFCF93DF93CDB7DEB7FC0140
:10020000918D828D981771F0A28DAE0FBF2FB11D09
:100210005D968C91928D9F5F9F73928F90E0DF919E
:10022000CF9108958FEF9FEFFACFCF93DF93CDB7A4
:10023000DEB7FC01238D348D832F90E0821B90402C
:10024000231720F0CF96DF91CF9108950197FBCF30
:100250000F931F93CF93DF93CDB7DEB78C01DC01F3
:1002600058968C91811116C0DF91CF911F910F91FB
:1002700008950FB607FC12C0808185FF0FC0D8011A
:1002800050968D919D91DC018C9185FF07C0C8012E
:100290000E948C00D8015296ED91FD91808185FDE0
:1002A000E8CFD80150968D919D91DC018C9186FF0D
:1002B000E0CFDACFCF92DF92EF92FF920F931F93AE
:1002C000CF93DF93CDB7DEB78C01D62E81E0D80176
:1002D00058968C9313969D918C915C97981320C09F
:1002E0005096ED91FD915297808185FF19C09FB77F
:1002F000F8945696ED91FD9160831897ED91FD91DC
:1003000080818370806480839FBF81E090E0DF9173
:10031000CF911F910F91FF90EF90DF90CF900895B4
:10032000F801E38CFFEFEF1AFF0A8FE3E822CE2CEF
:10033000F801848D8C1591F0E38DE00FF12FF11D04
:10034000E35AFF4FD0829FB7F894D8015B96EC92A6
:100350001997ED91FD9180818062D5CF0FB607FC92
:10036000E7CFD8015096ED91FD91808185FFE0CFD8
:10037000C8010E948C00DCCFEF92FF920F931F9375
:10038000CF93DF9300D000D0CDB7DEB789839A83B7
:100390004B835C838B01E12CF12C8B819C81E816D3
:1003A000F90661F4C7010F900F900F900F90DF9145
:1003B000CF911F910F91FF90EF900895A981BA817D
:1003C000ED91FD910190F081E02DD8016C91898132
:1003D0009A810995892B31F30F5F1F4FBFEFEB1AFD
:1003E000FB0ADBCFCF93DF93CDB7DEB73FB7F894EF
:1003F0008091160190911701A0911801B0911901F7
:1004000026B5A89B04C02F3F11F00196A11D3FBF48
:10041000782F892F9A2F622F42E0660F771F881F4F
:10042000991F4A95D1F7DF91CF910895CF93DF932C
:10043000CDB7DEB7E1E7F0E02491E7EBF0E094918F
:10044000E3EAF0E0E491E03019F1203089F0243063
:1004500011F150F4223039F1233009F52091800058
:100460002F772093800004C0273001F1283021F13C
:10047000F0E0EE0FFF1FE458FF4FA591B5912FB7A5
:10048000F89481111DC08C91909598239C932FBF57
:10049000DF91CF910895209180002F7DE2CF24B588
:1004A0002F7724BDE5CF24B52F7DFBCF2091B00061
:1004B0002F772093B000DCCF2091B0002F7DF9CFB3
:1004C0008C91982BE3CF2F932FB72F938F939F93DC
:1004D000EF93FF93CF93DF93CDB7DEB7E0912F017A
:1004E000F09130018081E0913501F091360182FD7B
:1004F0001BC09081809138018F5F8F7320913901EB
:10050000821741F0E0913801F0E0E15EFE4F958FF7
:1005100080933801DF91CF91FF91EF919F918F915F
:100520002F912FBF2F9118958081F4CF1F920F929A
:100530000FB60F9211242F933F934F935F936F93B6
:100540007F938F939F93AF93BF93EF93FF93CF933B
:10055000DF93CDB7DEB78FE191E00E948C00DF9191
:10056000CF91FF91EF91BF91AF919F918F917F912B
:100570006F915F914F913F912F910F900FBE0F9010
:100580001F9018951F921FB61F9211242F933F930F
:100590008F939F93AF93BF93CF93DF93CDB7DEB786
:1005A00080911B0190911C01A0911D01B0911E0131
:1005B00030911A0123E0230F2D3760F50196A11D1C
:1005C000B11D20931A0180931B0190931C01A093ED
:1005D0001D01B0931E018091160190911701A09109
:1005E0001801B09119010196A11DB11D809316014A
:1005F00090931701A0931801B0931901DF91CF9147
:10060000BF91AF919F918F913F912F911F901FBEEE
:100610001F90189526E8230F0296A11DB11DD1CF7A
:10062000CF92DF92EF92FF920F931F93E82FF92F53
:1006300005C0015011092109310961F1908196230A
:100640009417B9F305C0015011092109310911F1BD
:10065000908196239413F7CFC12CD12CE12CF12C4F
:100660000AC08FEFC81AD80AE80AF80A0C151D0547
:100670002E053F0579F080818623841791F36C2D38
:100680007D2D8E2D9F2D1F910F91FF90EF90DF906C
:10069000CF90089560E070E080E090E01F910F91AE
:1006A000FF90EF90DF90CF900895CF93DF93CDB779
:1006B000DEB7EFE1F1E01282138288EE93E08483EB
:1006C00095831682178284E091E08083918385EC84
:1006D0008487158684EC8687178680EC808B118A48
:1006E00081EC828B138A82EC848B158A86EC868B54
:1006F000178A118E128E138E148EDF91CF9108956A
:10070000CDB7DEB7A1970FB6F894DEBF0FBECDBF51
:10071000789484B5826084BD84B5816084BD85B5DC
:10072000826085BD85B5816085BD80916E008160E8
:1007300080936E001092810080918100826080938E
:100740008100809181008160809381008091800090
:100750008160809380008091B10084608093B100BB
:100760008091B00081608093B00080917A008460B5
:1007700080937A0080917A00826080937A008091E1
:100780007A00816080937A0080917A0080688093FB
:100790007A001092C100E7EBF0E02491E3EAF0E088
:1007A00084918030A1F090E0880F991FFC01EA57F6
:1007B000FF4FA591B591FC01E458FF4F85919591AC
:1007C0008FB7F8949C91E22FE92BEC938FBFE8EB65
:1007D000F0E02491E4EAF0E084918030C9F090E008
:1007E000880F991FFC01EA57FF4FA591B591FC01B5
:1007F000E458FF4F459155913FB7F8949C91822F53
:10080000809598239C93FA019081892380833FBF30
:10081000E0912F01F091300182E08083E0912B0183
:10082000F0912C011082E0912D01F0912E0180E1D8
:10083000808310923701E0913301F091340186E01A
:100840008083E0913101F091320180818061808369
:10085000E0913101F0913201808188608083E091E4
:100860003101F0913201808180688083E091310113
:10087000F091320180818F7D808380E00E9416029A
:1008800083E090E00197F1F781E00E94160283E295
:1008900090E00197F1F780E00E941602E8EBF0E0AB
:1008A0006491E4EAF0E08491E82FF0E0EE0FFF1F9E
:1008B000E057FF4F8591959100E315E720E030E088
:1008C000462F0E9410039B01AC01203032074207E3
:1008D000520741F0CB01DA010196A11DB11D9C0127
:1008E000AD015F7019A28E010F5D1F4F49015A01C2
:1008F000B901CA012AE030E040E050E00E94D30490
:10090000605DF80162938F01FAE08F169104A104F3
:10091000B10460F70030100769F0F8010190002081
:10092000E9F73197AF01401B510BB8018FE191E01E
:100930000E94BC0142E050E062E171E08FE191E091
:100940000E94BC010E94F2017B018C018AE0882E8A
:10095000912CA12CB12C0E94F2016E197F09800B01
:10096000910B683E734080409040A8F321E0821ACA
:100970009108A108B10888E1E81A8CEFF80A0F4F36
:100980001F4F81149804A804B80429F780E090E070
:10099000892B09F472CF0E94C400803009F46DCF16
:1009A0000E9400006ACFA1E21A2EAA1BBB1BFD0108
:1009B0000DC0AA1FBB1FEE1FFF1FA217B307E4073E
:1009C000F50720F0A21BB30BE40BF50B661F771F96
:1009D000881F991F1A9469F7609570958095909576
:1009E0009B01AC01BD01CF010895EE0FFF1F0590E3
:0A09F000F491E02D0994F894FFCF74
:1009FA00000000005A01BC0115012801B200FB00E9
:060A0A00E7000D0A0000E8
:00000001FF
