:100000000C9463000C948B000C948B000C948B006C
:100010000C948B000C948B000C948B000C94460772
:100020000C948B000C948B000C948B000C948B0024
:100030000C948B000C948B000C948B000C948B0014
:100040000C94FB070C948B000C942A030C9459031A
:100050000C948B000C948B000C948B000C948B00F4
:100060000C948B000C948B000200000000240027ED
:10007000002A0000000000250028002B00000000DE
:1000800000230026002900040404040404040402DC
:100090000202020202030303030303010204081025
:1000A00020408001020408102001020408102000F2
:1000B0000000080002010000030407000000000027
:1000C000000000008A0311241FBECFEFD8E0DEBF7E
:1000D000CDBF11E0A0E0B1E0E8E4F5E102C0059099
:1000E0000D92A034B107D9F721E0A0E4B1E001C03E
:1000F0001D92AB3FB207E1F710E0C3E6D0E004C0C9
:100100002197FE010E94770AC236D107C9F70E94E3
:10011000E9070C941A0A0C9400000000CF92DF92B9
:10012000EF92FF920F931F93E82FF92F05C0015014
:1001300011092109310961F1908196239417B9F3CE
:1001400005C0015011092109310911F1908196234F
:100150009413F7CFC12CD12CE12CF12C0AC08FEFD6
:10016000C81AD80AE80AF80A0C151D052E053F051D
:1001700079F080818623841791F36C2D7D2D8E2D4F
:100180009F2D1F910F91FF90EF90DF90CF900895DA
:1001900060E070E080E090E01F910F91FF90EF90A1
:1001A000DF90CF90089589E061E00E9459098AE0CC
:1001B000612D0E94590980E491E040E855E260E039
:1001C00070E026E00E94DA010895EF92FF921F93FB
:1001D00011E089E061E00E948B098AE090E00E94D2
:1001E000090989E0612D0E948B0920E335E740E091
:1001F00050E08AE061E07A010E94E109A7016115FF
:1002000071058407950709F0112D11702AE330E07C
:100210000E94580A8FEF9FEF1030BC0109F4B9011A
:10022000103009F4CA011F91FF90EF9008954F928A
:100230005F926F927F928F929F92AF92BF92CF9276
:10024000DF92EF92FF920F931F930E94E5004B0104
:100250003C01940121503040A3014040504000E057
:1002600010E081E02B3331054007510708F4812D60
:100270008170803009F053C0EDB7FEB7E450F04014
:100280000FB6F894FEBF0FBEEDBF14830383128335
:10029000018325E030E0ECE3F0E0AEE0B0E0B40153
:1002A000C301A8017F012D015D0168010E94B10712
:1002B000EDB7FEB734960FB6F894FEBF0FBEEDBF94
:1002C000161617060CF0B8016E3071050CF0B2016D
:1002D000660F771F6F5F7E4FFB01E080F18088E043
:1002E000B7019801A8010E94220500E411E02AE06C
:1002F00030E0C801A401B30169010E942B0462E24D
:1003000071E0C8010E940404C801B701A6010E945F
:1003100023046AE271E0C8010E94F30403C088E08C
:100320000E9431076CE370E080E090E00E9450088A
:100330001F910F91FF90EF90DF90CF90BF90AF9003
:100340009F908F907F906F905F904F9008958FE770
:1003500093E08115910561F080E090E081159105B1
:1003600039F00E947F038170803011F00E940000FC
:100370000895FC01248DA22FBB27A80FB91FA35AF3
:10038000BF4F2C91348D33953F73348FA689B78935
:100390002C93A089B1892C91237020642C93238DF8
:1003A000348D231731F4FC01A289B3898C918F7DA0
:1003B0008C930895AF92BF92CF92DF92EF92FF920B
:1003C0000F931F93122F6B015A017C01F701A08933
:1003D000B18982E08C9381EE20E030E001E0A1144D
:1003E000B806C206D30609F0012D017060E079E07D
:1003F0008DE390E09501A6010E94360A215030401D
:10040000404050405695479537952795003021F448
:1004100080E121153807A0F0F701A089B1891C926D
:1004200060E874E88EE190E09501A6010E94360A2A
:10043000215030404040504056954795379527957C
:10044000F701A485B5853C93A685B7852C93108EBE
:10045000A489B5891C93A289B3898C9180618C93FE
:10046000A289B3898C9188608C93A289B3898C917D
:1004700080688C93A289B3898C918F7D8C931F9116
:100480000F91FF90EF90DF90CF90BF90AF900895C5
:10049000FC01818D9927228D3327821B930B8F734B
:1004A00090700895FC01218D328D231719F48FEF80
:1004B0009FEF0895FC01228D3327280F391FF90182
:1004C000858D99270895FC01218D328D231719F40C
:1004D0008FEF9FEF0895FC01228DAF01E22FFF27E0
:1004E000E80FF91F858DFA01928D93959F73928F76
:1004F00099270895FC01438D242F3327548D852F90
:100500009927451720F0821B930BCF9608952095CD
:100510003095820F931F08950F931F93CF93DF930E
:10052000CDB7DEB722970FB6F894DEBF0FBECDBFB2
:100530008C01F801808D813009F028C0F801FA8320
:10054000E983A289B3898C918072803061F4E9815A
:10055000FA819D01A089B1898C91D901E981FA8143
:100560008074803099F48FB788235AF38C9180720D
:10057000803039F3A089B1898C918072803009F381
:10058000C8010E94B901E981FA81DBCF22960FB63A
:10059000F894DEBF0FBECDBFDF91CF911F910F91B9
:1005A0000895CF92DF92EF92FF920F931F93162F31
:1005B0007C0181E0F701808F838D948D891741F450
:1005C000F701A089B1898C918072803009F02CC02C
:1005D000F701038D03950F73848D081791F467015C
:1005E0008FB7882352F0F701A089B1898C9180726E
:1005F000803019F0C7010E94B901F601848D0817F7
:1006000079F3F701838DA82FBB27AE0DBF1DA35A29
:10061000BF4F1C938FB7F894038FA289B3899C9125
:1006200090629C938FBF0DC08FB7F894F701A68995
:10063000B7891C93A089B1899C91937090649C9315
:100640008FBF81E090E01F910F91FF90EF90DF90BE
:10065000CF9008950F920FB60F922F938F939F9381
:10066000AF93BF93A0915001B09151019C91A09183
:100670005601B09157018C919470903089F490910B
:10068000590193959F7320915A01921749F0209137
:100690005901A22FBB27A35ABE4F8C9390935901A7
:1006A000BF91AF919F918F912F910F900FBE0F909F
:1006B00018950F920FB60F921F9211242F933F930C
:1006C0004F935F936F937F938F939F93AF93BF935A
:1006D000EF93FF9380E491E00E94B901FF91EF91C5
:1006E000BF91AF919F918F917F916F915F914F914A
:1006F0003F912F911F900F900FBE0F90189580E49F
:1007000091E00E9448029C0181E02115310509F425
:10071000812D08951092590110925A0110925B0197
:1007200080E090E0909347018093460128EE33E00B
:1007300030934501209344019093430180934201FB
:1007400086EC90E0909357018093560182EC90E004
:10075000909355018093540181EC90E09093530164
:100760008093520180EC90E090935101809350016E
:1007700084EC90E090934F0180934E0185EC90E0E3
:1007800090934D0180934C0182E391E0909341015D
:100790008093400110925C0108958F929F92AF92D6
:1007A000BF92CF92DF92EF92FF920F931F938A0135
:1007B0007B016C01011580E090E01105D1F056013C
:1007C000D701A80FB91F6C914C01F501808191816F
:1007D000FC0120813181C601F9010995811591053E
:1007E00039F0C40101960817190751F7C80101C073
:1007F000C4011F910F91FF90EF90DF90CF90BF90B9
:10080000AF909F908F900895EF92FF920F931F9358
:100810008B017C010115110579F0C8010E941D0AA8
:10082000AC01F70180819181FC0122813381C701F4
:10083000B801F901099502C080E090E01F910F9185
:10084000FF90EF9008959A01AB01770F770B672F18
:100850000E942B040895AF92BF92CF92DF92EF9245
:10086000FF920F931F936B017A018C012A3031059F
:1008700071F021153105C1F4F80180819181FC01ED
:1008800020813181C8016E2DF901099512C081E0E6
:100890009D2D99230AF4812D8170803099F0C80133
:1008A000A701B6012AE003C0C801A701B6010E9452
:1008B0007B041F910F91FF90EF90DF90CF90BF903E
:1008C000AF900895F80180819181FC0120813181F0
:1008D000C8016DE2F90109955C0160E070E0AB01CF
:1008E0004E195F096C097D09C8012AE00E947B044A
:1008F0008A0D9B1DDECF2F923F924F925F926F9297
:100900007F928F929F92AF92BF92CF92DF92EF929F
:10091000FF920F931F93CF93DF93CDB7DEB7A197CD
:100920000FB6F894DEBF0FBECDBF7B015A014C015C
:1009300019A28AE0223008F0822FDE019096C82E9C
:10094000DD2400E010E01D01B501C7019601A801FA
:100950000E94360A39012A01B301C2019601A80199
:100960000E94260AC501861B970B90E38A300CF083
:1009700097E3980FD1019C9381E0AC14BD04E0068D
:10098000F10608F4812D81701197803053017201B6
:1009900009F0D9CF1196CD018D010E941D0AAC013D
:1009A000F40180819181FC0122813381C401B8016D
:1009B000F9010995A1960FB6F894DEBF0FBECDBF21
:1009C000DF91CF911F910F91FF90EF90DF90CF902B
:1009D000BF90AF909F908F907F906F905F904F905F
:1009E0003F902F900895EF92FF920F931F937B01FA
:1009F0008C01E114F10479F0C7010E941D0AAC01D9
:100A0000F80180819181FC0122813381C801B70105
:100A1000F901099502C080E090E07C01F801808135
:100A20009181FC01228133816FE171E042E050E06D
:100A3000C801F90109958E0D9F1D1F910F91FF901F
:100A4000EF9008957F928F929F92AF92BF92CF9234
:100A5000DF92EF92FF920F931F93CF93DF93CDB767
:100A6000DEB721970FB6F894DEBF0FBECDBF7A0177
:100A700069018B0190910001981791F4E8E6F0E08C
:100A80002491922F99230AF4B8C161E0B22E0E94FA
:100A900059098B2D89838260823009F05FC0B0C014
:100AA0009F3F09F0AAC180930001E8E6F0E024919D
:100AB000223009F47BC0213009F425C0203009F030
:100AC000E0CF298314BC15BC94B5926094BD95B554
:100AD000916095BD282F3327F901E957FF4F949175
:100AE000E92FFF27EE0FFF1FED58FF4F459155915E
:100AF0005093E2014093E10125563F4FF901949153
:100B00009093E3017AC0109280001092810090913E
:100B10008100986090938100909181009160909302
:100B20008100282F3327F901E957FF4F9491E92FCE
:100B3000FF27EE0FFF1FED58FF4F45915591509342
:100B4000E9014093E80125563F4FF90194919093B4
:100B5000EA0191E0998361E00E94590960E074E242
:100B600084EF90E040E050E098010E94360AD901FD
:100B70000B37110510F081E001C087E090E0803074
:100B8000798139F056954795B795A7958A95803024
:100B9000C9F71197713009F0EAC09D0171E083E057
:100BA0000B37110508F081E0A1E8DBC02983109222
:100BB000B0001092B1009091B00092609093B0009C
:100BC0009091B10091609093B100282F3327F901E3
:100BD000E957FF4F9491E92FFF27EE0FFF1FED58C4
:100BE000FF4F459155915093F0014093EF012556E9
:100BF0003F4FF90194919093F10161E00E945909EE
:100C000060E074E284EF90E040E050E098014A0137
:100C10000E94360A5901852F8695842F8795BB2D12
:100C2000B795AA2DA79581E099E70939190778F4B6
:100C30009FE00433190791E0698108F0912D62303B
:100C400009F0812D9823903029F464E004C01197B5
:100C5000798181C066E070E06030D501FA0149F029
:100C6000D501FA01F695E795B795A7956A95603095
:100C7000C9F761E0A130B6079401E207F307798173
:100C800008F0612D6170917083E0903009F482E08A
:100C9000603009F05FC081E0073E180791E008F07E
:100CA000912D723009F0812D9823903011F4E7E0F6
:100CB00001C0E8E0F0E083E0703009F084E0782ED5
:100CC0009501DA01E03031F0B695A7953795279573
:100CD000EA95F8CF21503040A040B04061E02115A6
:100CE000F90136079401A207B30708F0612D61707E
:100CF000917085E0903009F4872D6030DF0109F0B4
:100D00002AC0652F6695B42FB795AB2DA795712D89
:100D1000A150B0406040704091E0A115B90768054E
:100D2000790508F0912D917084E07981703009F097
:100D300086E0903081F485E0703009F087E05695C8
:100D40004795B79456954795B79456954795B79458
:100D5000AB2DB42F11979D01703011F0A1EB01C0A4
:100D6000A5E4B0E09C91987F982B9C93D90120E05A
:100D700030E081E0C114D104E206F30609F0812DD0
:100D800081708030A1F4000F111F980100E010E085
:100D9000B72EB601C701A8017D010E94260A28EEE0
:100DA00033E0A8010E94360AD7017B2D03C02FEF44
:100DB0003FEFA901723099F0713041F07030E9F4E1
:100DC000A7BDAEE6B0E08DED91E00FC0B093890015
:100DD000A0938800AFE6B0E084EE91E006C0A09357
:100DE000B300A0E7B0E08BEE91E0FC0131832083FB
:100DF000538342838C9182608C9321960FB6F89432
:100E0000DEBF0FBECDBFDF91CF911F910F91FF903D
:100E1000EF90DF90CF90BF90AF909F908F907F909A
:100E20000895823069F0813029F08030C9F4109241
:100E30006E00089580916F008D7F80936F000895FC
:100E4000809170008D7F8093700081E08093B0006E
:100E50008091B100887F84608093B1001092B300CC
:100E600008951F93182F8FEF90910001911731F47F
:100E7000E8E6F0E0949180930001892F0E94110729
:100E8000812F612D0E948B091F9108950F920FB63B
:100E90000F921F9211242F933F934F935F936F9361
:100EA0007F938F939F93AF93BF93EF93FF93409163
:100EB000EB015091EC0180E090E06091ED017091C8
:100EC000EE0121E0411551056807790709F0212D50
:100ED0002170203009F030C02091F101A091EF0184
:100EE000B091F0013C9132273C934091EB0150913D
:100EF000EC0121E06091ED017091EE0114161506F0
:100F0000860797070CF4212D21702030C9F48091B9
:100F1000EB019091EC012091ED013091EE018150B7
:100F20009040204030403093EE012093ED019093AB
:100F3000EC018093EB0104C0809100010E94310715
:100F4000FF91EF91BF91AF919F918F917F916F91A1
:100F50005F914F913F912F911F900F900FBE0F9077
:100F600018956F927F928F929F92EF92FF920F93BC
:100F70001F93CF93DF93CDB7DEB74A013901AC01A0
:100F80009B016D857E858F8598896A197B098C09FF
:100F90009D0926193709480959090E94260AE618A9
:100FA000F708080919099701A8010E94580A2A0D93
:100FB0003B1D4C1D5D1DB901CA01DF91CF911F91F1
:100FC0000F91FF90EF909F908F907F906F9008957A
:100FD00008950F931F930E9414090E94E8070E942E
:100FE000D30007EA11E00E94170101151105D9F39A
:100FF0000E94A701F8CF0F920FB60F922F933F9345
:101000004F935F936F937F938F939F93EF93FF9390
:101010008091FA01982F9D5F9D3710F421E001C067
:1010200022E030E04091F6015091F70160E070E07D
:10103000E091F801F091F901420F531FE61FF71FED
:10104000F093F901E093F8015093F7014093F60112
:101050008A579D3708F4892F8093FA018091F20115
:101060009091F3012091F4013091F5018F5F9F4F32
:101070002F4F3F4F3093F5012093F4019093F301EC
:101080008093F201FF91EF919F918F917F916F91EA
:101090005F914F913F912F910F900FBE0F90189538
:1010A0006F927F928F929F92AF92BF92CF92DF9278
:1010B000EF92FF920F931F93AFB7F8944091F40112
:1010C0005091F5012091F2013091F301E6B5F5B3AD
:1010D000AFBF00E010E0A1E061156B0171055801A0
:1010E0008007910709F0A12DA170A03009F084C0FC
:1010F00061E0EF3F09F4612D7C01F6236F2F772724
:10110000260F371F8501401F511F220F331F441F19
:10111000220F331F441F542F432F322F212D8E2E89
:101120009924880C991C001F111F880C991C001F02
:10113000111F042B152B822A932A0E945809D701CC
:101140008FB7F8944091F4015091F5012091F2018C
:101150003091F30196B565B38FBF81E09F3F71E099
:1011600009F4712D67237727260F371F75014E1D50
:101170005F1D220F331F441F220F331F441F542FA4
:10118000432F722F612D292F3327220F331FEE2D6E
:10119000EE1FFF2DFF1F220F331FEE1FFF1F340115
:1011A00026193709E00BF10B260F371FE41FF51F37
:1011B000283E93E03907EE05FF0508F0812D817088
:1011C0008030C1F4960121503040A040B04081E011
:1011D0002115690131059501A207B30709F4812D95
:1011E0008170940128513C4F49010F4F1F4F8030AF
:1011F00019F0A6CF7D01A1CF1F910F91FF90EF9025
:10120000DF90CF90BF90AF909F908F907F906F9026
:1012100008958230910538F0880F991F880F991F23
:1012200005970197F1F70895789484B5826084BD9D
:1012300084B5816084BD85B5826085BD85B58160DA
:1012400085BD80916E00816080936E001092810058
:101250008091810082608093810080918100816013
:1012600080938100809180008160809380008091D4
:10127000B10084608093B1008091B0008160809360
:10128000B00080917A00846080937A0080917A0027
:10129000826080937A0080917A00816080937A00E6
:1012A00080917A00806880937A001092C10008953E
:1012B00008959927FC01E556FF4F249189579F4FC8
:1012C000FC018491803009F425C09927880F991F6B
:1012D000FC01E759FF4FA591B5918D589F4FFC0137
:1012E000459155918FB7F894623051F0603071F4A8
:1012F00020959C9192239C93DA019C91922308C0A3
:10130000922F90953C9139233C93DA019C91922B3A
:101310009C938FBF0895EF92FF920F931F93282FF6
:101320003327F901E155FF4F8491F901E556FF4F4D
:10133000F49029573F4FF9019491903009F41BC064
:10134000092F1127803021F0E62E0E94C0096E2D52
:10135000000F111F0D581F4FF801A591B5918FB7C0
:10136000F894603019F09C919F2903C0F0949C91EF
:101370009F219C938FBF1F910F91FF90EF90089535
:10138000843044F4813079F0823089F08330C1F4C4
:101390008FE707C0883049F0873061F0843081F4EE
:1013A0008FEDA0E809C08FE703C08FED04C08FED7B
:1013B000A4E402C08FE7A0EBB0E09C9198239C933B
:1013C00008950F931F93DA01462F9927FC01E556E4
:1013D000FF4F64914030412D09F0462F89579F4FB0
:1013E000FC018491E82FFF27EE0FFF1FE358FF4F0A
:1013F00085919591BF7089019D010E948E0020E02A
:1014000030E0E1E0611571058207930709F0E12DF5
:10141000E1706F5F7F4F8F4F9F4FE030A90109F45C
:10142000AB01E03011F49F709C01BA01C9011F911A
:101430000F910895F8940C94970AFC0101900020F4
:10144000E9F7809590958E0F9F1F0895DB018F938C
:101450009F930E947D0ABF91AF91A29F800D911D25
:10146000A39F900DB29F900D11240895A1E21A2E12
:10147000AA1BBB1BFD010DC0AA1FBB1FEE1FFF1F38
:10148000A217B307E407F50720F0A21BB30BE40B88
:10149000F50B661F771F881F991F1A9469F76095CF
:1014A0007095809590959B01AC01BD01CF01089589
:1014B000052E97FB1EF400940E946F0A57FD07D07B
:1014C0000E94360A07FC03D04EF40C946F0A509524
:1014D0004095309521953F4F4F4F5F4F0895909520
:1014E0008095709561957F4F8F4F9F4F0895EE0FB8
:1014F000FF1F0590F491E02D09940E94880AA59F92
:10150000900DB49F900DA49F800D911D11240895FE
:10151000A29FB001B39FC001A39F700D811D112434
:10152000911DB29F700D811D1124911D089510E031
:10153000C3E6D0E004C0FE010E94770A2196C336BC
:08154000D107C9F7F894FFCFB1
:10154800FF060126014A015D018801B801EE010B81
:10155800024B029302BA0210037003DC0317040D56
:101568000A0020636D202D3E200020487A000000EC
:101578000000D102CD037A028C02480263025202B3
:00000001FF
