:100000000C9462000C948A000C948A000C948A0070
:100010000C948A000C948A000C948A000C948A0038
:100020000C948A000C948A000C948A000C948A0028
:100030000C948A000C948A000C948A000C948A0018
:100040000C9410050C948A000C947E020C94AD0262
:100050000C948A000C948A000C948A000C948A00F8
:100060000C948A000C948A000000000024002700F1
:100070002A0000000000250028002B0000000000DE
:1000800023002600290004040404040404040202DA
:100090000202020203030303030301020408102007
:1000A0004080010204081020010204081020000012
:1000B0000008000201000003040700000000000027
:1000C0000000DE0211241FBECFEFD8E0DEBFCDBF9F
:1000D00011E0A0E0B1E0ECE9F4E102C005900D927E
:1000E000AC32B107D9F721E0ACE2B1E001C01D921A
:1000F000A23DB207E1F710E0C2E6D0E004C02197CC
:10010000FE010E94210AC136D107C9F70E94FE04F0
:100110000C94E3090C94000082E062E00E94E40683
:100120008DE061E00E94E40689E061E00E94E4065F
:100130008CE291E040E855E260E070E026E00E9449
:100140002E010895CF92DF92EF92FF920F931F93AB
:1001500082E00E946C0761E08115910509F0612D34
:100160008DE00E9416078EE00E9463067C01670105
:10017000DD0CDD08CD2CB601672F62956F707727F7
:10018000669566956E0D7F1D759567957595679556
:1001900089E00E9481060CE211E061E071E0C80193
:1001A0000E945803B701C6010E94B00820E030E069
:1001B00040EA50E479010E94760920E030EC4FE7F4
:1001C00054E40E940D08AB01BC0122E030E0C801FC
:1001D0000E94EF036EE071E0C8010E94CE0464E665
:1001E00070E0C7010E9465051F910F91FF90EF908D
:1001F000DF90CF90089583ED92E08115910561F035
:1002000080E090E08115910539F00E94D302817061
:10021000803011F00E9400000895FC01248DA22F6F
:10022000BB27A80FB91FA35ABF4F2C91348D33950C
:100230003F73348FA689B7892C93A089B1892C91FB
:10024000237020642C93238D348D231731F4FC010B
:10025000A289B3898C918F7D8C930895AF92BF92C0
:10026000CF92DF92EF92FF920F931F93122F6B01A9
:100270005A017C01F701A089B18982E08C9381EE5B
:1002800020E030E001E0A114B806C206D30609F070
:10029000012D017060E079E08DE390E09501A60109
:1002A0000E94FF09215030404040504056954795EC
:1002B00037952795003021F480E121153807A0F00B
:1002C000F701A089B1891C9260E874E88EE190E0A2
:1002D0009501A6010E94FF09215030404040504046
:1002E0005695479537952795F701A485B5853C9395
:1002F000A685B7852C93108EA489B5891C93A289F5
:10030000B3898C9180618C93A289B3898C91886028
:100310008C93A289B3898C9180688C93A289B389CC
:100320008C918F7D8C931F910F91FF90EF90DF90B8
:10033000CF90BF90AF900895FC01818D9927228DB9
:100340003327821B930B8F7390700895FC01218DCE
:10035000328D231719F48FEF9FEF0895FC01228D42
:100360003327280F391FF901858D99270895FC013E
:10037000218D328D231719F48FEF9FEF0895FC0123
:10038000228DAF01E22FFF27E80FF91F858DFA01BB
:10039000928D93959F73928F99270895FC01438DB9
:1003A000242F3327548D852F9927451720F0821B42
:1003B000930BCF96089520953095820F931F089543
:1003C0000F931F93CF93DF93CDB7DEB722970FB66E
:1003D000F894DEBF0FBECDBF8C01F801808D813057
:1003E00009F028C0F801FA83E983A289B3898C91C6
:1003F0008072803061F4E981FA819D01A089B18920
:100400008C91D901E981FA818074803099F48FB799
:1004100088235AF38C918072803039F3A089B18996
:100420008C918072803009F3C8010E940D01E9812E
:10043000FA81DBCF22960FB6F894DEBF0FBECDBF98
:10044000DF91CF911F910F910895CF92DF92EF929C
:10045000FF920F931F93162F7C0181E0F701808F8D
:10046000838D948D891741F4F701A089B1898C910E
:100470008072803009F02CC0F701038D03950F7353
:10048000848D081791F467018FB7882352F0F70124
:10049000A089B1898C918072803019F0C7010E94C7
:1004A0000D01F601848D081779F3F701838DA82FCC
:1004B000BB27AE0DBF1DA35ABF4F1C938FB7F89437
:1004C000038FA289B3899C9190629C938FBF0DC0CA
:1004D0008FB7F894F701A689B7891C93A089B189D1
:1004E0009C91937090649C938FBF81E090E01F91EA
:1004F0000F91FF90EF90DF90CF9008950F920FB67D
:100500000F922F938F939F93AF93BF93A0913C0132
:10051000B0913D019C91A0914201B09143018C9119
:100520009470903089F49091450193959F73209138
:100530004601921749F020914501A22FBB27A75BE6
:10054000BE4F8C9390934501BF91AF919F918F9136
:100550002F910F900FBE0F9018950F920FB60F921C
:100560001F9211242F933F934F935F936F937F9329
:100570008F939F93AF93BF93EF93FF938CE291E0A0
:100580000E940D01FF91EF91BF91AF919F918F91CB
:100590007F916F915F914F913F912F911F900F909D
:1005A0000FBE0F9018958CE291E00E949C019C0177
:1005B00081E02115310509F4812D0895109245013E
:1005C000109246011092470180E090E09093330131
:1005D0008093320128EE33E03093310120933001D3
:1005E00090932F0180932E0186EC90E0909343012D
:1005F0008093420182EC90E090934101809340010E
:1006000081EC90E090933F0180933E0180EC90E07C
:1006100090933D0180933C0184EC90E090933B01EA
:1006200080933A0185EC90E09093390180933801F2
:100630008DE191E090932D0180932C01109248015F
:1006400008958F929F92AF92BF92CF92DF92EF92D6
:10065000FF920F931F938A017B016C01011580E0CB
:1006600090E01105D1F05601D701A80FB91F6C9188
:100670004C01F50180819181FC0120813181C6010D
:10068000F90109958115910539F0C4010196081702
:10069000190751F7C80101C0C4011F910F91FF90C4
:1006A000EF90DF90CF90BF90AF909F908F90089584
:1006B000EF92FF920F931F938B017C01011511059F
:1006C00079F0C8010E94E609AC01F70180819181AF
:1006D000FC0122813381C701B801F901099502C0EB
:1006E00080E090E01F910F91FF90EF9008952F927E
:1006F0003F924F925F926F927F928F929F92AF92B2
:10070000BF92CF92DF92EF92FF920F931F93CF93FE
:10071000DF93CDB7DEB7A1970FB6F894DEBF0FBE5B
:10072000CDBF7B015A014C0119A28AE0223008F0AA
:10073000822FDE019096C82EDD2400E010E01D011E
:10074000B501C7019601A8010E94FF0939012A01DC
:10075000B301C2019601A8010E94EF09C501861BE1
:10076000970B90E38A300CF097E3980FD1019C939C
:1007700081E0AC14BD04E006F10608F4812D81701F
:10078000119780305301720109F0D9CF1196CD0134
:100790008D010E94E609AC01F40180819181FC0188
:1007A00022813381C401B801F9010995A1960FB6E0
:1007B000F894DEBF0FBECDBFDF91CF911F910F9197
:1007C000FF90EF90DF90CF90BF90AF909F908F9071
:1007D0007F906F905F904F903F902F9008950E9470
:1007E000F20308952F923F924F925F926F927F9201
:1007F0008F929F92AF92BF92CF92DF92EF92FF9231
:100800000F931F93122F6B015A017C01B501C60192
:100810000E946F098115910519F065E171E018C01A
:10082000B501C6010E9465098115910519F067E0BF
:1008300071E00EC0C6019F772FEF3FEF4FE75FE4F7
:10084000B5010E94600918160CF020C061E171E04A
:10085000F70180819181FC012281338143E050E0E6
:10086000C701F90109956C01C6011F910F91FF9015
:10087000EF90DF90CF90BF90AF909F908F907F9040
:100880006F905F904F903F902F90089520E030E060
:10089000B501C6011901A9010E94080888237AF44C
:1008A00080E090E8C826D926F70180819181FC017B
:1008B00020813181C7016DE2F90109951C0140E0F9
:1008C0005FE320E030E0103081F080E291E43C0111
:1008D000012F4901B901CA019401A3010E940D0829
:1008E0009B01AC010A950030A9F7B501C6010E9431
:1008F0009C076B015C010E947F084B012C01C70122
:10090000A401B2012AE00E9477033C01620C731C2F
:10091000103009F441C0B401C2010E94AE089B012D
:10092000AC01B601C5010E949B075B014C01F701B8
:1009300080819181FC0120813181C7016EE2F90142
:1009400009956C01C60CD71C80E291E41C01B5012D
:10095000C40120E030E02901A1010E9476095B0179
:100960004C010E947F083B01C2010E94AE089B011E
:10097000AC01B501C4010E949B075B014C01C7019A
:10098000A301B2012AE00E947703C80ED91E1A956E
:10099000103009F0DCCF68CF630166CFEF92FF9291
:1009A0000F931F937B018C01E114F10479F0C701CF
:1009B0000E94E609AC01F80180819181FC0122814D
:1009C0003381C801B701F901099502C080E090E0C8
:1009D0007C01F80180819181FC01228133816BE0EF
:1009E00071E042E050E0C801F90109958E0D9F1DAC
:1009F0001F910F91FF90EF90089508950F931F930B
:100A00000E941E060E94FD040E948C000BEF10E065
:100A10000E94A20001151105D9F30E94FB00F8CF36
:100A20000F920FB60F922F933F934F935F936F9355
:100A30007F938F939F93EF93FF938091D101982F92
:100A40009D5F9D3710F421E001C022E030E040912D
:100A5000CD015091CE0160E070E0E091CF01F091C6
:100A6000D001420F531FE61FF71FF093D001E09310
:100A7000CF015093CE014093CD018A579D3708F4A2
:100A8000892F8093D1018091C9019091CA01209151
:100A9000CB013091CC018F5F9F4F2F4F3F4F309351
:100AA000CC012093CB019093CA018093C901FF919F
:100AB000EF919F918F917F916F915F914F913F91B6
:100AC0002F910F900FBE0F9018956F927F928F927B
:100AD0009F92AF92BF92CF92DF92EF92FF920F93CD
:100AE0001F93AFB7F8944091CB015091CC01209166
:100AF000C9013091CA01E6B5F5B3AFBF00E010E01F
:100B0000A1E061156B01710558018007910709F09B
:100B1000A12DA170A03009F084C061E0EF3F09F47D
:100B2000612D7C01F6236F2F7727260F371F850154
:100B3000401F511F220F331F441F220F331F441F1A
:100B4000542F432F322F212D8E2E9924880C991C3F
:100B5000001F111F880C991C001F111F042B152B3F
:100B6000822A932A0E946206D7018FB7F894409197
:100B7000CB015091CC012091C9013091CA0196B5A9
:100B800065B38FBF81E09F3F71E009F4712D67234A
:100B90007727260F371F75014E1D5F1D220F331F4C
:100BA000441F220F331F441F542F432F722F612DD8
:100BB000292F3327220F331FEE2DEE1FFF2DFF1F8E
:100BC000220F331FEE1FFF1F340126193709E00BD8
:100BD000F10B260F371FE41FF51F283E93E039075E
:100BE000EE05FF0508F0812D81708030C1F496017B
:100BF00021503040A040B04081E02115690131050D
:100C00009501A207B30709F4812D81709401285141
:100C10003C4F49010F4F1F4F803019F0A6CF7D0187
:100C2000A1CF1F910F91FF90EF90DF90CF90BF90D9
:100C3000AF909F908F907F906F900895789484B537
:100C4000826084BD84B5816084BD85B5826085BDC8
:100C500085B5816085BD80916E00816080936E0056
:100C60001092810080918100826080938100809148
:100C700081008160809381008091800081608093F9
:100C800080008091B10084608093B1008091B000B9
:100C900081608093B00080917A00846080937A00B4
:100CA00080917A00826080937A0080917A008160DE
:100CB00080937A0080917A00806880937A00109205
:100CC000C10008950895982F9E5F8E3008F4982FE4
:100CD0009770809100018295807F880F880F892B03
:100CE00080937C0080917A00806480937A00809168
:100CF0007A0080748030D9F78091780090917900E3
:100D00000895FF920F931F938B01F82E61E00E94CC
:100D1000E4060F3F110509F442C00115110519F44D
:100D20008F2D612D3EC0EF2DFF27E255FF4F84919F
:100D300084309CF4813009F41FC0823009F437C03C
:100D4000833009F028C08091800080688093800003
:100D5000109389000093880026C0843091F087307A
:100D600009F42AC08830B9F48091B0008062809381
:100D7000B0000093B40017C084B5806884BD07BD7F
:100D800012C08091800080628093800010938B005D
:100D900000938A0008C0003811050CF4C1CF8F2DD4
:100DA00061E00E9416071F910F91FF90089584B58E
:100DB000806284BD08BDF7CF8091B00080688093C9
:100DC000B0000093B300EFCF9927FC01E656FF4F28
:100DD00024918A579F4FFC018491803009F425C0EB
:100DE0009927880F991FFC01E859FF4FA591B591EC
:100DF0008E589F4FFC01459155918FB7F894623002
:100E000051F0603071F420959C9192239C93DA010B
:100E10009C91922308C0922F90953C9139233C934A
:100E2000DA019C91922B9C938FBF0895EF92FF92D1
:100E30000F931F93282F3327F901E255FF4F849119
:100E4000F901E656FF4FF4902A573F4FF90194916C
:100E5000903009F41BC0092F1127803021F0E62EB5
:100E60000E944B076E2D000F111F0E581F4FF801E7
:100E7000A591B5918FB7F894603019F09C919F2996
:100E800003C0F0949C919F219C938FBF1F910F9161
:100E9000FF90EF900895843044F4813079F08230EF
:100EA00089F08330C1F48FE707C0883049F087307C
:100EB00061F0843081F48FEDA0E809C08FE703C0B2
:100EC0008FED04C08FEDA4E402C08FE7A0EBB0E08B
:100ED0009C9198239C930895FF920F931F93282F22
:100EE0003327F901E255FF4F8491F901E656FF4F90
:100EF000F4902A573F4FF9019491903009F415C0AE
:100F0000092F1127803011F00E944B07000F111F8D
:100F100004581F4FF801A591B5919C919F2181E044
:100F2000903009F4812D992702C080E090E01F9154
:100F30000F91FF9008955058BB27AA270E94B3072E
:100F40000C9426090E94180938F00E941F0920F00D
:100F500039F49F3F19F426F40C9415090EF4E0952A
:100F6000E7FB0C940F09E92F0E94370958F3BA17D1
:100F7000620773078407950720F079F4A6F50C94AF
:100F800059090EF4E0950B2EBA2FA02D0B01B901D3
:100F900090010C01CA01A0011124FF27591B99F0EF
:100FA000593F50F4503E68F11A16F040A22F232FFB
:100FB000342F4427585FF3CF469537952795A7954B
:100FC000F0405395C9F77EF41F16BA0B620B730BF2
:100FD000840BBAF09150A1F0FF0FBB1F661F771F63
:100FE000881FC2F70EC0BA0F621F731F841F48F418
:100FF000879577956795B795F7959E3F08F0B0CFA1
:101000009395880F08F09927EE0F97958795089587
:101010000E94EB0808F481E008950E9421080C94D6
:1010200026090E941F0958F00E94180940F029F46F
:101030005F3F29F00C940F0951110C945A090C943C
:1010400015090E94370968F39923B1F3552391F3E9
:10105000951B550BBB27AA2762177307840738F027
:101060009F5F5F4F220F331F441FAA1FA9F335D084
:101070000E2E3AF0E0E832D091505040E695001C38
:10108000CAF72BD0FE2F29D0660F771F881FBB1FF2
:10109000261737074807AB07B0E809F0BB0B802DD0
:1010A000BF01FF2793585F4F3AF09E3F510578F0FC
:1010B0000C940F090C945A095F3FE4F3983ED4F363
:1010C000869577956795B795F7959F5FC9F7880FD0
:1010D000911D9695879597F90895E1E0660F771F22
:1010E000881FBB1F621773078407BA0720F0621BB3
:1010F000730B840BBA0BEE1F88F7E09508950E94DE
:101100003F0988F09F5798F0B92F9927B751B0F051
:10111000E1F0660F771F881F991F1AF0BA95C9F77B
:1011200014C0B13091F00E945909B1E008950C94B7
:101130005909672F782F8827B85F39F0B93FCCF36A
:10114000869577956795B395D9F73EF490958095F8
:10115000709561957F4F8F4F9F4F0895E89409C018
:1011600097FB3EF490958095709561957F4F8F4FDA
:101170009F4F9923A9F0F92F96E9BB279395F695F0
:10118000879577956795B795F111F8CFFAF4BB0F6E
:1011900011F460FF1BC06F5F7F4F8F4F9F4F16C0D2
:1011A000882311F096E911C0772321F09EE8872F5C
:1011B000762F05C0662371F096E8862F70E060E018
:1011C0002AF09A95660F771F881FDAF7880F969591
:1011D000879597F90895990F0008550FAA0BE0E835
:1011E000FEEF16161706E807F907C0F012161306E9
:1011F000E407F50798F0621B730B840B950B39F429
:101200000A2661F0232B242B252B21F408950A268E
:1012100009F4A140A6958FEF811D811D089597F9CE
:101220009F6780E870E060E008959FEF80EC08958C
:1012300000240A94161617061806090608950024B5
:101240000A9412161306140605060895092E03942F
:10125000000C11F4882352F0BB0F40F4BF2B11F4A3
:1012600060FF04C06F5F7F4F8F4F9F4F089557FD02
:101270009058440F551F59F05F3F71F04795880F04
:1012800097FB991F61F09F3F79F08795089512169B
:1012900013061406551FF2CF4695F1DF08C0161647
:1012A00017061806991FF1CF8695710561050894F8
:1012B0000895E894BB2766277727CB0197F908950F
:1012C0000E94EB0808F48FEF08950E943F0980E028
:1012D00090E020F419F40EF40297839508950E948B
:1012E0003F0980E090E009F0881F08950E94890975
:1012F0000C9426090E94180938F00E941F0920F05A
:10130000952311F00C940F090C94150911240C94D9
:101310005A090E94370970F3959FC1F3950F50E069
:10132000551F629FF001729FBB27F00DB11D639F97
:10133000AA27F00DB11DAA1F649F6627B00DA11D3D
:10134000661F829F2227B00DA11D621F739FB00DE3
:10135000A11D621F839FA00D611D221F749F332753
:10136000A00D611D231F849F600D211D822F762FEC
:101370006A2F11249F5750409AF0F1F088234AF0C9
:10138000EE0FFF1FBB1F661F771F881F9150504035
:10139000A9F79E3F510580F00C940F090C945A094F
:1013A0005F3FE4F3983ED4F3869577956795B795BC
:1013B000F795E7959F5FC1F7FE2B880F911D9695D6
:1013C000879597F90895F8940C94410AFC010190CF
:1013D0000020E9F7809590958E0F9F1F0895DB01FF
:1013E0008F939F930E94270ABF91AF91A29F800D78
:1013F000911DA39F900DB29F900D11240895A1E21D
:101400001A2EAA1BBB1BFD010DC0AA1FBB1FEE1F7E
:10141000FF1FA217B307E407F50720F0A21BB30BC9
:10142000E40BF50B661F771F881F991F1A9469F745
:1014300060957095809590959B01AC01BD01CF01A1
:101440000895EE0FFF1F0590F491E02D09940E947E
:10145000320AA59F900DB49F900DA49F800D911D01
:1014600011240895A29FB001B39FC001A39F700DE6
:10147000811D1124911DB29F700D811D1124911D9C
:10148000089510E0C2E6D0E004C0FE010E94210AE7
:0C1490002196C236D107C9F7F894FFCFAF
:10149C00014130203D2000696E66000D0A00205687
:1014AC00006F7666006E616E000000000025022160
:0C14BC0003CE01E0019C01B701A6010075
:00000001FF
