:100000000C9459050C9481050C9481050C94810580
:100010000C9481050C9481050C9481050C94B121FC
:100020000C9481050C9481050C9481050C94810538
:100030000C9481050C9481050C9481050C94810528
:100040000C94AB220C9481050C9481050C948105D1
:100050000C9481050C9481050C9481050C94810508
:100060000C944F0C0C94810500000000003E5B4F87
:100070005B3E3E6B4F6B3E1C3E7C3E1C183C7E3C08
:10008000181C577D571C1C5E7F5E1C00183C180016
:10009000FFE7C3E7FF0018241800FFE7DBE7FF30A6
:1000A000483A060E2629792926407F050507407F14
:1000B00005253F5A3CE73C5A7F3E1C1C08081C1C87
:1000C0003E7F14227F22145F5F005F5F06097F017D
:1000D0007F006689956A606060606094A2FFA29468
:1000E00008047E040810207E201008082A1C080836
:1000F0001C2A08081E101010100C1E0C1E0C303884
:100100003E3830060E3E0E06000000000000005F84
:1001100000000007000700147F147F14242A7F2AA0
:100120001223130864623649562050000807030062
:10013000001C2241000041221C002A1C7F1C2A08AE
:10014000083E080800807030000808080808000011
:1001500060600020100804023E5149453E00427F85
:10016000400072494949462141494D331814127FD4
:100170001027454545393C4A494931412111090774
:100180003649494936464949291E000014000000F5
:1001900040340000000814224114141414140041C7
:1001A00022140802015909063E415D594E7C121184
:1001B000127C7F494949363E414141227F414141BC
:1001C0003E7F494949417F090909013E4141517337
:1001D0007F0808087F00417F41002040413F017FA8
:1001E000081422417F404040407F021C027F7F0470
:1001F00008107F3E4141413E7F090909063E4151B9
:10020000215E7F09192946264949493203017F01A8
:10021000033F4040403F1F2040201F3F4038403FA9
:10022000631408146303047804036159494D4300BF
:100230007F4141410204081020004141417F0402F6
:10024000010204404040404000030708002054548D
:1002500078407F284444383844444428384444286B
:100260007F385454541800087E090218A4A49C78BE
:100270007F0804047800447D40002040403D007F1A
:100280001028440000417F40007C047804787C08FA
:100290000404783844444438FC18242418182424CE
:1002A00018FC7C08040408485454542404043F44B3
:1002B000243C4040207C1C2040201C3C4030403CE2
:1002C00044281028444C9090907C4464544C440042
:1002D00008364100000077000000413608000201A6
:1002E0000204023C2623263C1EA1A161123A404092
:1002F000207A38545455592155557941225454780F
:1003000042215554784020545579400C1E527212A7
:100310003955555559395454545939555454580030
:1003200000457C410002457D420001457C407D1234
:1003300011127DF0282528F07C5455450020545496
:100340007C547C0A097F4932494949323A44444441
:100350003A324A4848303A4141217A3A424020787C
:10036000009DA0A07D3D4242423D3D4040403D3C7D
:1003700024FF2424487E4943662B2FFC2F2BFF09A2
:1003800029F620C0887E0903205454794100004496
:100390007D413048484A32384040227A007A0A0A81
:1003A000727D0D19317D2629292F282629292926F4
:1003B00030484D4020380808080808080808382F39
:1003C00010C8ACBA2F102834FA00007B00000814C3
:1003D0002A142222142A14085500550055AA55AA99
:1003E00055AAFF55FF55FF000000FF00101010FF39
:1003F00000141414FF001010FF00FF1010F010F094
:10040000141414FC001414F700FF0000FF00FF1484
:1004100014F404FC141417101F10101F101F1414D0
:10042000141F00101010F0000000001F101010101A
:100430001F10101010F010000000FF10101010100E
:1004400010101010FF10000000FF140000FF00FF4C
:1004500000001F10170000FC04F4141417101714E8
:1004600014F404F40000FF00F7141414141414140A
:10047000F700F7141414171410101F101F1414147D
:10048000F4141010F010F000001F101F0000001FE7
:1004900014000000FC140000F010F01010FF10FF1A
:1004A000141414FF141010101F00000000F010FFAF
:1004B000FFFFFFFFF0F0F0F0F0FFFFFF0000000093
:1004C00000FFFF0F0F0F0F0F3844443844FC4A4A17
:1004D0004A347E02020606027E027E0263554941CC
:1004E000633844443C04407E201E2006027E020203
:1004F00099A5E7A5991C2A492A1C4C7201724C3017
:100500004A4D4D303048784830BC625A463D3E49ED
:100510004949007E0101017E2A2A2A2A2A44445F91
:10052000444440514A444040444A51400000FF0185
:1005300003E080FF000008086B6B08361236243693
:10054000060F090F060000181800000010100030F8
:1005500040FF0101001F01011E00191D1712003C80
:100560003C3C3C00000000008040201008040201D8
:100570007FBFDFEFF7FBFDFE000000000001800001
:1005800000000000000000000380000000000000E8
:1005900000000007C000000000000000000007C0CD
:1005A0000000000000000000000FC000000000007C
:1005B000000000001FE00000000000000000001F1D
:1005C000E00000000000000000003FE0000000002C
:1005D00000000000003FF0000000000000000000EC
:1005E0007FF0000000000000001FF87FF000000016
:1005F000000000003FFE7FF0000000000000003F10
:10060000FF7FF0000000000000001FFFFBE0000083
:1006100000000000000FFFF9FFC000000000000014
:100620000FFFF9FFF800000000000007FFF1FFFFD7
:1006300000000000000003FC73FFFF8000000000CA
:100640000001FE3FFFFF80000000000000FF1E0FC2
:10065000FF000000000000007FFE1FFC0000000003
:100660000000003FFFFFF8000000000000000FDF67
:10067000FFE0000000000000001F19FFC0000000A4
:10068000000000003F3CFF00000000000000007E72
:100690007CF800000000000000007FFE7C000000ED
:1006A0000000000000FFFFFC000000000000000050
:1006B000FFFFFE0000000000000000FFFFFE000042
:1006C000000000000001FFEFFE000000000000003D
:1006D00001FFCFFE0000000000000003FF07FE0046
:1006E00000000000000003FC07FE00000000000006
:1006F0000003F003FE00000000000000018000FE87
:10070000000000000000000000007E00000000006B
:1007100000000000003E000000000000000000009B
:100720000C000000000000078000FC000003C00077
:100730000000078001FC000003C0000000078001EA
:10074000FC000003C0000000078001E00000001E64
:10075000000000078001E00000001E007FE3F79F1B
:10076000F9FDE7787BDFC0FFF7FFBFFDFDFF787B7A
:10077000DFC0FFF7FFBFFDFDFF787BDFC0F0F7872D
:10078000BC3DE1FF787BDE00F0F787BC3DE1F0780F
:100790007BDE0000F787803DE1E0787BDE007FF7BD
:1007A000879FFDE1E0787BDE00FFF787BFFDE1E09A
:1007B000787BDE00F0F787BC3DE1E0787BDE00F07F
:1007C000F787BC3DE1E0787BDE00F0F787BC3DE1D8
:1007D000E0787BDE00FFF7FFBFFDE1E07FFBDFC0DD
:1007E000FFF7FFBFFDE1E07FFBDFC07CF3F39F3D40
:1007F000E1E03E7BCFC000000000000000000000F0
:1008000000FFFFFFFFFFFFFFFFFFFFC0FFFFFFFF36
:10081000FD68DB111A31C0FFFFFFFFFD2B5AFB6A99
:10082000EFC0FFFFFFFFFD4B5B3B1A33C0FFFFFF35
:10083000FFFD6B5BDB6AFDC0000060000000000094
:10084000000000000000000000E0000000000000C8
:100850000000000000000001E000000000000000B7
:1008600000000000000001F0000000000000000097
:10087000000000000003F000000000000000000085
:100880000000000007F00000000000000000000071
:1008900000000007F8000000000000000000000059
:1008A00000000FF800000003C0007E000001E0001F
:1008B0007F0FF800000003C000FE000001E000FF11
:1008C000EFF800000003C000FE000001E000FFFFA1
:1008D000F800000003C000F00000000F007FFE7F62
:1008E000C0000003C000F00000000F003FFE7FF8D2
:1008F0003FF1FBCFFCFEF3BC3DEFE01FFE7FFF7F2F
:10090000FBFFDFFEFEFFBC3DEFE01FC6FFFF7FFBEE
:10091000FFDFFEFEFFBC3DEFE00FE3C7FE787BC3C9
:10092000DE1EF0FFBC3DEF0007FF87FC787BC3DED7
:100930001EF0F83C3DEF0001FFFFF0007BC3C01E3E
:10094000F0F03C3DEF0001F37FE03FFBC3CFFEF052
:10095000F03C3DEF0003E33F807FFBC3DFFEF0F0A0
:100960003C3DEF0007E73C00787BC3DE1EF0F03C27
:100970003DEF0007FFBE00787BC3DE1EF0F03C3D7C
:10098000EF0007FFFE00787BC3DE1EF0F03C3DEF7A
:10099000000FFFFE007FFBFFDFFEF0F03FFDEFE00A
:1009A0000FFFFF007FFBFFDFFEF0F03FFDEFE00FEA
:1009B000F9FF003E79F9CF9EF0F01F3DE7E01FF10F
:1009C000FF0000000000000000000000001F80FF8A
:1009D000007FFFFFFFFFFFFFFFFFFFE01C007F0026
:1009E0007FFFFFFFFEB46D888D18E000001F007FC1
:1009F000FFFFFFFE95AD7DB577E000000F007FFFA4
:100A0000FFFFFEA5AD9D8D19E0000006007FFFFFF2
:100A1000FFFEB5ADEDB57EE0AED580A8D300408D2C
:100A20002000A1C8DB40A4A62EAF0080C0E0F0F8F3
:100A3000FCFE000103070F1F3F7F2200FF2126005D
:100A400000FF2F270000FF2FA3002900012FA30084
:100A50002A00012F0200000000240027002A0000C5
:100A6000000000250028002B0000000000230026C5
:100A70000029000404040404040404020202020223
:100A80000203030303030301020408102040800152
:100A900002040810200102040810200000000800D1
:100AA0000201000003040700000000000000000035
:100AB0002D0911241FBECFEFD8E0DEBFCDBF11E05E
:100AC000A0E0B1E0E2E9F3E502C005900D92A8399B
:100AD000B107D9F722E0A8E9B1E001C01D92A03D1D
:100AE000B207E1F715E0C9E5D5E004C02197FE01A2
:100AF0000E945D29C835D107C9F70E9499220C943C
:100B0000F0280C9400008CE991E00E949315089560
:100B10000F931F93BC0180E092E49093E3018093D4
:100B2000E20100E010E01093E1010093E00180E8B1
:100B300092E49093DF018093DE011093DD01009336
:100B4000DC01CB01990F990B892F0E94F3252DEC25
:100B50003CEC4CEC5FE30E94A8269093E701809365
:100B6000E6017093E5016093E40166EF7FEF8FEF9C
:100B70009FEF2BE030E0A8010E942B220E94F3257A
:100B800040E251E498010E9449259093EB01809343
:100B9000EA017093E9016093E8011F910F910895B4
:100BA000EF92FF920F931F938CE991E07C0162E03A
:100BB0004CE321E001E00E94C7168AE091E040E8A2
:100BC0005AE166E070E00E949D0901E010E0109398
:100BD000AD010093AC011093AF010093AE01C701CA
:100BE00062E00E94321580E10E943124BC01990F1D
:100BF000990B892F0E941C22C8010E9488051F9111
:100C00000F91FF90EF9008952F923F924F925F9235
:100C10006F927F928F929F92AF92BF92CF92DF920C
:100C2000EF92FF920F931F93CF93DF93CDB7DEB771
:100C30002E970FB6F894DEBF0FBECDBF8EE00E9498
:100C40003124BC0100E010E01C830B8382E390E0C0
:100C50009A8389833C01CB01990F990B892FEFEF80
:100C6000F3E09801A8017F014F01580168010E943B
:100C70005A227C876B878FE00E943124BC011C8341
:100C80000B837A826982990F990B892F9801A801A9
:100C900074010E945A223B016091E4017091E501C8
:100CA000A090E601B090E7012091DC013091DD01D8
:100CB0004091DE015091DF017E876D87C5010E9462
:100CC000D8247B012C01F092DD01E092DC015092EE
:100CD000DF014092DE016091E8017091E9018090AE
:100CE000EA019090EB012091E0013091E101409107
:100CF000E2015091E3017E836D83C4010E94D824F8
:100D00001B016C013092E1012092E001D092E301DD
:100D1000C092E2019801A8010E94442588237A86A6
:100D20006986B886AF8262F020E030E04CE752E49A
:100D3000B101C6010E94A326181614F0810138C023
:100D40004CE752E48D819E819093E9018093E80104
:100D500080E090E8882699269092EB018092EA0143
:100D6000B101C60198013A010E94A326B82E1B14B6
:100D70000CF03601B101C6019801A8010E9444257A
:100D8000982F992368010AF06301D092E301C09281
:100D9000E2011B1498010CF091018823AF80B88404
:100DA0000AF089011093E1010093E00169847A84DB
:100DB00020E030E06D857E85C501A9010E944425B3
:100DC00088230AF081C020E030E040E850E4B70119
:100DD000C2010E94442588230AF076C06B847C847B
:100DE000C301990F990B892FB3010E94F3251B01B1
:100DF0005C01B801C6019101A5010E94A3268823C8
:100E00008AF0F3013E96CF01990F990B892FBF010C
:100E10000E94F3259B01AC01B801C6010E94442544
:100E200018162CF469847A84AF80B8844DC026E605
:100E300036E646E85FEB6D857E858F8198850E945A
:100E4000A8269093E7018093E6017093E5016093F3
:100E5000E401B801C6019101A5010E94D72400E078
:100E600010E040EE50EC98010E94D82440EA50E493
:100E700098010E9449252D813E81A4010E94D82419
:100E80009093EB018093EA017093E9016093E8018C
:100E900060E273E024E130E088E0A8010E948D1F49
:100EA000A090E601B090E7018091E4019091E50106
:100EB0009E878D874090DE015090DF01E090DC013D
:100EC000F090DD0169847A8420E030E046EF52E45E
:100ED000B701C2010E94A32618160CF07CC020E0C6
:100EE00030E06D857E85C501A9010E94A3261816F4
:100EF0000CF071C0C301990F990B892FB3010E94A7
:100F0000F3258B016C018090E0019090E10120902D
:100F1000E2013090E301B401C1019801A6010E94F1
:100F2000A32688230AF457C0F3013E96CF01990FF8
:100F3000990B892FBF010E94F3259B01AC01B401DD
:100F4000C1010E94442518160CF445C026E636E679
:100F500046E85FEB6D857E85C5010E94A8269093CB
:100F6000E7018093E6017093E5016093E401B40129
:100F7000C1019801A6010E94D72400E010E040EED4
:100F800050EC98010E94D82440EA50E498010E9455
:100F900049252091E8013091E9014091EA01509101
:100FA000EB010E94D8247093E9016093E8019093CB
:100FB000EB018093EA0160E273E024E130E088E035
:100FC000A8010E948D1F4090DE015090DF01E0904B
:100FD000DC01F090DD0120E030E0B701C201A901A1
:100FE0000E9444258823F2F48091EE019091EF0154
:100FF00001969093EF018093EE016CE271E026E997
:1010000030E040E050E088E00E948D1F81E090E0F9
:101010000E9488054090DE015090DF01E090DC01E5
:10102000F090DD0120E030E04EEF52E4B701C20164
:101030000E94A3261816B4F48091EC019091ED0162
:1010400001969093ED018093EC016CE271E026E94A
:1010500030E040E050E088E00E948D1F8FEF9FEF6E
:101060000E9488058CE991E06C010E943F198AEF8B
:101070009FEF20E430E0490123E030E0290101E066
:1010800010E0EB84FC8406965C01C601B401A50166
:1010900092010E94201CC5018A339105A0F382E0D1
:1010A00090E09093AB018093AA016C018CE290E0F8
:1010B0009093A9018093A8016091EC017091ED01DA
:1010C0008CE991E00AE010E05C01A8010E94BD1EDD
:1010D000D092AB01C092AA018AE490E09093A9015A
:1010E0008093A8016091EE017091EF01C501A80104
:1010F0000E94BD1E60E070E023E030E00EE010E0F2
:10110000E1E0F0E0C5016B01A70129017F014F017A
:101110000E940C0F6DE770E0C501A30192017401FC
:101120000E940C0F00E81FEB6091DC017091DD0163
:101130008091DE019091DF019601A8010E94D824E0
:101140000E94BB257B016091E0017091E1018091DB
:10115000E2019091E3019601A8010E94D8240E9427
:10116000BB25AB01C501B7019201820174010E9448
:101170000C0F8091EC019091ED018730910541F0C9
:101180008091EE019091EF018730910509F042C006
:101190008CE991E06EE070E024E630E046E150E05A
:1011A0005C018A0176010E940C0F8AE190E0909325
:1011B000AB018093AA0182E190E09093A901809312
:1011C000A8018091EC019091ED018730910519F013
:1011D0006EE171E002C068E171E08501C8010E9422
:1011E0009E1EC8010E94571C60EB74E024EF31E0A2
:1011F00088E08601A8010E948D1F68EB7BE0C80192
:101200000E9433231093ED010093EC011093EF0142
:101210000093EE018CE991E00E94571C6FE070E0B2
:1012200080E090E00E9433232E960FB6F894DEBF44
:101230000FBECDBFDF91CF911F910F91FF90EF9027
:10124000DF90CF90BF90AF909F908F907F906F90E6
:101250005F904F903F902F9008958F929F92AF9202
:10126000BF92CF92DF92EF92FF920F938CE991E0C1
:101270002AE031E0E0E8FAE1A6E0B0E040EA56E832
:101280004A0141E050E05A0160E840E40FEF6F018D
:101290007D010E945D1583E895E00E9495220F91E3
:1012A000FF90EF90DF90CF90BF90AF909F908F9086
:1012B00008951092110210921002109233021092AF
:1012C00034020E94600A8CE699E00E94F60B89E7DE
:1012D00099E00E94F10B0895E0913602F0913702F7
:1012E000E115F10529F010923402109233020995AC
:1012F0000895FC0120913802309139022115310501
:10130000D9F080911102909110029817A8F016164A
:1013100017065CF4A0EFB1E081E091919D93482F16
:101320005527839546175707C0F310921002609314
:101330001102CB01F90109950895CB01BA010E9470
:10134000800A089581E08093350210923302109252
:1013500034026093120208950F93409134028091F9
:10136000120263E172E021E001E00E94B10A1092F2
:10137000330210923402109235020F910895CF93E8
:10138000DF93CDB7DEB721970FB6F894DEBF0FBE5F
:10139000CDBF698320913502203059F0209134026D
:1013A000203268F021E030E0FC013383228380E0CA
:1013B00013C0CE01019661E00E94C30B0CC0809166
:1013C0003302A82FBB27AD5EBD4F6C9383958093EE
:1013D00034028093330281E090E021960FB6F894B6
:1013E000DEBF0FBECDBFDF91CF9108958F929F9248
:1013F000AF92BF92CF92DF92EF92FF920F931F9323
:101400008A01DB017C01809135028030B9F0011541
:101410001105C1F06D01C00ED11E47016D91F4019F
:1014200080819181FC0120813181C701F9015D0139
:101430000995D501AC15BD0589F704C0CD01602F14
:101440000E94C30BC8011F910F91FF90EF90DF9096
:10145000CF90BF90AF909F908F9008958091100291
:10146000282F3327809111029927821B930B08950F
:101470008091100290911102891758F4A82FBB2770
:10148000A051BE4F9C91839580931002892F99277C
:1014900008958FEF9FEF08958091100290911102AF
:1014A000891738F4A82FBB27A051BE4F8C919927DC
:1014B00008958FEF9FEF0895089580E090E00895DC
:1014C00010923A0281E080933B0210923C0282E14A
:1014D00061E00E94812483E161E00E948124809187
:1014E000B9008E7F8093B9008091B9008D7F809381
:1014F000B90088E48093B80085E48093BC00089527
:10150000AC019B0160E074E284EF90E00E941C2932
:10151000569547953795279528502093B8000895FC
:101520000F931F9391E090938B028030B9F010914C
:10153000B8000091BA008091BC008A7B8093BC0007
:1015400082E1612D0E94812483E1612D0E9481242A
:101550000E94600A0093BA001093B8001F910F9187
:1015600008956F927F928F929F92AF92BF92CF9287
:10157000DF92EF92FF920F931F93142F7B01D82ECF
:10158000113210F081E0F2C0C22E0E9400235B01F4
:101590004C0180913A02803080E090E03C0109F4F7
:1015A00031C020913D0230913E0240913F02509166
:1015B000400281E02115310593014207530709F0EC
:1015C000812D81708030C9F40E9400236A197B0943
:1015D0008809990921E040913D0250913E02E09135
:1015E0003F02F091400246175707E807F90708F451
:1015F000212D2170203009F4A1C080913A02803061
:1016000009F0CFCF82E080933A0200933B028FEF44
:10161000809342021092430210934402103039F03A
:10162000412F552786E492E0B7010E94F3281092DB
:101630004502DD0C809145028D2980934502809101
:101640003C02813009F03EC010923C020E9400230F
:101650008B017C01809145028093BB0020913D026B
:1016600030913E0281E040913F02509140022115AD
:10167000310593014207530709F0812D81708030B5
:10168000C9F40E940023601B710B8E099F0921E0A1
:1016900040913D0250913E02E0913F02F0914002A4
:1016A00046175707E807F90708F4212D2170203065
:1016B00009F444C08091BC008870803009F0CACF22
:1016C00085EC01C085EE8093BC000E9400238B0155
:1016D0007C018C2D803009F437C080913A02823031
:1016E00009F032C020913D0230913E0240913F020C
:1016F0005091400281E021153105930142075307C3
:1017000009F0812D8170803041F70E940023601B19
:10171000710B8E099F0921E040913D0250913E02DC
:10172000E0913F02F091400246175707E807F9079A
:1017300008F4212D2170203009F0CFCF8091410293
:101740000E94900A85E012C0809142028F3F31F0E2
:1017500080914202803221F482E008C0812D06C0CF
:101760009091420283E0903309F084E01F910F9141
:10177000FF90EF90DF90CF90BF90AF909F908F90B1
:101780007F906F900895DC01862F99272091660243
:101790003327280F391F2132310510F081E00895D9
:1017A00020913A022430D9F4603091F08A0F9B1FC7
:1017B000E7E6F2E02D9130916602AD01A32FBB2741
:1017C000AE0FBF1F2C93DA013196A817B90791F716
:1017D00080916602860F80936602812D089582E0D3
:1017E00008959093880280938702089590938A02C7
:1017F00080938902089585ED8093BC0080913F021B
:101800009091400220913D0230913E024091BC00F7
:101810004071403009F43BC0295F3F4F8F4F9F4FCD
:10182000969587953795279596958795379527951A
:10183000969587953795279540E050E0E0913D02D9
:10184000F0913E02A0913F02B091400261E0E115AB
:10185000F105A407B50709F0612D6170603089F4C6
:1018600061E0211531058407950709F0612D61704C
:10187000603081F46AE26A95F1F72150304080408F
:1018800090406091BC006071603009F0D7CF109239
:101890003A020895809141020E94900A08950F92A1
:1018A0000FB60F921F9211242F933F934F935F9384
:1018B0006F937F938F939F93AF93BF93EF93FF9318
:1018C0008091B9008695869586958C305CF0833141
:1018D000BCF480310CF08AC083E080933A0210920D
:1018E0008C02F7C086300CF037C083300CF041C05A
:1018F000982F9A95923008F0C2C08091450253C04B
:10190000982F87310CF08DC09551923008F490C01B
:10191000833109F4E0C0843109F0E0C085EC8093A4
:10192000BC0010923A0280918C02803238F480918F
:101930008C02A82FBB27A357BD4F1C92E0918702B2
:10194000F091880280918C02682F77278DE892E0D1
:10195000099510928C02C2C089300CF027C08630E5
:1019600009F493C0873009F492C0883009F4ABC001
:10197000B5C0833031F0843009F492C0853009F06D
:10198000ADC08091430290914402891708F024C0B1
:1019900080914302982F939590934302A82FBB27E1
:1019A000AA5BBD4F8C918093BB0093C0893009F432
:1019B0007AC08A3009F47AC08B3009F08FC08091E8
:1019C000BB0090914302292F239520934302A92F16
:1019D000BB27AA5BBD4F8C9380913B02803009F0FE
:1019E00062C081E080933C0284EA55C0803131F0CE
:1019F000813109F470C0823109F070C080918C028D
:101A0000803208F068C08091BB0090918C02292F31
:101A1000239520938C02A92FBB27A357BD4F8C93EE
:101A200058C09851923008F435C08731B1F056C093
:101A300084E080933A021092AD0210926602E09127
:101A40008902F0918A02099580916602803029F41A
:101A50001092670281E0809366028091AD02982F18
:101A600093959093AD02A82FBB27A959BD4F8C9198
:101A70008093BB008091AD029091660228C08030B7
:101A800009F02CC0109242020EC080E30AC088E325
:101A90008093420285EC8093BC0010923A021EC0F3
:101AA00080E2809342020E94FB0B18C08091BB0031
:101AB00090914302292F239520934302A92FBB27FE
:101AC000AA5BBD4F8C938091430290914402891789
:101AD00010F485EC01C085E88093BC00FF91EF9184
:101AE000BF91AF919F918F917F916F915F914F9136
:101AF0003F912F911F900F900FBE0F901895FC01F2
:101B0000168A538742877187608757834683758318
:101B100064838BE391E09183808380E090E0938302
:101B20008283978786879587848721E031E0358B8C
:101B3000248B2FEF3FEF338B228B928F818F81E0AD
:101B400090E0908F878B318B208B08952F923F925E
:101B50004F925F926F927F928F929F92AF92BF92BD
:101B6000CF92DF92EF92FF920F931F93CF93DF9369
:101B7000CDB7DEB728970FB6F894DEBF0FBECDBF46
:101B8000FE82ED8298878F83F901E61BF70BCF0168
:101B9000990F990B892FE827F927E81BF90B4801C2
:101BA000841A950AC401990F990B892F88269926C2
:101BB000881A990AFC83EB83E815F90518F4690182
:101BC000CB0104C068018901CA01AB0104171507E4
:101BD0001CF43C019A0104C0360198016C018A0191
:101BE000C614D7041CF08FEF9FEF02C081E090E095
:101BF0009A838983C901801791070CF447C06C1838
:101C00007D08C301990F990B892F68267926681AD8
:101C1000790AC9011C01201A310A01967C0151017F
:101C2000369427944F805884F20180819181FC0181
:101C3000A485B5858B819C818815990528F48F81B1
:101C40009885B601A80104C08F819885B801A601C6
:101C50002D813E81FD01099526183708C101990F94
:101C6000990B892F9C01A50124233523220E331EB5
:101C700029813A8182239323C80ED91EF801319617
:101C8000C7018E179F078F0109F0CECF28960FB698
:101C9000F894DEBF0FBECDBFDF91CF911F910F91A2
:101CA000FF90EF90DF90CF90BF90AF909F908F907C
:101CB0007F906F905F904F903F902F900895089580
:101CC000FC01A081B181FD01A085B185FD010995CF
:101CD0000895FC01A081B181FD01A48DB58DFD01A8
:101CE00009950895FC01A081B181FD01A68DB78DF4
:101CF000FD0109950895FC01A081B181FD01A0A11C
:101D0000B1A1FD010995089508954F925F926F92D8
:101D10007F928F929F92AF92BF92CF92DF92EF927B
:101D2000FF920F931F93780149013A016B015C0107
:101D3000F501808191812F01FC0122853385C50148
:101D4000F9010995C401860D971D01978C01F201D7
:101D500080819181FC01A489B589C501B601A301E7
:101D60009601FD010995F20180819181FC0126898E
:101D70003789C501F90109951F910F91FF90EF90E7
:101D8000DF90CF90BF90AF909F908F907F906F909B
:101D90005F904F9008956F927F928F929F92AF9233
:101DA000BF92CF92DF92EF92FF920F931F93780131
:101DB00039018A016B015C01F501808191814F013C
:101DC000FC0122853385C501F9010995C3018C0DFC
:101DD0009D1D01979C01F40180819181FC01A489E2
:101DE000B589C501B601A801FD010995F4018081FD
:101DF0009181FC0126893789C501F90109951F9157
:101E00000F91FF90EF90DF90CF90BF90AF909F9099
:101E10008F907F906F9008952F923F924F925F9294
:101E20006F927F928F929F92AF92BF92CF92DF92EA
:101E3000EF92FF920F931F936701580149013A01F6
:101E40001B017C01F70180819181FC012285338592
:101E5000C701F901099518141904BCF4C101880ED1
:101E6000991E2701F20180819181FC01A089B1892D
:101E7000C701B101A30195018601FD010995C101C9
:101E800001961C01881599056CF3F70180819181F9
:101E9000FC0126893789C701F90109951F910F9126
:101EA000FF90EF90DF90CF90BF90AF909F908F907A
:101EB0007F906F905F904F903F902F900895EF929A
:101EC000FF920F931F937B01FC01028513852085F0
:101ED000318540815181FA01A0A1B1A140E050E0DB
:101EE000BA01FD0109951F910F91FF90EF900895A0
:101EF0004F925F926F927F928F929F92AF92BF921A
:101F0000CF92DF920F931F9339014A015B016C015D
:101F1000A614B70439F4081519057CF0D801A819DE
:101F2000B9090EC080169106B9F46A147B040CF44A
:101F300033C0D301AA19BB0932C0D401A01BB10B15
:101F40001196801691060CF04801F601808191816E
:101F5000FC01648C758C2EC0F601808191812F016B
:101F6000FC0122853385C601F9010995F2018081C2
:101F70009181FC01A489B589C601B501A401930131
:101F8000FD010995F20180819181FC012689378943
:101F9000C601F901099515C0D501A619B709119611
:101FA000A614B7040CF05301F60180819181FC0165
:101FB000668C778CC601B501A4019D018701F301F0
:101FC00009951F910F91DF90CF90BF90AF909F9098
:101FD0008F907F906F905F904F9008952F923F92D7
:101FE0004F925F926F927F928F929F92AF92BF9229
:101FF000CF92DF92EF92FF920F931F93CF93DF93D5
:10200000CDB7DEB722970FB6F894DEBF0FBECDBFB7
:10201000670128015A82498239014A015B017C012A
:10202000F701808191811F01FC0122853385C70161
:10203000F9010995F10180819181FC01A289B3899F
:10204000C701B501A40193018601FD010995D401E1
:10205000A40DB51D1197F10180819181FC01428889
:102060005388C701B501AD019301F2010995F10152
:1020700080819181FC01A089B189C701B501A401CA
:1020800049805A809201FD010995C501860D971D71
:102090000197BC01F10180819181FC01A089B18986
:1020A000C701A4019201FD010995F101808191818F
:1020B000FC0126893789C701F901099522960FB6D7
:1020C000F894DEBF0FBECDBFDF91CF911F910F916E
:1020D000FF90EF90DF90CF90BF90AF909F908F9048
:1020E0007F906F905F904F903F902F9008952F9228
:1020F0003F925F926F927F928F929F92AF92BF9228
:10210000EF92FF92CF93DF93CDB7DEB72A970FB64A
:10211000F894DEBF0FBECDBF38872F834A017E8380
:102120006D835C01F50180819181FC0122853385FD
:10213000C501F90109951E14FC82EB821F040CF005
:1021400075C0101611060CF071C0C80107969C01ED
:10215000330F330B232F232F22952F7033272695F0
:10216000280F391F3595279535952795359527954E
:102170003A83298380E090E0512C49815A8185027D
:10218000BC01802D1124649F902D212D1124280F36
:102190007A87698774021124802D820F282F3327B4
:1021A000322F2227292E3324222A332A8F81988501
:1021B000280E391EAD81BE8180E090E0FC01CF0188
:1021C000877090708115910519F03F01550C0AC078
:1021D0003F01F695E795F695E795F695E795E20DBB
:1021E000F31D5490852D882372F4F501808191812F
:1021F000FC017D01A485B585C501B701A401960147
:10220000FD010995D7011196F3013196E017F10709
:1022100009F0D5CFC40101964C0189859A850196B4
:102220002B813C818217930709F0A7CFF5018081AC
:102230009181FC0126893789C501F90109952A9602
:102240000FB6F894DEBF0FBECDBFDF91CF91FF90E8
:10225000EF90BF90AF909F908F907F906F905F9026
:102260003F902F9008952F923F924F925F926F92DE
:102270007F928F929F92AF92BF92CF92DF92EF9216
:10228000FF920F931F93CF93DF93CDB7DEB7A19744
:102290000FB6F894DEBF0FBECDBFAA2DB22F5F8759
:1022A0004E873C01F301818D928D81159105480186
:1022B0001F8F0E8F7D8E6C8E09F456C15B010496C4
:1022C000FC018491B81B87E0B89F812D1124202D3B
:1022D0003327482F5527542F4427422B532BB30124
:1022E000FB01818D928D0296FC0185919591840F61
:1022F000951FFB01218D328DF901259135913B8F81
:102300002A8FFC012591359139A328A3FC0132962F
:1023100024912987FC013396D490FC0135960491D1
:102320000696FC011491FB0180819181FC012285BC
:102330003385C301F901FA2E0995AF2D7C2D802F2D
:10234000902F990F990B9D878C872A2F272B80E040
:1023500090E0223098878F8310F08C859D85412FE7
:10236000512F550F550B5B874A872230840120F08F
:102370002A853B8538872F83BD2DB03009F4D1C025
:1023800061E0A13021E009F0212D713009F0612DCB
:102390003985303009F4C5C0E72FFF2762232E8529
:1023A0003F854A855B85420F531F5B874A87AF0194
:1023B0002C853D852A0D3B1D3D872C872A2F3327F1
:1023C0003F8B2E8B8502202D1124849F802D312D53
:1023D0001124320F94021124902D930F292F3327AB
:1023E000322F22279927822B932B8A0D9B1D9E83A8
:1023F0008D83898599279C838B838B2F99279A833B
:10240000898380E090E06170688F912C812CEE8C44
:10241000FF8CBC012F813885820F931FEE89FF89C5
:102420008F02202D11248E9F802D312D1124320FEB
:102430009E021124902D930F292F3327322F22270C
:10244000A82EBB24A22AB32A8E859F85A80EB91E6A
:102450008A859B857B8B6A8B860F971F9D8B8C8BC8
:10246000EB81FC812D803E80AC85BD85988A892DCD
:102470008770803079F4BD01A8A1B9A19F01FD0149
:102480008A8D9B8DE80FF91F8490F9011196B9A3ED
:10249000A8A3DB01882D88230AF02CC02D013F0161
:1024A0006A01888D803091F08C8D9D8DFC0120819A
:1024B0003181F901A485B585B2014C895D89980106
:1024C000FD010995D201A601F30114C08C8D9D8DEB
:1024D000FC0120813181F901A685B785B101A501F3
:1024E00096010E891F89FD010995A6010E8D1F8D8C
:1024F000F301D201240E351E93941196880C319766
:10250000E115F10509F0B3CF89859888980EEA891D
:10251000FB89319689819A81E817F907CF0109F083
:1025200078CF8C8D9D8DFC0120813181F901268928
:102530003789F9010995A1960FB6F894DEBF0FBE51
:10254000CDBFDF91CF911F910F91FF90EF90DF9062
:10255000CF90BF90AF909F908F907F906F905F9043
:102560004F903F902F9008955701F30180859185FA
:102570006817790704F77D8B6C8BF301828593854F
:102580004C895D892E853F85281739070CF0D3CFFC
:1025900086E0C89E812D1124202D33279927982F5E
:1025A0008827822B932B840F951F181619060CF081
:1025B000C2CF0A2F1127A801440F551F440F551FE2
:1025C000440F551FCA012E853F85820F931F181691
:1025D00019060CF0B0CFEB2E598B488BF301F08C21
:1025E00080819181FC0122853385C301F901DA2EB6
:1025F000099581E09D2D913091E009F0912D2C2DD0
:10260000213031E06E2D09F0312D422F55275B8F9F
:102610004A8F603B21E0AC89BD89B9A2A8A208F429
:10262000212D3923832EF826F2226F0D85E0689F35
:10263000812D1124202D33279927982F8827822B2D
:10264000932B88599F4F9B8B8A8BE0E0F0E0EE8CB8
:10265000FF8C6A8D7B8DE702802D1124E69F902DE3
:10266000212D1124280FF6021124802D820F282FEE
:102670003327322F2227292E3324222A332A2A0EC7
:102680003B1ECF018A0F9B1F998F888FCF01EA894C
:10269000FB899F8B8E8BE80FF91F949088E090E068
:1026A000FC01AE84BF84D501892D81708030D1F4C6
:1026B00088A199A18E159F0509F449C02D016F01CC
:1026C000882D8170F301803009F42FC080819181C1
:1026D000FC01A485B585C301688D798DA20128A16F
:1026E00039A111C02D016F01882D8170F301803057
:1026F00079F080819181FC01A485B585C301688D45
:10270000798DA2019701FD010995D201F6011FC043
:1027100080819181FC01A685B785C301B101A50126
:102720002A8D3B8DEE8CFF8C0CC080819181FC0149
:10273000A685B785C301B101A5012A8D3B8DE8A00F
:10274000F9A0FD010995EE8CFF8CF601D201A00ED7
:10275000B11E119696943197E115F10509F0A4CFB9
:10276000EE89FF893196E530F105AC89BD8909F024
:1027700070CF88A199A18E159F0509F4D2CE882D1E
:102780008170803099F08C8D9D8DFC01208131818C
:10279000F901E088F188159628E030E0BD014E850A
:1027A0005F8508A119A1F7010995BBCE85E02A8DA7
:1027B0003B8D289F812D1124E02DFF27682F77273F
:1027C000762F66276E2B7F2B6A0F7B1F8C8D9D8D3E
:1027D000FC0140815181FA01A685B7854E855F8550
:1027E00008891989E8A0F9A0FD0109959ACE6F9290
:1027F0007F928F929F92AF92CF92EF92FF920F9320
:102800001F93262F4C01F401818D928D8115910526
:1028100009F41EC02D3009F418C12A3009F032C065
:1028200020E030E0F401358724872589AF01089640
:10283000FC018491829F812D1124202D332799271B
:10284000982F8827822B932BFA012685378515C070
:102850002D3009F4FAC02A3009F0A9C080E090E0D8
:10286000F401958784878685978525893327220FEC
:10287000331F220F331F220F331F280F391F3787B3
:102880002687E3C00496FC018491281708F4DDC074
:10289000F401A18DB28D1696FD019491921708F462
:1028A000D4C0922F981B87E0989F812D1124402D32
:1028B00055279927982F8827842B952BF401A18DD4
:1028C000B28D1296FD01A591B591A80FB91FFD011A
:1028D00032968491FD0133969491803009F460C062
:1028E000903009F45DC03D011596FD019491F4010D
:1028F0003789313009F045C0482F5527892F990F66
:10290000990B840F951FF4013489432F55278502B5
:10291000402D1124839F802D512D1124540F93029B
:102920001124902D950F492F5527542F442799276F
:10293000842B952B44855585480F591F808591859B
:10294000841795070CF01DC080E090E0F401958796
:1029500084878589BF01A18DB28D1896FD01949160
:10296000989F812D1124402D55279927982F88272E
:10297000842B952BFB0146855785480F591F578798
:102980004687F401A588C488E288F3880089118904
:102990004685578564857585C4010E943311D3012E
:1029A0001496FD018491F4019489989F3FC0F4012D
:1029B000C488648575858789813009F027C086E0E1
:1029C000C89E812D1124402D55279927982F88279F
:1029D000842B952B860F971FF4014085518548174E
:1029E0005907A4F460E070E0F40175876487868578
:1029F00097853589432F5527440F551F440F551F81
:102A0000440F551F480F591F57874687F401A58863
:102A1000E288F38800891189468557853F01C40102
:102A20000E943311F301848996E0899F812D11243E
:102A3000202D33279927982F8827822B932B2485A5
:102A40003585280F391F3587248781E090E01F9155
:102A50000F91FF90EF90CF90AF909F908F907F90CD
:102A60006F900895623008F461E0FC01658B648B1F
:102A700008956370FC01668BAF01262F3327D901BF
:102A8000B901A959BE4F2C91E22FFF27E80FF91F7A
:102A900020813181FA0131872087DB01AD59BE4F9A
:102AA0002C913327280F391FF90180819181FA0178
:102AB000938782870895089508954F925F926F9249
:102AC0007F9229013C01772755270E947F0D9201B3
:102AD000F301B4AEA3AE92AE81AEF0AEE7AAD6AA31
:102AE000C5AA8FEF9FEF97A386A395A384A380E544
:102AF00090E097AF86AF00A780E090E090A3878F2B
:102B00002115310511F42AE031E0F301368F258FCC
:102B1000948F838F8FE691E0918380837F906F9075
:102B20005F904F9008952FE631E0FC0131832083C0
:102B3000878D90A18115910511F00E94AB27089512
:102B4000EF92FF921F93162FFC01258D368D2115D4
:102B5000310509F428C0FC0181A17F01682F782F7D
:102B6000770F770BC9010E94A209F701858D968D19
:102B7000FC0120813181F90120813181612DF90130
:102B80000995F701858D968DFC0120813181F90130
:102B900020813181612FF9010995F701858D968D8D
:102BA0000E94AC0936C0FC0123A92095A5A5B6A5B5
:102BB0003C9132233C93238D348D2115310539F01E
:102BC0001EBD00008DB58823EAF78EB522C020E82F
:102BD000FC01922F912381A9903029F0A1A5B2A5E3
:102BE0009C91982B05C08095A1A5B2A59C91982396
:102BF0009C9382A9A3A5B4A59C91982B9C9382A990
:102C00008095A3A5B4A59C9198239C9326952030EC
:102C100001F71F91FF90EF9008956F927F928F922E
:102C20009F92AF92BF92CF92DF92EF92FF921F934B
:102C3000142F6B017C01F701858D968D811591050F
:102C400009F458C021A15F01622F722F770F770B13
:102C50000E94A209F501858D968DFC0120813181AC
:102C6000F90120813181612DF9010995103009F4B4
:102C70003BC081E090E047015C0180329105E8F0C3
:102C8000F701858D968D3F010E94AC09F301858D7A
:102C9000968D21A1622F722F770F770B0E94A209C8
:102CA000F301858D968DFC0120813181F901208110
:102CB0003181612DF9010995C5011A95F4013C0195
:102CC000858D968DF6016491FC0120813181F90199
:102CD00020813181F9010995C301F60131966F0117
:102CE0000196103009F0C9CFF701858D968D0E94AD
:102CF000AC0941C083A98095A5A5B6A59C91982350
:102D00009C931030F60109F436C0AF018491F701AD
:102D1000238D348D2115310539F08EBD00008DB520
:102D20008823EAF78EB521C090E8392F382321A9EE
:102D3000303029F0A1A5B2A53C91322B05C02095D9
:102D4000A1A5B2A53C9132233C9322A9A3A5B4A589
:102D50003C91322B3C9322A92095A3A5B4A53C918C
:102D600032233C939695903001F7FA0131961A95EB
:102D7000103009F0CACF1F91FF90EF90DF90CF90F5
:102D8000BF90AF909F908F907F906F9008956F92BB
:102D90007F928F929F92AF92BF92CF92DF92EF92EB
:102DA000FF920F931F93702E822E642E962E5C013D
:102DB000F501A681B7811796CD01990F990B892F3F
:102DC000892F82958F70992786958A0F9B1F9595DD
:102DD000879595958795959587952481358183026B
:102DE000302D1124829F802D412D1124430F9202FA
:102DF0001124902D940F292F3327322F2227082FAB
:102E00001127022B132B278D30A12115310561F4D9
:102E1000C8010E9415279C01F50130A3278F2115B9
:102E20003105812D09F41EC2C901612DA8010E943E
:102E3000FC28F50184819581268137812132310575
:102E40000CF423C082559040BC01672F62956F70CF
:102E50007727669566956695680F791F75956795CE
:102E600020543040A901452F42954F705527469573
:102E700046954695420F531F5595479528E735E0EF
:102E800002E510E0E0E4F0E01CC0E0E2F0E0AF01B9
:102E9000421B530B569547955195419551098357C0
:102EA0009040BC01672F62956F7077276695669595
:102EB0006695680F791F7595679528E338E003E7F5
:102EC00010E0A1E0B0E0C5017F016D010E94771024
:102ED000F50192A2858D968D81159105462D99F06B
:102EE000403041F4F501268137814CE32032310531
:102EF00009F04DE3F50141A3272D203009F4A8C0C6
:102F00000E945909A5C0F50186A18F0161E00E94C8
:102F10004F24F80187A161E00E944F24F80186A1A7
:102F2000E82FF82FFF0FFF0BED58F54F8491E82F96
:102F3000FF27EE0FFF1FE15AF54F85919591F8019C
:102F400096A785A786A19F01E82FF82FFF0FFF0BFB
:102F5000E957F54F8491F90183AB87A1E82FF82F4A
:102F6000FF0FFF0BED58F54F8491E82FFF27EE0F71
:102F7000FF1FE15AF54F85919591F90190AB87A715
:102F800087A1E82FF82FFF0FFF0BE957F54F84912A
:102F9000F90184ABA7A5B0A99C91982B9C93838D34
:102FA000948D8115910539F0872D803009F450C03A
:102FB0000E942F1E4DC0F50184A18F0161E00E9487
:102FC0004F24F80185A161E00E944F24F80184A1FB
:102FD000E82FF82FFF0FFF0BED58F54F8491E82FE6
:102FE000FF27EE0FFF1FE15AF54F85919591F801EC
:102FF00092A781A784A19F01E82FF82FFF0FFF0B55
:10300000E957F54F8491F90181AB85A1E82FF82F9D
:10301000FF0FFF0BED58F54F8491E82FFF27EE0FC0
:10302000FF1FE15AF54F85919591F90194A783A768
:1030300085A1E82FF82FFF0FFF0BE957F54F84917B
:10304000F90182AB8095A3A5B4A59C9198239C938C
:10305000882D803009F425C0F50180A5982F99238B
:103060000AF41FC061E00E944F24F50180A57F0192
:1030700061E00E94812461E070E000E010E0C8019E
:103080000E943323F70180A5612D0E9481246AE00C
:1030900070E0C8010E943323F70180A561E00E941F
:1030A0008124F501858D968D8115910539F067A9EB
:1030B00070AD45A956A90E949D0929C0838D948DA4
:1030C00081159105E1F0F50187AD96AD2091AF0234
:1030D000203099F02FB7F8943091AF02313059F485
:1030E0003DB33093B1023091B00230954DB34323DC
:1030F0004DBB2FBF02C02093B1029CBD8DBDF50119
:1031000084A98095A7A5B0A99C9198239C9368E178
:103110007AE0C50144E00E940D16F50166818F0139
:103120006A95C5010E94A0156CE17AE0C50144E0F2
:103130000E940D16F80182A160E1813009F064E17E
:10314000C5010E94A01560E27AE0C50144E00E943A
:103150000D168FE8F50185AF848195818034910546
:1031600009F420C08036910579F08038910509F086
:1031700029C0F501868197818034910509F022C02C
:10318000F50192A18FE917C0F50186819781803101
:103190009105C1F4F50192A180E1913009F08FEA27
:1031A00012E00DC0F501868197818032910551F4BE
:1031B000F50192A180E1913009F08FEC12E1F50167
:1031C00085AF01C012E0C5016AED0E94A015C501DE
:1031D000612F0E94A015C50161E80E94A015F501AC
:1031E00065AD8F01C5010E94A015C50169ED0E9462
:1031F000A015F80182A162E2813009F061EFC501FA
:103200000E94A01564E27AE0C50146E00E940D1616
:10321000F501858D968D8115910539F063AD74ADFD
:1032200041AD52AD0E949D091CC084A9A7A5B0A9BB
:103230009C91982B9C93238D348D81E02115310531
:1032400089F09091AF02903069F08FB7F894909127
:10325000B1022091AF02213011F49DBB01C0892F32
:103260008FBF81E01F910F91FF90EF90DF90CF9083
:10327000BF90AF909F908F907F906F900895FC01CA
:10328000A681B7811796CD01990F990B892F892FA8
:1032900082958F70992786958A0F9B1F95958795A4
:1032A0009595879595958795248135818302302D55
:1032B0001124829F802D412D1124430F920211244D
:1032C000902D940F292F3327322F2227482F55274F
:1032D000422B532B878D90A1612D0E94FC280895CD
:1032E000EF92FF920F931F93E72FEE230AF4EDC0A6
:1032F000E52FEE230AF4E9C0FC01A085B1856A1729
:103300007B070CF0E2C0FC01A285B3854A175B077E
:103310000CF0DBC0FC01E689E330E1F0E23061F063
:10332000E13009F020C040955095FC01E480F58023
:10333000E40EF51E8B0119C040955095FC010681E5
:103340001781040F151F60957095E480F580E60ED7
:10335000F71E0BC060957095FC0106811781060F62
:10336000171F7A0102C08A017B012115310509F47A
:1033700073C02230310509F439C02130310509F01C
:10338000A4C09801330F330B232F232F22952F70C6
:1033900033272695200F311F35952795359527958D
:1033A00035952795FC01848195818302302D112468
:1033B000829F802D412D1124430F92021124902DC4
:1033C000940F292F3327322F22279927822B932BD3
:1033D000A78DB0A1AE0DBF1DA80FB91F8C910770AE
:1033E00091E00A950AF46FC0990FFBCF9801330F53
:1033F000330B232F232F22952F7033272695200F51
:10340000311F359527953595279535952795FC01DD
:10341000848195818302302D1124829F802D412D3E
:103420001124430F92021124902D940F292F33273A
:10343000322F22279927822B932BA78DB0A1AE0D77
:10344000BF1DA80FB91F8C91077091E00A9512F06B
:10345000990FFCCF892738C09801330F330B232FE6
:10346000232F22952F7033272695200F311F359556
:1034700027953595279535952795FC01848195816C
:103480008302302D1124829F802D412D1124430F62
:1034900092021124902D940F292F3327322F2227A7
:1034A0009927822B932BA78DB0A1AE0DBF1DA80F1E
:1034B000B91F8C9107709EEF0A951AF0990F911D14
:1034C000FBCF892301C0892B8C931F910F91FF9013
:1034D000EF900895EF92FF927B01FC0166896330C3
:1034E000D9F0623059F0613009F023C04095509511
:1034F000FC0164817581640F751F17C0E20EF31E15
:10350000FC01648175816E197F0940955095A681F3
:10351000B781A40FB51F0FC0B701620F731FFC0165
:10352000E680F780E61AF70ABA01A7010E94A11AFD
:1035300005C0DA01B701AD010E94861BFF90EF9034
:103540000895CF92DF92EF92FF927C01872F88231C
:103550000AF4D7C0F701A481B5816A177B070CF084
:10356000D0C014161506CA0114F080E090E06C017A
:10357000F70186819781FA01FF0FFF0BEF2FE423FC
:10358000F5232E0F3F1FF601A9014E0F5F1F841771
:10359000950714F0C90102C08E1B9F0B181619065F
:1035A0000CF0AFC09F013695279536952795369537
:1035B00027952F713070A302302D1124A29F402D2A
:1035C000512D1124530FB2021124202D250F332722
:1035D000322F22275527422B532BF701A78DB0A15D
:1035E000F601A40FB51FA60FB71FE770F070E11525
:1035F000F10509F429C028E030E02E1B3F0BB9018A
:10360000681B790B4FEF50E06A951AF05695479575
:10361000FBCFBF01FC01F0706F01E217F30708F068
:103620004FEFE2E3FAE0E61BF70B64916423A80195
:103630004115510579F04230510549F041305105AD
:1036400069F44C91462B09C020E030E010C04C9149
:10365000462703C060954C9146234C93C216D3066F
:1036600008F44FC0F70144815581A40FB51F821B98
:10367000930B9C01287F307021153105A80109F4B6
:1036800025C04230510581F4F7012C9120952C93EF
:1036900024813581A20FB31F08979C01287F3070C9
:1036A0002115310591F712C02FEF4115510509F48D
:1036B000212DF7012C9344815581A40FB51F089744
:1036C000AC01487F507041155105A1F78030C9F019
:1036D000877090708E5C954FFC01849101151105E7
:1036E00061F00230110531F00130110551F49C9167
:1036F000982B06C09C91982703C080959C91982395
:103700009C93FF90EF90DF90CF900895CF92DF923F
:10371000EF92FF92E52FEE230AF48DC0FC01A68103
:10372000B7814A175B070CF086C016161706DB0137
:1037300014F0A0E0B0E0FC017D01A481B581FB01A3
:10374000FF0FFF0BEF2FE623F7232E0F3F1FFD0187
:10375000D701B9016A0F7B1FE617F7071CF49F0119
:103760002A1B3B0B121613060CF065C09A01369506
:1037700027953695279536952795E302302D112408
:10378000E29F502D6D01DF01E12D1124E30FB20204
:103790001124202D2E0F3327322F2227E52EFF2430
:1037A000E22AF32AFC01878D90A1FD01DC01AE0D18
:1037B000BF1DAC0DBD1D477021E030E04A951AF0E9
:1037C000220F331FFBCF0115110509F425C001306D
:1037D000110599F00230110509F02DC0E617F70721
:1037E0000CF0FB01EE0DFF1D8E0F9F1F3C91322749
:1037F0003D93A817B907D1F71EC0E617F7070CF0DD
:10380000FB01EE0DFF1D8E0F9F1F3C91322B3D9350
:10381000A817B907D1F70FC0E617F7070CF0FB019F
:10382000EE0DFF1D8E0F9F1F20953C9132233D937F
:10383000A817B907D1F7FF90EF90DF90CF900895C8
:10384000EF92FF927B01FC0166896330D9F0623010
:1038500059F0613009F023C0420F531FFC0164810D
:103860007581641B750B17C0420F531FFC01A681A5
:10387000B781A41BB50BE094F094648175816E0D43
:103880007F1D0FC0B70160957095FC01E680F78041
:10389000E60EF71EBA01A7010E94861B05C0DA01D9
:1038A000B701AD010E94A11AFF90EF9008956F92A9
:1038B0007F928F929F92AF92BF92CF92DF92EF92C0
:1038C000FF920F931F937C01F701858D968D8115D3
:1038D000910539F067A970AD45A956A90E949D09C7
:1038E00029C0838D948D81159105E1F0F70187AD95
:1038F00096AD2091AF02203099F02FB7F894309117
:10390000AF02313059F43DB33093B1023091B0027F
:1039100030954DB343234DBB2FBF02C02093B1025E
:103920009CBD8DBDF70184A98095A7A5B0A99C91E8
:1039300098239C936AE37AE0C70144E00E940D1645
:10394000F7010481158160E20034110509F0612D51
:10395000C7010E94A0158FE10034110509F08FEF17
:10396000F70164818F01680FC7010E94A015F8015B
:10397000A681B7811796CD01990F990B892F892FB1
:1039800082958F70992786958A0F9B1F95958795AD
:103990009595879595958795248135818302302D5E
:1039A0001124829F802D412D1124430F9202112456
:1039B000902D940F292F3327322F2227082F1127DC
:1039C000022B132BC78CD0A0858D968D8115F70106
:1039D000910509F45CC021A15F01622F722F770F5E
:1039E000770B0E94A209F501858D968DFC0120813F
:1039F0003181F9012081318160E4F90109950115D6
:103A0000110509F43EC0C601080F191F81E090E0BE
:103A100047015C0180329105E8F0F701858D968DB4
:103A20003F010E94AC09F301858D968D21A1622F83
:103A3000722F770F770B0E94A209F301858D968D67
:103A4000FC0120813181F9012081318160E4F9019B
:103A50000995C501D6016D913D01F4016C01858D7B
:103A6000968DFC0120813181F90120813181F9019C
:103A70000995C6010196930169012017310709F0E4
:103A8000C9CFF701858D968D0E94AC0943C083A9EB
:103A9000A5A5B6A59C91982B9C9301151105C8016D
:103AA00009F438C0F701AC01D6018D916D01238D69
:103AB000348D2115310539F08EBD00008DB5882378
:103AC000EAF78EB521C090E8392F382321A930308C
:103AD00029F0A1A5B2A53C91322B05C02095A1A546
:103AE000B2A53C9132233C9322A9A3A5B4A53C9155
:103AF000322B3C9322A92095A3A5B4A53C91322357
:103B00003C939695903001F7CA0101978115910574
:103B100009F0C9CFF701858D968D8115910539F092
:103B200063AD74AD41AD52AD0E949D091BC084A927
:103B3000A7A5B0A99C91982B9C93838D948D8115FA
:103B4000910581F08091AF02803061F08FB7F894D9
:103B50009091B1022091AF02213011F49DBB01C0C0
:103B6000892F8FBF1F910F91FF90EF90DF90CF9023
:103B7000BF90AF909F908F907F906F900895FF922D
:103B80000F931F93562F8C01F801858D968D81150B
:103B9000910549F067A970ADF52E45A956A90E9477
:103BA0009D095F2D29C0838D948D81159105E1F0CC
:103BB000F80187AD96AD2091AF02203099F02FB774
:103BC000F8943091AF02313059F43DB33093B102E3
:103BD0003091B00230954DB343234DBB2FBF02C08F
:103BE0002093B1029CBD8DBDF80184A98095A7A545
:103BF000B0A99C9198239C9367EA503009F466EA37
:103C0000C8010E94A015F801858D968D811591053A
:103C100039F063AD74AD41AD52AD0E949D091BC03A
:103C200084A9A7A5B0A99C91982B9C93838D948D72
:103C30008115910581F08091AF02803061F08FB7DE
:103C4000F8949091B1022091AF02213011F49DBB04
:103C500001C0892F8FBF1F910F91FF9008951F936F
:103C60001FB7F8948091AE02803009F02AC0EDE7CA
:103C7000FAE08491E1E9FAE09491E82FFF27EE0F52
:103C8000FF1FEB5AF54FA591B5918C918923803098
:103C900021F48AE061E00E9481248AE061E00E94D0
:103CA0004F248CB580618CBD8CB580648CBD8DE05B
:103CB00061E00E944F248BE061E00E944F248091DC
:103CC000AE0283958093AE021FBF1F9108958F921D
:103CD0009F92AF92BF92CF92DF92EF92FF920F939B
:103CE0001F938A017B016C01011580E090E01105B2
:103CF000D1F05601D701A80FB91F6C914C01F50105
:103D000080819181FC0120813181C601F9010995F1
:103D10008115910539F0C40101960817190751F76B
:103D2000C80101C0C4011F910F91FF90EF90DF9077
:103D3000CF90BF90AF909F908F900895EF92FF9299
:103D40000F931F938B017C010115110579F0C801B8
:103D50000E940329AC01F70180819181FC0122813D
:103D60003381C701B801F901099502C080E090E0F4
:103D70001F910F91FF90EF9008959A01AB01770F7B
:103D8000770B672F0E94C51E0895AF92BF92CF9206
:103D9000DF92EF92FF920F931F936B017A018C01D8
:103DA0002A30310571F021153105C1F4F801808107
:103DB0009181FC0120813181C8016E2DF9010995A5
:103DC00012C081E09D2D99230AF4812D81708030ED
:103DD00099F0C801A701B6012AE003C0C801A701F4
:103DE000B6010E94151F1F910F91FF90EF90DF9079
:103DF000CF90BF90AF900895F80180819181FC0130
:103E000020813181C8016DE2F90109955C0160E012
:103E100070E0AB014E195F096C097D09C8012AE009
:103E20000E94151F8A0D9B1DDECF2F923F924F924D
:103E30005F926F927F928F929F92AF92BF92CF923A
:103E4000DF92EF92FF920F931F93CF93DF93CDB743
:103E5000DEB7A1970FB6F894DEBF0FBECDBF7B01D2
:103E60005A014C0119A28AE0223008F0822FDE01AB
:103E70009096C82EDD2400E010E01D01B501C701B9
:103E80009601A8010E941C2939012A01B301C2012F
:103E90009601A8010E940C29C501861B970B90E38F
:103EA0008A300CF097E3980FD1019C9381E0AC1419
:103EB000BD04E006F10608F4812D81701197803071
:103EC0005301720109F0D9CF1196CD018D010E94E5
:103ED0000329AC01F40180819181FC0122813381AD
:103EE000C401B801F9010995A1960FB6F894DEBF97
:103EF0000FBECDBFDF91CF911F910F91FF90EF903B
:103F0000DF90CF90BF90AF909F908F907F906F90F9
:103F10005F904F903F902F9008957F928F929F9245
:103F2000AF92BF92CF92DF92EF92FF920F931F93C7
:103F3000CF93DF93CDB7DEB721970FB6F894DEBFEE
:103F40000FBECDBF7A0169018B01909116019817C0
:103F500091F4E4E5FAE02491922F99230AF4B8C190
:103F600061E0B22E0E944F248B2D898382608230C3
:103F700009F05FC0B0C09F3F09F0AAC1809316014D
:103F8000E4E5FAE02491223009F47BC0213009F401
:103F900025C0203009F0E0CF298314BC15BC94B5AE
:103FA000926094BD95B5916095BD282F3327F90196
:103FB000ED58F54F9491E92FFF27EE0FFF1FE15ABF
:103FC000F54F459155915093B7024093B60229574A
:103FD000354FF90194919093B8027AC01092800005
:103FE000109281009091810098609093810090914F
:103FF0008100916090938100282F3327F901ED58BB
:10400000F54F9491E92FFF27EE0FFF1FE15AF54F6F
:10401000459155915093BE024093BD022957354FAB
:10402000F90194919093BF0291E0998361E00E941D
:104030004F2460E074E284EF90E040E050E09801AB
:104040000E941C29D9010B37110510F081E001C035
:1040500087E090E08030798139F056954795B795A3
:10406000A7958A958030C9F71197713009F0EAC099
:104070009D0171E083E00B37110508F081E0A1E8B4
:10408000DBC029831092B0001092B1009091B00073
:1040900092609093B0009091B10091609093B100C4
:1040A000282F3327F901ED58F54F9491E92FFF2779
:1040B000EE0FFF1FE15AF54F459155915093C50200
:1040C0004093C4022957354FF90194919093C60249
:1040D00061E00E944F2460E074E284EF90E040E0F1
:1040E00050E098014A010E941C295901852F8695AC
:1040F000842F8795BB2DB795AA2DA79581E099E7C9
:104100000939190778F49FE00433190791E06981B0
:1041100008F0912D623009F0812D9823903029F418
:1041200064E004C01197798181C066E070E060307E
:10413000D501FA0149F0D501FA01F695E795B79551
:10414000A7956A956030C9F761E0A130B607940180
:10415000E207F307798108F0612D6170917083E0C7
:10416000903009F482E0603009F05FC081E0073EE2
:10417000180791E008F0912D723009F0812D9823F5
:10418000903011F4E7E001C0E8E0F0E083E0703047
:1041900009F084E0782E9501DA01E03031F0B6952F
:1041A000A79537952795EA95F8CF21503040A04044
:1041B000B04061E02115F90136079401A207B30769
:1041C00008F0612D6170917085E0903009F4872DC1
:1041D0006030DF0109F02AC0652F6695B42FB795CE
:1041E000AB2DA795712DA150B0406040704091E07B
:1041F000A115B9076805790508F0912D917084E043
:104200007981703009F086E0903081F485E070307B
:1042100009F087E056954795B79456954795B7941A
:1042200056954795B794AB2DB42F11979D017030DB
:1042300011F0A1EB01C0A5E4B0E09C91987F982B10
:104240009C93D90120E030E081E0C114D104E20662
:10425000F30609F0812D81708030A1F4000F111F49
:10426000980100E010E0B72EB601C701A8017D015A
:104270000E940C2928EE33E0A8010E941C29D701D6
:104280007B2D03C02FEF3FEFA901723099F0713001
:1042900041F07030E9F4A7BDAEE6B0E082EB92E009
:1042A0000FC0B0938900A0938800AFE6B0E089EB1F
:1042B00092E006C0A093B300A0E7B0E080EC92E0EB
:1042C000FC0131832083538342838C9182608C93E1
:1042D00021960FB6F894DEBF0FBECDBFDF91CF9110
:1042E0001F910F91FF90EF90DF90CF90BF90AF9014
:1042F0009F908F907F900895823069F0813029F0EF
:104300008030C9F410926E00089580916F008D7F07
:1043100080936F000895809170008D7F809370006E
:1043200081E08093B0008091B100887F84608093A9
:10433000B1001092B30008951F93182F8FEF909142
:104340001601911731F4E4E5FAE094918093160197
:10435000892F0E947C21812F612D0E9481241F9131
:1043600008950F920FB60F921F9211242F933F932F
:104370004F935F936F937F938F939F93AF93BF936D
:10438000EF93FF934091C0025091C10280E090E012
:104390006091C2027091C30221E041155105680786
:1043A000790709F0212D2170203009F030C02091CB
:1043B000C602A091C402B091C5023C9132273C9341
:1043C0004091C0025091C10221E06091C2027091FF
:1043D000C30214161506860797070CF4212D2170C9
:1043E0002030C9F48091C0029091C1022091C20294
:1043F0003091C30281509040204030403093C3023E
:104400002093C2029093C1028093C00204C08091A5
:1044100016010E949C21FF91EF91BF91AF919F9156
:104420008F917F916F915F914F913F912F911F904D
:104430000F900FBE0F90189540E050E021E06115FD
:1044400071058407950709F0212D2170203011F4A2
:104450000E94DA280895AF92BF92CF92DF92EF9236
:10446000FF920F931F936A0159018C017B0181E038
:10447000EA14FB040C051D050CF4812D81708030BD
:1044800071F4AE18BF08C00AD10A0E948A289501AB
:10449000A6010E943E29E60EF71E081F191FB7014C
:1044A000C8011F910F91FF90EF90DF90CF90BF90C8
:1044B000AF9008956F927F928F929F92EF92FF92AA
:1044C0000F931F93CF93DF93CDB7DEB74A01390126
:1044D000AC019B016D857E858F8598896A197B0962
:1044E0008C099D0926193709480959090E940C2988
:1044F000E618F708080919099701A8010E943E2942
:104500002A0D3B1D4C1D5D1DB901CA01DF91CF91E4
:104510001F910F91FF90EF909F908F907F906F90E1
:1045200008950E94EB280E94912280E090E0089577
:1045300008950F931F930E94EC230E9498220E94DB
:10454000D00500E010E00E94040601151105D9F322
:104550000E940000F8CF0F920FB60F922F933F9357
:104560004F935F936F937F938F939F93EF93FF93FB
:104570008091CF02982F9D5F9D3710F421E001C0FC
:1045800022E030E04091CB025091CC0260E070E03C
:10459000E091CD02F091CE02420F531FE61FF71FAC
:1045A000F093CE02E093CD025093CC024093CB0225
:1045B0008A579D3708F4892F8093CF028091C702D4
:1045C0009091C8022091C9023091CA028F5F9F4F1B
:1045D0002F4F3F4F3093CA022093C9029093C802D5
:1045E0008093C702FF91EF919F918F917F916F917F
:1045F0005F914F913F912F910F900FBE0F901895A3
:104600009FB7F8946091C9027091CA024091C702A5
:104610005091C80226B585B39FBF91E02F3F09F4A2
:10462000912D8923E82FFF2780E090E04E0F5F1F38
:10463000681F791F440F551F661F440F551F661FC3
:10464000F62FE52F542F412D622F7727660F771F06
:10465000881F991F660F771F881F991F642B752B62
:104660008E2B9F2B08956F927F928F929F92AF9285
:10467000BF92CF92DF92EF92FF920F931F93AFB74B
:10468000F8944091C9025091CA022091C70230911A
:10469000C802E6B5F5B3AFBF00E010E0A1E06115D8
:1046A0006B01710558018007910709F0A12DA170D8
:1046B000A03009F084C061E0EF3F09F4612D7C0176
:1046C000F6236F2F7727260F371F8501401F511FB5
:1046D000220F331F441F220F331F441F542F432F19
:1046E000322F212D8E2E9924880C991C001F111F0A
:1046F000880C991C001F111F042B152B822A932A4A
:104700000E943024D7018FB7F8944091C90250918C
:10471000CA022091C7023091C80296B565B38FBF17
:1047200081E09F3F71E009F4712D67237727260F01
:10473000371F75014E1D5F1D220F331F441F220FAF
:10474000331F441F542F432F722F612D292F3327DE
:10475000220F331FEE2DEE1FFF2DFF1F220F331FE1
:10476000EE1FFF1F340126193709E00BF10B260F4E
:10477000371FE41FF51F283E93E03907EE05FF05BC
:1047800008F0812D81708030C1F4960121503040B5
:10479000A040B04081E02115690131059501A207D3
:1047A000B30709F4812D8170940128513C4F4901D0
:1047B0000F4F1F4F803019F0A6CF7D01A1CF1F9161
:1047C0000F91FF90EF90DF90CF90BF90AF909F90B0
:1047D0008F907F906F900895789484B5826084BDA7
:1047E00084B5816084BD85B5826085BD85B58160F5
:1047F00085BD80916E00816080936E001092810073
:10480000809181008260809381008091810081602D
:1048100080938100809180008160809380008091EE
:10482000B10084608093B1008091B000816080937A
:10483000B00080917A00846080937A0080917A0041
:10484000826080937A0080917A00816080937A0000
:1048500080917A00806880937A001092C100089558
:104860000895982F9E5F8E3008F4982F977080914E
:1048700017018295807F880F880F892B80937C0099
:1048800080917A00806480937A0080917A008074AD
:104890008030D9F780917800909179000895992718
:1048A000FC01E957F54F24918D58954FFC018491F7
:1048B000803009F425C09927880F991FFC01EB5A15
:1048C000F54FA591B591815A954FFC0145915591B0
:1048D0008FB7F894623051F0603071F420959C915C
:1048E00092239C93DA019C91922308C0922F909579
:1048F0003C9139233C93DA019C91922B9C938FBF7E
:104900000895EF92FF920F931F93282F3327F901F9
:10491000E556F54F8491F901E957F54FF4902D587C
:10492000354FF9019491903009F41BC0092F1127DC
:10493000803021F0E62E0E94B6246E2D000F111F4C
:10494000015A154FF801A591B5918FB7F8946030D1
:1049500019F09C919F2903C0F0949C919F219C93F6
:104960008FBF1F910F91FF90EF900895843044F412
:10497000813079F0823089F08330C1F48FE707C04D
:10498000883049F0873061F0843081F48FEDA0E801
:1049900009C08FE703C08FED04C08FEDA4E402C00F
:1049A0008FE7A0EBB0E09C9198239C93089550581A
:1049B000BB27AA270E94EF240C9469260E945B263D
:1049C00038F00E94622620F039F49F3F19F426F453
:1049D0000C9458260EF4E095E7FB0C945226E92F30
:1049E0000E947A2658F3BA1762077307840795075F
:1049F00020F079F4A6F50C949C260EF4E0950B2E8D
:104A0000BA2FA02D0B01B90190010C01CA01A00120
:104A10001124FF27591B99F0593F50F4503E68F17B
:104A20001A16F040A22F232F342F4427585FF3CFBC
:104A3000469537952795A795F0405395C9F77EF48D
:104A40001F16BA0B620B730B840BBAF09150A1F0D6
:104A5000FF0FBB1F661F771F881FC2F70EC0BA0F5C
:104A6000621F731F841F48F4879577956795B795E4
:104A7000F7959E3F08F0B0CF9395880F08F09927DF
:104A8000EE0F9795879508950E942E2608F481E0F1
:104A900008950E945D250C9469260E94622658F0B4
:104AA0000E945B2640F029F45F3F29F00C945226C7
:104AB00051110C949D260C9458260E947A2668F376
:104AC0009923B1F3552391F3951B550BBB27AA27C7
:104AD00062177307840738F09F5F5F4F220F331F01
:104AE000441FAA1FA9F335D00E2E3AF0E0E832D0C9
:104AF00091505040E695001CCAF72BD0FE2F29D0CC
:104B0000660F771F881FBB1F261737074807AB079D
:104B1000B0E809F0BB0B802DBF01FF2793585F4F12
:104B20003AF09E3F510578F00C9452260C949D2645
:104B30005F3FE4F3983ED4F3869577956795B795F4
:104B4000F7959F5FC9F7880F911D9695879597F9FF
:104B50000895E1E0660F771F881FBB1F6217730778
:104B60008407BA0720F0621B730B840BBA0BEE1F8D
:104B700088F7E09508950E94C2256894B1110C94BD
:104B80009D2608950E94822688F09F5798F0B92F9D
:104B90009927B751B0F0E1F0660F771F881F991F72
:104BA0001AF0BA95C9F714C0B13091F00E949C2652
:104BB000B1E008950C949C26672F782F8827B85F62
:104BC00039F0B93FCCF3869577956795B395D9F7CA
:104BD0003EF490958095709561957F4F8F4F9F4FD4
:104BE0000895E89409C097FB3EF4909580957095E0
:104BF00061957F4F8F4F9F4F9923A9F0F92F96E929
:104C0000BB279395F695879577956795B795F1119D
:104C1000F8CFFAF4BB0F11F460FF1BC06F5F7F4F3A
:104C20008F4F9F4F16C0882311F096E911C077234C
:104C300021F09EE8872F762F05C0662371F096E855
:104C4000862F70E060E02AF09A95660F771F881F24
:104C5000DAF7880F9695879597F90895990F0008C8
:104C6000550FAA0BE0E8FEEF16161706E807F9073E
:104C7000C0F012161306E407F50798F0621B730BD9
:104C8000840B950B39F40A2661F0232B242B252B5A
:104C900021F408950A2609F4A140A6958FEF811DFD
:104CA000811D089597F99F6780E870E060E008959E
:104CB0009FEF80EC089500240A9416161706180634
:104CC0000906089500240A94121613061406050610
:104CD0000895092E0394000C11F4882352F0BB0FA1
:104CE00040F4BF2B11F460FF04C06F5F7F4F8F4F04
:104CF0009F4F089557FD9058440F551F59F05F3F3F
:104D000071F04795880F97FB991F61F09F3F79F0ED
:104D100087950895121613061406551FF2CF46956F
:104D2000F1DF08C0161617061806991FF1CF8695F1
:104D30007105610508940895E894BB2766277727D5
:104D4000CB0197F908950E942E2608F48FEF08955D
:104D50000E94BB260C9469260E945B2638F00E94B4
:104D6000622620F0952311F00C9452260C945826BC
:104D700011240C949D260E947A2670F3959FC1F30E
:104D8000950F50E0551F629FF001729FBB27F00DF9
:104D9000B11D639FAA27F00DB11DAA1F649F66274E
:104DA000B00DA11D661F829F2227B00DA11D621F9D
:104DB000739FB00DA11D621F839FA00D611D221F57
:104DC000749F3327A00D611D231F849F600D211D3B
:104DD000822F762F6A2F11249F5750409AF0F1F0BE
:104DE00088234AF0EE0FFF1FBB1F661F771F881F27
:104DF00091505040A9F79E3F510580F00C945226E7
:104E00000C949D265F3FE4F3983ED4F38695779506
:104E10006795B795F795E7959F5FC1F7FE2B880FCC
:104E2000911D9695879597F90895A0E0B0E0EBE184
:104E3000F7E20C9491298230910510F482E090E021
:104E4000E0919801F09199019D013097A9F42030EB
:104E5000320709F447C0281B390B24303105B8F557
:104E6000DB0112968D919D910030100759F1F801E8
:104E700082839383FB010DC040815181E280F380E6
:104E800048175907B0F079F4109741F01296ED9257
:104E9000FC923296CF01E6E00C94AD29E0929801A5
:104EA000F0929901F6CF2030320751F042175307A4
:104EB00038F0A901D8019A018D01DF01F701C5CFB2
:104EC000BF01F9CF8093980190939901D3CFFB0153
:104ED000E20FF31F8193919322503040DB012D9319
:104EE0003D93D8CF40919A0150919B014030540797
:104EF00041F4409102015091030140939A01509373
:104F00009B0120910001309101012030320741F4D2
:104F10002DB73EB76091040170910501261B370B38
:104F20004217530708F0B6CF241B350B2817390753
:104F300008F4B0CFBC016E5F7F4F2617370708F427
:104F4000A9CF640F751F60939A0170939B01FA01BA
:104F5000819391939FCFA0E0B0E0E1EBF7E20C9456
:104F600095290097F1F0FC0132971282138220916B
:104F7000980130919901D90140E050E0203032078A
:104F8000A1F420813181820F931F20919A013091E9
:104F90009B012817390709F065C0E0939A01F09347
:104FA0009B01E2E00C94B129DB01AE17BF0708F0CA
:104FB00040C012966D917D911497AD0160307607D7
:104FC00099F7DA011296ED93FD9314976D917D9107
:104FD000CD01860F971FE817F90761F48081918151
:104FE0000296860F971FDA018D939D93828193819C
:104FF0008D939D93E0E0F0E0D90112968D919D9103
:1050000014970097A1F58D919D918A0F9B1F409158
:105010009A0150919B014817590719F6309751F59D
:10502000109298011092990120939A0130939B015C
:10503000B8CFA283B38360817181860F971FA817B1
:10504000B90761F46E5F7F4F8D919D91860F971F19
:10505000808391838D919D91828393834030540707
:1050600009F0AFCFE0939801F09399019ACFF9013D
:105070009C01C2CF12821382D7CFAAE0B0E0E3E452
:10508000F8E20C94952989839A83FC0160817181EF
:105090008281938100977040604021F464E279ED51
:1050A0008BE597E02DE133EF41E050E00E943E298F
:1050B0002B833C834D835E839B01AC01A7EAB1E463
:1050C0000E9463296F83788789879A87ACEEB4EF53
:1050D0002B813C814D815E810E9480292F81388502
:1050E00049855A85260F371F481F591FC901DA0104
:1050F000B7FF03C00197A040B048E981FA818083DF
:105100009183A283B383BC01CD019F772A96E2E00D
:105110000C94B129A8E0B0E0E0E9F8E20C949529FC
:105120006091060170910701809108019091090139
:1051300000977040604021F464E279ED8BE597E0E0
:105140002DE133EF41E050E00E943E2929833A836C
:105150004B835C839B01AC01A7EAB1E40E94632905
:105160006D837E838F839887ACEEB4EF29813A817B
:105170004B815C810E9480292D813E814F81588521
:10518000260F371F481F591FC901DA01B7FF03C097
:105190000197A040B0488093060190930701A09327
:1051A0000801B0930901BC01CD019F772896E2E088
:1051B0000C94B129A0E0B0E0E0EEF8E20C9495295F
:1051C0006093060170930701809308019093090191
:1051D000E2E00C94B12981E090E0F8940C94BC29B1
:1051E000F8940C94BC29FB01DC0102C001900D92E3
:1051F00041505040D8F70895DC0101C06D934150F3
:105200005040E0F70895FC0101900020E9F78095F7
:1052100090958E0F9F1F0895DB018F939F930E949F
:105220006329BF91AF91A29F800D911DA39F900D07
:10523000B29F900D11240895A1E21A2EAA1BBB1B48
:10524000FD010DC0AA1FBB1FEE1FFF1FA217B30752
:10525000E407F50720F0A21BB30BE40BF50B661F68
:10526000771F881F991F1A9469F76095709580952C
:1052700090959B01AC01BD01CF010895052E97FBD0
:105280001EF400940E94552957FD07D00E941C2946
:1052900007FC03D04EF40C94552950954095309559
:1052A00021953F4F4F4F5F4F089590958095709592
:1052B00061957F4F8F4F9F4F0895EE0FFF1F059011
:1052C000F491E02D09940E946E29A59F900DB49F42
:1052D000900DA49F800D911D11240895A29FB001EF
:1052E000B39FC001A39F700D811D1124911DB29F1A
:1052F000700D811D1124911D0895B7FF0C94632931
:105300000E946329821B930B08952F923F924F9224
:105310005F926F927F928F929F92AF92BF92CF9245
:10532000DF92EF92FF920F931F93CF93DF93CDB74E
:10533000DEB7CA1BDB0B0FB6F894DEBF0FBECDBFC6
:1053400009942A88398848885F846E847D848C8497
:105350009B84AA84B984C884DF80EE80FD800C81A0
:105360001B81AA81B981CE0FD11D0FB6F894DEBF83
:105370000FBECDBFED01089515E0C9E5D5E004C02D
:10538000FE010E945D292196C935D107C9F7F8941D
:02539000FFCF4D
:105392000000D00220000100000029010000E80303
:1053A200000000000000FF014C45575921005052F7
:1053B200415759210000000000BF09F6095D0A5C4F
:1053C2000A2E0A380A4C0A00000000F713671E5D15
:1053D2000A5C1593225F0E600E7B0E690E720EA69A
:1053E2000D840E39155B15850ECB0E0C0F5F0F78F1
:1053F2000FEE0F060406040406040600000000F780
:1054020013671E5D0A5C1570195F0E600E7B0E69D4
:105412000E720EA60D840E3915BF1D201C6A1A0CC1
:085422000F5F0F780FEE0F0081
:00000001FF
