:100000000C9463000C948B000C948B000C948B006C
:100010000C948B000C948B000C948B000C948B0034
:100020000C948B000C948B000C948B000C948B0024
:100030000C948B000C948B000C948B000C948B0014
:100040000C949B0A0C948B000C940C080C943B08A9
:100050000C948B000C948B000C948B000C948B00F4
:100060000C9459050C948B0000000000240027001C
:100070002A0000000000250028002B0000000000DE
:1000800023002600290004040404040404040202DA
:100090000202020203030303030301020408102007
:1000A0004080010204081020010204081020000012
:1000B0000008000201000003040700000000000027
:1000C00000002F016C0811241FBECFEFD8E0DEBF67
:1000D000CDBF11E0A0E0B1E0E0EDFEE102C005908F
:1000E0000D92A836B107D9F722E0A8E6B1E001C029
:1000F0001D92AD3DB207E1F710E0C3E6D0E004C0C9
:100100002197FE010E943B0FC136D107C9F70E941B
:10011000890A0C94F40E0C9400000F931F9308E6C8
:1001200011E0C8010E946E01C8010E943C0261E119
:1001300071E0C8010E94E60887E392E040E855E2DA
:1001400060E070E026E00E94BC061F910F910895C8
:100150008F929F92AF92BF92CF92DF92EF92FF92D7
:100160000F931F9380917801803009F46AC08EE06C
:100170000E94380C7C0108E611E0C801612D41E0C5
:100180000E9428026CE171E0C8010E94E608C701E4
:10019000990F990B892FB7010E94C10D20E030E023
:1001A00040EA50E459010E94870E20E030EC4FE70E
:1001B00054E40E941E0D7B016C0122E030E0C80176
:1001C000A701B60149010E948D096BE271E0C801E7
:1001D0000E94E6080E94F00A209174013091750196
:1001E0004091760150917701621B730B840B950B44
:1001F00028EE33E0A5010E94190FBA01EAE0F0E011
:10020000C801A9019F010E9405096DE071E0C801C4
:100210000E94E60887E392E0A701B60194010E94DC
:100220006C0A68EC70E0C5010E942F0B1F910F91C2
:10023000FF90EF90DF90CF90BF90AF909F908F9006
:1002400008950E94F00A909377018093760170934D
:1002500075016093740181E08093780188CF88E60E
:1002600091E067E240E122E00E946001089541E0F0
:100270000E943D0181E090E00895DF92EF92FF92AD
:100280000F931F93D42E062F7C01102F107F1D2952
:10029000612F0E940402C701612F0E945E02029535
:1002A000007F0D29C701602F0E940402C701602F43
:1002B0000E945E021F910F91FF90EF90DF900895D2
:1002C000FC01138622874187648384E391E0918354
:1002D000808380E090E09383828308950F931F933F
:1002E0008C0180E091E00E947B02F801158242853A
:1002F000C801212D0E947F011F910F910895CF9277
:10030000DF92EF92FF920F931F938C01F80142301E
:1003100020F040878581886008C04087413031F4F3
:10032000203021F0F80185818460858362E370E0EC
:1003300080E090E06C010E942F0BF80163857F0143
:10034000C8010E94040268EE73E0C6010E942F0BF0
:10035000C80160E30E940402C80160E30E945E02DB
:1003600084E991E16C010E94E80BC80160E30E94FE
:100370000402C80160E30E945E02C6010E94E80B0D
:10038000C80160E30E940402C80160E30E945E02AB
:1003900086E990E00E94E80BC80160E20E94040236
:1003A000C80160E20E945E02F70165816062C801D7
:1003B000412D0E943D0184E0F7018683C8016CE075
:1003C000412D0E943D01C80161E0412D0E943D0187
:1003D00080ED97E06C010E94E80B82E0F7018783D3
:1003E000C80166E0412D0E943D01C80162E0412D37
:1003F0000E943D01C6010E94E80B1F910F91FF90E2
:10040000EF90DF90CF900895CF92DF92FF920F93FD
:100410001F93F62EFC0164816F0100E011E0C8011A
:100420000E94BF02F60163856F29809100019091BF
:100430000101FC0120813181C801F9010995C80140
:100440000E94C9021F910F91FF90DF90CF900895F5
:10045000FC012085241710F0242F01C02A95A22F1B
:10046000BB27AA0FBB1FA45CBE4F2C91620F606814
:10047000412D0E943D010895EF92FF920F931F932B
:1004800028E0FC01238764817F0100E011E0C801BE
:100490000E94BF02F70163858091000190910101E4
:1004A000FC0120813181C801F9010995C8010E9430
:1004B000C9021F910F91FF90EF900895EF92FF9264
:1004C0001F93162F7C0164600E94040281E090E07B
:1004D0000E94E80B1B7FC701612F0E94040282E388
:1004E00090E00E94E80B1F91FF90EF90089580E04C
:1004F00090E00895089510929A0110929901109237
:10050000BC011092BD010E947A038EE892E00E9425
:1005100000058BE992E00E94FB040895E091BF0181
:10052000F091C001E115F10529F01092BD01109282
:10053000BC0109950895FC012091C1013091C201CF
:1005400021153105D9F080919A0190919901981760
:10055000A8F0161617065CF4A9E7B1E081E09191C6
:100560009D93482F5527839546175707C0F3109240
:10057000990160939A01CB01F9010995089560935F
:100580009B0181E08093BE011092BC011092BD01DD
:1005900008950F934091BD0180919B016CE971E03A
:1005A00021E001E00E94BB031092BC011092BD014A
:1005B0001092BE010F910895CF93DF93CDB7DEB7B0
:1005C00021970FB6F894DEBF0FBECDBF698320918F
:1005D000BE01203059F02091BD01203268F021E0A9
:1005E00030E0FC013383228380E013C0CE0101960A
:1005F00061E00E94CD040CC08091BC01A82FBB27F4
:10060000A456BE4F6C9383958093BD018093BC012B
:1006100081E090E021960FB6F894DEBF0FBECDBF0B
:10062000DF91CF9108958F929F92AF92BF92CF9218
:10063000DF92EF92FF920F931F938A01DB017C01FF
:100640008091BE018030B9F001151105C1F06D0136
:10065000C00ED11E47016D91F40180819181FC0192
:1006600020813181C701F9015D010995D501AC15E2
:10067000BD0589F704C0CD01602F0E94CD04C801DB
:100680001F910F91FF90EF90DF90CF90BF90AF90B0
:100690009F908F90089580919901282F3327809102
:1006A0009A019927821B930B08958091990190914B
:1006B0009A01891758F4A82FBB27A758BE4F9C91C1
:1006C000839580939901892F992708958FEF9FEF44
:1006D00008958091990190919A01891738F4A82F73
:1006E000BB27A758BE4F8C91992708958FEF9FEF96
:1006F000089508951092C30181E08093C40110927F
:10070000C50182E161E00E94560C83E161E00E9434
:10071000560C8091B9008E7F8093B9008091B9000A
:100720008D7F8093B90088E48093B80085E480933E
:10073000BC0008950F931F9391E0909314028030B2
:10074000B9F01091B8000091BA008091BC008A7B8A
:100750008093BC0082E1612D0E94560C83E1612DE3
:100760000E94560C0E947A030093BA001093B800BE
:100770001F910F9108956F927F928F929F92AF92E7
:10078000BF92CF92DF92EF92FF920F931F93142F9D
:100790007B01D82E113210F081E0F2C0C22E0E94EF
:1007A000FC0A5B014C018091C301803080E090E045
:1007B0003C0109F431C02091C6013091C70140913C
:1007C000C8015091C90181E021153105930142070B
:1007D000530709F0812D81708030C9F40E94FC0A12
:1007E0006A197B098809990921E04091C601509155
:1007F000C701E091C801F091C90146175707E80702
:10080000F90708F4212D2170203009F4A1C080914E
:10081000C301803009F0CFCF82E08093C301009301
:10082000C4018FEF8093CB011092CC011093CD01C6
:10083000103039F0412F55278FEC91E0B7010E941D
:10084000F70E1092CE01DD0C8091CE018D298093A0
:10085000CE018091C501813009F03EC01092C501E2
:100860000E94FC0A8B017C018091CE018093BB0029
:100870002091C6013091C70181E04091C80150919B
:10088000C9012115310593014207530709F0812D54
:1008900081708030C9F40E94FC0A601B710B8E09C4
:1008A0009F0921E04091C6015091C701E091C80124
:1008B000F091C90146175707E807F90708F4212DF9
:1008C0002170203009F444C08091BC0088708030D1
:1008D00009F0CACF85EC01C085EE8093BC000E9470
:1008E000FC0A8B017C018C2D803009F437C080918B
:1008F000C301823009F032C02091C6013091C70196
:100900004091C8015091C90181E021153105930141
:100910004207530709F0812D8170803041F70E9412
:10092000FC0A601B710B8E099F0921E04091C601F2
:100930005091C701E091C801F091C90146175707CE
:10094000E807F90708F4212D2170203009F0CFCFF6
:100950008091CA010E949A0385E012C08091CB0168
:100960008F3F31F08091CB01803221F482E008C0CA
:10097000812D06C09091CB0183E0903309F084E093
:100980001F910F91FF90EF90DF90CF90BF90AF90AD
:100990009F908F907F906F900895DC01862F99270C
:1009A0002091EF013327280F391F2132310510F034
:1009B00081E008952091C3012430D9F4603091F092
:1009C0008A0F9B1FE0EFF1E02D913091EF01AD0117
:1009D000A32FBB27AE0FBF1F2C93DA013196A817A8
:1009E000B90791F78091EF01860F8093EF01812D78
:1009F000089582E008959093110280931002089563
:100A00009093130280931202089585ED8093BC00A9
:100A10008091C8019091C9012091C6013091C70110
:100A20004091BC004071403009F43BC0295F3F4F0A
:100A30008F4F9F4F969587953795279596958795D4
:100A400037952795969587953795279540E050E0FF
:100A5000E091C601F091C701A091C801B091C90110
:100A600061E0E115F105A407B50709F0612D61709A
:100A7000603089F461E0211531058407950709F09C
:100A8000612D6170603081F46AE26A95F1F721505E
:100A90003040804090406091BC006071603009F04F
:100AA000D7CF1092C30108958091CA010E949A0382
:100AB00008950F920FB60F921F9211242F933F9318
:100AC0004F935F936F937F938F939F93AF93BF9356
:100AD000EF93FF938091B9008695869586958C302B
:100AE0005CF08331BCF480310CF08AC083E08093E9
:100AF000C30110921502F7C086300CF037C0833066
:100B00000CF041C0982F9A95923008F0C2C08091A5
:100B1000CE0153C0982F87310CF08DC09551923083
:100B200008F490C0833109F4E0C0843109F0E0C0DA
:100B300085EC8093BC001092C30180911502803235
:100B400038F480911502A82FBB27AA5EBD4F1C92D6
:100B5000E0911002F091110280911502682F772721
:100B600086E192E0099510921502C2C089300CF01E
:100B700027C0863009F493C0873009F492C08830CA
:100B800009F4ABC0B5C0833031F0843009F492C0B1
:100B9000853009F0ADC08091CC019091CD018917CD
:100BA00008F024C08091CC01982F93959093CC01AC
:100BB000A82FBB27A153BE4F8C918093BB0093C03D
:100BC000893009F47AC08A3009F47AC08B3009F090
:100BD0008FC08091BB009091CC01292F2395209349
:100BE000CC01A92FBB27A153BE4F8C938091C40188
:100BF000803009F062C081E08093C50184EA55C06D
:100C0000803131F0813109F470C0823109F070C057
:100C100080911502803208F068C08091BB009091ED
:100C20001502292F239520931502A92FBB27AA5E11
:100C3000BD4F8C9358C09851923008F435C087311D
:100C4000B1F056C084E08093C30110923602109236
:100C5000EF01E0911202F091130209958091EF01EA
:100C6000803029F41092F00181E08093EF018091AF
:100C70003602982F939590933602A82FBB27A05148
:100C8000BE4F8C918093BB00809136029091EF0112
:100C900028C0803009F02CC01092CB010EC080E338
:100CA0000AC088E38093CB0185EC8093BC0010924E
:100CB000C3011EC080E28093CB010E94050518C0CD
:100CC0008091BB009091CC01292F23952093CC01DA
:100CD000A92FBB27A153BE4F8C938091CC0190913B
:100CE000CD01891710F485EC01C085E88093BC0024
:100CF000FF91EF91BF91AF919F918F917F916F91F4
:100D00005F914F913F912F911F900F900FBE0F90C9
:100D1000189581E698E08115910561F080E090E0FA
:100D20008115910539F00E9461088170803011F0C1
:100D30000E9400000895FC01248DA22FBB27A80F5C
:100D4000B91FA35ABF4F2C91348D33953F73348F05
:100D5000A689B7892C93A089B1892C91237020642E
:100D60002C93238D348D231731F4FC01A289B38990
:100D70008C918F7D8C930895AF92BF92CF92DF922A
:100D8000EF92FF920F931F93122F6B015A017C0178
:100D9000F701A089B18982E08C9381EE20E030E0F8
:100DA00001E0A114B806C206D30609F0012D0170B6
:100DB00060E079E08DE390E09501A6010E94190FB3
:100DC00021503040404050405695479537952795E3
:100DD000003021F480E121153807A0F0F701A08947
:100DE000B1891C9260E874E88EE190E09501A6015B
:100DF0000E94190F21503040404050405695479571
:100E000037952795F701A485B5853C93A685B785C9
:100E10002C93108EA489B5891C93A289B3898C91D7
:100E200080618C93A289B3898C9188608C93A2890C
:100E3000B3898C9180688C93A289B3898C918F7DC2
:100E40008C931F910F91FF90EF90DF90CF90BF9008
:100E5000AF900895FC01818D9927228D3327821B45
:100E6000930B8F7390700895FC01218D328D2317A1
:100E700019F48FEF9FEF0895FC01228D3327280F7F
:100E8000391FF901858D99270895FC01218D328D37
:100E9000231719F48FEF9FEF0895FC01228DAF0106
:100EA000E22FFF27E80FF91F858DFA01928D9395A8
:100EB0009F73928F99270895FC01438D242F332728
:100EC000548D852F9927451720F0821B930BCF96C1
:100ED000089520953095820F931F08950F931F93C7
:100EE000CF93DF93CDB7DEB722970FB6F894DEBF6E
:100EF0000FBECDBF8C01F801808D813009F028C074
:100F0000F801FA83E983A289B3898C9180728030D9
:100F100061F4E981FA819D01A089B1898C91D9019F
:100F2000E981FA818074803099F48FB788235AF36D
:100F30008C918072803039F3A089B1898C91807254
:100F4000803009F3C8010E949B06E981FA81DBCF5A
:100F500022960FB6F894DEBF0FBECDBFDF91CF91C2
:100F60001F910F910895CF92DF92EF92FF920F930E
:100F70001F93162F7C0181E0F701808F838D948D64
:100F8000891741F4F701A089B1898C918072803072
:100F900009F02CC0F701038D03950F73848D08179A
:100FA00091F467018FB7882352F0F701A089B189C6
:100FB0008C918072803019F0C7010E949B06F60167
:100FC000848D081779F3F701838DA82FBB27AE0D09
:100FD000BF1DA35ABF4F1C938FB7F894038FA289EC
:100FE000B3899C9190629C938FBF0DC08FB7F8948A
:100FF000F701A689B7891C93A089B1899C91937048
:1010000090649C938FBF81E090E01F910F91FF90BF
:10101000EF90DF90CF9008950F920FB60F922F931D
:101020008F939F93AF93BF93A0914702B0914802D3
:101030009C91A0914D02B0914E028C919470903091
:1010400089F49091500293959F73209151029217C9
:1010500049F020915002A22FBB27AC5ABD4F8C9370
:1010600090935002BF91AF919F918F912F910F90CC
:101070000FBE0F9018950F920FB60F921F9211246A
:101080002F933F934F935F936F937F938F939F9390
:10109000AF93BF93EF93FF9387E392E00E949B0689
:1010A000FF91EF91BF91AF919F918F917F916F9140
:1010B0005F914F913F912F911F900F900FBE0F9016
:1010C000189587E392E00E942A079C0181E0211590
:1010D000310509F4812D08951092500210925102A9
:1010E0001092520280E090E090933E0280933D0285
:1010F00028EE33E030933C0220933B0290933A0277
:101100008093390286EC90E090934E0280934D02DA
:1011100082EC90E090934C0280934B0281EC90E043
:1011200090934A028093490280EC90E090934802A9
:101130008093470284EC90E09093460280934502AE
:1011400085EC90E090934402809343028AE591E01D
:1011500090933802809337021092530208958F9231
:101160009F92AF92BF92CF92DF92EF92FF920F9336
:101170001F938A017B016C01011580E090E011054D
:10118000D1F05601D701A80FB91F6C914C01F501A0
:1011900080819181FC0120813181C601F90109958D
:1011A0008115910539F0C40101960817190751F707
:1011B000C80101C0C4011F910F91FF90EF90DF9013
:1011C000CF90BF90AF909F908F900895EF92FF9235
:1011D0000F931F938B017C010115110579F0C80154
:1011E0000E94000FAC01F70180819181FC012281F6
:1011F0003381C701B801F901099502C080E090E090
:101200001F910F91FF90EF9008952115310519F06E
:101210000E9415090895FC0120813181F901208186
:101220003181642FF901099508952F923F924F92D1
:101230005F926F927F928F929F92AF92BF92CF9266
:10124000DF92EF92FF920F931F93CF93DF93CDB76F
:10125000DEB7A1970FB6F894DEBF0FBECDBF7B01FE
:101260005A014C0119A28AE0223008F0822FDE01D7
:101270009096C82EDD2400E010E01D01B501C701E5
:101280009601A8010E94190F39012A01B301C20178
:101290009601A8010E94090FC501861B970B90E3D8
:1012A0008A300CF097E3980FD1019C9381E0AC1445
:1012B000BD04E006F10608F4812D8170119780309D
:1012C0005301720109F0D9CF1196CD018D010E9411
:1012D000000FAC01F40180819181FC0122813381F6
:1012E000C401B801F9010995A1960FB6F894DEBFC3
:1012F0000FBECDBFDF91CF911F910F91FF90EF9067
:10130000DF90CF90BF90AF909F908F907F906F9025
:101310005F904F903F902F9008950E9490090895FC
:101320002F923F924F925F926F927F928F929F92F5
:10133000AF92BF92CF92DF92EF92FF920F931F93E3
:10134000122F6B015A017C01B501C6010E94800E6B
:101350008115910519F067E271E018C0B501C60169
:101360000E94760E8115910519F068E171E00EC0BA
:10137000C6019F772FEF3FEF4FE75FE4B5010E9473
:10138000710E18160CF020C063E271E0F701808145
:101390009181FC012281338143E050E0C701F901D2
:1013A00009956C01C6011F910F91FF90EF90DF909E
:1013B000CF90BF90AF909F908F907F906F905F90F5
:1013C0004F903F902F90089520E030E0B501C60186
:1013D0001901A9010E94190D88237AF480E090E890
:1013E000C826D926F70180819181FC0120813181B5
:1013F000C7016DE2F90109951C0140E05FE320E0BF
:1014000030E0103081F080E291E43C01012F49018D
:10141000B901CA019401A3010E941E0D9B01AC01F8
:101420000A950030A9F7B501C6010E94AD0C6B0109
:101430005C010E94900D4B012C01C701A401B20177
:101440002AE00E9415093C01620C731C103009F45B
:1014500041C0B401C2010E94BF0D9B01AC01B601A5
:10146000C5010E94AC0C5B014C01F70180819181A8
:10147000FC0120813181C7016EE2F90109956C01FF
:10148000C60CD71C80E291E41C01B501C40120E028
:1014900030E02901A1010E94870E5B014C010E94EE
:1014A000900D3B01C2010E94BF0D9B01AC01B50133
:1014B000C4010E94AC0C5B014C01C701A301B20145
:1014C0002AE00E941509C80ED91E1A95103009F09D
:1014D000DCCF68CF630166CFEF92FF920F931F932B
:1014E0008C010E9490097C01F80180819181FC01AE
:1014F0002281338160E271E042E050E0C801F901ED
:1015000009958E0D9F1D1F910F91FF90EF900895EB
:1015100008950F931F930E94F30B0E94880A0E9464
:101520008D0009E816E00E94A80001151105D9F305
:101530000E948906F8CF0F920FB60F922F933F9318
:101540004F935F936F937F938F939F93EF93FF934B
:101550008091DC02982F9D5F9D3710F421E001C03F
:1015600022E030E04091D8025091D90260E070E072
:10157000E091DA02F091DB02420F531FE61FF71FE2
:10158000F093DB02E093DA025093D9024093D80241
:101590008A579D3708F4892F8093DC028091D4020A
:1015A0009091D5022091D6023091D7028F5F9F4F44
:1015B0002F4F3F4F3093D7022093D6029093D502FE
:1015C0008093D402FF91EF919F918F917F916F91C2
:1015D0005F914F913F912F910F900FBE0F901895F3
:1015E0002FB7F8948091DA029091DB026091D802D3
:1015F0007091D9022FBF08959FB7F8946091D602D9
:101600007091D7024091D4025091D50226B585B38E
:101610009FBF91E02F3F09F4912D8923E82FFF27E9
:1016200080E090E04E0F5F1F681F791F440F551F29
:10163000661F440F551F661FF62FE52F542F412DAF
:10164000622F7727660F771F881F991F660F771FF6
:10165000881F991F642B752B8E2B9F2B08956F92DB
:101660007F928F929F92AF92BF92CF92DF92EF9232
:10167000FF920F931F93AFB7F8944091D602509109
:10168000D7022091D4023091D502E6B5F5B3AFBFB1
:1016900000E010E0A1E061156B01710558018007C1
:1016A000910709F0A12DA170A03009F084C061E07C
:1016B000EF3F09F4612D7C01F6236F2F7727260F6A
:1016C000371F8501401F511F220F331F441F220F58
:1016D000331F441F542F432F322F212D8E2E992438
:1016E000880C991C001F111F880C991C001F111FCA
:1016F000042B152B822A932A0E94370CD7018FB70F
:10170000F8944091D6025091D7022091D4023091A2
:10171000D50296B565B38FBF81E09F3F71E009F4B4
:10172000712D67237727260F371F75014E1D5F1D0B
:10173000220F331F441F220F331F441F542F432FE8
:10174000722F612D292F3327220F331FEE2DEE1F0D
:10175000FF2DFF1F220F331FEE1FFF1F340126191D
:101760003709E00BF10B260F371FE41FF51F283E4A
:1017700093E03907EE05FF0508F0812D8170803078
:10178000C1F4960121503040A040B04081E02115C5
:10179000690131059501A207B30709F4812D817014
:1017A000940128513C4F49010F4F1F4F803019F0D1
:1017B000A6CF7D01A1CF1F910F91FF90EF90DF90F9
:1017C000CF90BF90AF909F908F907F906F90089533
:1017D0008230910538F0880F991F880F991F05975F
:1017E0000197F1F70895789484B5826084BD84B53B
:1017F000816084BD85B5826085BD85B5816085BD0C
:1018000080916E00816080936E00109281008091C3
:10181000810082608093810080918100816080934B
:101820008100809180008160809380008091B10070
:1018300084608093B1008091B00081608093B0009B
:1018400080917A00846080937A0080917A0082602F
:1018500080937A0080917A00816080937A008091F1
:101860007A00806880937A001092C10008950895EC
:10187000982F9E5F8E3008F4982F977080910C01FE
:101880008295807F880F880F892B80937C008091C0
:101890007A00806480937A0080917A00807480302E
:1018A000D9F780917800909179000895EF92FF9296
:1018B0000F931F93282F3327F901E255FF4F84918F
:1018C000F901E656FF4FF4902A573F4FF9019491E2
:1018D000903009F41BC0092F1127803021F0E62E2B
:1018E0000E948B0C6E2D000F111F0E581F4FF80118
:1018F000A591B5918FB7F894603019F09C919F290C
:1019000003C0F0949C919F219C938FBF1F910F91D6
:10191000FF90EF900895843044F4813079F0823064
:1019200089F08330C1F48FE707C0883049F08730F1
:1019300061F0843081F48FEDA0E809C08FE703C027
:101940008FED04C08FEDA4E402C08FE7A0EBB0E000
:101950009C9198239C9308955058BB27AA270E94D6
:10196000C40C0C94370E0E94290E38F00E94300EE1
:1019700020F039F49F3F19F426F40C94260E0EF44F
:10198000E095E7FB0C94200EE92F0E94480E58F3D7
:10199000BA17620773078407950720F079F4A6F554
:1019A0000C946A0E0EF4E0950B2EBA2FA02D0B01AD
:1019B000B90190010C01CA01A0011124FF27591B94
:1019C00099F0593F50F4503E68F11A16F040A22F9A
:1019D000232F342F4427585FF3CF4695379527950B
:1019E000A795F0405395C9F77EF41F16BA0B620B0A
:1019F000730B840BBAF09150A1F0FF0FBB1F661F51
:101A0000771F881FC2F70EC0BA0F621F731F841F93
:101A100048F4879577956795B795F7959E3F08F0B9
:101A2000B0CF9395880F08F09927EE0F979587957B
:101A300008950E94FC0D08F481E008950E94320D83
:101A40000C94370E0E94300E58F00E94290E40F080
:101A500029F45F3F29F00C94200E51110C946B0E69
:101A60000C94260E0E94480E68F39923B1F3552377
:101A700091F3951B550BBB27AA27621773078407A1
:101A800038F09F5F5F4F220F331F441FAA1FA9F337
:101A900035D00E2E3AF0E0E832D091505040E69525
:101AA000001CCAF72BD0FE2F29D0660F771F881F86
:101AB000BB1F261737074807AB07B0E809F0BB0B79
:101AC000802DBF01FF2793585F4F3AF09E3F51058D
:101AD00078F00C94200E0C946B0E5F3FE4F3983E6C
:101AE000D4F3869577956795B795F7959F5FC9F776
:101AF000880F911D9695879597F90895E1E0660FF7
:101B0000771F881FBB1F621773078407BA0720F06F
:101B1000621B730B840BBA0BEE1F88F7E0950895D8
:101B20000E94500E88F09F5798F0B92F9927B7510F
:101B3000B0F0E1F0660F771F881F991F1AF0BA9571
:101B4000C9F714C0B13091F00E946A0EB1E0089557
:101B50000C946A0E672F782F8827B85F39F0B93F49
:101B6000CCF3869577956795B395D9F73EF4909524
:101B70008095709561957F4F8F4F9F4F0895E894A2
:101B800009C097FB3EF490958095709561957F4FC5
:101B90008F4F9F4F9923A9F0F92F96E9BB27939573
:101BA000F695879577956795B795F111F8CFFAF483
:101BB000BB0F11F460FF1BC06F5F7F4F8F4F9F4FB4
:101BC00016C0882311F096E911C0772321F09EE812
:101BD000872F762F05C0662371F096E8862F70E078
:101BE00060E02AF09A95660F771F881FDAF7880F52
:101BF0009695879597F90895990F0008550FAA0BA8
:101C0000E0E8FEEF16161706E807F907C0F012160F
:101C10001306E407F50798F0621B730B840B950B12
:101C200039F40A2661F0232B242B252B21F4089567
:101C30000A2609F4A140A6958FEF811D811D089504
:101C400097F99F6780E870E060E008959FEF80EC6F
:101C5000089500240A941616170618060906089512
:101C600000240A9412161306140605060895092E78
:101C70000394000C11F4882352F0BB0F40F4BF2BE7
:101C800011F460FF04C06F5F7F4F8F4F9F4F089527
:101C900057FD9058440F551F59F05F3F71F047951D
:101CA000880F97FB991F61F09F3F79F08795089502
:101CB000121613061406551FF2CF4695F1DF08C021
:101CC000161617061806991FF1CF8695710561053E
:101CD00008940895E894BB2766277727CB0197F9E6
:101CE00008950E94FC0D08F48FEF08950E94500E95
:101CF00080E090E020F419F40EF4029783950895A3
:101D00000E94500E80E090E009F0881F08950E9424
:101D10009A0E0C94370E0E94290E38F00E94300E55
:101D200020F0952311F00C94200E0C94260E112413
:101D30000C946B0E0E94480E70F3959FC1F3950FA3
:101D400050E0551F629FF001729FBB27F00DB11D3F
:101D5000639FAA27F00DB11DAA1F649F6627B00DCF
:101D6000A11D661F829F2227B00DA11D621F739FB8
:101D7000B00DA11D621F839FA00D611D221F749FC6
:101D80003327A00D611D231F849F600D211D822F0D
:101D9000762F6A2F11249F5750409AF0F1F0882334
:101DA0004AF0EE0FFF1FBB1F661F771F881F915061
:101DB0005040A9F79E3F510580F00C94200E0C94E2
:101DC0006B0E5F3FE4F3983ED4F386957795679565
:101DD000B795F795E7959F5FC1F7FE2B880F911D8B
:101DE0009695879597F90895F8940C945B0FFB01ED
:101DF000DC0102C001900D9241505040D8F7089587
:101E0000FC0101900020E9F7809590958E0F9F1FAF
:101E10000895DB018F939F930E94410FBF91AF9173
:101E2000A29F800D911DA39F900DB29F900D112434
:101E30000895A1E21A2EAA1BBB1BFD010DC0AA1F0B
:101E4000BB1FEE1FFF1FA217B307E407F50720F023
:101E5000A21BB30BE40BF50B661F771F881F991F9E
:101E60001A9469F760957095809590959B01AC01E7
:101E7000BD01CF010895EE0FFF1F0590F491E02DF5
:101E800009940E944C0FA59F900DB49F900DA49FA4
:101E9000800D911D11240895A29FB001B39FC00130
:101EA000A39F700D811D1124911DB29F700D811D86
:101EB0001124911D089510E0C3E6D0E004C0FE0196
:101EC0000E943B0F2196C336D107C9F7F894FFCF84
:101ED00048010000E803000000000000017320201A
:101EE00000437A6573632100696E660041303D00EE
:101EF0000D0A006F7666006E616E005620743D001C
:101F0000000000003701AF0877027A0200004000AD
:101F10001400540000000000DC0213037702790370
:101F20004B035503690300000000B307AF085C07CB
:081F30006E072A07450734077C
:00000001FF
