:100000000C9463000C948B000C948B000C948B006C
:100010000C948B000C948B000C948B000C94630854
:100020000C948B000C948B000C948B000C948B0024
:100030000C948B000C948B000C948B000C948B0014
:100040000C940F090C948B000C942E040C945D04FA
:100050000C948B000C948B000C948B000C948B00F4
:100060000C948B000C948B000200000000240027ED
:10007000002A0000000000250028002B00000000DE
:1000800000230026002900040404040404040402DC
:100090000202020202030303030303010204081025
:1000A00020408001020408102001020408102000F2
:1000B0000000080002010000030407000000000027
:1000C000000000008E0411241FBECFEFD8E0DEBF79
:1000D000CDBF11E0A0E0B1E0E4E7F9E102C0059096
:1000E0000D92A036B107D9F722E0A0E6B1E001C039
:1000F0001D92AF34B207E1F710E0C3E6D0E004C0D0
:100100002197FE010E944E0CC236D107C9F70E940A
:10011000FD080C94F10B0C940000AF92BF92CF92AB
:10012000DF92FF920F931F935B01082F1127D801D5
:10013000AA5FBE4FFC908F2D61E00E94BE0A650150
:10014000DD0CDD08CD2C000F111F025F1E4FF801E2
:10015000608171818CE09501A6010E943F06B50186
:10016000C6010E9470098F2D612D0E94BE0A26E5EE
:1001700035E540E050E0B501C6010E94FD0B292F96
:10018000220F612D661F712D680F791FCB01990F0A
:10019000990B892F0E9470091F910F91FF90DF909A
:1001A000CF90BF90AF9008956F927F928F929F9261
:1001B000AF92BF92CF92DF92EF92FF920F931F9375
:1001C0000E9464098B010854144F8F4F9F4F7C018C
:1001D0000E94640921E068016017710787018007A8
:1001E000910708F4212D2170203009F027C020E06C
:1001F00030E08FEF9FEF5C014901C901DC01A65F90
:10020000BE4FFC903C018F2D0E94140B811591056F
:10021000C1F0C30101968430910581F70E94640901
:1002200021E0A601641775078007910708F0212DCA
:1002300021702030C40111F7C50137C08FEF9FEF47
:1002400034C0D301AA5FBE4FEC908E2D61E00E94B6
:10025000BE0A6301C301880F991F825F9E4FFC0194
:100260006081718120E030E08CE0A9010E943F06AE
:100270008F2D0E94140B8115910579F485E090E093
:100280005C0100E010E0B501C8010E9470098F2DEB
:100290000E94140B81159105B1F38CE00E944E0869
:1002A0008E2D612D0E94BE0AC6011F910F91FF90F5
:1002B000EF90DF90CF90BF90AF909F908F907F9006
:1002C0006F9008956F927F928F929F92AF92BF929C
:1002D000CF92DF92EF92FF920F931F9304E911E008
:1002E00066E171E0C8010E940805E0919201F09179
:1002F000930131974AE050E0C801BF010E941E06F9
:1003000084EA91E024E130E0590100E010E04497F4
:100310007C018CE0B70165019601A8010E943F06AF
:10032000B601C8010E947009C7018937910578F7A5
:1003300080E090E026E031E069010AE011E026E982
:1003400030E059017C014C01C601DC018D9161E076
:100350003D010E94BE0AD301A017B107B9F7B5014C
:10036000C7010E947009C601DC018D91612D3D011C
:100370000E94BE0AD301A017B107B9F7B501C701A2
:100380000E947009C40101968330910509F0DBCF0A
:1003900068EE73E08701C8010E9470091093930111
:1003A000009392011F910F91FF90EF90DF90CF90FB
:1003B000BF90AF909F908F907F906F900895CF9255
:1003C000DF92EF92FF920F931F93A6E0B1E08AE0D5
:1003D00091E06C010AE011E08D9161E07D010E94E5
:1003E0008C0AD6018D916D0162E00E948C0AD701C2
:1003F000A017B10789F704E911E040E855E260E091
:1004000070E0C80126E00E94DE0269E271E0C801E6
:100410000E94EF058EE00E946E0ABC01990F990BB5
:10042000892F0E94CE081F910F91FF90EF90DF90CF
:10043000CF900895CF92DF92EF92FF920F931F9388
:1004400064E070E000E010E0C8010E94DD08A091C7
:100450009201B0919301CD01019690939301809305
:100460009201A05ABE4F6C9368E572E07801C80112
:100470000E94700980919201909193012CEE92025A
:10048000302D1124829F212D1124281B230F332767
:10049000322F2227002D1127022B132B0E531E4F14
:1004A0000739110514F406E910E0181619060CF0C6
:1004B0002DC0A0E0B0E06D01A05ABE4F8C91B801F4
:1004C0000E948D00D6011196809192019091930126
:1004D000A817B90784F318161906C4F4E0E0F0E091
:1004E0008F01E05AFE4F6F010E94D400D6012C917B
:1004F00033278217930709F025C0F80131968091C0
:10050000920190919301E817F90754F304E911E07F
:1005100065E471E0C8010E94080560919201709144
:1005200093014AE050E0C8010E941E0680919201AA
:10053000909193018233910539F4F0929301E09206
:10054000920102C00E9462011F910F91FF90EF90F3
:10055000DF90CF90089583E894E08115910561F0D4
:1005600080E090E08115910539F00E94830481704C
:10057000803011F00E9400000895FC01248DA22F0C
:10058000BB27A80FB91FA35ABF4F2C91348D3395A9
:100590003F73348FA689B7892C93A089B1892C9198
:1005A000237020642C93238D348D231731F4FC01A8
:1005B000A289B3898C918F7D8C930895AF92BF925D
:1005C000CF92DF92EF92FF920F931F93122F6B0146
:1005D0005A017C01F701A089B18982E08C9381EEF8
:1005E00020E030E001E0A114B806C206D30609F00D
:1005F000012D017060E079E08DE390E09501A601A6
:100600000E940D0C21503040404050405695479577
:1006100037952795003021F480E121153807A0F0A7
:10062000F701A089B1891C9260E874E88EE190E03E
:100630009501A6010E940D0C2150304040405040D1
:100640005695479537952795F701A485B5853C9331
:10065000A685B7852C93108EA489B5891C93A28991
:10066000B3898C9180618C93A289B3898C918860C5
:100670008C93A289B3898C9180688C93A289B38969
:100680008C918F7D8C931F910F91FF90EF90DF9055
:10069000CF90BF90AF900895FC01818D9927228D56
:1006A0003327821B930B8F7390700895FC01218D6B
:1006B000328D231719F48FEF9FEF0895FC01228DDF
:1006C0003327280F391FF901858D99270895FC01DB
:1006D000218D328D231719F48FEF9FEF0895FC01C0
:1006E000228DAF01E22FFF27E80FF91F858DFA0158
:1006F000928D93959F73928F99270895FC01438D56
:10070000242F3327548D852F9927451720F0821BDE
:10071000930BCF96089520953095820F931F0895DF
:100720000F931F93CF93DF93CDB7DEB722970FB60A
:10073000F894DEBF0FBECDBF8C01F801808D8130F3
:1007400009F028C0F801FA83E983A289B3898C9162
:100750008072803061F4E981FA819D01A089B189BC
:100760008C91D901E981FA818074803099F48FB736
:1007700088235AF38C918072803039F3A089B18933
:100780008C918072803009F3C8010E94BD02E9811A
:10079000FA81DBCF22960FB6F894DEBF0FBECDBF35
:1007A000DF91CF911F910F910895CF92DF92EF9239
:1007B000FF920F931F93162F7C0181E0F701808F2A
:1007C000838D948D891741F4F701A089B1898C91AB
:1007D0008072803009F02CC0F701038D03950F73F0
:1007E000848D081791F467018FB7882352F0F701C1
:1007F000A089B1898C918072803019F0C7010E9464
:10080000BD02F601848D081779F3F701838DA82FB7
:10081000BB27AE0DBF1DA35ABF4F1C938FB7F894D3
:10082000038FA289B3899C9190629C938FBF0DC066
:100830008FB7F894F701A689B7891C93A089B1896D
:100840009C91937090649C938FBF81E090E01F9186
:100850000F91FF90EF90DF90CF9008950F920FB619
:100860000F922F938F939F93AF93BF93A091A40167
:10087000B091A5019C91A091AA01B091AB018C917E
:100880009470903089F49091AD0193959F7320916D
:10089000AE01921749F02091AD01A22FBB27AF54B2
:1008A000BE4F8C939093AD01BF91AF919F918F916B
:1008B0002F910F900FBE0F9018950F920FB60F92B9
:1008C0001F9211242F933F934F935F936F937F93C6
:1008D0008F939F93AF93BF93EF93FF9384E991E03E
:1008E0000E94BD02FF91EF91BF91AF919F918F91B7
:1008F0007F916F915F914F913F912F911F900F903A
:100900000FBE0F90189584E991E00E944C039C0162
:1009100081E02115310509F4812D08951092AD0172
:100920001092AE011092AF0180E090E090939B0195
:1009300080939A0128EE33E0309399012093980137
:10094000909397018093960186EC90E09093AB0191
:100950008093AA0182EC90E09093A9018093A80172
:1009600081EC90E09093A7018093A60180EC90E049
:100970009093A5018093A40184EC90E09093A3014F
:100980008093A20185EC90E09093A1018093A00157
:1009900081E591E090939501809394011092B001CC
:1009A00008958F929F92AF92BF92CF92DF92EF9273
:1009B000FF920F931F938A017B016C01011580E068
:1009C00090E01105D1F05601D701A80FB91F6C9125
:1009D0004C01F50180819181FC0120813181C601AA
:1009E000F90109958115910539F0C401019608179F
:1009F000190751F7C80101C0C4011F910F91FF9061
:100A0000EF90DF90CF90BF90AF909F908F90089520
:100A1000EF92FF920F931F938B017C01011511053B
:100A200079F0C8010E94F40BAC01F701808191813B
:100A3000FC0122813381C701B801F901099502C087
:100A400080E090E01F910F91FF90EF900895AF929A
:100A5000BF92CF92DF92EF92FF920F931F936B01A1
:100A60007A018C012A30310571F021153105C1F46C
:100A7000F80180819181FC0120813181C8016E2DB6
:100A8000F901099512C081E09D2D99230AF4812D69
:100A90008170803099F0C801A701B6012AE003C037
:100AA000C801A701B6010E9477051F910F91FF9021
:100AB000EF90DF90CF90BF90AF900895F8018081C4
:100AC0009181FC0120813181C8016DE2F901099514
:100AD0005C0160E070E0AB014E195F096C097D09B3
:100AE000C8012AE00E9477058A0D9B1DDECF2F9258
:100AF0003F924F925F926F927F928F929F92AF92AE
:100B0000BF92CF92DF92EF92FF920F931F93CF93FA
:100B1000DF93CDB7DEB7A1970FB6F894DEBF0FBE57
:100B2000CDBF7B015A014C0119A28AE0223008F0A6
:100B3000822FDE019096C82EDD2400E010E01D011A
:100B4000B501C7019601A8010E940D0C39012A01C7
:100B5000B301C2019601A8010E94FD0BC501861BCD
:100B6000970B90E38A300CF097E3980FD1019C9398
:100B700081E0AC14BD04E006F10608F4812D81701B
:100B8000119780305301720109F0D9CF1196CD0130
:100B90008D010E94F40BAC01F40180819181FC0174
:100BA00022813381C401B801F9010995A1960FB6DC
:100BB000F894DEBF0FBECDBFDF91CF911F910F9193
:100BC000FF90EF90DF90CF90BF90AF909F908F906D
:100BD0007F906F905F904F903F902F900895EF928D
:100BE000FF920F931F937B018C01E114F10479F0C4
:100BF000C7010E94F40BAC01F80180819181FC01D6
:100C000022813381C801B701F901099502C080E052
:100C100090E07C01F80180819181FC012281338187
:100C200066E271E042E050E0C801F90109958E0DDD
:100C30009F1D1F910F91FF90EF900895EF92FF92EB
:100C40000F931F939A01AB018C01770F770B672FDE
:100C50000E9427057C01F80180819181FC0122819D
:100C6000338166E271E042E050E0C801F901099584
:100C70008E0D9F1D1F910F91FF90EF9008957F9211
:100C80008F929F92AF92BF92CF92DF92EF92FF929C
:100C90000F931F93CF93DF93CDB7DEB721970FB696
:100CA000F894DEBF0FBECDBF7A0169018B01909130
:100CB0000401981791F4E8E6F0E02491922F99232B
:100CC0000AF4B8C161E0B22E0E948C0A8B2D898390
:100CD0008260823009F05FC0B0C09F3F09F0AAC1B6
:100CE00080930401E8E6F0E02491223009F47BC00F
:100CF000213009F425C0203009F0E0CF298314BC4D
:100D000015BC94B5926094BD95B5916095BD282FA2
:100D10003327F901E957FF4F9491E92FFF27EE0F91
:100D2000FF1FED58FF4F4591559150933602409368
:100D3000350225563F4FF9019491909337027AC0BE
:100D400010928000109281009091810098609093A1
:100D5000810090918100916090938100282F33272A
:100D6000F901E957FF4F9491E92FFF27EE0FFF1F7D
:100D7000ED58FF4F4591559150933D0240933C02F1
:100D800025563F4FF901949190933E0291E099834B
:100D900061E00E948C0A60E074E284EF90E040E041
:100DA00050E098010E940D0CD9010B37110510F08D
:100DB00081E001C087E090E08030798139F056957C
:100DC0004795B795A7958A958030C9F711977130E7
:100DD00009F0EAC09D0171E083E00B37110508F0CE
:100DE00081E0A1E8DBC029831092B0001092B1002D
:100DF0009091B00092609093B0009091B10091609A
:100E00009093B100282F3327F901E957FF4F9491B0
:100E1000E92FFF27EE0FFF1FED58FF4F459155912A
:100E2000509344024093430225563F4FF901949159
:100E30009093450261E00E948C0A60E074E284EFC6
:100E400090E040E050E098014A010E940D0C5901E9
:100E5000852F8695842F8795BB2DB795AA2DA795AD
:100E600081E099E70939190778F49FE004331907FD
:100E700091E0698108F0912D623009F0812D98236D
:100E8000903029F464E004C01197798181C066E054
:100E900070E06030D501FA0149F0D501FA01F6950C
:100EA000E795B795A7956A956030C9F761E0A130DD
:100EB000B6079401E207F307798108F0612D6170AC
:100EC000917083E0903009F482E0603009F05FC0F7
:100ED00081E0073E180791E008F0912D723009F08B
:100EE000812D9823903011F4E7E001C0E8E0F0E0B4
:100EF00083E0703009F084E0782E9501DA01E0306B
:100F000031F0B695A79537952795EA95F8CF2150FA
:100F10003040A040B04061E02115F901360794014E
:100F2000A207B30708F0612D6170917085E09030E1
:100F300009F4872D6030DF0109F02AC0652F66951E
:100F4000B42FB795AB2DA795712DA150B04060403F
:100F5000704091E0A115B9076805790508F0912D59
:100F6000917084E07981703009F086E0903081F4EE
:100F700085E0703009F087E056954795B79456950F
:100F80004795B79456954795B794AB2DB42F1197C5
:100F90009D01703011F0A1EB01C0A5E4B0E09C917F
:100FA000987F982B9C93D90120E030E081E0C11418
:100FB000D104E206F30609F0812D81708030A1F49E
:100FC000000F111F980100E010E0B72EB601C70115
:100FD000A8017D010E94FD0B28EE33E0A8010E94CC
:100FE0000D0CD7017B2D03C02FEF3FEFA90172300D
:100FF00099F0713041F07030E9F4A7BDAEE6B0E091
:1010000081E392E00FC0B0938900A0938800AFE61F
:10101000B0E088E392E006C0A093B300A0E7B0E0A0
:101020008FE392E0FC0131832083538342838C91D0
:1010300082608C9321960FB6F894DEBF0FBECDBFB1
:10104000DF91CF911F910F91FF90EF90DF90CF90A4
:10105000BF90AF909F908F907F900895823069F0FD
:10106000813029F08030C9F410926E00089580918B
:101070006F008D7F80936F000895809170008D7F49
:101080008093700081E08093B0008091B100887FF0
:1010900084608093B1001092B30008951F93182FBD
:1010A0008FEF90910401911731F4E8E6F0E094910C
:1010B00080930401892F0E942E08812F612D0E94A8
:1010C000BE0A1F9108950F920FB60F921F9211241E
:1010D0002F933F934F935F936F937F938F939F9340
:1010E000AF93BF93EF93FF9340913F025091400223
:1010F00080E090E0609141027091420221E0411550
:1011000051056807790709F0212D2170203009F079
:1011100030C020914502A0914302B09144023C911D
:1011200032273C9340913F025091400221E0609170
:1011300041027091420214161506860797070CF4B7
:10114000212D21702030C9F480913F0290914002FE
:101150002091410230914202815090402040304025
:1011600030934202209341029093400280933F02C9
:1011700004C0809104010E944E08FF91EF91BF913D
:10118000AF919F918F917F916F915F914F913F911F
:101190002F911F900F900FBE0F90189540E050E0D8
:1011A00021E0611571058407950709F0212D217053
:1011B000203011F40E94E00B0895EF92FF920F93FC
:1011C0001F938C017B0160E070E081E0E114F10489
:1011D0000607170709F0812D8170803039F40E94CD
:1011E000900B9701A8010E942F0C01C0CB011F9109
:1011F0000F91FF90EF90089508950F931F930E9411
:10120000290A0E94FC080E94DF010BEA12E00E94FA
:101210001A0201151105D9F30E94AB02F8CF0F9203
:101220000FB60F922F933F934F935F936F937F93DC
:101230008F939F93EF93FF9380914E02982F9D5F22
:101240009D3710F421E001C022E030E040914A02D5
:1012500050914B0260E070E0E0914C02F0914D0241
:10126000420F531FE61FF71FF0934D02E0934C020D
:1012700050934B0240934A028A579D3708F4892FB6
:1012800080934E028091460290914702209148023D
:10129000309149028F5F9F4F2F4F3F4F309349024C
:1012A000209348029093470280934602FF91EF916A
:1012B0009F918F917F916F915F914F913F912F916E
:1012C0000F900FBE0F9018952FB7F89480914C0295
:1012D00090914D0260914A0270914B022FBF089588
:1012E0006F927F928F929F92AF92BF92CF92DF9236
:1012F000EF92FF920F931F93AFB7F894409148027B
:10130000509149022091460230914702E6B5F5B36B
:10131000AFBF00E010E0A1E061156B01710558015D
:101320008007910709F0A12DA170A03009F084C0B9
:1013300061E0EF3F09F4612D7C01F6236F2F7727E1
:10134000260F371F8501401F511F220F331F441FD7
:10135000220F331F441F542F432F322F212D8E2E47
:101360009924880C991C001F111F880C991C001FC0
:10137000111F042B152B822A932A0E946D0AD70174
:101380008FB7F8944091480250914902209146024B
:101390003091470296B565B38FBF81E09F3F71E002
:1013A00009F4712D67237727260F371F75014E1D0E
:1013B0005F1D220F331F441F220F331F441F542F62
:1013C000432F722F612D292F3327220F331FEE2D2C
:1013D000EE1FFF2DFF1F220F331FEE1FFF1F3401D3
:1013E00026193709E00BF10B260F371FE41FF51FF5
:1013F000283E93E03907EE05FF0508F0812D817046
:101400008030C1F4960121503040A040B04081E0CE
:101410002115690131059501A207B30709F4812D52
:101420008170940128513C4F49010F4F1F4F80306C
:1014300019F0A6CF7D01A1CF1F910F91FF90EF90E2
:10144000DF90CF90BF90AF909F908F907F906F90E4
:101450000895789484B5826084BD84B5816084BD2C
:1014600085B5826085BD85B5816085BD80916E0042
:10147000816080936E001092810080918100826073
:1014800080938100809181008160809381008091B0
:1014900080008160809380008091B100846080939F
:1014A000B1008091B00081608093B00080917A009B
:1014B000846080937A0080917A00826080937A00C1
:1014C00080917A00816080937A0080917A008068B0
:1014D00080937A001092C10008950895982F9E5F1E
:1014E0008E3008F4982F9770809105018295807F47
:1014F000880F880F892B80937C0080917A0080640C
:1015000080937A0080917A0080748030D9F780913E
:1015100078009091790008959927FC01E556FF4FD6
:10152000249189579F4FFC018491803009F425C094
:101530009927880F991FFC01E759FF4FA591B59195
:101540008D589F4FFC01459155918FB7F8946230AB
:1015500051F0603071F420959C9192239C93DA01B4
:101560009C91922308C0922F90953C9139233C93F3
:10157000DA019C91922B9C938FBF0895EF92FF927A
:101580000F931F93282F3327F901E155FF4F8491C3
:10159000F901E556FF4FF49029573F4FF901949117
:1015A000903009F41BC0092F1127803021F0E62E5E
:1015B0000E94F30A6E2D000F111F0D581F4FF801E6
:1015C000A591B5918FB7F894603019F09C919F293F
:1015D00003C0F0949C919F219C938FBF1F910F910A
:1015E000FF90EF900895843044F4813079F0823098
:1015F00089F08330C1F48FE707C0883049F0873025
:1016000061F0843081F48FEDA0E809C08FE703C05A
:101610008FED04C08FEDA4E402C08FE7A0EBB0E033
:101620009C9198239C930895FF920F931F93282FCA
:101630003327F901E155FF4F8491F901E556FF4F3A
:10164000F49029573F4FF9019491903009F415C057
:10165000092F1127803011F00E94F30A000F111F8B
:1016600003581F4FF801A591B5919C919F2181E0EE
:10167000903009F4812D992702C080E090E01F91FD
:101680000F91FF900895AAE0B0E0E9E4FBE00C942C
:10169000860C89839A83FC016081718182819381A8
:1016A00000977040604021F464E279ED8BE597E0AB
:1016B0002DE133EF41E050E00E942F0C2B833C835F
:1016C0004D835E839B01AC01A7EAB1E40E94540CF8
:1016D0006F83788789879A87ACEEB4EF2B813C8142
:1016E0004D815E810E94710C2F81388549855A8514
:1016F000260F371F481F591FC901DA01B7FF03C062
:101700000197A040B048E981FA8180839183A28348
:10171000B383BC01CD019F772A96E2E00C94A20C22
:10172000A8E0B0E0E6E9FBE00C94860C60910001D3
:101730007091010180910201909103010097704026
:10174000604021F464E279ED8BE597E02DE133EF21
:1017500041E050E00E942F0C29833A834B835C8345
:101760009B01AC01A7EAB1E40E94540C6D837E8317
:101770008F839887ACEEB4EF29813A814B815C81ED
:101780000E94710C2D813E814F815885260F371F95
:10179000481F591FC901DA01B7FF03C00197A040D4
:1017A000B0488093000190930101A0930201B0938F
:1017B0000301BC01CD019F772896E2E00C94A20CB6
:1017C000A0E0B0E0E6EEFBE00C94860C6093000134
:1017D000709301018093020190930301E2E00C9465
:1017E000A20CF8940C94AD0CFC0101900020E9F7D8
:1017F000809590958E0F9F1F0895DB018F939F9387
:101800000E94540CBF91AF91A29F800D911DA39F88
:10181000900DB29F900D11240895A1E21A2EAA1BDB
:10182000BB1BFD010DC0AA1FBB1FEE1FFF1FA21790
:10183000B307E407F50720F0A21BB30BE40BF50B8D
:10184000661F771F881F991F1A9469F76095709516
:10185000809590959B01AC01BD01CF010895052EA7
:1018600097FB1EF400940E94460C57FD07D00E947F
:101870000D0C07FC03D04EF40C94460C509540958B
:10188000309521953F4F4F4F5F4F0895909580952C
:10189000709561957F4F8F4F9F4F0895EE0FFF1FFB
:1018A0000590F491E02D09940E945F0CA59F900D86
:1018B000B49F900DA49F800D911D11240895A29FA7
:1018C000B001B39FC001A39F700D811D1124911D14
:1018D000B29F700D811D1124911D0895B7FF0C94C6
:1018E000540C0E94540C821B930B08952F923F922C
:1018F0004F925F926F927F928F929F92AF92BF9220
:10190000CF92DF92EF92FF920F931F93CF93DF93CB
:10191000CDB7DEB7CA1BDB0B0FB6F894DEBF0FBE28
:10192000CDBF09942A88398848885F846E847D8475
:101930008C849B84AA84B984C884DF80EE80FD8077
:101940000C811B81AA81B981CE0FD11D0FB6F894ED
:10195000DEBF0FBECDBFED01089510E0C3E6D0E0BD
:1019600004C0FE010E944E0C2196C336D107C9F770
:04197000F894FFCF19
:1019740001000000FF0108090A0B020304058801A5
:101984004A010601C4004B6F6E69656321205779D3
:101994006E696B3A20000D0A0053696D6F6E3A2030
:1019A400706F777461727A616A2073656B77656EA4
:1019B400636A652100506F7A696F6D200000000032
:1019C40000D503D1047E0390034C03670356030040
:00000001FF
