:100000000C9462000C948A000C948A000C948A0070
:100010000C948A000C948A000C948A000C948A0038
:100020000C948A000C948A000C948A000C948A0028
:100030000C948A000C948A000C948A000C948A0018
:100040000C9407040C948A000C94EB020C941A0391
:100050000C948A000C948A000C948A000C948A00F8
:100060000C948A000C948A000000000024002700F1
:100070002A0000000000250028002B0000000000DE
:1000800023002600290004040404040404040202DA
:100090000202020203030303030301020408102007
:1000A0004080010204081020010204081020000012
:1000B0000008000201000003040700000000000027
:1000C00000004B0311241FBECFEFD8E0DEBFCDBF31
:1000D00011E0A0E0B1E0E4EAFCE002C005900D927E
:1000E000A033B107D9F721E0A0E3B1E001C01D9230
:1000F000A63DB207E1F710E0C2E6D0E004C02197C8
:10010000FE010E943F06C136D107C9F70E94F503E0
:100110000C9411060C9400000F931F93142F062FBC
:10012000682F88E00E948C0589E0602F0E948C0572
:100130008AE0612F0E948C051F910F9108951F93F3
:1001400017E0812F61E00E945A0513951D30C9F711
:1001500082E062E00E945A0580E391E040E855E2C7
:1001600060E070E026E00E949B011F910895AF922D
:10017000BF92CF92DF92EF92FF920F931F93812D48
:10018000612D41E00E948C008BE061E00E948C05B3
:100190008CE0612D0E948C0582E00E94E205813096
:1001A000910579F48AE090E07C0100E010E0B7016D
:1001B000C8010E945C0482E00E94E2058130910542
:1001C000B1F380E391E06DE071E07C010E94C50332
:1001D00068EE73E000E010E06B01C8010E945C046F
:1001E000812D61E0412D0E948C006CED75E0C8010D
:1001F0000E945C0481E0612D412D0E948C00B601BB
:10020000C8010E945C048BE0612D0E948C058CE08B
:1002100061E00E948C0563E071E0C7010E94C503A4
:1002200088E090E020E530E0690124EA31E05901FE
:100230007C0187E061E00E948C05B601C8010E9444
:100240005C0487E0612D0E948C05B501C8010E9405
:100250005C04C70101978115910551F78CE291E08B
:100260007C0180E090E06C01112D8BE0612D0E94FB
:100270008C05612F609561708CE00E948C05B70140
:10028000C6010E945C041395163079F78BE061E09B
:100290000E948C058CE0612D0E948C0568EE73E055
:1002A00000E010E0C8010E945C0481E061E0412DA3
:1002B0000E948C0060EB74E0C8010E945C041F91F6
:1002C0000F91FF90EF90DF90CF90BF90AF90089587
:1002D00080E493E08115910561F080E090E0811564
:1002E000910539F00E9440038170803011F00E9426
:1002F00000000895FC01248DA22FBB27A80FB91F71
:10030000A35ABF4F2C91348D33953F73348FA689F8
:10031000B7892C93A089B1892C91237020642C93E8
:10032000238D348D231731F4FC01A289B3898C917C
:100330008F7D8C930895AF92BF92CF92DF92EF9210
:10034000FF920F931F93122F6B015A017C01F7014B
:10035000A089B18982E08C9381EE20E030E001E059
:10036000A114B806C206D30609F0012D017060E0A1
:1003700079E08DE390E09501A6010E941D062150D1
:10038000304040405040569547953795279500306E
:1003900021F480E121153807A0F0F701A089B18987
:1003A0001C9260E874E88EE190E09501A6010E943D
:1003B0001D06215030404040504056954795379596
:1003C0002795F701A485B5853C93A685B7852C9321
:1003D000108EA489B5891C93A289B3898C91806100
:1003E0008C93A289B3898C9188608C93A289B389FC
:1003F0008C9180688C93A289B3898C918F7D8C932A
:100400001F910F91FF90EF90DF90CF90BF90AF9032
:100410000895FC01818D9927228D3327821B930B30
:100420008F7390700895FC01218D328D231719F47C
:100430008FEF9FEF0895FC01228D3327280F391F7E
:10044000F901858D99270895FC01218D328D23179F
:1004500019F48FEF9FEF0895FC01228DAF01E22F79
:10046000FF27E80FF91F858DFA01928D93959F73F1
:10047000928F99270895FC01438D242F3327548DA3
:10048000852F9927451720F0821B930BCF9608954F
:1004900020953095820F931F08950F931F93CF934C
:1004A000DF93CDB7DEB722970FB6F894DEBF0FBE4D
:1004B000CDBF8C01F801808D813009F028C0F80192
:1004C000FA83E983A289B3898C918072803061F4C8
:1004D000E981FA819D01A089B1898C91D901E981D5
:1004E000FA818074803099F48FB788235AF38C9105
:1004F0008072803039F3A089B1898C91807280300C
:1005000009F3C8010E947A01E981FA81DBCF2296C2
:100510000FB6F894DEBF0FBECDBFDF91CF911F9114
:100520000F910895CF92DF92EF92FF920F931F9356
:10053000162F7C0181E0F701808F838D948D8917C0
:1005400041F4F701A089B1898C918072803009F063
:100550002CC0F701038D03950F73848D081791F458
:1005600067018FB7882352F0F701A089B1898C9178
:100570008072803019F0C7010E947A01F601848DE3
:10058000081779F3F701838DA82FBB27AE0DBF1D88
:10059000A35ABF4F1C938FB7F894038FA289B389D6
:1005A0009C9190629C938FBF0DC08FB7F894F70118
:1005B000A689B7891C93A089B1899C919370906496
:1005C0009C938FBF81E090E01F910F91FF90EF907F
:1005D000DF90CF9008950F920FB60F922F938F93C5
:1005E0009F93AF93BF93A0914001B09141019C9123
:1005F000A0914601B09147018C919470903089F49C
:100600009091490193959F7320914A01921749F067
:1006100020914901A22FBB27A35BBE4F8C939093DF
:100620004901BF91AF919F918F912F910F900FBE74
:100630000F9018950F920FB60F921F9211242F93BF
:100640003F934F935F936F937F938F939F93AF935A
:10065000BF93EF93FF9380E391E00E947A01FF91B3
:10066000EF91BF91AF919F918F917F916F915F912A
:100670004F913F912F911F900F900FBE0F901895A3
:1006800080E391E00E9409029C0181E0211531057F
:1006900009F4812D08951092490110924A01109297
:1006A0004B0180E090E0909337018093360128EE73
:1006B00033E03093350120933401909333018093DC
:1006C000320186EC90E0909347018093460182ECE2
:1006D00090E0909345018093440181EC90E09093E9
:1006E00043018093420180EC90E09093410180931C
:1006F000400184EC90E090933F0180933E0185ECB3
:1007000090E090933D0180933C0181E291E09093D1
:1007100031018093300110924C0108958F929F9285
:10072000AF92BF92CF92DF92EF92FF920F931F93FF
:100730008A017B016C01011580E090E01105D1F088
:100740005601D701A80FB91F6C914C01F5018081AA
:100750009181FC0120813181C601F9010995811542
:10076000910539F0C40101960817190751F7C8011E
:1007700001C0C4011F910F91FF90EF90DF90CF90C7
:10078000BF90AF909F908F900895EF92FF920F933C
:100790001F937B018C01E114F10479F0C7010E94E1
:1007A0001406AC01F80180819181FC012281338122
:1007B000C801B701F901099502C080E090E07C0111
:1007C000F80180819181FC012281338160E071E038
:1007D00042E050E0C801F90109958E0D9F1D1F915F
:1007E0000F91FF90EF90089508950F931F930E942B
:1007F00015050E94F4030E949F0008E611E00E9484
:10080000B70001151105D9F30E946801F8CF0F92C6
:100810000FB60F922F933F934F935F936F937F93F6
:100820008F939F93EF93FF938091D501982F9D5FB6
:100830009D3710F421E001C022E030E04091D10169
:100840005091D20160E070E0E091D301F091D401C9
:10085000420F531FE61FF71FF093D401E093D3011B
:100860005093D2014093D1018A579D3708F4892FC4
:100870008093D5018091CD019091CE012091CF013F
:100880003091D0018F5F9F4F2F4F3F4F3093D0015A
:100890002093CF019093CE018093CD01FF91EF91F2
:1008A0009F918F917F916F915F914F913F912F9188
:1008B0000F900FBE0F9018956F927F928F929F921C
:1008C000AF92BF92CF92DF92EF92FF920F931F935E
:1008D000AFB7F8944091CF015091D0012091CD0154
:1008E0003091CE01E6B5F5B3AFBF00E010E0A1E076
:1008F00061156B01710558018007910709F0A12D61
:10090000A170A03009F084C061E0EF3F09F4612DCF
:100910007C01F6236F2F7727260F371F8501401F95
:10092000511F220F331F441F220F331F441F542F08
:10093000432F322F212D8E2E9924880C991C001FB5
:10094000111F880C991C001F111F042B152B822AC4
:10095000932A0E945905D7018FB7F8944091CF018F
:100960005091D0012091CD013091CE0196B565B363
:100970008FBF81E09F3F71E009F4712D67237727D6
:10098000260F371F75014E1D5F1D220F331F441F99
:10099000220F331F441F542F432F722F612D292FF5
:1009A0003327220F331FEE2DEE1FFF2DFF1F220FC7
:1009B000331FEE1FFF1F340126193709E00BF10B1F
:1009C000260F371FE41FF51F283E93E03907EE0579
:1009D000FF0508F0812D81708030C1F4960121500F
:1009E0003040A040B04081E02115690131059501FA
:1009F000A207B30709F4812D8170940128513C4F5F
:100A000049010F4F1F4F803019F0A6CF7D01A1CFB4
:100A10001F910F91FF90EF90DF90CF90BF90AF901C
:100A20009F908F907F906F900895789484B58260A6
:100A300084BD84B5816084BD85B5826085BD85B582
:100A4000816085BD80916E00816080936E00109200
:100A5000810080918100826080938100809181007B
:100A6000816080938100809180008160809380000C
:100A70008091B10084608093B1008091B00081606A
:100A80008093B00080917A00846080937A00809196
:100A90007A00826080937A0080917A0081608093EE
:100AA0007A0080917A00806880937A001092C10069
:100AB000089508959927FC01E656FF4F24918A571F
:100AC0009F4FFC018491803009F425C09927880F3D
:100AD000991FFC01E859FF4FA591B5918E589F4F82
:100AE000FC01459155918FB7F894623051F0603018
:100AF00071F420959C9192239C93DA019C9192230E
:100B000008C0922F90953C9139233C93DA019C9137
:100B1000922B9C938FBF0895EF92FF920F931F9398
:100B2000282F3327F901E255FF4F8491F901E6564A
:100B3000FF4FF4902A573F4FF9019491903009F4F8
:100B40001BC0092F1127803021F0E62E0E94C1051D
:100B50006E2D000F111F0E581F4FF801A591B59172
:100B60008FB7F894603019F09C919F2903C0F094DE
:100B70009C919F219C938FBF1F910F91FF90EF90AD
:100B80000895843044F4813079F0823089F08330E4
:100B9000C1F48FE707C0883049F0873061F08430B6
:100BA00081F48FEDA0E809C08FE703C08FED04C08A
:100BB0008FEDA4E402C08FE7A0EBB0E09C919823F6
:100BC0009C930895FF920F931F93282F3327F901C9
:100BD000E255FF4F8491F901E656FF4FF4902A57F2
:100BE0003F4FF9019491903009F415C0092F112756
:100BF000803011F00E94C105000F111F04581F4FD3
:100C0000F801A591B5919C919F2181E0903009F464
:100C1000812D992702C080E090E01F910F91FF90F5
:100C20000895F8940C944506FC0101900020E9F722
:100C3000809590958E0F9F1F0895A1E21A2EAA1BF2
:100C4000BB1BFD010DC0AA1FBB1FEE1FFF1FA2177C
:100C5000B307E407F50720F0A21BB30BE40BF50B79
:100C6000661F771F881F991F1A9469F76095709502
:100C7000809590959B01AC01BD01CF010895EE0FC9
:100C8000FF1F0590F491E02D099410E0C2E6D0E03A
:100C900004C0FE010E943F062196C236D107C9F763
:040CA000F894FFCFF6
:100CA4000D0A0050696573692069646100506965C3
:100CB400737A7920637A656B612E2E2E0000000012
:100CC4000092028E033B024D020902240213020029
:00000001FF
