:100000000C9462000C947F000C947F000C947F0091
:100010000C947F000C947F000C947F000C94D6030A
:100020000C947F000C947F000C947F000C947F0054
:100030000C947F000C947F000C947F000C947F0044
:100040000C948B040C947F000C947F000C947F0024
:100050000C947F000C947F000C947F000C947F0024
:100060000C947F000C947F00020000000024002705
:10007000002A0000000000250028002B00000000DE
:1000800000230026002900040404040404040402DC
:100090000202020202030303030303010204081025
:1000A00020408001020408102001020408102000F2
:1000B0000000080002010000030407000000000027
:1000C0000000000011241FBECFEFD8E0DEBFCDBF7F
:1000D00011E0A0E0B1E0EEEAFEE002C005900D9272
:1000E000A23AB107D9F721E0A2EAB1E001C01D921E
:1000F000A03CB207E1F70E9479040C94E7060C9447
:1001000000008F929F92AF92BF92CF92DF92EF92B8
:10011000FF920F931F938115910509F43AC0EDB733
:10012000FEB7E450F0400FB6F894FEBF0FBEEDBF2F
:1001300040E050E0548343832FEF30E0328321834B
:100140004901FC01FF0FFF0BEF2F28EB31E0A0E787
:10015000B3E0BC01CF017D018A015A016A010E940E
:100160004104EDB7FEB734960FB6F894FEBF0FBE4C
:10017000EDBF8B01B401601B710B89E06B010E9424
:10018000FC050038110578010CF08601000F111FE5
:1001900007C000E010E089E0B8010E94FC0578018A
:1001A0008AE0B8010E94FC058BE0B7010E94FC05C3
:1001B0001F910F91FF90EF90DF90CF90BF90AF9085
:1001C0009F908F90089589E061E00E945F068AE029
:1001D00061E00E945F068BE061E00E945F06089587
:1001E0002F923F924F925F926F927F928F929F9247
:1001F000AF92BF92CF92DF92EF92FF920F931F9335
:1002000084E091E000E010E02FEF33E029012AE5DF
:1002100030E0190124EA31E039014C018EE00E94FE
:10022000DE05BC01EDB7FEB7E450F0400FB6F89420
:10023000FEBF0FBEEDBF148303838AEF90E092836D
:100240008183CB01990F990B892F9801A801720125
:10025000680151010E944104EDB7FEB734960FB614
:10026000F894FEBF0FBEEDBF8B01C4010297FC01E5
:10027000E080F180C7010E9481005401F401808177
:1002800091818102202D1124809F802D312D1124F8
:10029000320F90021124902D930F292F3327322FE4
:1002A0002227082F1127022B132BE114F10409F444
:1002B0002DC099E01902802D1124099F912D112440
:1002C000980F892F9927982F8827602D7727682BDB
:1002D000792BCB01990F990B892F27E636E6A601DA
:1002E0000E94EA069C01832F880F812D881F912D83
:1002F0003595279535952795280F391FA901550F55
:10030000550B452F88E0B7010E94B201C501049644
:100310007C01C801990F990B892FB8010E94E00454
:10032000C701930182179307860109F076CF00E099
:1003300010E0C8010E94810068EE73E0C8010E94CD
:10034000E0041F910F91FF90EF90DF90CF90BF904E
:10035000AF909F908F907F906F905F904F903F9065
:100360002F9008957F928F929F92AF92BF92CF92DB
:10037000DF92EF92FF920F931F93CF93DF93CDB74E
:10038000DEB721970FB6F894DEBF0FBECDBF7A015E
:1003900069018B0190910001981791F4E8E6F0E073
:1003A0002491922F99230AF4B8C161E0B22E0E94E1
:1003B0005F068B2D89838260823009F05FC0B0C0F8
:1003C0009F3F09F0AAC180930001E8E6F0E0249184
:1003D000223009F47BC0213009F425C0203009F017
:1003E000E0CF298314BC15BC94B5926094BD95B53B
:1003F000916095BD282F3327F901E957FF4F94915C
:10040000E92FFF27EE0FFF1FED58FF4F4591559144
:100410005093A7014093A60125563F4FF9019491AF
:100420009093A8017AC01092800010928100909160
:1004300081009860909381009091810091609093E9
:100440008100282F3327F901E957FF4F9491E92FB5
:10045000FF27EE0FFF1FED58FF4F45915591509329
:10046000AE014093AD0125563F4FF9019491909311
:10047000AF0191E0998361E00E945F0660E074E261
:1004800084EF90E040E050E098010E94FA06D90124
:100490000B37110510F081E001C087E090E080305B
:1004A000798139F056954795B795A7958A9580300B
:1004B000C9F71197713009F0EAC09D0171E083E03E
:1004C0000B37110508F081E0A1E8DBC02983109209
:1004D000B0001092B1009091B00092609093B00083
:1004E0009091B10091609093B100282F3327F901CA
:1004F000E957FF4F9491E92FFF27EE0FFF1FED58AB
:10050000FF4F459155915093B5014093B401255645
:100510003F4FF90194919093B60161E00E945F060C
:1005200060E074E284EF90E040E050E098014A011E
:100530000E94FA065901852F8695842F8795BB2D39
:10054000B795AA2DA79581E099E70939190778F49D
:100550009FE00433190791E0698108F0912D623022
:1005600009F0812D9823903029F464E004C011979C
:10057000798181C066E070E06030D501FA0149F010
:10058000D501FA01F695E795B795A7956A9560307C
:10059000C9F761E0A130B6079401E207F30779815A
:1005A00008F0612D6170917083E0903009F482E071
:1005B000603009F05FC081E0073E180791E008F065
:1005C000912D723009F0812D9823903011F4E7E0DD
:1005D00001C0E8E0F0E083E0703009F084E0782EBC
:1005E0009501DA01E03031F0B695A795379527955A
:1005F000EA95F8CF21503040A040B04061E021158D
:10060000F90136079401A207B30708F0612D617064
:10061000917085E0903009F4872D6030DF0109F09A
:100620002AC0652F6695B42FB795AB2DA795712D70
:10063000A150B0406040704091E0A115B907680535
:10064000790508F0912D917084E07981703009F07E
:1006500086E0903081F485E0703009F087E05695AF
:100660004795B79456954795B79456954795B7943F
:10067000AB2DB42F11979D01703011F0A1EB01C08B
:10068000A5E4B0E09C91987F982B9C93D90120E041
:1006900030E081E0C114D104E206F30609F0812DB7
:1006A00081708030A1F4000F111F980100E010E06C
:1006B000B72EB601C701A8017D010E94EA0628EE07
:1006C00033E0A8010E94FA06D7017B2D03C02FEF6B
:1006D0003FEFA901723099F0713041F07030E9F4C8
:1006E000A7BDAEE6B0E082EA91E00FC0B09389000A
:1006F000A0938800AFE6B0E089EA91E006C0A0933D
:10070000B300A0E7B0E080EB91E0FC0131832083EF
:10071000538342838C9182608C9321960FB6F89418
:10072000DEBF0FBECDBFDF91CF911F910F91FF9024
:10073000EF90DF90CF90BF90AF909F908F907F9081
:100740000895823069F0813029F08030C9F4109228
:100750006E00089580916F008D7F80936F000895E3
:10076000809170008D7F8093700081E08093B00055
:100770008091B100887F84608093B1001092B300B3
:1007800008951F93182F8FEF90910001911731F466
:10079000E8E6F0E0949180930001892F0E94A10384
:1007A000812F612D0E9491061F9108950F920FB61F
:1007B0000F921F9211242F933F934F935F936F9348
:1007C0007F938F939F93AF93BF93EF93FF9340914A
:1007D000B0015091B10180E090E06091B201709160
:1007E000B30121E0411551056807790709F0212D72
:1007F0002170203009F030C02091B601A091B401E1
:10080000B091B5013C9132273C934091B001509199
:10081000B10121E06091B2017091B3011416150687
:10082000860797070CF4212D21702030C9F48091A0
:10083000B0019091B1012091B2013091B30181508A
:100840009040204030403093B3012093B201909308
:10085000B1018093B00104C0809100010E94C103E6
:10086000FF91EF91BF91AF919F918F917F916F9188
:100870005F914F913F912F911F900F900FBE0F905E
:1008800018956F927F928F929F92EF92FF920F93A3
:100890001F93CF93DF93CDB7DEB74A013901AC0187
:1008A0009B016D857E858F8598896A197B098C09E6
:1008B0009D0926193709480959090E94EA06E618D0
:1008C000F708080919099701A8010E941C072A0DB9
:1008D0003B1D4C1D5D1DB901CA01DF91CF911F91D8
:1008E0000F91FF90EF909F908F907F906F90089561
:1008F00008950F931F930E9499050E9478040E9407
:10090000E30000E010E00E94F00001151105D9F3AA
:100910000E940000F8CF0F920FB60F922F933F93D3
:100920004F935F936F937F938F939F93EF93FF9377
:100930008091BF01982F9D5F9D3710F421E001C089
:1009400022E030E04091BB015091BC0160E070E0DA
:10095000E091BD01F091BE01420F531FE61FF71F4A
:10096000F093BE01E093BD015093BC014093BB01E5
:100970008A579D3708F4892F8093BF018091B70172
:100980009091B8012091B9013091BA018F5F9F4FCA
:100990002F4F3F4F3093BA012093B9019093B80184
:1009A0008093B701FF91EF919F918F917F916F910C
:1009B0005F914F913F912F910F900FBE0F9018951F
:1009C0006F927F928F929F92AF92BF92CF92DF925F
:1009D000EF92FF920F931F93AFB7F8944091B90134
:1009E0005091BA012091B7013091B801E6B5F5B345
:1009F000AFBF00E010E0A1E061156B017105580187
:100A00008007910709F0A12DA170A03009F084C0E2
:100A100061E0EF3F09F4612D7C01F6236F2F77270A
:100A2000260F371F8501401F511F220F331F441F00
:100A3000220F331F441F542F432F322F212D8E2E70
:100A40009924880C991C001F111F880C991C001FE9
:100A5000111F042B152B822A932A0E94DD05D70132
:100A60008FB7F8944091B9015091BA012091B70124
:100A70003091B80196B565B38FBF81E09F3F71E0BB
:100A800009F4712D67237727260F371F75014E1D37
:100A90005F1D220F331F441F220F331F441F542F8B
:100AA000432F722F612D292F3327220F331FEE2D55
:100AB000EE1FFF2DFF1F220F331FEE1FFF1F3401FC
:100AC00026193709E00BF10B260F371FE41FF51F1E
:100AD000283E93E03907EE05FF0508F0812D81706F
:100AE0008030C1F4960121503040A040B04081E0F8
:100AF0002115690131059501A207B30709F4812D7C
:100B00008170940128513C4F49010F4F1F4F803095
:100B100019F0A6CF7D01A1CF1F910F91FF90EF900B
:100B2000DF90CF90BF90AF909F908F907F906F900D
:100B30000895789484B5826084BD84B5816084BD55
:100B400085B5826085BD85B5816085BD80916E006B
:100B5000816080936E00109281008091810082609C
:100B600080938100809181008160809381008091D9
:100B700080008160809380008091B10084608093C8
:100B8000B1008091B00081608093B00080917A00C4
:100B9000846080937A0080917A00826080937A00EA
:100BA00080917A00816080937A0080917A008068D9
:100BB00080937A001092C10008950895982F9E5F47
:100BC0008E3008F4982F9770809101018295807F74
:100BD000880F880F892B80937C0080917A00806435
:100BE00080937A0080917A0080748030D9F7809168
:100BF0007800909179000895FF920F931F938B01D5
:100C0000F82E61E00E945F060F3F110509F442C013
:100C10000115110519F48F2D612D3EC0EF2DFF2711
:100C2000E155FF4F849184309CF4813009F41FC05A
:100C3000823009F437C0833009F028C080918000E9
:100C4000806880938000109389000093880026C0FC
:100C5000843091F0873009F42AC08830B9F480914B
:100C6000B00080628093B0000093B40017C084B5D8
:100C7000806884BD07BD12C080918000806280932F
:100C8000800010938B0000938A0008C00038110583
:100C90000CF4C1CF8F2D61E00E9491061F910F913E
:100CA000FF90089584B5806284BD08BDF7CF809120
:100CB000B00080688093B0000093B300EFCF992715
:100CC000FC01E556FF4F249189579F4FFC01849109
:100CD000803009F425C09927880F991FFC01E75936
:100CE000FF4FA591B5918D589F4FFC0145915591AE
:100CF0008FB7F894623051F0603071F420959C9178
:100D000092239C93DA019C91922308C0922F909594
:100D10003C9139233C93DA019C91922B9C938FBF99
:100D20000895EF92FF920F931F93282F3327F90115
:100D3000E155FF4F8491F901E556FF4FF490295793
:100D40003F4FF9019491903009F41BC0092F1127EE
:100D5000803021F0E62E0E94C6066E2D000F111F76
:100D60000D581F4FF801A591B5918FB7F8946030D9
:100D700019F09C919F2903C0F0949C919F219C9312
:100D80008FBF1F910F91FF90EF900895843044F42E
:100D9000813079F0823089F08330C1F48FE707C069
:100DA000883049F0873061F0843081F48FEDA0E81D
:100DB00009C08FE703C08FED04C08FEDA4E402C02B
:100DC0008FE7A0EBB0E09C9198239C930895F89452
:100DD0000C945507DB018F939F930E943B07BF91B3
:100DE000AF91A29F800D911DA39F900DB29F900D7A
:100DF00011240895A1E21A2EAA1BBB1BFD010DC0F0
:100E0000AA1FBB1FEE1FFF1FA217B307E407F507BA
:100E100020F0A21BB30BE40BF50B661F771F881F96
:100E2000991F1A9469F760957095809590959B012C
:100E3000AC01BD01CF010895052E97FB1EF400946F
:100E40000E94330757FD07D00E94FA0607FC03D023
:100E50004EF40C94330750954095309521953F4FB3
:100E60004F4F5F4F089590958095709561957F4F96
:100E70008F4F9F4F08950E944607A59F900DB49FE6
:100E8000900DA49F800D911D11240895A29FB00183
:100E9000B39FC001A39F700D811D1124911DB29FAE
:0E0EA000700D811D1124911D0895F894FFCF4F
:100EAE00FF0193020200EE0101000B0201004B0252
:100EBE0002000B020100EE010100B8010200B801B0
:100ECE0001000B020100930202004B0201000B0213
:100EDE000100EE0103000B0201004B02020093021F
:100EEE0002000B020200B8010200B801020000006D
:100EFE000200000001004B020200BA020100700362
:100F0E00020010030100BA020100930203000B025B
:100F1E000100930202004B0201000B020100EE01E0
:100F2E000200EE0101000B0201004B0202009302CF
:100F3E0002000B020200B8010200B801020000001C
:020F4E0002009F
:00000001FF
