:100000000C9463000C948B000C948B000C948B006C
:100010000C948B000C948B000C948B000C945A0A5B
:100020000C948B000C948B000C948B000C948B0024
:100030000C948B000C948B000C948B000C948B0014
:100040000C94160B0C948B000C948B000C948B006E
:100050000C948B000C948B000C948B000C948B00F4
:100060000C9428060C948B0002000000002400274A
:10007000002A0000000000250028002B00000000DE
:1000800000230026002900040404040404040402DC
:100090000202020202030303030303010204081025
:1000A00020408001020408102001020408102000F2
:1000B0000000080002010000030407000000000027
:1000C00000000000F50111241FBECFEFD8E0DEBF15
:1000D000CDBF11E0A0E0B1E0E0E1FEE102C005909B
:1000E0000D92A038B107D9F722E0A0E8B1E001C035
:1000F0001D92AC36B207E1F710E0C3E6D0E004C0D1
:100100002197FE010E949C0EC236D107C9F70E94BA
:10011000040B0C94360E0C9400000F931F9389E08F
:1001200061E00E94D10C82E062E00E94D10C00E804
:1001300011E0C8010E943402C8010E940B038EE046
:100140000E94B30CBC01990F990B892F0E94C50A1C
:100150001F910F910895AF92BF92CF92DF92EF92CD
:10016000FF920F931F9300E811E0C8010E94EE0276
:100170006CE171E0C80178010E948F0711E0C701AE
:10018000612D41E00E94F7026DE271E0C7010E941B
:100190008F0740918C0150918D0180E090E060913B
:1001A0008E0170918F01411551056807790709F09B
:1001B000112D1170103049F480E891E02AE030E010
:1001C0000E94AE0766E371E002C06CE471E080E873
:1001D00091E00E948F070E946B0B6B015C016CED3C
:1001E00075E020EA3FE040E050E0CA010E94D40AF6
:1001F0008B017C010C0D1D1DEA1CFB1C0E946B0B6E
:1002000021E0601771078E059F0508F4212D2170EC
:10021000203009F023C082E00E94590D811591051C
:1002200069F700E811E0C8010E94EE0262E171E0A6
:10023000C8010E948F0766E970E020E931E040E0E4
:1002400050E088E00E94360882E00E94590D811536
:10025000910509F4AAC06CED75E0BAC089E061E0CF
:100260000E94030D60ED77E022E330E040E050E0D3
:1002700088E00E9436080E946B0B5B016C0182E0F3
:100280000E94590D8115910579F081E090E07C0183
:1002900000E010E0B701C8010E94AA0B82E00E94B2
:1002A000590D81159105B1F70E946B0B8B017C01F3
:1002B00089E0612D0E94030D0A191B09EC08FD0855
:1002C00080918C0190918D0120918E0130918F0150
:1002D0008150904020403040801791072E053F0507
:1002E00081E008F0812D8170803041F410938D0100
:1002F00000938C01F0928F01E0928E0180E891E0F2
:100300006C010E94EE0265E471E0C6010E948F0755
:100310002AE030E0C601A801B7010E94AE0766E3FB
:1003200071E0C6010E948F07C601612D41E00E9465
:10033000F702083C110581E008F0812DE114F10479
:1003400009F0812D0C3291E0190708F0912DE1148C
:10035000F10409F0912D903019F46AE371E002C0C4
:1003600065E271E0803011F06EE471E0C6010E9438
:100370008F0782E00E94590D8115910519F064ECF8
:1003800079E026C085E090E06C0100E010E084ECAC
:1003900099E07C01B601C8010E94AA0B82E00E948C
:1003A000590D81159105B1F312C085E090E06C0103
:1003B00000E010E08CED95E07C01B601C8010E94E0
:1003C000AA0B82E00E94590D81159105B1F3B70186
:1003D00080E090E00E94AA0B1F910F91FF90EF9098
:1003E000DF90CF90BF90AF90089580E891E067E2F2
:1003F00040E122E00E942602089541E00E940302AB
:1004000081E090E00895DF92EF92FF920F931F93A7
:10041000D42E062F7C01102F107F1D29612F0E94E2
:10042000CA02C701612F0E942D030295007F0D298A
:10043000C701602F0E94CA02C701602F0E942D03CE
:100440001F910F91FF90EF90DF900895FC011386AC
:100450002287418764838EE591E09183808380E0E9
:1004600090E09383828308950F931F938C0184E01F
:1004700091E00E944A03F80115824285C801212DAE
:100480000E9445021F910F910895CF92DF92EF9243
:10049000FF920F931F938C01F801423020F04087A8
:1004A0008581886008C04087413031F4203021F0D8
:1004B000F80185818460858362E370E080E090E0EC
:1004C0006C010E94AA0BF80163857F01C8010E949C
:1004D000CA0268EE73E0C6010E94AA0BC80160E37D
:1004E0000E94CA02C80160E30E942D0384E991E1E1
:1004F0006C010E94630CC80160E30E94CA02C8013B
:1005000060E30E942D03C6010E94630CC80160E3F2
:100510000E94CA02C80160E30E942D0386E990E0B0
:100520000E94630CC80160E20E94CA02C80160E236
:100530000E942D03F70165816062C801412D0E9470
:10054000030284E0F7018683C8016CE0412D0E941C
:100550000302C80161E0412D0E94030280ED97E093
:100560006C010E94630C82E0F7018783C80166E09A
:10057000412D0E940302C80162E0412D0E94030246
:10058000C6010E94630C1F910F91FF90EF90DF90C6
:10059000CF900895CF92DF92FF920F931F93F62E84
:1005A000FC0164816F0104E011E0C8010E948E0328
:1005B000F60163856F298091040190910501FC018A
:1005C00020813181C801F9010995C8010E94980371
:1005D0001F910F91FF90DF90CF90089561E0412D22
:1005E0000E94030280ED97E00E94630C0895FC01D5
:1005F0002085241710F0242F01C02A95A22FBB2795
:10060000AA0FBB1FAA59BE4F2C91620F6068412DE3
:100610000E9403020895EF92FF920F931F9328E028
:10062000FC01238764817F0104E011E0C8010E947E
:100630008E03F70163858091040190910501FC010F
:1006400020813181C801F9010995C8010E949803F0
:100650001F910F91FF90EF900895EF92FF921F93DB
:10066000162F7C0164600E94CA0281E090E00E9423
:10067000630C1B7FC701612F0E94CA0282E390E0D6
:100680000E94630C1F91FF90EF90089580E090E02E
:10069000089508951092B1011092B0011092D30103
:1006A0001092D4010E9449048DE593E00E94CF0589
:1006B0008AE693E00E94CA050895E091D601F09180
:1006C000D701E115F10529F01092D4011092D30160
:1006D00009950895FC012091D8013091D901211587
:1006E0003105D9F08091B1019091B0019817A8F02F
:1006F000161617065CF4A0E9B1E081E091919D9394
:10070000482F5527839546175707C0F31092B0011D
:100710006093B101CB01F901099508956093B2018D
:1007200081E08093D5011092D3011092D4010895F5
:100730000F934091D4018091B20163EB71E021E00D
:1007400001E00E948A041092D3011092D401109209
:10075000D5010F910895CF93DF93CDB7DEB72197E1
:100760000FB6F894DEBF0FBECDBF69832091D501CF
:10077000203059F02091D401203268F021E030E09F
:10078000FC013383228380E013C0CE01019661E037
:100790000E949C050CC08091D301A82FBB27AD54AB
:1007A000BE4F6C9383958093D4018093D30181E0F5
:1007B00090E021960FB6F894DEBF0FBECDBFDF915B
:1007C000CF9108958F929F92AF92BF92CF92DF9276
:1007D000EF92FF920F931F938A01DB017C018091BE
:1007E000D5018030B9F001151105C1F06D01C00EC1
:1007F000D11E47016D91F40180819181FC0120811E
:100800003181C701F9015D010995D501AC15BD051F
:1008100089F704C0CD01602F0E949C05C8011F917B
:100820000F91FF90EF90DF90CF90BF90AF909F908F
:100830008F9008958091B001282F33278091B101C6
:100840009927821B930B08958091B0019091B1017B
:10085000891758F4A82FBB27A057BE4F9C918395AA
:100860008093B001892F992708958FEF9FEF089506
:100870008091B0019091B101891738F4A82FBB275E
:10088000A057BE4F8C91992708958FEF9FEF089541
:1008900008951092DA0181E08093DB011092DC016F
:1008A00082E161E00E94030D83E161E00E94030D9B
:1008B0008091B9008E7F8093B9008091B9008D7FBF
:1008C0008093B90088E48093B80085E48093BC00ED
:1008D00008950F931F9391E090932B028030B9F00D
:1008E0001091B8000091BA008091BC008A7B80937F
:1008F000BC0082E1612D0E94030D83E1612D0E9405
:10090000030D0E9449040093BA001093B8001F9190
:100910000F9108956F927F928F929F92AF92BF92A4
:10092000CF92DF92EF92FF920F931F93142F7B01D0
:10093000D82E113210F081E0F2C0C22E0E94770B47
:100940005B014C018091DA01803080E090E03C0155
:1009500009F431C02091DD013091DE014091DF01C9
:100960005091E00181E021153105930142075307C1
:1009700009F0812D81708030C9F40E94770B6A19CB
:100980007B098809990921E04091DD015091DE0140
:10099000E091DF01F091E00146175707E807F907FA
:1009A00008F4212D2170203009F4A1C08091DA01D2
:1009B000803009F0CFCF82E08093DA010093DB0131
:1009C0008FEF8093E2011092E3011093E401103065
:1009D00039F0412F552786EE91E0B7010E94390E7C
:1009E0001092E501DD0C8091E5018D298093E501F0
:1009F0008091DC01813009F03EC01092DC010E9440
:100A0000770B8B017C018091E5018093BB002091E5
:100A1000DD013091DE0181E04091DF015091E00184
:100A20002115310593014207530709F0812D81708B
:100A30008030C9F40E94770B601B710B8E099F09EF
:100A400021E04091DD015091DE01E091DF01F09164
:100A5000E00146175707E807F90708F4212D217030
:100A6000203009F444C08091BC008870803009F0C7
:100A7000CACF85EC01C085EE8093BC000E94770B45
:100A80008B017C018C2D803009F437C08091DA0114
:100A9000823009F032C02091DD013091DE014091B9
:100AA000DF015091E00181E02115310593014207FA
:100AB000530709F0812D8170803041F70E94770B38
:100AC000601B710B8E099F0921E04091DD0150915F
:100AD000DE01E091DF01F091E00146175707E807DA
:100AE000F90708F4212D2170203009F0CFCF809133
:100AF000E1010E94690485E012C08091E2018F3F0C
:100B000031F08091E201803221F482E008C0812D31
:100B100006C09091E20183E0903309F084E01F91D8
:100B20000F91FF90EF90DF90CF90BF90AF909F908C
:100B30008F907F906F900895DC01862F99272091E8
:100B400006023327280F391F2132310510F081E0CA
:100B500008952091DA012430D9F4603091F08A0FA1
:100B60009B1FE7E0F2E02D9130910602AD01A32F2B
:100B7000BB27AE0FBF1F2C93DA013196A817B90718
:100B800091F780910602860F80930602812D0895C9
:100B900082E008959093280280932702089590930D
:100BA0002A0280932902089585ED8093BC008091EC
:100BB000DF019091E0012091DD013091DE01409153
:100BC000BC004071403009F43BC0295F3F4F8F4F5C
:100BD0009F4F969587953795279596958795379545
:100BE0002795969587953795279540E050E0E091B9
:100BF000DD01F091DE01A091DF01B091E00161E043
:100C0000E115F105A407B50709F0612D61706030A9
:100C100089F461E0211531058407950709F0612DFC
:100C20006170603081F46AE26A95F1F721503040DA
:100C3000804090406091BC006071603009F0D7CF77
:100C40001092DA0108958091E1010E9469040895EB
:100C50000F920FB60F921F9211242F933F934F9331
:100C60005F936F937F938F939F93AF93BF93EF9314
:100C7000FF938091B9008695869586958C305CF0BF
:100C80008331BCF480310CF08AC083E08093DA01B8
:100C900010922C02F7C086300CF037C083300CF075
:100CA00041C0982F9A95923008F0C2C08091E5011A
:100CB00053C0982F87310CF08DC09551923008F4B5
:100CC00090C0833109F4E0C0843109F0E0C085ECC4
:100CD0008093BC001092DA0180912C02803238F4AB
:100CE00080912C02A82FBB27A35DBD4F1C92E091E1
:100CF0002702F091280280912C02682F77278DE23D
:100D000092E0099510922C02C2C089300CF027C0E5
:100D1000863009F493C0873009F492C0883009F412
:100D2000ABC0B5C0833031F0843009F492C0853057
:100D300009F0ADC08091E3019091E401891708F0BA
:100D400024C08091E301982F93959093E301A82FFD
:100D5000BB27AA51BE4F8C918093BB0093C08930B2
:100D600009F47AC08A3009F47AC08B3009F08FC058
:100D70008091BB009091E301292F23952093E301FB
:100D8000A92FBB27AA51BE4F8C938091DB018030E5
:100D900009F062C081E08093DC0184EA55C08031B3
:100DA00031F0813109F470C0823109F070C0809156
:100DB0002C02803208F068C08091BB0090912C0218
:100DC000292F239520932C02A92FBB27A35DBD4F6C
:100DD0008C9358C09851923008F435C08731B1F0E7
:100DE00056C084E08093DA0110924D021092060200
:100DF000E0912902F0912A02099580910602803043
:100E000029F41092070281E08093060280914D023E
:100E1000982F939590934D02A82FBB27A95FBD4FA4
:100E20008C918093BB0080914D029091060228C066
:100E3000803009F02CC01092E2010EC080E30AC09D
:100E400088E38093E20185EC8093BC001092DA0184
:100E50001EC080E28093E2010E94D40518C08091F8
:100E6000BB009091E301292F23952093E301A92F43
:100E7000BB27AA51BE4F8C938091E3019091E4016E
:100E8000891710F485EC01C085E88093BC00FF91C0
:100E9000EF91BF91AF919F918F917F916F915F91F2
:100EA0004F913F912F911F900F900FBE0F9018956B
:100EB0008F929F92AF92BF92CF92DF92EF92FF926A
:100EC0000F931F938A017B016C01011580E090E074
:100ED0001105D1F05601D701A80FB91F6C914C0133
:100EE000F50180819181FC0120813181C601F901E8
:100EF00009958115910539F0C40101960817190764
:100F000051F7C80101C0C4011F910F91FF90EF90EC
:100F1000DF90CF90BF90AF909F908F900895EF9209
:100F2000FF920F931F938B017C010115110579F03E
:100F3000C8010E94420EAC01F70180819181FC0141
:100F400022813381C701B801F901099502C080E00F
:100F500090E01F910F91FF90EF90089521153105BA
:100F600019F00E94BE070895FC0120813181F9012A
:100F700020813181642FF901099508952F923F92C4
:100F80004F925F926F927F928F929F92AF92BF9299
:100F9000CF92DF92EF92FF920F931F93CF93DF9345
:100FA000CDB7DEB7A1970FB6F894DEBF0FBECDBFA9
:100FB0007B015A014C0119A28AE0223008F0822FED
:100FC000DE019096C82EDD2400E010E01D01B50181
:100FD000C7019601A8010E945B0E39012A01B301E5
:100FE000C2019601A8010E944B0EC501861B970BFA
:100FF00090E38A300CF097E3980FD1019C9381E045
:10100000AC14BD04E006F10608F4812D817011973F
:1010100080305301720109F0D9CF1196CD018D01B5
:101020000E94420EAC01F40180819181FC01228179
:101030003381C401B801F9010995A1960FB6F8945E
:10104000DEBF0FBECDBFDF91CF911F910F91FF90FB
:10105000EF90DF90CF90BF90AF909F908F907F9058
:101060006F905F904F903F902F9008957F928F9256
:101070009F92AF92BF92CF92DF92EF92FF920F9327
:101080001F93CF93DF93CDB7DEB721970FB6F894B8
:10109000DEBF0FBECDBF7A0169018B0190911001B7
:1010A000981791F4E8E6F0E02491922F99230AF43E
:1010B000B8C161E0B22E0E94D10C8B2D8983826071
:1010C000823009F05FC0B0C09F3F09F0AAC1809391
:1010D0001001E8E6F0E02491223009F47BC02130D1
:1010E00009F425C0203009F0E0CF298314BC15BCD9
:1010F00094B5926094BD95B5916095BD282F332726
:10110000F901E957FF4F9491E92FFF27EE0FFF1FD9
:10111000ED58FF4F45915591509353024093520221
:1011200025563F4FF9019491909354027AC0109242
:1011300080001092810090918100986090938100CE
:1011400090918100916090938100282F3327F901BD
:10115000E957FF4F9491E92FFF27EE0FFF1FED583E
:10116000FF4F4591559150935A024093590225568D
:101170003F4FF901949190935B0291E0998361E074
:101180000E94D10C60E074E284EF90E040E050E017
:1011900098010E945B0ED9010B37110510F081E018
:1011A00001C087E090E08030798139F0569547950D
:1011B000B795A7958A958030C9F71197713009F0D6
:1011C000EAC09D0171E083E00B37110508F081E072
:1011D000A1E8DBC029831092B0001092B100909179
:1011E000B00092609093B0009091B10091609093A4
:1011F000B100282F3327F901E957FF4F9491E92FC8
:10120000FF27EE0FFF1FED58FF4F4591559150936B
:1012100061024093600225563F4FF90194919093EB
:10122000620261E00E94D10C60E074E284EF90E021
:1012300040E050E098014A010E945B0E5901852F61
:101240008695842F8795BB2DB795AA2DA79581E00C
:1012500099E70939190778F49FE00433190791E0F9
:10126000698108F0912D623009F0812D982390302A
:1012700029F464E004C01197798181C066E070E0D0
:101280006030D501FA0149F0D501FA01F695E795EC
:10129000B795A7956A956030C9F761E0A130B607A8
:1012A0009401E207F307798108F0612D6170917074
:1012B00083E0903009F482E0603009F05FC081E0A3
:1012C000073E180791E008F0912D723009F0812D4A
:1012D0009823903011F4E7E001C0E8E0F0E083E00B
:1012E000703009F084E0782E9501DA01E03031F0B9
:1012F000B695A79537952795EA95F8CF21503040B8
:10130000A040B04061E02115F90136079401A20721
:10131000B30708F0612D6170917085E0903009F499
:10132000872D6030DF0109F02AC0652F6695B42F44
:10133000B795AB2DA795712DA150B040604070407E
:1013400091E0A115B9076805790508F0912D917014
:1013500084E07981703009F086E0903081F485E096
:10136000703009F087E056954795B79456954795A4
:10137000B79456954795B794AB2DB42F11979D010F
:10138000703011F0A1EB01C0A5E4B0E09C91987F12
:10139000982B9C93D90120E030E081E0C114D10466
:1013A000E206F30609F0812D81708030A1F4000F70
:1013B000111F980100E010E0B72EB601C701A80187
:1013C0007D010E944B0E28EE33E0A8010E945B0EC7
:1013D000D7017B2D03C02FEF3FEFA901723099F0A9
:1013E000713041F07030E9F4A7BDAEE6B0E08EE4B4
:1013F00092E00FC0B0938900A0938800AFE6B0E000
:1014000085E592E006C0A093B300A0E7B0E08CE5CC
:1014100092E0FC0131832083538342838C9182606C
:101420008C9321960FB6F894DEBF0FBECDBFDF912F
:10143000CF911F910F91FF90EF90DF90CF90BF90D1
:10144000AF909F908F907F900895823069F08130A7
:1014500029F08030C9F410926E00089580916F00D9
:101460008D7F80936F000895809170008D7F8093B1
:10147000700081E08093B0008091B100887F84602B
:101480008093B1001092B30008951F93182F8FEF2F
:1014900090911001911731F4E8E6F0E09491809377
:1014A0001001892F0E94250A812F612D0E94030DB2
:1014B0001F9108950F920FB60F921F9211242F9330
:1014C0003F934F935F936F937F938F939F93AF93CC
:1014D000BF93EF93FF9340915C0250915D0280E0D7
:1014E00090E060915E0270915F0221E0411551052C
:1014F0006807790709F0212D2170203009F030C0EC
:1015000020916202A0916002B09161023C91322769
:101510003C9340915C0250915D0221E060915E023B
:1015200070915F0214161506860797070CF4212D9B
:1015300021702030C9F480915C0290915D0220916D
:101540005E0230915F0281509040204030403093E5
:101550005F0220935E0290935D0280935C0204C060
:10156000809110010E94450AFF91EF91BF91AF91C8
:101570009F918F917F916F915F914F913F912F91AB
:101580001F900F900FBE0F90189540E050E021E0A3
:10159000611571058407950709F0212D2170203010
:1015A00011F40E94250E0895AF92BF92CF92DF9260
:1015B000EF92FF920F931F936A0159018C017B01F7
:1015C00081E0EA14FB040C051D050CF4812D8170EB
:1015D000803071F4AE18BF08C00AD10A0E94D50D40
:1015E0009501A6010E947D0EE60EF71E081F191F29
:1015F000B701C8011F910F91FF90EF90DF90CF903E
:10160000BF90AF90089508950F931F930E946E0CA2
:101610000E94030B0E948D0000E010E00E94AB00CE
:1016200001151105D9F30E940000F8CF0F920FB6F3
:101630000F922F933F934F935F936F937F938F936B
:101640009F93EF93FF9380916B02982F9D5F9D373F
:1016500010F421E001C022E030E040916702509197
:10166000680260E070E0E0916902F0916A02420F66
:10167000531FE61FF71FF0936A02E093690250932D
:101680006802409367028A579D3708F4892F809338
:101690006B02809163029091640220916502309107
:1016A00066028F5F9F4F2F4F3F4F3093660220930C
:1016B00065029093640280936302FF91EF919F9182
:1016C0008F917F916F915F914F913F912F910F90EB
:1016D0000FBE0F9018952FB7F894809169029091E2
:1016E0006A0260916702709168022FBF08959FB7E8
:1016F000F894609165027091660240916302509186
:10170000640226B585B39FBF91E02F3F09F4912D68
:101710008923E82FFF2780E090E04E0F5F1F681FAE
:10172000791F440F551F661F440F551F661FF62F64
:10173000E52F542F412D622F7727660F771F881FC3
:10174000991F660F771F881F991F642B752B8E2B8F
:101750009F2B08956F927F928F929F92AF92BF922C
:10176000CF92DF92EF92FF920F931F93AFB7F8944F
:1017700040916502509166022091630230916402AB
:10178000E6B5F5B3AFBF00E010E0A1E061156B0175
:10179000710558018007910709F0A12DA170A030B3
:1017A00009F084C061E0EF3F09F4612D7C01F6236C
:1017B0006F2F7727260F371F8501401F511F220FDC
:1017C000331F441F220F331F441F542F432F322F28
:1017D000212D8E2E9924880C991C001F111F880C16
:1017E000991C001F111F042B152B822A932A0E947B
:1017F000B20CD7018FB7F894409165025091660200
:10180000209163023091640296B565B38FBF81E089
:101810009F3F71E009F4712D67237727260F371F4B
:1018200075014E1D5F1D220F331F441F220F331FF2
:10183000441F542F432F722F612D292F3327220F3E
:10184000331FEE2DEE1FFF2DFF1F220F331FEE1F44
:10185000FF1F340126193709E00BF10B260F371F44
:10186000E41FF51F283E93E03907EE05FF0508F059
:10187000812D81708030C1F4960121503040A0400C
:10188000B04081E02115690131059501A207B30738
:1018900009F4812D8170940128513C4F49010F4F6B
:1018A0001F4F803019F0A6CF7D01A1CF1F910F915E
:1018B000FF90EF90DF90CF90BF90AF909F908F9070
:1018C0007F906F9008958230910538F0880F991FAE
:1018D000880F991F05970197F1F70895789484B5BB
:1018E000826084BD84B5816084BD85B5826085BD1C
:1018F00085B5816085BD80916E00816080936E00AA
:10190000109281008091810082608093810080919B
:10191000810081608093810080918000816080934C
:1019200080008091B10084608093B1008091B0000C
:1019300081608093B00080917A00846080937A0007
:1019400080917A00826080937A0080917A00816031
:1019500080937A0080917A00806880937A00109258
:10196000C10008950895982F9E5F8E3008F4982F37
:101970009770809111018295807F880F880F892B45
:1019800080937C0080917A00806480937A008091BB
:101990007A0080748030D9F7809178009091790036
:1019A00008959927FC01E556FF4F249189579F4FD1
:1019B000FC018491803009F425C09927880F991F74
:1019C000FC01E759FF4FA591B5918D589F4FFC0140
:1019D000459155918FB7F894623051F0603071F4B1
:1019E00020959C9192239C93DA019C91922308C0AC
:1019F000922F90953C9139233C93DA019C91922B44
:101A00009C938FBF0895EF92FF920F931F93282FFF
:101A10003327F901E155FF4F8491F901E556FF4F56
:101A2000F49029573F4FF9019491903009F41BC06D
:101A3000092F1127803021F0E62E0E94380D6E2DDF
:101A4000000F111F0D581F4FF801A591B5918FB7C9
:101A5000F894603019F09C919F2903C0F0949C91F8
:101A60009F219C938FBF1F910F91FF90EF9008953E
:101A7000843044F4813079F0823089F08330C1F4CD
:101A80008FE707C0883049F0873061F0843081F4F7
:101A90008FEDA0E809C08FE703C08FED04C08FED84
:101AA000A4E402C08FE7A0EBB0E09C9198239C9344
:101AB0000895FF920F931F93282F3327F901E155C3
:101AC000FF4F8491F901E556FF4FF49029573F4F9E
:101AD000F9019491903009F415C0092F1127803035
:101AE00011F00E94380D000F111F03581F4FF8010D
:101AF000A591B5919C919F2181E0903009F4812DB1
:101B0000992702C080E090E01F910F91FF90089507
:101B1000AAE0B0E0EEE8FDE00C94D40E89839A834D
:101B2000FC016081718182819381009770406040E7
:101B300021F464E279ED8BE597E02DE133EF41E0AC
:101B400050E00E947D0E2B833C834D835E839B017E
:101B5000AC01A7EAB1E40E94A20E6F83788789875F
:101B60009A87ACEEB4EF2B813C814D815E810E945F
:101B7000BF0E2F81388549855A85260F371F481F8C
:101B8000591FC901DA01B7FF03C00197A040B0484F
:101B9000E981FA8180839183A283B383BC01CD0163
:101BA0009F772A96E2E00C94F00EA8E0B0E0EBED0F
:101BB000FDE00C94D40E60910001709101018091C0
:101BC00002019091030100977040604021F464E2AB
:101BD00079ED8BE597E02DE133EF41E050E00E9495
:101BE0007D0E29833A834B835C839B01AC01A7EA7A
:101BF000B1E40E94A20E6D837E838F839887ACEE42
:101C0000B4EF29813A814B815C810E94BF0E2D8106
:101C10003E814F815885260F371F481F591FC90124
:101C2000DA01B7FF03C00197A040B04880930001DC
:101C300090930101A0930201B0930301BC01CD0177
:101C40009F772896E2E00C94F00EA0E0B0E0EBE283
:101C5000FEE00C94D40E6093000170930101809318
:101C6000020190930301E2E00C94F00EF8940C94BE
:101C7000FB0EFB01DC0102C001900D92415050406F
:101C8000D8F70895FC0101900020E9F78095909520
:101C90008E0F9F1F0895DB018F939F930E94A20ECA
:101CA000BF91AF91A29F800D911DA39F900DB29FF8
:101CB000900D11240895A1E21A2EAA1BBB1BFD0151
:101CC0000DC0AA1FBB1FEE1FFF1FA217B307E4071B
:101CD000F50720F0A21BB30BE40BF50B661F771F73
:101CE000881F991F1A9469F7609570958095909553
:101CF0009B01AC01BD01CF010895052E97FB1EF499
:101D000000940E94940E57FD07D00E945B0E07FCC2
:101D100003D04EF40C94940E509540953095219537
:101D20003F4F4F4F5F4F0895909580957095619507
:101D30007F4F8F4F9F4F0895EE0FFF1F0590F49137
:101D4000E02D09940E94AD0EA59F900DB49F900DBB
:101D5000A49F800D911D11240895A29FB001B39FEF
:101D6000C001A39F700D811D1124911DB29F700DA4
:101D7000811D1124911D0895B7FF0C94A20E0E949D
:101D8000A20E821B930B08952F923F924F925F9267
:101D90006F927F928F929F92AF92BF92CF92DF927B
:101DA000EF92FF920F931F93CF93DF93CDB7DEB7E0
:101DB000CA1BDB0B0FB6F894DEBF0FBECDBF099474
:101DC0002A88398848885F846E847D848C849B84CB
:101DD000AA84B984C884DF80EE80FD800C811B81D9
:101DE000AA81B981CE0FD11D0FB6F894DEBF0FBE08
:101DF000CDBFED01089510E0C3E6D0E004C0FE01C0
:101E00000E949C0E2196C336D107C9F7F894FFCFE4
:101E10000100000072010000E80300000000000063
:101E2000FF0146414C53544152542100557761679C
:101E3000612E2E2E004E69657A6C65210052656B0D
:101E40006F72643A2000206D73005370696163798A
:101E50003F203A2900437A61733A20002D00426CFA
:101E600079736B6177696361210000000000FD01F7
:101E700058074603490300004000140054000000C6
:101E80000000AB03E203460348041A0424043804A8
:00000001FF
