:100000000C9463000C948B000C948B000C948B006C
:100010000C948B000C948B000C948B000C948B0034
:100020000C948B000C948B000C948B000C948B0024
:100030000C948B000C948B000C948B000C948B0014
:100040000C94240B0C948B000C94A5080C94D408ED
:100050000C948B000C948B000C948B000C948B00F4
:100060000C94F2050C948B00000000002400270083
:100070002A0000000000250028002B0000000000DE
:1000800023002600290004040404040404040202DA
:100090000202020203030303030301020408102007
:1000A0004080010204081020010204081020000012
:1000B0000008000201000003040700000000000027
:1000C00000009701050911241FBECFEFD8E0DEBF65
:1000D000CDBF11E0A0E0B1E0EEE2F1E202C0059098
:1000E0000D92AE37B107D9F722E0AEE7B1E001C01B
:1000F0001D92AE3EB207E1F710E0C3E6D0E004C0C7
:100100002197FE010E943D10C136D107C9F70E9418
:10011000120B0C94F60F0C9400000F931F930EE734
:1001200011E0C8010E94D601C8010E94D50248E032
:1001300051E0C801612D0E94A40288E492E040E8E9
:1001400055E260E070E026E00E9455071F910F9194
:1001500008956F927F928F929F92AF92BF92CF92AB
:10016000DF92EF92FF920F931F938EE00E94B50CE7
:10017000BC0181E090E0623071050CF4BC013C01EF
:1001800080E090E07C010E943C0E9B01AC0160E0AD
:1001900070EC8FE794E40E949B0D40E85FEB9701C1
:1001A0000E942A0D00E010E44CE156E498016A0137
:1001B0000E94890F9801A6010E949B0D0E940C0FBE
:1001C00020E030EE46E755E40E949B0D2FE03FEC27
:1001D0004BE55BE30E942A0D9B01AC0180E89FE3A5
:1001E0004701B7010E949B0D23E333E948E853EC34
:1001F0000E942A0D7B016C01A0900001B0900101CA
:100200000091020110910301B501C8019701A601F7
:100210000E94960D982F99230AF05701B092010180
:10022000A092000188230AF0860110930301009335
:100230000201A0900401B090050100910601109107
:100240000701B501C8019701A6010E94EE0E18161C
:100250000CF05701B0920501A092040118160CF0A1
:10026000860110930701009306010EE711E0C80113
:10027000612D412D0E9490026CE271E0C8010E9444
:100280007F09C801A701B60193010E94160AC8019F
:10029000612D0E949F0161E371E0C8010E947F0906
:1002A000C801612D41E00E94900267E371E0C8013E
:1002B0000E947F0960910201709103014091000149
:1002C00050910101C801540195010E94160A6CE386
:1002D00071E0C8010E947F096091060170910701D9
:1002E0004091040150910501C80195010E94160A30
:1002F0006DE171E0C8010E947F0988E492E022E08C
:1003000030E0A701B6010E94F50A6CE271E0C50178
:100310000E94AC0B1F910F91FF90EF90DF90CF9058
:10032000BF90AF909F908F907F906F9008958EE7D1
:1003300091E067E240E122E00E94C801089541E0B7
:100340000E94A50181E090E00895DF92EF92FF9274
:100350000F931F93D42E062F7C01102F107F1D2981
:10036000612F0E946C02C701612F0E94F702029563
:10037000007F0D29C701602F0E946C02C701602F0A
:100380000E94F7021F910F91FF90EF90DF90089568
:10039000FC0113862287418764838AE491E091837C
:1003A000808380E090E09383828308950F931F936E
:1003B0008C0180E191E00E941403F80115824285CE
:1003C000C801212D0E94E7011F910F910895CF923E
:1003D000DF92EF92FF920F931F938C01F80142304E
:1003E00020F040878581886008C04087413031F423
:1003F000203021F0F80185818460858362E370E01C
:1004000080E090E06C010E94AC0BF80163857F01F5
:10041000C8010E946C0268EE73E0C6010E94AC0B3A
:10042000C80160E30E946C02C80160E30E94F70209
:1004300084E991E16C010E94650CC80160E30E94AF
:100440006C02C80160E30E94F702C6010E94650CBD
:10045000C80160E30E946C02C80160E30E94F702D9
:1004600086E990E00E94650CC80160E20E946C027F
:10047000C80160E20E94F702F70165816062C8016D
:10048000412D0E94A50184E0F7018683C8016CE03C
:10049000412D0E94A501C80161E0412D0E94A501E6
:1004A00080ED97E06C010E94650C82E0F701878384
:1004B000C80166E0412D0E94A501C80162E0412DFE
:1004C0000E94A501C6010E94650C1F910F91FF902B
:1004D000EF90DF90CF900895CF92DF92FF920F932D
:1004E0001F93F62EFC0164816F0100E111E0C80149
:1004F0000E945803F60163856F2980911001909145
:100500001101FC0120813181C801F9010995C8015F
:100510000E9462031F910F91FF90DF90CF9008958A
:10052000FC012085241710F0242F01C02A95A22F4A
:10053000BB27AA0FBB1FAE5ABE4F2C91620F60683B
:10054000412D0E94A5010895AF92BF92CF92DF92F4
:10055000EF92FF920F931F937A018C01660F660F43
:10056000660F68736064412D0E94A501C701F70101
:1005700038967F016801DC016D915D01F601808193
:100580009181FC0120813181C801F9010995C501E2
:100590009701A216B30679F71F910F91FF90EF9084
:1005A000DF90CF90BF90AF900895EF92FF920F939E
:1005B0001F9328E0FC01238764817F0100E111E0A3
:1005C000C8010E945803F701638580911001909142
:1005D0001101FC0120813181C801F9010995C8018F
:1005E0000E9462031F910F91FF90EF900895EF9288
:1005F000FF921F93162F7C0164600E946C0281E0C1
:1006000090E00E94650C1B7FC701612F0E946C0265
:1006100082E390E00E94650C1F91FF90EF90089597
:1006200080E090E0089508951092AB011092AA0125
:100630001092CD011092CE010E94130487E293E044
:100640000E94990584E393E00E9494050895E09147
:10065000D001F091D101E115F10529F01092CE0100
:100660001092CD0109950895FC012091D20130919D
:10067000D30121153105D9F08091AB019091AA01E8
:100680009817A8F0161617065CF4AAE8B1E081E006
:1006900091919D93482F5527839546175707C0F38F
:1006A0001092AA016093AB01CB01F901099508955D
:1006B0006093AC0181E08093CF011092CD01109244
:1006C000CE0108950F934091CE018091AC016DEA67
:1006D00071E021E001E00E9454041092CD011092DB
:1006E000CE011092CF010F910895CF93DF93CDB734
:1006F000DEB721970FB6F894DEBF0FBECDBF69837A
:100700002091CF01203059F02091CE01203268F0A5
:1007100021E030E0FC013383228380E013C0CE016E
:10072000019661E00E9466050CC08091CD01A82F62
:10073000BB27A355BE4F6C9383958093CE018093C6
:10074000CD0181E090E021960FB6F894DEBF0FBE98
:10075000CDBFDF91CF9108958F929F92AF92BF92BC
:10076000CF92DF92EF92FF920F931F938A01DB01EA
:100770007C018091CF018030B9F001151105C1F0E5
:100780006D01C00ED11E47016D91F40180819181F0
:10079000FC0120813181C701F9015D010995D50175
:1007A000AC15BD0589F704C0CD01602F0E94660518
:1007B000C8011F910F91FF90EF90DF90CF90BF90F5
:1007C000AF909F908F9008958091AA01282F332792
:1007D0008091AB019927821B930B08958091AA0108
:1007E0009091AB01891758F4A82FBB27A657BE4F8D
:1007F0009C9183958093AA01892F992708958FEF63
:100800009FEF08958091AA019091AB01891738F468
:10081000A82FBB27A657BE4F8C91992708958FEF1D
:100820009FEF089508951092D40181E08093D5013F
:100830001092D60182E161E00E94D30C83E161E075
:100840000E94D30C8091B9008E7F8093B900809173
:10085000B9008D7F8093B90088E48093B80085E467
:100860008093BC0008950F931F9391E0909325020D
:100870008030B9F01091B8000091BA008091BC00AE
:100880008A7B8093BC0082E1612D0E94D30C83E1BE
:10089000612D0E94D30C0E9413040093BA001093A0
:1008A000B8001F910F9108956F927F928F929F923F
:1008B000AF92BF92CF92DF92EF92FF920F931F936E
:1008C000142F7B01D82E113210F081E0F2C0C22E1D
:1008D0000E94790B5B014C018091D401803080E053
:1008E00090E03C0109F431C02091D7013091D8014A
:1008F0004091D9015091DA0181E021153105930130
:100900004207530709F0812D81708030C9F40E949D
:10091000790B6A197B098809990921E04091D7016F
:100920005091D801E091D901F091DA0146175707AB
:10093000E807F90708F4212D2170203009F4A1C03F
:100940008091D401803009F0CFCF82E08093D40130
:100950000093D5018FEF8093DC011092DD0110939D
:10096000DE01103039F0412F552780EE91E0B701BC
:100970000E94F90F1092DF01DD0C8091DF018D29BB
:100980008093DF018091D601813009F03EC0109242
:10099000D6010E94790B8B017C018091DF0180934D
:1009A000BB002091D7013091D80181E04091D9015D
:1009B0005091DA012115310593014207530709F0DF
:1009C000812D81708030C9F40E94790B601B710BFE
:1009D0008E099F0921E04091D7015091D801E09103
:1009E000D901F091DA0146175707E807F90708F42B
:1009F000212D2170203009F444C08091BC00887002
:100A0000803009F0CACF85EC01C085EE8093BC0030
:100A10000E94790B8B017C018C2D803009F437C04A
:100A20008091D401823009F032C02091D7013091F9
:100A3000D8014091D9015091DA0181E021153105A9
:100A400093014207530709F0812D8170803041F7EF
:100A50000E94790B601B710B8E099F0921E0409168
:100A6000D7015091D801E091D901F091DA014617F0
:100A70005707E807F90708F4212D2170203009F005
:100A8000CFCF8091DB010E94330485E012C08091BA
:100A9000DC018F3F31F08091DC01803221F482E073
:100AA00008C0812D06C09091DC0183E0903309F0ED
:100AB00084E01F910F91FF90EF90DF90CF90BF9057
:100AC000AF909F908F907F906F900895DC01862F5C
:100AD0009927209100023327280F391F2132310531
:100AE00010F081E008952091D4012430D9F46030D1
:100AF00091F08A0F9B1FE1E0F2E02D91309100020E
:100B0000AD01A32FBB27AE0FBF1F2C93DA01319687
:100B1000A817B90791F780910002860F8093000211
:100B2000812D089582E008959093220280932102FE
:100B300008959093240280932302089585ED809375
:100B4000BC008091D9019091DA012091D7013091B8
:100B5000D8014091BC004071403009F43BC0295F8E
:100B60003F4F8F4F9F4F9695879537952795969531
:100B7000879537952795969587953795279540E0E2
:100B800050E0E091D701F091D801A091D901B09146
:100B9000DA0161E0E115F105A407B50709F0612D5F
:100BA0006170603089F461E0211531058407950793
:100BB00009F0612D6170603081F46AE26A95F1F7A5
:100BC00021503040804090406091BC0060716030A6
:100BD00009F0D7CF1092D40108958091DB010E94D3
:100BE000330408950F920FB60F921F9211242F9382
:100BF0003F934F935F936F937F938F939F93AF93A5
:100C0000BF93EF93FF938091B90086958695869563
:100C10008C305CF08331BCF480310CF08AC083E00E
:100C20008093D40110922602F7C086300CF037C0B2
:100C300083300CF041C0982F9A95923008F0C2C0D2
:100C40008091DF0153C0982F87310CF08DC09551F2
:100C5000923008F490C0833109F4E0C0843109F087
:100C6000E0C085EC8093BC001092D40180912602F4
:100C7000803238F480912602A82FBB27A95DBD4F92
:100C80001C92E0912102F091220280912602682FAD
:100C9000772787E292E0099510922602C2C0893038
:100CA0000CF027C0863009F493C0873009F492C055
:100CB000883009F4ABC0B5C0833031F0843009F41A
:100CC00092C0853009F0ADC08091DD019091DE01C8
:100CD000891708F024C08091DD01982F9395909397
:100CE000DD01A82FBB27A052BE4F8C918093BB0083
:100CF00093C0893009F47AC08A3009F47AC08B3005
:100D000009F08FC08091BB009091DD01292F2395C0
:100D10002093DD01A92FBB27A052BE4F8C93809159
:100D2000D501803009F062C081E08093D60184EA69
:100D300055C0803131F0813109F470C0823109F041
:100D400070C080912602803208F068C08091BB009C
:100D500090912602292F239520932602A92FBB27A5
:100D6000A95DBD4F8C9358C09851923008F435C09E
:100D70008731B1F056C084E08093D40110924702CD
:100D800010920002E0912302F091240209958091D3
:100D90000002803029F41092010281E08093000269
:100DA00080914702982F939590934702A82FBB27D5
:100DB000AF5FBD4F8C918093BB00809147029091B3
:100DC000000228C0803009F02CC01092DC010EC057
:100DD00080E30AC088E38093DC0185EC8093BC004B
:100DE0001092D4011EC080E28093DC010E949E0517
:100DF00018C08091BB009091DD01292F239520938D
:100E0000DD01A92FBB27A052BE4F8C938091DD013D
:100E10009091DE01891710F485EC01C085E880937C
:100E2000BC00FF91EF91BF91AF919F918F917F9106
:100E30006F915F914F913F912F911F900F900FBE37
:100E40000F9018958AEF98E08115910561F080E088
:100E500090E08115910539F00E94FA088170803088
:100E600011F00E9400000895FC01248DA22FBB27E1
:100E7000A80FB91FA35ABF4F2C91348D33953F73E0
:100E8000348FA689B7892C93A089B1892C912370BE
:100E900020642C93238D348D231731F4FC01A28917
:100EA000B3898C918F7D8C930895AF92BF92CF922E
:100EB000DF92EF92FF920F931F93122F6B015A0153
:100EC0007C01F701A089B18982E08C9381EE20E05A
:100ED00030E001E0A114B806C206D30609F0012DE6
:100EE000017060E079E08DE390E09501A6010E9439
:100EF0001B10215030404040504056954795379543
:100F00002795003021F480E121153807A0F0F70182
:100F1000A089B1891C9260E874E88EE190E09501A7
:100F2000A6010E941B102150304040405040569571
:100F3000479537952795F701A485B5853C93A685F8
:100F4000B7852C93108EA489B5891C93A289B38987
:100F50008C9180618C93A289B3898C9188608C93E9
:100F6000A289B3898C9180688C93A289B3898C9172
:100F70008F7D8C931F910F91FF90EF90DF90CF901A
:100F8000BF90AF900895FC01818D9927228D332762
:100F9000821B930B8F7390700895FC01218D328D0D
:100FA000231719F48FEF9FEF0895FC01228D33274B
:100FB000280F391FF901858D99270895FC01218D8E
:100FC000328D231719F48FEF9FEF0895FC01228DC6
:100FD000AF01E22FFF27E80FF91F858DFA01928DEF
:100FE00093959F73928F99270895FC01438D242F29
:100FF0003327548D852F9927451720F0821B930B9B
:10100000CF96089520953095820F931F08950F93E2
:101010001F93CF93DF93CDB7DEB722970FB6F89427
:10102000DEBF0FBECDBF8C01F801808D813009F08D
:1010300028C0F801FA83E983A289B3898C91807270
:10104000803061F4E981FA819D01A089B1898C9198
:10105000D901E981FA818074803099F48FB78823AF
:101060005AF38C918072803039F3A089B1898C91C8
:101070008072803009F3C8010E943407E981FA8147
:10108000DBCF22960FB6F894DEBF0FBECDBFDF9147
:10109000CF911F910F910895CF92DF92EF92FF921F
:1010A0000F931F93162F7C0181E0F701808F838DB2
:1010B000948D891741F4F701A089B1898C918072D0
:1010C000803009F02CC0F701038D03950F73848DD8
:1010D000081791F467018FB7882352F0F701A089B0
:1010E000B1898C918072803019F0C7010E94340759
:1010F000F601848D081779F3F701838DA82FBB279C
:10110000AE0DBF1DA35ABF4F1C938FB7F894038F2A
:10111000A289B3899C9190629C938FBF0DC08FB7B9
:10112000F894F701A689B7891C93A089B1899C918D
:10113000937090649C938FBF81E090E01F910F911A
:10114000FF90EF90DF90CF9008950F920FB60F921F
:101150002F938F939F93AF93BF93A0915802B09119
:1011600059029C91A0915E02B0915F028C919470A3
:10117000903089F49091610293959F73209162025F
:10118000921749F020916102A22FBB27AB59BD4FA6
:101190008C9390936102BF91AF919F918F912F910A
:1011A0000F900FBE0F9018950F920FB60F921F92CF
:1011B00011242F933F934F935F936F937F938F935C
:1011C0009F93AF93BF93EF93FF9388E492E00E94C5
:1011D0003407FF91EF91BF91AF919F918F917F91D4
:1011E0006F915F914F913F912F911F900F900FBE84
:1011F0000F90189588E492E00E94C3079C0181E05B
:101200002115310509F4812D089510926102109283
:1012100062021092630280E090E090934F0280930C
:101220004E0228EE33E030934D0220934C0290930F
:101230004B0280934A0286EC90E090935F02809389
:101240005E0282EC90E090935D0280935C0281EC00
:1012500090E090935B0280935A0280EC90E0909330
:1012600059028093580284EC90E090935702809347
:10127000560285EC90E0909355028093540280E7EB
:1012800091E090934902809348021092640208957D
:101290008F929F92AF92BF92CF92DF92EF92FF9286
:1012A0000F931F938A017B016C01011580E090E090
:1012B0001105D1F05601D701A80FB91F6C914C014F
:1012C000F50180819181FC0120813181C601F90104
:1012D00009958115910539F0C40101960817190780
:1012E00051F7C80101C0C4011F910F91FF90EF9009
:1012F000DF90CF90BF90AF909F908F900895EF9226
:10130000FF920F931F938B017C010115110579F05A
:10131000C8010E940210AC01F70180819181FC019B
:1013200022813381C701B801F901099502C080E02B
:1013300090E01F910F91FF90EF9008952F923F92B0
:101340004F925F926F927F928F929F92AF92BF92D5
:10135000CF92DF92EF92FF920F931F93CF93DF9381
:10136000CDB7DEB7A1970FB6F894DEBF0FBECDBFE5
:101370007B015A014C0119A28AE0223008F0822F29
:10138000DE019096C82EDD2400E010E01D01B501BD
:10139000C7019601A8010E941B1039012A01B3015F
:1013A000C2019601A8010E940B10C501861B970B74
:1013B00090E38A300CF097E3980FD1019C9381E081
:1013C000AC14BD04E006F10608F4812D817011977C
:1013D00080305301720109F0D9CF1196CD018D01F2
:1013E0000E940210AC01F40180819181FC012281F4
:1013F0003381C401B801F9010995A1960FB6F8949B
:10140000DEBF0FBECDBFDF91CF911F910F91FF9037
:10141000EF90DF90CF90BF90AF909F908F907F9094
:101420006F905F904F903F902F9008950E94190AFF
:1014300008952F923F924F925F926F927F928F9278
:101440009F92AF92BF92CF92DF92EF92FF920F9353
:101450001F93122F6B015A017C01B501C6010E9436
:10146000FD0E8115910519F062E471E018C0B50117
:10147000C6010E94F30E8115910519F061E271E039
:101480000EC0C6019F772FEF3FEF4FE75FE4B50136
:101490000E94EE0E18160CF020C068E271E0F70111
:1014A00080819181FC012281338143E050E0C701BA
:1014B000F90109956C01C6011F910F91FF90EF9002
:1014C000DF90CF90BF90AF909F908F907F906F9064
:1014D0005F904F903F902F90089520E030E0B5014D
:1014E000C6011901A9010E94960D88237AF480E0B3
:1014F00090E8C826D926F70180819181FC012081DE
:101500003181C7016DE2F90109951C0140E05FE3FB
:1015100020E030E0103081F080E291E43C01012FC6
:101520004901B901CA019401A3010E949B0D9B01CD
:10153000AC010A950030A9F7B501C6010E942A0D39
:101540006B015C010E940D0E4B012C01C701A4012F
:10155000B2012AE00E949E093C01620C731C10300B
:1015600009F441C0B401C2010E943C0E9B01AC01D0
:10157000B601C5010E94290D5B014C01F701808174
:101580009181FC0120813181C7016EE2F901099549
:101590006C01C60CD71C80E291E41C01B501C401AA
:1015A00020E030E02901A1010E94890F5B014C017C
:1015B0000E940D0E3B01C2010E943C0E9B01AC013A
:1015C000B501C4010E94290D5B014C01C701A301B3
:1015D000B2012AE00E949E09C80ED91E1A95103049
:1015E00009F0DCCF68CF630166CFEF92FF920F93D3
:1015F0001F938C010E94190A7C01F801808191815E
:10160000FC012281338165E271E042E050E0C801D3
:10161000F90109958E0D9F1D1F910F91FF90EF907D
:10162000089508950F931F930E94700C0E94110B50
:101630000E948D0002E217E00E94A9000115110529
:10164000D9F30E942207F8CF0F920FB60F922F9373
:101650003F934F935F936F937F938F939F93EF93FA
:10166000FF938091ED02982F9D5F9D3710F421E04C
:1016700001C022E030E04091E9025091EA0260E0CE
:1016800070E0E091EB02F091EC02420F531FE61F75
:10169000F71FF093EC02E093EB025093EA024093C1
:1016A000E9028A579D3708F4892F8093ED028091D3
:1016B000E5029091E6022091E7023091E8028F5F07
:1016C0009F4F2F4F3F4F3093E8022093E7029093B4
:1016D000E6028093E502FF91EF919F918F917F91B8
:1016E0006F915F914F913F912F910F900FBE0F908F
:1016F00018959FB7F8946091E7027091E8024091C5
:10170000E5025091E60226B585B39FBF91E02F3FD9
:1017100009F4912D8923E82FFF2780E090E04E0FF8
:101720005F1F681F791F440F551F661F440F551F09
:10173000661FF62FE52F542F412D622F7727660F56
:10174000771F881F991F660F771F881F991F642BAB
:10175000752B8E2B9F2B08956F927F928F929F9265
:10176000AF92BF92CF92DF92EF92FF920F931F93AF
:10177000AFB7F8944091E7025091E8022091E5025A
:101780003091E602E6B5F5B3AFBF00E010E0A1E0AE
:1017900061156B01710558018007910709F0A12DB2
:1017A000A170A03009F084C061E0EF3F09F4612D21
:1017B0007C01F6236F2F7727260F371F8501401FE7
:1017C000511F220F331F441F220F331F441F542F5A
:1017D000432F322F212D8E2E9924880C991C001F07
:1017E000111F880C991C001F111F042B152B822A16
:1017F000932A0E94B40CD7018FB7F8944091E70266
:101800005091E8022091E5023091E60296B565B369
:101810008FBF81E09F3F71E009F4712D6723772727
:10182000260F371F75014E1D5F1D220F331F441FEA
:10183000220F331F441F542F432F722F612D292F46
:101840003327220F331FEE2DEE1FFF2DFF1F220F18
:10185000331FEE1FFF1F340126193709E00BF10B70
:10186000260F371FE41FF51F283E93E03907EE05CA
:10187000FF0508F0812D81708030C1F49601215060
:101880003040A040B04081E021156901310595014B
:10189000A207B30709F4812D8170940128513C4FB0
:1018A00049010F4F1F4F803019F0A6CF7D01A1CF06
:1018B0001F910F91FF90EF90DF90CF90BF90AF906E
:1018C0009F908F907F906F9008958230910538F0AF
:1018D000880F991F880F991F05970197F1F70895B1
:1018E000789484B5826084BD84B5816084BD85B5FB
:1018F000826085BD85B5816085BD80916E00816007
:1019000080936E00109281008091810082608093AC
:1019100081008091810081608093810080918000AE
:101920008160809380008091B10084608093B100D9
:101930008091B00081608093B00080917A008460D3
:1019400080937A0080917A00826080937A008091FF
:101950007A00816080937A0080917A008068809319
:101960007A001092C10008950895982F9E5F8E30DE
:1019700008F4982F977080911C018295807F880FC2
:10198000880F892B80937C0080917A0080648093FB
:101990007A0080917A0080748030D9F78091780045
:1019A000909179000895EF92FF920F931F93282F43
:1019B0003327F901E255FF4F8491F901E656FF4FB5
:1019C000F4902A573F4FF9019491903009F41BC0CD
:1019D000092F1127803021F0E62E0E94080D6E2D70
:1019E000000F111F0E581F4FF801A591B5918FB729
:1019F000F894603019F09C919F2903C0F0949C9159
:101A00009F219C938FBF1F910F91FF90EF9008959E
:101A1000843044F4813079F0823089F08330C1F42D
:101A20008FE707C0883049F0873061F0843081F457
:101A30008FEDA0E809C08FE703C08FED04C08FEDE4
:101A4000A4E402C08FE7A0EBB0E09C9198239C93A4
:101A500008955058BB27AA270E94410D0C94B40E3C
:101A60000E94A60E38F00E94AD0E20F039F49F3F80
:101A700019F426F40C94A30E0EF4E095E7FB0C94F5
:101A80009D0EE92F0E94C50E58F3BA17620773071F
:101A90008407950720F079F4A6F50C94E70E0EF470
:101AA000E0950B2EBA2FA02D0B01B90190010C016E
:101AB000CA01A0011124FF27591B99F0593F50F486
:101AC000503E68F11A16F040A22F232F342F4427DE
:101AD000585FF3CF469537952795A795F0405395D6
:101AE000C9F77EF41F16BA0B620B730B840BBAF0A6
:101AF0009150A1F0FF0FBB1F661F771F881FC2F711
:101B00000EC0BA0F621F731F841F48F48795779524
:101B10006795B795F7959E3F08F0B0CF9395880FDE
:101B200008F09927EE0F9795879508950E94790EF2
:101B300008F481E008950E94AF0D0C94B40E0E9449
:101B4000AD0E58F00E94A60E40F029F45F3F29F038
:101B50000C949D0E51110C94E80E0C94A30E0E944F
:101B6000C50E68F39923B1F3552391F3951B550BDB
:101B7000BB27AA2762177307840738F09F5F5F4F60
:101B8000220F331F441FAA1FA9F335D00E2E3AF09F
:101B9000E0E832D091505040E695001CCAF72BD0B7
:101BA000FE2F29D0660F771F881FBB1F2617370708
:101BB0004807AB07B0E809F0BB0B802DBF01FF273A
:101BC00093585F4F3AF09E3F510578F00C949D0E6C
:101BD0000C94E80E5F3FE4F3983ED4F38695779536
:101BE0006795B795F7959F5FC9F7880F911D9695F3
:101BF000879597F90895E1E0660F771F881FBB1F4F
:101C0000621773078407BA0720F0621B730B840BFB
:101C1000BA0BEE1F88F7E09508950E94CD0E88F06C
:101C20009F5798F0B92F9927B751B0F0E1F0660FA0
:101C3000771F881F991F1AF0BA95C9F714C0B130E1
:101C400091F00E94E70EB1E008950C94E70E672F23
:101C5000782F8827B85F39F0B93FCCF38695779510
:101C60006795B395D9F73EF49095809570956195F9
:101C70007F4F8F4F9F4F0895E89409C097FB3EF424
:101C800090958095709561957F4F8F4F9F4F9923C9
:101C9000A9F0F92F96E9BB279395F6958795779547
:101CA0006795B795F111F8CFFAF4BB0F11F460FF07
:101CB0001BC06F5F7F4F8F4F9F4F16C0882311F05F
:101CC00096E911C0772321F09EE8872F762F05C073
:101CD000662371F096E8862F70E060E02AF09A950E
:101CE000660F771F881FDAF7880F9695879597F903
:101CF0000895990F0008550FAA0BE0E8FEEF16169D
:101D00001706E807F907C0F012161306E407F507EF
:101D100098F0621B730B840B950B39F40A2661F063
:101D2000232B242B252B21F408950A2609F4A14006
:101D3000A6958FEF811D811D089597F99F6780E813
:101D400070E060E008959FEF80EC089500240A940D
:101D50001616170618060906089500240A94121686
:101D60001306140605060895092E0394000C11F4B9
:101D7000882352F0BB0F40F4BF2B11F460FF04C066
:101D80006F5F7F4F8F4F9F4F089557FD9058440FBF
:101D9000551F59F05F3F71F04795880F97FB991FCA
:101DA00061F09F3F79F08795089512161306140687
:101DB000551FF2CF4695F1DF08C016161706180614
:101DC000991FF1CF86957105610508940895E894EF
:101DD000BB2766277727CB0197F908950E94790ED4
:101DE00008F48FEF08950E94CD0E80E090E020F47B
:101DF00019F40EF40297839508950E94CD0E80E0A9
:101E000090E009F0881F089516F00C94540F0C947C
:101E1000A30E68940C949D0E0E94CD0EA8F39923F6
:101E2000C1F3AEF3DF93CF931F930F93FF92C92FAC
:101E3000DD2788232AF02197660F771F881FDAF79E
:101E400020E030E040E85FEB9FE3883920F0803EFF
:101E500038F021968F770E942A0DE4EDF0E204C05D
:101E60000E942A0DE1E0F1E20E94620F8B01BE01A7
:101E7000EC01FB2E6F5771097595771F880B990B35
:101E80000E943E0E28E132E741E35FE30E949C0F8F
:101E9000AF2D9801AE01FF900F911F91CF91DF916F
:101EA0000E94410D0C94B40E9F3F31F0915020F4EC
:101EB000879577956795B795880F911D9695879526
:101EC00097F90895DF93CF931F930F93FF92EF92AB
:101ED000DF927B018C01689406C0DA2EEF010E942C
:101EE0009C0FFE01E894A59125913591459155915E
:101EF000A6F3EF010E94410DFE019701A801DA94BB
:101F000069F7DF90EF90FF900F911F91CF91DF91D4
:101F100008950E949C0F0C94B40E0E94A60E38F0F7
:101F20000E94AD0E20F0952311F00C949D0E0C94A0
:101F3000A30E11240C94E80E0E94C50E70F3959F19
:101F4000C1F3950F50E0551F629FF001729FBB27B0
:101F5000F00DB11D639FAA27F00DB11DAA1F649F4C
:101F60006627B00DA11D661F829F2227B00DA11DFF
:101F7000621F739FB00DA11D621F839FA00D611D85
:101F8000221F749F3327A00D611D231F849F600DA6
:101F9000211D822F762F6A2F11249F5750409AF0CF
:101FA000F1F088234AF0EE0FFF1FBB1F661F771F5B
:101FB000881F91505040A9F79E3F510580F00C9426
:101FC0009D0E0C94E80E5F3FE4F3983ED4F38695A3
:101FD00077956795B795F795E7959F5FC1F7FE2BC6
:101FE000880F911D9695879597F90895F8940C940C
:101FF0005D10FB01DC0102C001900D924150504088
:10200000D8F70895FC0101900020E9F7809590959C
:102010008E0F9F1F0895DB018F939F930E944310A3
:10202000BF91AF91A29F800D911DA39F900DB29F74
:10203000900D11240895A1E21A2EAA1BBB1BFD01CD
:102040000DC0AA1FBB1FEE1FFF1FA217B307E40797
:10205000F50720F0A21BB30BE40BF50B661F771FEF
:10206000881F991F1A9469F76095709580959095CF
:102070009B01AC01BD01CF010895EE0FFF1F05903C
:10208000F491E02D09940E944E10A59F900DB49FED
:10209000900DA49F800D911D11240895A29FB00161
:1020A000B39FC001A39F700D811D1124911DB29F8C
:1020B000700D811D1124911D089510E0C3E6D0E03C
:1020C00004C0FE010E943D102196C336D107C9F716
:1020D000F894FFCF08000000BE922449123EABAA3C
:1020E000AA2ABECDCCCC4C3E00000080BEABAAAA32
:1020F000AA3E00000000BF000000803F000000007A
:1021000000084178D3BB4387D1133D190E3CC3BDB2
:102110004282AD2B3E68EC8276BED98FE1A93E4C5F
:0E21200080EFFFBE01C4FF7F3F000000000003
:10212E0000007A4400007AC4060909060000000087
:10213E005E010000E80300000000000001202020E6
:10214E0000696E66000D0A006F76660054203D2011
:10215E00004320202020006D696E2000206D6178E4
:10216E0020006E616E00000000009F014809100300
:10217E00130300004000140054000000000075031B
:10218E00AC0310031204E403EE030204000000008B
:0E219E004C084809F5070708C307DE07CD0700
:00000001FF
