:100000000C9462000C948A000C948A000C948A0070
:100010000C948A000C948A000C948A000C948A0038
:100020000C948A000C948A000C948A000C948A0028
:100030000C948A000C948A000C948A000C948A0018
:100040000C945A050C948A000C9452030C9481036E
:100050000C948A000C948A000C948A000C948A00F8
:100060000C948A000C948A000000000024002700F1
:100070002A0000000000250028002B0000000000DE
:1000800023002600290004040404040404040202DA
:100090000202020203030303030301020408102007
:1000A0004080010204081020010204081020000012
:1000B0000008000201000003040700000000000027
:1000C0000000B20311241FBECFEFD8E0DEBFCDBFCA
:1000D00011E0A0E0B1E0E6E0F0E102C005900D9291
:1000E000A432B107D9F721E0A4E2B1E001C01D922A
:1000F000AA3CB207E1F710E0C2E6D0E004C02197C5
:10010000FE010E94D607C136D107C9F70E944805F3
:100110000C9479070C940000CF92DF92EF92FF923B
:100120000F931F93E82FF92F05C0015011092109E2
:10013000310961F1908196239417B9F305C00150FC
:1001400011092109310911F1908196239413F7CFF8
:10015000C12CD12CE12CF12C0AC08FEFC81AD80A7F
:10016000E80AF80A0C151D052E053F0579F0808177
:100170008623841791F36C2D7D2D8E2D9F2D1F913D
:100180000F91FF90EF90DF90CF90089560E070E0C6
:1001900080E090E01F910F91FF90EF90DF90CF9063
:1001A0000895EF92FF920F931F9389E061E00E9400
:1001B000B8068AE0612D0E94B80688E061E00E94DE
:1001C000B806A0E0B1E005E011E08D9161E07D01AD
:1001D0000E94B806D701A017B107B9F784E291E0F1
:1001E00040E855E260E070E026E00E9402021F91C4
:1001F0000F91FF90EF900895EF92FF921F9311E0FF
:1002000089E061E00E94EA068AE090E00E946806C8
:1002100089E0612D0E94EA0620E335E740E050E0E6
:100220008AE061E07A010E944007A701611571052B
:100230008407950709F0112D11702AE330E07A0147
:100240000E94B707103011F027EE33E01030C701DD
:1002500009F4CA01B9011F91FF90EF9008958F92A0
:100260009F92AF92BF92CF92DF92EF92FF920F9345
:100270001F9300E011E085E091E05C010E94FC002A
:10028000D8018B017C0185E091E04C01F501819161
:1002900091915F019C01330F330B232F61E0801795
:1002A00091072E053F050CF4612D61708D916D0154
:1002B0000E94EA06D601C401A817B90739F784E2FB
:1002C00091E02AE030E0A801B7010E94F40440E088
:1002D00050E081E00B301105E406F5060CF0812DAD
:1002E0008170803019F088E061E045C081E005361A
:1002F0001105E406F50608F4812D8170803009F0BF
:1003000038C0EDB7FEB7E450F0400FB6F894FEBF2A
:100310000FBEEDBF5483438384EF91E092838183CA
:100320002AE030E0E4E6F0E0A8E2B0E0B801C7017E
:100330006A017F0186015D014D010E941005EDB744
:10034000FEB734960FB6F894FEBF0FBEEDBF8B011B
:1003500088E061E00E94EA06B401C6010E94AF0590
:1003600088E0612D0E94EA06C801990F990B892F38
:1003700008C088E0612D0E94EA0680E090E004E673
:1003800010E0B8010E94AF051F910F91FF90EF9010
:10039000DF90CF90BF90AF909F908F90089587EAA5
:1003A00093E08115910561F080E090E08115910561
:1003B00039F00E94A7038170803011F00E94000084
:1003C0000895FC01248DA22FBB27A80FB91FA35AA3
:1003D000BF4F2C91348D33953F73348FA689B789E5
:1003E0002C93A089B1892C91237020642C93238DA8
:1003F000348D231731F4FC01A289B3898C918F7D50
:100400008C930895AF92BF92CF92DF92EF92FF92BA
:100410000F931F93122F6B015A017C01F701A089E2
:10042000B18982E08C9381EE20E030E001E0A114FC
:10043000B806C206D30609F0012D017060E079E02C
:100440008DE390E09501A6010E9495072150304070
:10045000404050405695479537952795003021F4F8
:1004600080E121153807A0F0F701A089B1891C921D
:1004700060E874E88EE190E09501A6010E9495077E
:10048000215030404040504056954795379527952C
:10049000F701A485B5853C93A685B7852C93108E6E
:1004A000A489B5891C93A289B3898C9180618C93AE
:1004B000A289B3898C9188608C93A289B3898C912D
:1004C00080688C93A289B3898C918F7D8C931F91C6
:1004D0000F91FF90EF90DF90CF90BF90AF90089575
:1004E000FC01818D9927228D3327821B930B8F73FB
:1004F00090700895FC01218D328D231719F48FEF30
:100500009FEF0895FC01228D3327280F391FF90131
:10051000858D99270895FC01218D328D231719F4BB
:100520008FEF9FEF0895FC01228DAF01E22FFF278F
:10053000E80FF91F858DFA01928D93959F73928F25
:1005400099270895FC01438D242F3327548D852F3F
:100550009927451720F0821B930BCF96089520957D
:100560003095820F931F08950F931F93CF93DF93BE
:10057000CDB7DEB722970FB6F894DEBF0FBECDBF62
:100580008C01F801808D813009F028C0F801FA83D0
:10059000E983A289B3898C918072803061F4E9810A
:1005A000FA819D01A089B1898C91D901E981FA81F3
:1005B0008074803099F48FB788235AF38C918072BD
:1005C000803039F3A089B1898C918072803009F331
:1005D000C8010E94E101E981FA81DBCF22960FB6C2
:1005E000F894DEBF0FBECDBFDF91CF911F910F9169
:1005F0000895CF92DF92EF92FF920F931F93162FE1
:100600007C0181E0F701808F838D948D891741F4FF
:10061000F701A089B1898C918072803009F02CC0DB
:10062000F701038D03950F73848D081791F467010B
:100630008FB7882352F0F701A089B1898C9180721D
:10064000803019F0C7010E94E101F601848D08177E
:1006500079F3F701838DA82FBB27AE0DBF1DA35AD9
:10066000BF4F1C938FB7F894038FA289B3899C91D5
:1006700090629C938FBF0DC08FB7F894F701A68945
:10068000B7891C93A089B1899C91937090649C93C5
:100690008FBF81E090E01F910F91FF90EF90DF906E
:1006A000CF9008950F920FB60F922F938F939F9331
:1006B000AF93BF93A0913401B09135019C91A0916B
:1006C0003A01B0913B018C919470903089F49091F3
:1006D0003D0193959F7320913E01921749F020911F
:1006E0003D01A22FBB27AF5BBE4F8C9390933D0182
:1006F000BF91AF919F918F912F910F900FBE0F904F
:1007000018950F920FB60F921F9211242F933F93BB
:100710004F935F936F937F938F939F93AF93BF9309
:10072000EF93FF9384E291E00E94E101FF91EF914A
:10073000BF91AF919F918F917F916F915F914F91F9
:100740003F912F911F900F900FBE0F90189584E24C
:1007500091E00E9470029C0181E02115310509F4AD
:10076000812D089510923D0110923E0110923F019B
:1007700080E090E090932B0180932A0128EE33E0F3
:10078000309329012093280190932701809326011B
:1007900086EC90E090933B0180933A0182EC90E0EC
:1007A000909339018093380181EC90E09093370168
:1007B0008093360180EC90E0909335018093340172
:1007C00084EC90E0909333018093320185EC90E0CB
:1007D000909331018093300183E191E09093250162
:1007E000809324011092400108958F929F92AF92BE
:1007F000BF92CF92DF92EF92FF920F931F938A01E5
:100800007B016C01011580E090E01105D1F05601EB
:10081000D701A80FB91F6C914C01F501808191811E
:10082000FC0120813181C601F901099581159105ED
:1008300039F0C40101960817190751F7C80101C022
:10084000C4011F910F91FF90EF90DF90CF90BF9068
:10085000AF909F908F900895AF92BF92CF92DF920A
:10086000EF92FF920F931F936B017A018C012A3054
:10087000310571F021153105C1F4F80180819181B4
:10088000FC0120813181C8016E2DF901099512C04A
:1008900081E09D2D99230AF4812D8170803099F09B
:1008A000C801A701B6012AE003C0C801A701B6012B
:1008B0000E947C041F910F91FF90EF90DF90CF90EA
:1008C000BF90AF900895F80180819181FC01208153
:1008D0003181C8016DE2F90109955C0160E070E0C9
:1008E000AB014E195F096C097D09C8012AE00E941D
:1008F0007C048A0D9B1DDECF2F923F924F925F9218
:100900006F927F928F929F92AF92BF92CF92DF921F
:10091000EF92FF920F931F93CF93DF93CDB7DEB784
:10092000A1970FB6F894DEBF0FBECDBF7B015A0171
:100930004C0119A28AE0223008F0822FDE01909645
:10094000C82EDD2400E010E01D01B501C7019601AD
:10095000A8010E94950739012A01B301C20196013D
:10096000A8010E948507C501861B970B90E38A307A
:100970000CF097E3980FD1019C9381E0AC14BD0477
:10098000E006F10608F4812D817011978030530143
:10099000720109F0D9CF1196CD018D010E947C071B
:1009A000AC01F40180819181FC0122813381C40179
:1009B000B801F9010995A1960FB6F894DEBF0FBEF4
:1009C000CDBFDF91CF911F910F91FF90EF90DF90FE
:1009D000CF90BF90AF909F908F907F906F905F90DF
:1009E0004F903F902F900895EF92FF920F931F9397
:1009F0008C010E942C047C01F80180819181FC0112
:100A00002281338161E271E042E050E0C801F901E6
:100A100009958E0D9F1D1F910F91FF90EF900895E6
:100A20006F927F928F929F92EF92FF920F931F93FC
:100A3000CF93DF93CDB7DEB74A013901AC019B01FB
:100A40006D857E858F8598896A197B098C099D093A
:100A500026193709480959090E948507E618F70839
:100A6000080919099701A8010E94B7072A0D3B1D23
:100A70004C1D5D1DB901CA01DF91CF911F910F91EE
:100A8000FF90EF909F908F907F906F9008950895C2
:100A90000F931F930E9473060E9447050E94D10086
:100AA0000FEC11E00E942F0101151105D9F30E94EE
:100AB000CF01F8CF0F920FB60F922F933F934F9322
:100AC0005F936F937F938F939F93EF93FF938091A7
:100AD000C901982F9D5F9D3710F421E001C022E0ED
:100AE00030E04091C5015091C60160E070E0E091B6
:100AF000C701F091C801420F531FE61FF71FF09383
:100B0000C801E093C7015093C6014093C5018A57BD
:100B10009D3708F4892F8093C9018091C10190917C
:100B2000C2012091C3013091C4018F5F9F4F2F4FAD
:100B30003F4F3093C4012093C3019093C20180932F
:100B4000C101FF91EF919F918F917F916F915F9183
:100B50004F913F912F910F900FBE0F9018956F926C
:100B60007F928F929F92AF92BF92CF92DF92EF923D
:100B7000FF920F931F93AFB7F8944091C301509128
:100B8000C4012091C1013091C201E6B5F5B3AFBFF8
:100B900000E010E0A1E061156B01710558018007CC
:100BA000910709F0A12DA170A03009F084C061E087
:100BB000EF3F09F4612D7C01F6236F2F7727260F75
:100BC000371F8501401F511F220F331F441F220F63
:100BD000331F441F542F432F322F212D8E2E992443
:100BE000880C991C001F111F880C991C001F111FD5
:100BF000042B152B822A932A0E94B706D7018FB7A0
:100C0000F8944091C3015091C4012091C1013091E9
:100C1000C20196B565B38FBF81E09F3F71E009F4D3
:100C2000712D67237727260F371F75014E1D5F1D16
:100C3000220F331F441F220F331F441F542F432FF3
:100C4000722F612D292F3327220F331FEE2DEE1F18
:100C5000FF2DFF1F220F331FEE1FFF1F3401261928
:100C60003709E00BF10B260F371FE41FF51F283E55
:100C700093E03907EE05FF0508F0812D8170803083
:100C8000C1F4960121503040A040B04081E02115D0
:100C9000690131059501A207B30709F4812D81701F
:100CA000940128513C4F49010F4F1F4F803019F0DC
:100CB000A6CF7D01A1CF1F910F91FF90EF90DF9004
:100CC000CF90BF90AF909F908F907F906F9008953E
:100CD0008230910538F0880F991F880F991F05976A
:100CE0000197F1F70895789484B5826084BD84B546
:100CF000816084BD85B5826085BD85B5816085BD17
:100D000080916E00816080936E00109281008091CE
:100D10008100826080938100809181008160809356
:100D20008100809180008160809380008091B1007B
:100D300084608093B1008091B00081608093B000A6
:100D400080917A00846080937A0080917A0082603A
:100D500080937A0080917A00816080937A008091FC
:100D60007A00806880937A001092C10008950895F7
:100D70009927FC01E656FF4F24918A579F4FFC01AB
:100D80008491803009F425C09927880F991FFC01B0
:100D9000E859FF4FA591B5918E589F4FFC014591A1
:100DA00055918FB7F894623051F0603071F420950E
:100DB0009C9192239C93DA019C91922308C0922FDC
:100DC00090953C9139233C93DA019C91922B9C9312
:100DD0008FBF0895EF92FF920F931F93282F332711
:100DE000F901E255FF4F8491F901E656FF4FF49067
:100DF0002A573F4FF9019491903009F41BC0092FF5
:100E00001127803021F0E62E0E941F076E2D000F63
:100E1000111F0E581F4FF801A591B5918FB7F89487
:100E2000603019F09C919F2903C0F0949C919F2100
:100E30009C938FBF1F910F91FF90EF900895843086
:100E400044F4813079F0823089F08330C1F48FE747
:100E500007C0883049F0873061F0843081F48FED2D
:100E6000A0E809C08FE703C08FED04C08FEDA4E4B4
:100E700002C08FE7A0EBB0E09C9198239C9308956B
:100E80000F931F93DA01462F9927FC01E656FF4F77
:100E900064914030412D09F0462F8A579F4FFC0145
:100EA0008491E82FFF27EE0FFF1FE458FF4F859135
:100EB0009591BF7089019D010E948C0020E030E077
:100EC000E1E0611571058207930709F0E12DE170FA
:100ED0006F5F7F4F8F4F9F4FE030A90109F4AB0147
:100EE000E03011F49F709C01BA01C9011F910F916C
:100EF0000895F8940C94F607FC0101900020E9F79E
:100F0000809590958E0F9F1F0895DB018F939F937F
:100F10000E94DC07BF91AF91A29F800D911DA39FFE
:100F2000900DB29F900D11240895A1E21A2EAA1BD4
:100F3000BB1BFD010DC0AA1FBB1FEE1FFF1FA21789
:100F4000B307E407F50720F0A21BB30BE40BF50B86
:100F5000661F771F881F991F1A9469F7609570950F
:100F6000809590959B01AC01BD01CF010895052EA0
:100F700097FB1EF400940E94CE0757FD07D00E94F5
:100F8000950707FC03D04EF40C94CE07509540957E
:100F9000309521953F4F4F4F5F4F08959095809525
:100FA000709561957F4F8F4F9F4F0895EE0FFF1FF4
:100FB0000590F491E02D09940E94E707A59F900DFC
:100FC000B49F900DA49F800D911D11240895A29FA0
:100FD000B001B39FC001A39F700D811D1124911D0D
:100FE000B29F700D811D1124911D089510E0C2E67D
:100FF000D0E004C0FE010E94D6072196C236D10778
:06100000C9F7F894FFCFD0
:101006000304050607640046002D0019000A0000C7
:10101600000000F902F503A202B40270028B027A04
:04102600020D0A00AD
:00000001FF
