:100000000C9463000C948B000C948B000C948B006C
:100010000C948B000C948B000C948B000C940B07AD
:100020000C948B000C948B000C948B000C948B0024
:100030000C948B000C948B000C948B000C948B0014
:100040000C94C7070C948B000C9405030C94340398
:100050000C948B000C948B000C948B000C948B00F4
:100060000C948B000C948B000200000000240027ED
:10007000002A0000000000250028002B00000000DE
:1000800000230026002900040404040404040402DC
:100090000202020202030303030303010204081025
:1000A00020408001020408102001020408102000F2
:1000B0000000080002010000030407000000000027
:1000C00000000000650311241FBECFEFD8E0DEBFA3
:1000D000CDBF11E0A0E0B1E0E6EFF6E102C005908F
:1000E0000D92A633B107D9F721E0A6E3B1E001C034
:1000F0001D92A13FB207E1F710E0C3E6D0E004C0D3
:100100002197FE010E940F0BC236D107C9F70E944A
:10011000B5070C94B20A0C940000EF92FF920F9373
:100120001F93DC01A45FBE4F8C91082F1127A0E024
:10013000B0E0B8018A2F8A951AF076956795FBCFC3
:1001400061707D01AB5FBE4F8C910E947F09D7012A
:100150001196A730B10569F71F910F91FF90EF90AD
:100160000895EF92FF920F931F93A5E0B1E00CE08A
:1001700011E08D9161E07D010E944D09D701A0172A
:10018000B107B9F78CE062E00E944D0986E391E087
:1001900040E855E200E010E0B80126E00E94B50119
:1001A000C8010E948D001F910F91FF90EF9008955C
:1001B0002F923F924F925F926F927F928F929F9277
:1001C000AF92BF92CF92DF92EF92FF920F931F9365
:1001D0008CE00E94D5098130910509F482C00E940B
:1001E0001C080E94760704E110E087E090E05C01C3
:1001F00080E090E03C018CED95E02C0185E090E002
:100200001C0187E696E66C0161E070E04301C401E1
:100210009501A4010E9485077B01C7010E948D0002
:1002200089E0B2019101A4010E94E704C801990F7D
:10023000990B892FB8010E944F089BE01902802D6D
:100240001124099F912D1124980F892F9927982FF8
:100250008827602D7727682B792BCB01990F990B75
:10026000892F9601A4010E94BE0A292F220F212D59
:10027000221F312D9595879595958795820F931F10
:10028000013121E012078C010CF4BECF60E773E06E
:1002900026E930E040E050E089E00E94E70406E310
:1002A00011E069E171E0C8010E94DF034AE050E01B
:1002B000C801B7010E94C6048CE00E94D5098115CF
:1002C000910579F485E090E07C0100E010E0B70151
:1002D000C8010E944F088CE00E94D5098115910544
:1002E000B1F31F910F91FF90EF90DF90CF90BF90EF
:1002F000AF909F908F907F906F905F904F903F90C6
:100300002F9008958AE593E08115910561F080E0D2
:1003100090E08115910539F00E945A038170803078
:1003200011F00E9400000895FC01248DA22FBB272C
:10033000A80FB91FA35ABF4F2C91348D33953F732B
:10034000348FA689B7892C93A089B1892C91237009
:1003500020642C93238D348D231731F4FC01A28962
:10036000B3898C918F7D8C930895AF92BF92CF9279
:10037000DF92EF92FF920F931F93122F6B015A019E
:100380007C01F701A089B18982E08C9381EE20E0A5
:1003900030E001E0A114B806C206D30609F0012D31
:1003A000017060E079E08DE390E09501A6010E9484
:1003B000CE0A2150304040405040569547953795E1
:1003C0002795003021F480E121153807A0F0F701CE
:1003D000A089B1891C9260E874E88EE190E09501F3
:1003E000A6010E94CE0A2150304040405040569510
:1003F000479537952795F701A485B5853C93A68544
:10040000B7852C93108EA489B5891C93A289B389D2
:100410008C9180618C93A289B3898C9188608C9334
:10042000A289B3898C9180688C93A289B3898C91BD
:100430008F7D8C931F910F91FF90EF90DF90CF9065
:10044000BF90AF900895FC01818D9927228D3327AD
:10045000821B930B8F7390700895FC01218D328D58
:10046000231719F48FEF9FEF0895FC01228D332796
:10047000280F391FF901858D99270895FC01218DD9
:10048000328D231719F48FEF9FEF0895FC01228D11
:10049000AF01E22FFF27E80FF91F858DFA01928D3A
:1004A00093959F73928F99270895FC01438D242F74
:1004B0003327548D852F9927451720F0821B930BE6
:1004C000CF96089520953095820F931F08950F932E
:1004D0001F93CF93DF93CDB7DEB722970FB6F89473
:1004E000DEBF0FBECDBF8C01F801808D813009F0D9
:1004F00028C0F801FA83E983A289B3898C918072BC
:10050000803061F4E981FA819D01A089B1898C91E3
:10051000D901E981FA818074803099F48FB78823FA
:100520005AF38C918072803039F3A089B1898C9113
:100530008072803009F3C8010E949401E981FA8138
:10054000DBCF22960FB6F894DEBF0FBECDBFDF9192
:10055000CF911F910F910895CF92DF92EF92FF926A
:100560000F931F93162F7C0181E0F701808F838DFD
:10057000948D891741F4F701A089B1898C9180721B
:10058000803009F02CC0F701038D03950F73848D23
:10059000081791F467018FB7882352F0F701A089FB
:1005A000B1898C918072803019F0C7010E9494014A
:1005B000F601848D081779F3F701838DA82FBB27E7
:1005C000AE0DBF1DA35ABF4F1C938FB7F894038F76
:1005D000A289B3899C9190629C938FBF0DC08FB705
:1005E000F894F701A689B7891C93A089B1899C91D9
:1005F000937090649C938FBF81E090E01F910F9166
:10060000FF90EF90DF90CF9008950F920FB60F926A
:100610002F938F939F93AF93BF93A0914601B09177
:1006200047019C91A0914C01B0914D018C91947027
:10063000903089F490914F0193959F7320915001D0
:10064000921749F020914F01A22FBB27AD5ABE4F00
:100650008C9390934F01BF91AF919F918F912F9168
:100660000F900FBE0F9018950F920FB60F921F921A
:1006700011242F933F934F935F936F937F938F93A7
:100680009F93AF93BF93EF93FF9386E391E00E9414
:100690009401FF91EF91BF91AF919F918F917F91C5
:1006A0006F915F914F913F912F911F900F900FBECF
:1006B0000F90189586E391E00E9423029C0181E04F
:1006C0002115310509F4812D089510924F011092E2
:1006D00050011092510180E090E090933D01809391
:1006E0003C0128EE33E030933B0120933A01909394
:1006F00039018093380186EC90E090934D0180930E
:100700004C0182EC90E090934B0180934A0181EC84
:1007100090E0909349018093480180EC90E09093A1
:1007200047018093460184EC90E0909345018093CB
:10073000440185EC90E0909343018093420187E26D
:1007400091E0909337018093360110925201089501
:100750008F929F92AF92BF92CF92DF92EF92FF92D1
:100760000F931F938A017B016C01011580E090E0DB
:100770001105D1F05601D701A80FB91F6C914C019A
:10078000F50180819181FC0120813181C601F9014F
:1007900009958115910539F0C401019608171907CB
:1007A00051F7C80101C0C4011F910F91FF90EF9054
:1007B000DF90CF90BF90AF909F908F900895EF9271
:1007C000FF920F931F938B017C010115110579F0A6
:1007D000C8010E94B50AAC01F70180819181FC013A
:1007E00022813381C701B801F901099502C080E077
:1007F00090E01F910F91FF90EF900895AF92BF92FC
:10080000CF92DF92EF92FF920F931F936B017A01C9
:100810008C012A30310571F021153105C1F4F80140
:1008200080819181FC0120813181C8016E2DF90107
:10083000099512C081E09D2D99230AF4812D8170C4
:10084000803099F0C801A701B6012AE003C0C801B1
:10085000A701B6010E944E041F910F91FF90EF90E7
:10086000DF90CF90BF90AF900895F8018081918183
:10087000FC0120813181C8016DE2F90109955C011B
:1008800060E070E0AB014E195F096C097D09C80199
:100890002AE00E944E048A0D9B1DDECF2F923F92CC
:1008A0004F925F926F927F928F929F92AF92BF9280
:1008B000CF92DF92EF92FF920F931F93CF93DF932C
:1008C000CDB7DEB7A1970FB6F894DEBF0FBECDBF90
:1008D0007B015A014C0119A28AE0223008F0822FD4
:1008E000DE019096C82EDD2400E010E01D01B50168
:1008F000C7019601A8010E94CE0A39012A01B3015D
:10090000C2019601A8010E94BE0AC501861B970B71
:1009100090E38A300CF097E3980FD1019C9381E02B
:10092000AC14BD04E006F10608F4812D8170119726
:1009300080305301720109F0D9CF1196CD018D019C
:100940000E94B50AAC01F40180819181FC012281F1
:100950003381C401B801F9010995A1960FB6F89445
:10096000DEBF0FBECDBFDF91CF911F910F91FF90E2
:10097000EF90DF90CF90BF90AF909F908F907F903F
:100980006F905F904F903F902F900895EF92FF925D
:100990000F931F939A01AB018C01770F770B672F91
:1009A0000E94FE037C01F80180819181FC0122817B
:1009B000338166E171E042E050E0C801F901099538
:1009C0008E0D9F1D1F910F91FF90EF9008957F92C4
:1009D0008F929F92AF92BF92CF92DF92EF92FF924F
:1009E0000F931F93CF93DF93CDB7DEB721970FB649
:1009F000F894DEBF0FBECDBF7A0169018B019091E3
:100A00000401981791F4E8E6F0E02491922F9923DD
:100A10000AF4B8C161E0B22E0E944D098B2D898382
:100A20008260823009F05FC0B0C09F3F09F0AAC168
:100A300080930401E8E6F0E02491223009F47BC0C1
:100A4000213009F425C0203009F0E0CF298314BCFF
:100A500015BC94B5926094BD95B5916095BD282F55
:100A60003327F901E957FF4F9491E92FFF27EE0F44
:100A7000FF1FED58FF4F459155915093D80140937A
:100A8000D70125563F4FF90194919093D9017AC02F
:100A90001092800010928100909181009860909354
:100AA000810090918100916090938100282F3327DD
:100AB000F901E957FF4F9491E92FFF27EE0FFF1F30
:100AC000ED58FF4F459155915093DF014093DE0162
:100AD00025563F4FF90194919093E00191E099835D
:100AE00061E00E944D0960E074E284EF90E040E034
:100AF00050E098010E94CE0AD9010B37110510F081
:100B000081E001C087E090E08030798139F056952E
:100B10004795B795A7958A958030C9F71197713099
:100B200009F0EAC09D0171E083E00B37110508F080
:100B300081E0A1E8DBC029831092B0001092B100DF
:100B40009091B00092609093B0009091B10091604C
:100B50009093B100282F3327F901E957FF4F949163
:100B6000E92FFF27EE0FFF1FED58FF4F45915591DD
:100B70005093E6014093E50125563F4FF9019491CA
:100B80009093E70161E00E944D0960E074E284EF18
:100B900090E040E050E098014A010E94CE0A5901DD
:100BA000852F8695842F8795BB2DB795AA2DA79560
:100BB00081E099E70939190778F49FE004331907B0
:100BC00091E0698108F0912D623009F0812D982320
:100BD000903029F464E004C01197798181C066E007
:100BE00070E06030D501FA0149F0D501FA01F695BF
:100BF000E795B795A7956A956030C9F761E0A13090
:100C0000B6079401E207F307798108F0612D61705E
:100C1000917083E0903009F482E0603009F05FC0A9
:100C200081E0073E180791E008F0912D723009F03D
:100C3000812D9823903011F4E7E001C0E8E0F0E066
:100C400083E0703009F084E0782E9501DA01E0301D
:100C500031F0B695A79537952795EA95F8CF2150AD
:100C60003040A040B04061E02115F9013607940101
:100C7000A207B30708F0612D6170917085E0903094
:100C800009F4872D6030DF0109F02AC0652F6695D1
:100C9000B42FB795AB2DA795712DA150B0406040F2
:100CA000704091E0A115B9076805790508F0912D0C
:100CB000917084E07981703009F086E0903081F4A1
:100CC00085E0703009F087E056954795B7945695C2
:100CD0004795B79456954795B794AB2DB42F119778
:100CE0009D01703011F0A1EB01C0A5E4B0E09C9132
:100CF000987F982B9C93D90120E030E081E0C114CB
:100D0000D104E206F30609F0812D81708030A1F450
:100D1000000F111F980100E010E0B72EB601C701C7
:100D2000A8017D010E94BE0A28EE33E0A8010E94BE
:100D3000CE0AD7017B2D03C02FEF3FEFA901723000
:100D400099F0713041F07030E9F4A7BDAEE6B0E043
:100D500083ED91E00FC0B0938900A0938800AFE6C7
:100D6000B0E08AED91E006C0A093B300A0E7B0E048
:100D700081EE91E0FC0131832083538342838C9187
:100D800082608C9321960FB6F894DEBF0FBECDBF64
:100D9000DF91CF911F910F91FF90EF90DF90CF9057
:100DA000BF90AF909F908F907F900895823069F0B0
:100DB000813029F08030C9F410926E00089580913E
:100DC0006F008D7F80936F000895809170008D7FFC
:100DD0008093700081E08093B0008091B100887FA3
:100DE00084608093B1001092B30008951F93182F70
:100DF0008FEF90910401911731F4E8E6F0E09491BF
:100E000080930401892F0E94D606812F612D0E94B4
:100E10007F091F9108950F920FB60F921F92112410
:100E20002F933F934F935F936F937F938F939F93F2
:100E3000AF93BF93EF93FF934091E1015091E20193
:100E400080E090E06091E3017091E40121E04115C0
:100E500051056807790709F0212D2170203009F02C
:100E600030C02091E701A091E501B091E6013C91ED
:100E700032273C934091E1015091E20121E06091E1
:100E8000E3017091E40114161506860797070CF428
:100E9000212D21702030C9F48091E1019091E2016F
:100EA0002091E3013091E401815090402040304096
:100EB0003093E4012093E3019093E2018093E101F8
:100EC00004C0809104010E94F606FF91EF91BF914A
:100ED000AF919F918F917F916F915F914F913F91D2
:100EE0002F911F900F900FBE0F90189540E050E08B
:100EF00021E0611571058407950709F0212D217006
:100F0000203011F40E94A10A0895AF92BF92CF92AF
:100F1000DF92EF92FF920F931F936A0159018C01A8
:100F20007B0181E0EA14FB040C051D050CF4812D06
:100F30008170803071F4AE18BF08C00AD10A0E94D7
:100F4000510A9501A6010E94F00AE60EF71E081F3D
:100F5000191FB701C8011F910F91FF90EF90DF900B
:100F6000CF90BF90AF90089508950F931F930E9464
:100F700008090E94B4070E94B10002E811E00E9433
:100F8000D80001151105D9F30E948201F8CF0F9204
:100F90000FB60F922F933F934F935F936F937F936F
:100FA0008F939F93EF93FF938091F001982F9D5F14
:100FB0009D3710F421E001C022E030E04091EC01C7
:100FC0005091ED0160E070E0E091EE01F091EF01F1
:100FD000420F531FE61FF71FF093EF01E093EE015E
:100FE0005093ED014093EC018A579D3708F4892F07
:100FF0008093F0018091E8019091E9012091EA014C
:101000003091EB018F5F9F4F2F4F3F4F3093EB019C
:101010002093EA019093E9018093E801FF91EF9119
:101020009F918F917F916F915F914F913F912F9100
:101030000F900FBE0F9018959FB7F8946091EA013A
:101040007091EB014091E8015091E90126B585B31B
:101050009FBF91E02F3F09F4912D8923E82FFF27AF
:1010600080E090E04E0F5F1F681F791F440F551FEF
:10107000661F440F551F661FF62FE52F542F412D75
:10108000622F7727660F771F881F991F660F771FBC
:10109000881F991F642B752B8E2B9F2B08956F92A1
:1010A0007F928F929F92AF92BF92CF92DF92EF92F8
:1010B000FF920F931F93AFB7F8944091EA015091BC
:1010C000EB012091E8013091E901E6B5F5B3AFBF3E
:1010D00000E010E0A1E061156B0171055801800787
:1010E000910709F0A12DA170A03009F084C061E042
:1010F000EF3F09F4612D7C01F6236F2F7727260F30
:10110000371F8501401F511F220F331F441F220F1D
:10111000331F441F542F432F322F212D8E2E9924FD
:10112000880C991C001F111F880C991C001F111F8F
:10113000042B152B822A932A0E944C09D7018FB7C2
:10114000F8944091EA015091EB012091E80130912F
:10115000E90196B565B38FBF81E09F3F71E009F467
:10116000712D67237727260F371F75014E1D5F1DD1
:10117000220F331F441F220F331F441F542F432FAE
:10118000722F612D292F3327220F331FEE2DEE1FD3
:10119000FF2DFF1F220F331FEE1FFF1F34012619E3
:1011A0003709E00BF10B260F371FE41FF51F283E10
:1011B00093E03907EE05FF0508F0812D817080303E
:1011C000C1F4960121503040A040B04081E021158B
:1011D000690131059501A207B30709F4812D8170DA
:1011E000940128513C4F49010F4F1F4F803019F097
:1011F000A6CF7D01A1CF1F910F91FF90EF90DF90BF
:10120000CF90BF90AF909F908F907F906F900895F8
:10121000789484B5826084BD84B5816084BD85B5D1
:10122000826085BD85B5816085BD80916E008160DD
:1012300080936E0010928100809181008260809383
:101240008100809181008160809381008091800085
:101250008160809380008091B10084608093B100B0
:101260008091B00081608093B00080917A008460AA
:1012700080937A0080917A00826080937A008091D6
:101280007A00816080937A0080917A0080688093F0
:101290007A001092C100089508959927FC01E5563F
:1012A000FF4F249189579F4FFC018491803009F4AE
:1012B00025C09927880F991FFC01E759FF4FA59179
:1012C000B5918D589F4FFC01459155918FB7F8947A
:1012D000623051F0603071F420959C9192239C9380
:1012E000DA019C91922308C0922F90953C9139236A
:1012F0003C93DA019C91922B9C938FBF0895EF92BF
:10130000FF920F931F93282F3327F901E155FF4FC9
:101310008491F901E556FF4FF49029573F4FF901A9
:101320009491903009F41BC0092F1127803021F0CF
:10133000E62E0E94B4096E2D000F111F0D581F4F8D
:10134000F801A591B5918FB7F894603019F09C9190
:101350009F2903C0F0949C919F219C938FBF1F9164
:101360000F91FF90EF900895843044F4813079F02C
:10137000823089F08330C1F48FE707C0883049F0AC
:10138000873061F0843081F48FEDA0E809C08FE7E9
:1013900003C08FED04C08FEDA4E402C08FE7A0EB83
:1013A000B0E09C9198239C930895FF920F931F9314
:1013B000282F3327F901E155FF4F8491F901E556B4
:1013C000FF4FF49029573F4FF9019491903009F461
:1013D00015C0092F1127803011F00E94B409000FA9
:1013E000111F03581F4FF801A591B5919C919F21A2
:1013F00081E0903009F4812D992702C080E090E0CF
:101400001F910F91FF900895AAE0B0E0EAE0FAE0A2
:101410000C94470B89839A83FC01608171818281DE
:10142000938100977040604021F464E279ED8BE590
:1014300097E02DE133EF41E050E00E94F00A2B836A
:101440003C834D835E839B01AC01A7EAB1E40E941B
:10145000150B6F83788789879A87ACEEB4EF2B8161
:101460003C814D815E810E94320B2F8138854985F8
:101470005A85260F371F481F591FC901DA01B7FFC8
:1014800003C00197A040B048E981FA81808391832D
:10149000A283B383BC01CD019F772A96E2E00C942E
:1014A000630BA8E0B0E0E7E5FAE00C94470B60912D
:1014B0000001709101018091020190910301009758
:1014C0007040604021F464E279ED8BE597E02DE116
:1014D00033EF41E050E00E94F00A29833A834B83C6
:1014E0005C839B01AC01A7EAB1E40E94150B6D83FC
:1014F0007E838F839887ACEEB4EF29813A814B814C
:101500005C810E94320B2D813E814F815885260FD0
:10151000371F481F591FC901DA01B7FF03C00197E0
:10152000A040B0488093000190930101A093020174
:10153000B0930301BC01CD019F772896E2E00C94A3
:10154000630BA0E0B0E0E7EAFAE00C94470B60938D
:101550000001709301018093020190930301E2E086
:101560000C94630BF8940C946E0BFC01019000201A
:10157000E9F7809590958E0F9F1F0895DB018F935B
:101580009F930E94150BBF91AF91A29F800D911D5B
:10159000A39F900DB29F900D11240895A1E21A2EE1
:1015A000AA1BBB1BFD010DC0AA1FBB1FEE1FFF1F07
:1015B000A217B307E407F50720F0A21BB30BE40B57
:1015C000F50B661F771F881F991F1A9469F760959E
:1015D0007095809590959B01AC01BD01CF01089558
:1015E000052E97FB1EF400940E94070B57FD07D0B1
:1015F0000E94CE0A07FC03D04EF40C94070B5095C2
:101600004095309521953F4F4F4F5F4F08959095EE
:101610008095709561957F4F8F4F9F4F0895EE0F86
:10162000FF1F0590F491E02D09940E94200BA59FC7
:10163000900DB49F900DA49F800D911D11240895CD
:10164000A29FB001B39FC001A39F700D811D112403
:10165000911DB29F700D811D1124911D0895B7FF3A
:101660000C94150B0E94150B821B930B08952F925F
:101670003F924F925F926F927F928F929F92AF9222
:10168000BF92CF92DF92EF92FF920F931F93CF936F
:10169000DF93CDB7DEB7CA1BDB0B0FB6F894DEBF06
:1016A0000FBECDBF09942A88398848885F846E842C
:1016B0007D848C849B84AA84B984C884DF80EE8076
:1016C000FD800C811B81AA81B981CE0FD11D0FB67F
:1016D000F894DEBF0FBECDBFED01089510E0C3E664
:1016E000D0E004C0FE010E940F0B2196C336D10743
:0616F000C9F7F894FFCFDA
:1016F60001000000FF020304050607083F065B4FD2
:10170600666D7D077F6F0D0A0057797061646C6F97
:101716003A200000000000AC02A80355026702232D
:06172600023E022D02004C
:00000001FF
