:100000000C9462000C948A000C948A000C948A0070
:100010000C948A000C948A000C948A000C948A0038
:100020000C948A000C948A000C948A000C948A0028
:100030000C948A000C948A000C948A000C948A0018
:100040000C9459050C948A000C942D030C945C03B9
:100050000C948A000C948A000C948A000C948A00F8
:100060000C948A000C948A000000000024002700F1
:100070002A0000000000250028002B0000000000DE
:1000800023002600290004040404040404040202DA
:100090000202020203030303030301020408102007
:1000A0004080010204081020010204081020000012
:1000B0000008000201000003040700000000000027
:1000C00000008D0311241FBECFEFD8E0DEBFCDBFEF
:1000D00011E0A0E0B1E0E4E9F0E102C005900D928A
:1000E000AE32B107D9F721E0AEE2B1E001C01D9216
:1000F000A43DB207E1F710E0C2E6D0E004C02197CA
:10010000FE010E941D08C136D107C9F70E944705AC
:100110000C94C0070C94000086E0612D0E946A07D1
:100120008AE0612D0E946A0785E061E00E946A070B
:1001300089E061E00E946A07089585E061E00E941D
:10014000380786E061E00E94380789E061E00E949C
:1001500038078AE061E00E9438070E948C008EE236
:1001600091E040E855E260E070E026E00E94DD01A9
:1001700008952F923F924F925F926F927F928F924B
:100180009F92AF92BF92CF92DF92EF92FF920F9326
:100190001F938EE00E94B706EDB7FEB7E450F04023
:1001A0000FB6F894FEBF0FBEEDBF00E010E0148361
:1001B00003832FEF30E029013283218322E0813055
:1001C00092073C012CF440E052E0481B590B03C05D
:1001D000AC01405052404A01990C9908892C28E200
:1001E00030E0EFEFF1E01A01BA01C401A8017F018C
:1001F000580168010E940F05EDB7FEB734960FB69F
:10020000F894FEBF0FBEEDBF81E099230AF0812D67
:100210008170803009F050C0EDB7FEB7E450F04077
:100220000FB6F894FEBF0FBEEDBF14830383C20167
:100230009283818328E230E0EFEFF1E0B101C40165
:10024000A8017F01580168010E940F05EDB7FEB7B4
:1002500034960FB6F894FEBF0FBEEDBF21E06115D6
:100260007207800791070CF4212D2170203009F0CE
:1002700024C0EDB7FEB7E450F0400FB6F894FEBFCF
:100280000FBEEDBF148303835282418228E230E027
:10029000EFEFF1E0B101C401A8017F01580168014D
:1002A0000E940F05EDB7FEB734960FB6F894FEBF67
:1002B0000FBEEDBF2B0101C028010E948C0082E31C
:1002C00090E00E94670682E09301293238071CF013
:1002D0001AE085E006C081E0283D380754F416E0B6
:1002E00089E0612D0E946A07812FB2010E94D50624
:1002F000930181E0283D38071CF06AE071E002C0FC
:1003000063E171E082E02932380714F061E071E0C6
:100310000EE211E0C8010E9407044AE050E0C80163
:10032000B2010E94EE0468EC70E080E090E00E9470
:10033000AE051F910F91FF90EF90DF90CF90BF908F
:10034000AF909F908F907F906F905F904F903F9075
:100350002F90089582E893E08115910561F080E087
:1003600090E08115910539F00E9482038170803000
:1003700011F00E9400000895FC01248DA22FBB27DC
:10038000A80FB91FA35ABF4F2C91348D33953F73DB
:10039000348FA689B7892C93A089B1892C912370B9
:1003A00020642C93238D348D231731F4FC01A28912
:1003B000B3898C918F7D8C930895AF92BF92CF9229
:1003C000DF92EF92FF920F931F93122F6B015A014E
:1003D0007C01F701A089B18982E08C9381EE20E055
:1003E00030E001E0A114B806C206D30609F0012DE1
:1003F000017060E079E08DE390E09501A6010E9434
:10040000DC07215030404040504056954795379585
:100410002795003021F480E121153807A0F0F7017D
:10042000A089B1891C9260E874E88EE190E09501A2
:10043000A6010E94DC0721503040404050405695B4
:10044000479537952795F701A485B5853C93A685F3
:10045000B7852C93108EA489B5891C93A289B38982
:100460008C9180618C93A289B3898C9188608C93E4
:10047000A289B3898C9180688C93A289B3898C916D
:100480008F7D8C931F910F91FF90EF90DF90CF9015
:10049000BF90AF900895FC01818D9927228D33275D
:1004A000821B930B8F7390700895FC01218D328D08
:1004B000231719F48FEF9FEF0895FC01228D332746
:1004C000280F391FF901858D99270895FC01218D89
:1004D000328D231719F48FEF9FEF0895FC01228DC1
:1004E000AF01E22FFF27E80FF91F858DFA01928DEA
:1004F00093959F73928F99270895FC01438D242F24
:100500003327548D852F9927451720F0821B930B95
:10051000CF96089520953095820F931F08950F93DD
:100520001F93CF93DF93CDB7DEB722970FB6F89422
:10053000DEBF0FBECDBF8C01F801808D813009F088
:1005400028C0F801FA83E983A289B3898C9180726B
:10055000803061F4E981FA819D01A089B1898C9193
:10056000D901E981FA818074803099F48FB78823AA
:100570005AF38C918072803039F3A089B1898C91C3
:100580008072803009F3C8010E94BC01E981FA81C0
:10059000DBCF22960FB6F894DEBF0FBECDBFDF9142
:1005A000CF911F910F910895CF92DF92EF92FF921A
:1005B0000F931F93162F7C0181E0F701808F838DAD
:1005C000948D891741F4F701A089B1898C918072CB
:1005D000803009F02CC0F701038D03950F73848DD3
:1005E000081791F467018FB7882352F0F701A089AB
:1005F000B1898C918072803019F0C7010E94BC01D2
:10060000F601848D081779F3F701838DA82FBB2796
:10061000AE0DBF1DA35ABF4F1C938FB7F894038F25
:10062000A289B3899C9190629C938FBF0DC08FB7B4
:10063000F894F701A689B7891C93A089B1899C9188
:10064000937090649C938FBF81E090E01F910F9115
:10065000FF90EF90DF90CF9008950F920FB60F921A
:100660002F938F939F93AF93BF93A0913E01B0912F
:100670003F019C91A0914401B09145018C919470EF
:10068000903089F49091470193959F732091480190
:10069000921749F020914701A22FBB27A55BBE4FBF
:1006A0008C9390934701BF91AF919F918F912F9120
:1006B0000F900FBE0F9018950F920FB60F921F92CA
:1006C00011242F933F934F935F936F937F938F9357
:1006D0009F93AF93BF93EF93FF938EE291E00E94BD
:1006E000BC01FF91EF91BF91AF919F918F917F914D
:1006F0006F915F914F913F912F911F900F900FBE7F
:100700000F9018958EE291E00E944B029C0181E0CF
:100710002115310509F4812D089510924701109299
:1007200048011092490180E090E090933501809358
:10073000340128EE33E0309333012093320190935B
:1007400031018093300186EC90E0909345018093D5
:10075000440182EC90E0909343018093420181EC4C
:1007600090E0909341018093400180EC90E0909361
:100770003F0180933E0184EC90E090933D01809393
:100780003C0185EC90E090933B0180933A018FE12E
:1007900091E090932F0180932E0110924A010895C9
:1007A0008F929F92AF92BF92CF92DF92EF92FF9281
:1007B0000F931F938A017B016C01011580E090E08B
:1007C0001105D1F05601D701A80FB91F6C914C014A
:1007D000F50180819181FC0120813181C601F901FF
:1007E00009958115910539F0C4010196081719077B
:1007F00051F7C80101C0C4011F910F91FF90EF9004
:10080000DF90CF90BF90AF909F908F900895EF9220
:10081000FF920F931F938B017C010115110579F055
:10082000C8010E94C307AC01F70180819181FC01DE
:1008300022813381C701B801F901099502C080E026
:1008400090E01F910F91FF90EF900895AF92BF92AB
:10085000CF92DF92EF92FF920F931F936B017A0179
:100860008C012A30310571F021153105C1F4F801F0
:1008700080819181FC0120813181C8016E2DF901B7
:10088000099512C081E09D2D99230AF4812D817074
:10089000803099F0C801A701B6012AE003C0C80161
:1008A000A701B6010E9476041F910F91FF90EF906F
:1008B000DF90CF90BF90AF900895F8018081918133
:1008C000FC0120813181C8016DE2F90109955C01CB
:1008D00060E070E0AB014E195F096C097D09C80149
:1008E0002AE00E9476048A0D9B1DDECF2F923F9254
:1008F0004F925F926F927F928F929F92AF92BF9230
:10090000CF92DF92EF92FF920F931F93CF93DF93DB
:10091000CDB7DEB7A1970FB6F894DEBF0FBECDBF3F
:100920007B015A014C0119A28AE0223008F0822F83
:10093000DE019096C82EDD2400E010E01D01B50117
:10094000C7019601A8010E94DC0739012A01B30101
:10095000C2019601A8010E94CC07C501861B970B16
:1009600090E38A300CF097E3980FD1019C9381E0DB
:10097000AC14BD04E006F10608F4812D81701197D6
:1009800080305301720109F0D9CF1196CD018D014C
:100990000E94C307AC01F40180819181FC01228196
:1009A0003381C401B801F9010995A1960FB6F894F5
:1009B000DEBF0FBECDBFDF91CF911F910F91FF9092
:1009C000EF90DF90CF90BF90AF909F908F907F90EF
:1009D0006F905F904F903F902F900895EF92FF920D
:1009E0000F931F939A01AB018C01770F770B672F41
:1009F0000E9426047C01F80180819181FC01228102
:100A0000338160E171E042E050E0C801F9010995ED
:100A10008E0D9F1D1F910F91FF90EF9008956F9283
:100A20007F928F929F92EF92FF920F931F93CF939B
:100A3000DF93CDB7DEB74A013901AC019B016D856B
:100A40007E858F8598896A197B098C099D092619ED
:100A50003709480959090E94CC07E618F708080920
:100A600019099701A8010E94FE072A0D3B1D4C1D84
:100A70005D1DB901CA01DF91CF911F910F91FF90C8
:100A8000EF909F908F907F906F90089508950F93AF
:100A90001F930E9472060E9446050E949D000AEA6A
:100AA00011E00E94B90001151105D9F30E94AA01B5
:100AB000F8CF0F920FB60F922F933F934F935F9300
:100AC0006F937F938F939F93EF93FF938091D301C5
:100AD000982F9D5F9D3710F421E001C022E030E0A7
:100AE0004091CF015091D00160E070E0E091D101E0
:100AF000F091D201420F531FE61FF71FF093D2016E
:100B0000E093D1015093D0014093CF018A579D3794
:100B100008F4892F8093D3018091CB019091CC016F
:100B20002091CD013091CE018F5F9F4F2F4F3F4FCE
:100B30003093CE012093CD019093CC018093CB01D3
:100B4000FF91EF919F918F917F916F915F914F9165
:100B50003F912F910F900FBE0F9018956F927F923B
:100B60008F929F92AF92BF92CF92DF92EF92FF92BD
:100B70000F931F93AFB7F8944091CD015091CE01E0
:100B80002091CB013091CC01E6B5F5B3AFBF00E0C9
:100B900010E0A1E061156B01710558018007910714
:100BA00009F0A12DA170A03009F084C061E0EF3FF1
:100BB00009F4612D7C01F6236F2F7727260F371F4D
:100BC0008501401F511F220F331F441F220F331F67
:100BD000441F542F432F322F212D8E2E9924880C01
:100BE000991C001F111F880C991C001F111F042B3A
:100BF000152B822A932A0E94B606D7018FB7F89444
:100C00004091CD015091CE012091CB013091CC018A
:100C100096B565B38FBF81E09F3F71E009F4712DF8
:100C200067237727260F371F75014E1D5F1D220F83
:100C3000331F441F220F331F441F542F432F722F83
:100C4000612D292F3327220F331FEE2DEE1FFF2D8D
:100C5000FF1F220F331FEE1FFF1F34012619370914
:100C6000E00BF10B260F371FE41FF51F283E93E022
:100C70003907EE05FF0508F0812D81708030C1F441
:100C8000960121503040A040B04081E0211569011B
:100C900031059501A207B30709F4812D81709401F4
:100CA00028513C4F49010F4F1F4F803019F0A6CFFC
:100CB0007D01A1CF1F910F91FF90EF90DF90CF901A
:100CC000BF90AF909F908F907F906F9008958230EB
:100CD000910538F0880F991F880F991F0597019784
:100CE000F1F70895789484B5826084BD84B58160FD
:100CF00084BD85B5826085BD85B5816085BD8091E7
:100D00006E00816080936E0010928100809181005E
:100D10008260809381008091810081608093810056
:100D2000809180008160809380008091B100846018
:100D30008093B1008091B00081608093B000809179
:100D40007A00846080937A0080917A008260809338
:100D50007A0080917A00816080937A0080917A0095
:100D6000806880937A001092C10008950895982FAA
:100D70009E5F8E3008F4982F9770809100018295C5
:100D8000807F880F880F892B80937C0080917A0068
:100D9000806480937A0080917A0080748030D9F7E3
:100DA00080917800909179000895FF920F931F939E
:100DB0008B01F82E61E00E9438070F3F110509F4FE
:100DC00042C00115110519F48F2D612D3EC0EF2D84
:100DD000FF27E255FF4F849184309CF4813009F461
:100DE0001FC0823009F437C0833009F028C08091D9
:100DF00080008068809380001093890000938800B1
:100E000026C0843091F0873009F42AC08830B9F4C4
:100E10008091B00080628093B0000093B40017C04E
:100E200084B5806884BD07BD12C080918000806257
:100E30008093800010938B0000938A0008C00038D4
:100E400011050CF4C1CF8F2D61E00E946A071F913C
:100E50000F91FF90089584B5806284BD08BDF7CFDF
:100E60008091B00080688093B0000093B300EFCF12
:100E70009927FC01E656FF4F24918A579F4FFC01AA
:100E80008491803009F425C09927880F991FFC01AF
:100E9000E859FF4FA591B5918E589F4FFC014591A0
:100EA00055918FB7F894623051F0603071F420950D
:100EB0009C9192239C93DA019C91922308C0922FDB
:100EC00090953C9139233C93DA019C91922B9C9311
:100ED0008FBF0895EF92FF920F931F93282F332710
:100EE000F901E255FF4F8491F901E656FF4FF49066
:100EF0002A573F4FF9019491903009F41BC0092FF4
:100F00001127803021F0E62E0E949F076E2D000FE2
:100F1000111F0E581F4FF801A591B5918FB7F89486
:100F2000603019F09C919F2903C0F0949C919F21FF
:100F30009C938FBF1F910F91FF90EF900895843085
:100F400044F4813079F0823089F08330C1F48FE746
:100F500007C0883049F0873061F0843081F48FED2C
:100F6000A0E809C08FE703C08FED04C08FEDA4E4B3
:100F700002C08FE7A0EBB0E09C9198239C9308956A
:100F8000F8940C943D08FC0101900020E9F780954D
:100F900090958E0F9F1F0895DB018F939F930E9462
:100FA0002308BF91AF91A29F800D911DA39F900D2B
:100FB000B29F900D11240895A1E21A2EAA1BBB1B0B
:100FC000FD010DC0AA1FBB1FEE1FFF1FA217B30715
:100FD000E407F50720F0A21BB30BE40BF50B661F2B
:100FE000771F881F991F1A9469F7609570958095EF
:100FF00090959B01AC01BD01CF010895052E97FB93
:101000001EF400940E94150857FD07D00E94DC07CB
:1010100007FC03D04EF40C9415085095409530957C
:1010200021953F4F4F4F5F4F089590958095709554
:1010300061957F4F8F4F9F4F0895EE0FFF1F0590D3
:10104000F491E02D09940E942E08A59F900DB49F65
:10105000900DA49F800D911D11240895A29FB001B1
:10106000B39FC001A39F700D811D1124911DB29FDC
:10107000700D811D1124911D089510E0C2E6D0E08D
:1010800004C0FE010E941D082196C236D107C9F78F
:04109000F894FFCF02
:10109400017720707261776F200073746F70200085
:1010A4000D0A0077206C65776F200000000000D4E3
:0E10B40002D0037D028F024B0266025502003D
:00000001FF
